{
	"TronexUniverse.sol": {
		"TronexUniverse": {
			"abi": [
				{
					"inputs": [
						{
							"internalType": "address",
							"name": "_usdtAddress",
							"type": "address"
						}
					],
					"stateMutability": "nonpayable",
					"type": "constructor"
				},
				{
					"anonymous": false,
					"inputs": [
						{
							"indexed": false,
							"internalType": "string",
							"name": "fundName",
							"type": "string"
						},
						{
							"indexed": false,
							"internalType": "uint256",
							"name": "amount",
							"type": "uint256"
						}
					],
					"name": "FundCredit",
					"type": "event"
				},
				{
					"anonymous": false,
					"inputs": [
						{
							"indexed": true,
							"internalType": "uint256",
							"name": "userId",
							"type": "uint256"
						},
						{
							"indexed": true,
							"internalType": "uint256",
							"name": "level",
							"type": "uint256"
						},
						{
							"indexed": false,
							"internalType": "uint256",
							"name": "recycleCount",
							"type": "uint256"
						}
					],
					"name": "MatrixRecycle",
					"type": "event"
				},
				{
					"anonymous": false,
					"inputs": [
						{
							"indexed": true,
							"internalType": "address",
							"name": "previousOwner",
							"type": "address"
						},
						{
							"indexed": true,
							"internalType": "address",
							"name": "newOwner",
							"type": "address"
						}
					],
					"name": "OwnershipTransferred",
					"type": "event"
				},
				{
					"anonymous": false,
					"inputs": [
						{
							"indexed": true,
							"internalType": "uint256",
							"name": "userId",
							"type": "uint256"
						},
						{
							"indexed": true,
							"internalType": "uint256",
							"name": "level",
							"type": "uint256"
						},
						{
							"indexed": false,
							"internalType": "uint256",
							"name": "amount",
							"type": "uint256"
						}
					],
					"name": "PackagePurchased",
					"type": "event"
				},
				{
					"anonymous": false,
					"inputs": [
						{
							"indexed": true,
							"internalType": "uint256",
							"name": "userId",
							"type": "uint256"
						},
						{
							"indexed": false,
							"internalType": "uint256",
							"name": "amount",
							"type": "uint256"
						},
						{
							"indexed": false,
							"internalType": "string",
							"name": "reason",
							"type": "string"
						}
					],
					"name": "Payout",
					"type": "event"
				},
				{
					"anonymous": false,
					"inputs": [
						{
							"indexed": true,
							"internalType": "uint256",
							"name": "userId",
							"type": "uint256"
						},
						{
							"indexed": false,
							"internalType": "uint256",
							"name": "amount",
							"type": "uint256"
						},
						{
							"indexed": false,
							"internalType": "string",
							"name": "reason",
							"type": "string"
						}
					],
					"name": "PayoutFailed",
					"type": "event"
				},
				{
					"anonymous": false,
					"inputs": [
						{
							"indexed": true,
							"internalType": "address",
							"name": "user",
							"type": "address"
						},
						{
							"indexed": true,
							"internalType": "uint256",
							"name": "referrerId",
							"type": "uint256"
						},
						{
							"indexed": false,
							"internalType": "uint256",
							"name": "userId",
							"type": "uint256"
						}
					],
					"name": "Registration",
					"type": "event"
				},
				{
					"anonymous": false,
					"inputs": [
						{
							"indexed": true,
							"internalType": "uint256",
							"name": "userId",
							"type": "uint256"
						},
						{
							"indexed": false,
							"internalType": "uint256",
							"name": "level",
							"type": "uint256"
						}
					],
					"name": "TestingDollarUsed",
					"type": "event"
				},
				{
					"anonymous": false,
					"inputs": [
						{
							"indexed": true,
							"internalType": "uint256",
							"name": "userId",
							"type": "uint256"
						},
						{
							"indexed": false,
							"internalType": "uint256",
							"name": "amount",
							"type": "uint256"
						}
					],
					"name": "ZeroRiskClaim",
					"type": "event"
				},
				{
					"inputs": [],
					"name": "ADMIN_ID",
					"outputs": [
						{
							"internalType": "uint256",
							"name": "",
							"type": "uint256"
						}
					],
					"stateMutability": "view",
					"type": "function"
				},
				{
					"inputs": [],
					"name": "ZERO_RISK_CAP",
					"outputs": [
						{
							"internalType": "uint256",
							"name": "",
							"type": "uint256"
						}
					],
					"stateMutability": "view",
					"type": "function"
				},
				{
					"inputs": [],
					"name": "ZERO_RISK_DAILY_LIMIT",
					"outputs": [
						{
							"internalType": "uint256",
							"name": "",
							"type": "uint256"
						}
					],
					"stateMutability": "view",
					"type": "function"
				},
				{
					"inputs": [
						{
							"internalType": "address",
							"name": "",
							"type": "address"
						}
					],
					"name": "addressToId",
					"outputs": [
						{
							"internalType": "uint256",
							"name": "",
							"type": "uint256"
						}
					],
					"stateMutability": "view",
					"type": "function"
				},
				{
					"inputs": [
						{
							"internalType": "uint256",
							"name": "_userId",
							"type": "uint256"
						},
						{
							"internalType": "uint256",
							"name": "_level",
							"type": "uint256"
						}
					],
					"name": "adminActivateSlot",
					"outputs": [],
					"stateMutability": "nonpayable",
					"type": "function"
				},
				{
					"inputs": [],
					"name": "adminExtractStuckFunds",
					"outputs": [],
					"stateMutability": "nonpayable",
					"type": "function"
				},
				{
					"inputs": [
						{
							"internalType": "uint256",
							"name": "_amount",
							"type": "uint256"
						}
					],
					"name": "adminWithdrawRoyalty",
					"outputs": [],
					"stateMutability": "nonpayable",
					"type": "function"
				},
				{
					"inputs": [
						{
							"internalType": "uint256",
							"name": "_referrerId",
							"type": "uint256"
						}
					],
					"name": "basicRegistration",
					"outputs": [],
					"stateMutability": "nonpayable",
					"type": "function"
				},
				{
					"inputs": [
						{
							"internalType": "uint256",
							"name": "_level",
							"type": "uint256"
						}
					],
					"name": "buyNewLevel",
					"outputs": [],
					"stateMutability": "nonpayable",
					"type": "function"
				},
				{
					"inputs": [],
					"name": "claimZeroRisk",
					"outputs": [],
					"stateMutability": "nonpayable",
					"type": "function"
				},
				{
					"inputs": [
						{
							"internalType": "uint256",
							"name": "_userId",
							"type": "uint256"
						},
						{
							"internalType": "uint256",
							"name": "_level",
							"type": "uint256"
						}
					],
					"name": "getMatrixInfo",
					"outputs": [
						{
							"internalType": "uint256",
							"name": "currentReferrer",
							"type": "uint256"
						},
						{
							"internalType": "uint256[]",
							"name": "firstLevel",
							"type": "uint256[]"
						},
						{
							"internalType": "uint256[]",
							"name": "secondLevel",
							"type": "uint256[]"
						},
						{
							"internalType": "uint256",
							"name": "recycleCount",
							"type": "uint256"
						}
					],
					"stateMutability": "view",
					"type": "function"
				},
				{
					"inputs": [
						{
							"internalType": "uint256",
							"name": "_userId",
							"type": "uint256"
						}
					],
					"name": "getUserInfo",
					"outputs": [
						{
							"internalType": "address",
							"name": "wallet",
							"type": "address"
						},
						{
							"internalType": "uint256",
							"name": "referrerId",
							"type": "uint256"
						},
						{
							"internalType": "uint256",
							"name": "totalEarnings",
							"type": "uint256"
						},
						{
							"internalType": "uint256",
							"name": "totalTeamSize",
							"type": "uint256"
						},
						{
							"internalType": "uint256",
							"name": "activeTeamSize",
							"type": "uint256"
						},
						{
							"internalType": "uint256",
							"name": "activeLevelsCount",
							"type": "uint256"
						},
						{
							"internalType": "uint256",
							"name": "earnedFromZeroRisk",
							"type": "uint256"
						}
					],
					"stateMutability": "view",
					"type": "function"
				},
				{
					"inputs": [],
					"name": "lastUserId",
					"outputs": [
						{
							"internalType": "uint256",
							"name": "",
							"type": "uint256"
						}
					],
					"stateMutability": "view",
					"type": "function"
				},
				{
					"inputs": [],
					"name": "owner",
					"outputs": [
						{
							"internalType": "address",
							"name": "",
							"type": "address"
						}
					],
					"stateMutability": "view",
					"type": "function"
				},
				{
					"inputs": [
						{
							"internalType": "uint256",
							"name": "",
							"type": "uint256"
						}
					],
					"name": "packagePrice",
					"outputs": [
						{
							"internalType": "uint256",
							"name": "",
							"type": "uint256"
						}
					],
					"stateMutability": "view",
					"type": "function"
				},
				{
					"inputs": [
						{
							"internalType": "uint256",
							"name": "_referrerId",
							"type": "uint256"
						}
					],
					"name": "registration",
					"outputs": [],
					"stateMutability": "nonpayable",
					"type": "function"
				},
				{
					"inputs": [],
					"name": "royaltyFundBalance",
					"outputs": [
						{
							"internalType": "uint256",
							"name": "",
							"type": "uint256"
						}
					],
					"stateMutability": "view",
					"type": "function"
				},
				{
					"inputs": [],
					"name": "totalPayingUsers",
					"outputs": [
						{
							"internalType": "uint256",
							"name": "",
							"type": "uint256"
						}
					],
					"stateMutability": "view",
					"type": "function"
				},
				{
					"inputs": [],
					"name": "totalRegisteredUsers",
					"outputs": [
						{
							"internalType": "uint256",
							"name": "",
							"type": "uint256"
						}
					],
					"stateMutability": "view",
					"type": "function"
				},
				{
					"inputs": [
						{
							"internalType": "address",
							"name": "newOwner",
							"type": "address"
						}
					],
					"name": "transferOwnership",
					"outputs": [],
					"stateMutability": "nonpayable",
					"type": "function"
				},
				{
					"inputs": [],
					"name": "usdtToken",
					"outputs": [
						{
							"internalType": "contract IERC20",
							"name": "",
							"type": "address"
						}
					],
					"stateMutability": "view",
					"type": "function"
				},
				{
					"inputs": [
						{
							"internalType": "uint256",
							"name": "",
							"type": "uint256"
						}
					],
					"name": "users",
					"outputs": [
						{
							"internalType": "uint256",
							"name": "id",
							"type": "uint256"
						},
						{
							"internalType": "address",
							"name": "wallet",
							"type": "address"
						},
						{
							"internalType": "uint256",
							"name": "referrerId",
							"type": "uint256"
						},
						{
							"internalType": "uint256",
							"name": "totalEarnings",
							"type": "uint256"
						},
						{
							"internalType": "uint256",
							"name": "earnedFromZeroRisk",
							"type": "uint256"
						},
						{
							"internalType": "uint256",
							"name": "lastZeroRiskClaim",
							"type": "uint256"
						},
						{
							"internalType": "uint256",
							"name": "totalTeamSize",
							"type": "uint256"
						},
						{
							"internalType": "uint256",
							"name": "activeTeamSize",
							"type": "uint256"
						},
						{
							"internalType": "uint256",
							"name": "activeLevelsCount",
							"type": "uint256"
						}
					],
					"stateMutability": "view",
					"type": "function"
				},
				{
					"inputs": [],
					"name": "zeroRiskFundBalance",
					"outputs": [
						{
							"internalType": "uint256",
							"name": "",
							"type": "uint256"
						}
					],
					"stateMutability": "view",
					"type": "function"
				}
			],
			"devdoc": {
				"kind": "dev",
				"methods": {},
				"version": 1
			},
			"evm": {
				"assembly": "    /* \"TronexUniverse.sol\":438:18607  contract TronexUniverse {... */\n  mstore(0x40, 0x80)\n    /* \"TronexUniverse.sol\":1283:1287  1000 */\n  0x03e8\n    /* \"TronexUniverse.sol\":1294:1330  uint256 public lastUserId = ADMIN_ID */\n  0x03\n  sstore\n    /* \"TronexUniverse.sol\":1366:1806  uint256[] public packagePrice = [... */\n  mload(0x40)\n  dup1\n  0x0160\n  add\n  0x40\n  mstore\n  dup1\n    /* \"TronexUniverse.sol\":1409:1410  0 */\n  0x00\n    /* \"TronexUniverse.sol\":1366:1806  uint256[] public packagePrice = [... */\n  0xffffffffffffffffff\n  and\n  dup2\n  mstore\n  0x20\n  add\n    /* \"TronexUniverse.sol\":1422:1429  6 ether */\n  0x53444835ec580000\n    /* \"TronexUniverse.sol\":1366:1806  uint256[] public packagePrice = [... */\n  0xffffffffffffffffff\n  and\n  dup2\n  mstore\n  0x20\n  add\n    /* \"TronexUniverse.sol\":1459:1467  10 ether */\n  0x8ac7230489e80000\n    /* \"TronexUniverse.sol\":1366:1806  uint256[] public packagePrice = [... */\n  0xffffffffffffffffff\n  and\n  dup2\n  mstore\n  0x20\n  add\n    /* \"TronexUniverse.sol\":1497:1505  20 ether */\n  0x01158e460913d00000\n    /* \"TronexUniverse.sol\":1366:1806  uint256[] public packagePrice = [... */\n  0xffffffffffffffffff\n  and\n  dup2\n  mstore\n  0x20\n  add\n    /* \"TronexUniverse.sol\":1535:1543  40 ether */\n  0x022b1c8c1227a00000\n    /* \"TronexUniverse.sol\":1366:1806  uint256[] public packagePrice = [... */\n  0xffffffffffffffffff\n  and\n  dup2\n  mstore\n  0x20\n  add\n    /* \"TronexUniverse.sol\":1573:1581  80 ether */\n  0x04563918244f400000\n    /* \"TronexUniverse.sol\":1366:1806  uint256[] public packagePrice = [... */\n  0xffffffffffffffffff\n  and\n  dup2\n  mstore\n  0x20\n  add\n    /* \"TronexUniverse.sol\":1611:1620  160 ether */\n  0x08ac7230489e800000\n    /* \"TronexUniverse.sol\":1366:1806  uint256[] public packagePrice = [... */\n  0xffffffffffffffffff\n  and\n  dup2\n  mstore\n  0x20\n  add\n    /* \"TronexUniverse.sol\":1650:1659  320 ether */\n  0x1158e460913d000000\n    /* \"TronexUniverse.sol\":1366:1806  uint256[] public packagePrice = [... */\n  0xffffffffffffffffff\n  and\n  dup2\n  mstore\n  0x20\n  add\n    /* \"TronexUniverse.sol\":1689:1698  640 ether */\n  0x22b1c8c1227a000000\n    /* \"TronexUniverse.sol\":1366:1806  uint256[] public packagePrice = [... */\n  0xffffffffffffffffff\n  and\n  dup2\n  mstore\n  0x20\n  add\n    /* \"TronexUniverse.sol\":1728:1738  1280 ether */\n  0x4563918244f4000000\n    /* \"TronexUniverse.sol\":1366:1806  uint256[] public packagePrice = [... */\n  0xffffffffffffffffff\n  and\n  dup2\n  mstore\n  0x20\n  add\n    /* \"TronexUniverse.sol\":1768:1778  2560 ether */\n  0x8ac7230489e8000000\n    /* \"TronexUniverse.sol\":1366:1806  uint256[] public packagePrice = [... */\n  0xffffffffffffffffff\n  and\n  dup2\n  mstore\n  pop\n  0x05\n  swap1\n  0x0b\n  tag_1\n  swap3\n  swap2\n  swap1\n  tag_2\n  jump\t// in\ntag_1:\n  pop\n    /* \"TronexUniverse.sol\":3187:3599  constructor(address _usdtAddress) {... */\n  callvalue\n  dup1\n  iszero\n  tag_3\n  jumpi\n  revert(0x00, 0x00)\ntag_3:\n  pop\n  mload(0x40)\n  sub(codesize, bytecodeSize)\n  dup1\n  bytecodeSize\n  dup4\n  codecopy\n  dup2\n  dup2\n  add\n  0x40\n  mstore\n  dup2\n  add\n  swap1\n  tag_4\n  swap2\n  swap1\n  tag_5\n  jump\t// in\ntag_4:\n    /* \"TronexUniverse.sol\":3240:3250  msg.sender */\n  caller\n    /* \"TronexUniverse.sol\":3232:3237  owner */\n  0x04\n  0x00\n    /* \"TronexUniverse.sol\":3232:3250  owner = msg.sender */\n  0x0100\n  exp\n  dup2\n  sload\n  dup2\n  0xffffffffffffffffffffffffffffffffffffffff\n  mul\n  not\n  and\n  swap1\n  dup4\n  0xffffffffffffffffffffffffffffffffffffffff\n  and\n  mul\n  or\n  swap1\n  sstore\n  pop\n    /* \"TronexUniverse.sol\":3280:3292  _usdtAddress */\n  dup1\n    /* \"TronexUniverse.sol\":3261:3270  usdtToken */\n  0x00\n  0x00\n    /* \"TronexUniverse.sol\":3261:3293  usdtToken = IERC20(_usdtAddress) */\n  0x0100\n  exp\n  dup2\n  sload\n  dup2\n  0xffffffffffffffffffffffffffffffffffffffff\n  mul\n  not\n  and\n  swap1\n  dup4\n  0xffffffffffffffffffffffffffffffffffffffff\n  and\n  mul\n  or\n  swap1\n  sstore\n  pop\n    /* \"TronexUniverse.sol\":1283:1287  1000 */\n  0x03e8\n    /* \"TronexUniverse.sol\":3314:3319  users */\n  0x02\n    /* \"TronexUniverse.sol\":3314:3329  users[ADMIN_ID] */\n  0x00\n    /* \"TronexUniverse.sol\":1283:1287  1000 */\n  0x03e8\n    /* \"TronexUniverse.sol\":3314:3329  users[ADMIN_ID] */\n  dup2\n  mstore\n  0x20\n  add\n  swap1\n  dup2\n  mstore\n  0x20\n  add\n  0x00\n  keccak256\n    /* \"TronexUniverse.sol\":3314:3332  users[ADMIN_ID].id */\n  0x00\n  add\n    /* \"TronexUniverse.sol\":3314:3343  users[ADMIN_ID].id = ADMIN_ID */\n  dup2\n  swap1\n  sstore\n  pop\n    /* \"TronexUniverse.sol\":3379:3384  owner */\n  0x04\n  0x00\n  swap1\n  sload\n  swap1\n  0x0100\n  exp\n  swap1\n  div\n  0xffffffffffffffffffffffffffffffffffffffff\n  and\n    /* \"TronexUniverse.sol\":3354:3359  users */\n  0x02\n    /* \"TronexUniverse.sol\":3354:3369  users[ADMIN_ID] */\n  0x00\n    /* \"TronexUniverse.sol\":1283:1287  1000 */\n  0x03e8\n    /* \"TronexUniverse.sol\":3354:3369  users[ADMIN_ID] */\n  dup2\n  mstore\n  0x20\n  add\n  swap1\n  dup2\n  mstore\n  0x20\n  add\n  0x00\n  keccak256\n    /* \"TronexUniverse.sol\":3354:3376  users[ADMIN_ID].wallet */\n  0x01\n  add\n  0x00\n    /* \"TronexUniverse.sol\":3354:3384  users[ADMIN_ID].wallet = owner */\n  0x0100\n  exp\n  dup2\n  sload\n  dup2\n  0xffffffffffffffffffffffffffffffffffffffff\n  mul\n  not\n  and\n  swap1\n  dup4\n  0xffffffffffffffffffffffffffffffffffffffff\n  and\n  mul\n  or\n  swap1\n  sstore\n  pop\n    /* \"TronexUniverse.sol\":3424:3425  0 */\n  0x00\n    /* \"TronexUniverse.sol\":3395:3400  users */\n  0x02\n    /* \"TronexUniverse.sol\":3395:3410  users[ADMIN_ID] */\n  0x00\n    /* \"TronexUniverse.sol\":1283:1287  1000 */\n  0x03e8\n    /* \"TronexUniverse.sol\":3395:3410  users[ADMIN_ID] */\n  dup2\n  mstore\n  0x20\n  add\n  swap1\n  dup2\n  mstore\n  0x20\n  add\n  0x00\n  keccak256\n    /* \"TronexUniverse.sol\":3395:3421  users[ADMIN_ID].referrerId */\n  0x02\n  add\n    /* \"TronexUniverse.sol\":3395:3425  users[ADMIN_ID].referrerId = 0 */\n  dup2\n  swap1\n  sstore\n  pop\n    /* \"TronexUniverse.sol\":3472:3474  10 */\n  0x0a\n    /* \"TronexUniverse.sol\":3436:3441  users */\n  0x02\n    /* \"TronexUniverse.sol\":3436:3451  users[ADMIN_ID] */\n  0x00\n    /* \"TronexUniverse.sol\":1283:1287  1000 */\n  0x03e8\n    /* \"TronexUniverse.sol\":3436:3451  users[ADMIN_ID] */\n  dup2\n  mstore\n  0x20\n  add\n  swap1\n  dup2\n  mstore\n  0x20\n  add\n  0x00\n  keccak256\n    /* \"TronexUniverse.sol\":3436:3469  users[ADMIN_ID].activeLevelsCount */\n  0x09\n  add\n    /* \"TronexUniverse.sol\":3436:3474  users[ADMIN_ID].activeLevelsCount = 10 */\n  dup2\n  swap1\n  sstore\n  pop\n    /* \"TronexUniverse.sol\":1283:1287  1000 */\n  0x03e8\n    /* \"TronexUniverse.sol\":3486:3497  addressToId */\n  0x01\n    /* \"TronexUniverse.sol\":3486:3504  addressToId[owner] */\n  0x00\n    /* \"TronexUniverse.sol\":3498:3503  owner */\n  0x04\n  0x00\n  swap1\n  sload\n  swap1\n  0x0100\n  exp\n  swap1\n  div\n  0xffffffffffffffffffffffffffffffffffffffff\n  and\n    /* \"TronexUniverse.sol\":3486:3504  addressToId[owner] */\n  0xffffffffffffffffffffffffffffffffffffffff\n  and\n  0xffffffffffffffffffffffffffffffffffffffff\n  and\n  dup2\n  mstore\n  0x20\n  add\n  swap1\n  dup2\n  mstore\n  0x20\n  add\n  0x00\n  keccak256\n    /* \"TronexUniverse.sol\":3486:3515  addressToId[owner] = ADMIN_ID */\n  dup2\n  swap1\n  sstore\n  pop\n    /* \"TronexUniverse.sol\":3559:3560  1 */\n  0x01\n    /* \"TronexUniverse.sol\":3536:3556  totalRegisteredUsers */\n  0x08\n    /* \"TronexUniverse.sol\":3536:3560  totalRegisteredUsers = 1 */\n  dup2\n  swap1\n  sstore\n  pop\n    /* \"TronexUniverse.sol\":3590:3591  1 */\n  0x01\n    /* \"TronexUniverse.sol\":3571:3587  totalPayingUsers */\n  0x09\n    /* \"TronexUniverse.sol\":3571:3591  totalPayingUsers = 1 */\n  dup2\n  swap1\n  sstore\n  pop\n    /* \"TronexUniverse.sol\":3187:3599  constructor(address _usdtAddress) {... */\n  pop\n    /* \"TronexUniverse.sol\":438:18607  contract TronexUniverse {... */\n  jump(tag_8)\ntag_2:\n  dup3\n  dup1\n  sload\n  dup3\n  dup3\n  sstore\n  swap1\n  0x00\n  mstore\n  keccak256(0x00, 0x20)\n  swap1\n  dup2\n  add\n  swap3\n  dup3\n  iszero\n  tag_9\n  jumpi\n  swap2\n  0x20\n  mul\n  dup3\n  add\ntag_10:\n  dup3\n  dup2\n  gt\n  iszero\n  tag_11\n  jumpi\n  dup3\n  mload\n  dup3\n  swap1\n  0xffffffffffffffffff\n  and\n  swap1\n  sstore\n  swap2\n  0x20\n  add\n  swap2\n  swap1\n  0x01\n  add\n  swap1\n  jump(tag_10)\ntag_11:\ntag_9:\n  pop\n  swap1\n  pop\n  tag_12\n  swap2\n  swap1\n  tag_13\n  jump\t// in\ntag_12:\n  pop\n  swap1\n  jump\t// out\ntag_13:\ntag_14:\n  dup1\n  dup3\n  gt\n  iszero\n  tag_15\n  jumpi\n  0x00\n  dup2\n  0x00\n  swap1\n  sstore\n  pop\n  0x01\n  add\n  jump(tag_14)\ntag_15:\n  pop\n  swap1\n  jump\t// out\n    /* \"#utility.yul\":88:205   */\ntag_17:\n    /* \"#utility.yul\":197:198   */\n  0x00\n    /* \"#utility.yul\":194:195   */\n  0x00\n    /* \"#utility.yul\":187:199   */\n  revert\n    /* \"#utility.yul\":334:460   */\ntag_19:\n    /* \"#utility.yul\":371:378   */\n  0x00\n    /* \"#utility.yul\":411:453   */\n  0xffffffffffffffffffffffffffffffffffffffff\n    /* \"#utility.yul\":404:409   */\n  dup3\n    /* \"#utility.yul\":400:454   */\n  and\n    /* \"#utility.yul\":389:454   */\n  swap1\n  pop\n    /* \"#utility.yul\":334:460   */\n  swap2\n  swap1\n  pop\n  jump\t// out\n    /* \"#utility.yul\":466:562   */\ntag_20:\n    /* \"#utility.yul\":503:510   */\n  0x00\n    /* \"#utility.yul\":532:556   */\n  tag_29\n    /* \"#utility.yul\":550:555   */\n  dup3\n    /* \"#utility.yul\":532:556   */\n  tag_19\n  jump\t// in\ntag_29:\n    /* \"#utility.yul\":521:556   */\n  swap1\n  pop\n    /* \"#utility.yul\":466:562   */\n  swap2\n  swap1\n  pop\n  jump\t// out\n    /* \"#utility.yul\":568:690   */\ntag_21:\n    /* \"#utility.yul\":641:665   */\n  tag_31\n    /* \"#utility.yul\":659:664   */\n  dup2\n    /* \"#utility.yul\":641:665   */\n  tag_20\n  jump\t// in\ntag_31:\n    /* \"#utility.yul\":634:639   */\n  dup2\n    /* \"#utility.yul\":631:666   */\n  eq\n    /* \"#utility.yul\":621:684   */\n  tag_32\n  jumpi\n    /* \"#utility.yul\":680:681   */\n  0x00\n    /* \"#utility.yul\":677:678   */\n  0x00\n    /* \"#utility.yul\":670:682   */\n  revert\n    /* \"#utility.yul\":621:684   */\ntag_32:\n    /* \"#utility.yul\":568:690   */\n  pop\n  jump\t// out\n    /* \"#utility.yul\":696:839   */\ntag_22:\n    /* \"#utility.yul\":753:758   */\n  0x00\n    /* \"#utility.yul\":784:790   */\n  dup2\n    /* \"#utility.yul\":778:791   */\n  mload\n    /* \"#utility.yul\":769:791   */\n  swap1\n  pop\n    /* \"#utility.yul\":800:833   */\n  tag_34\n    /* \"#utility.yul\":827:832   */\n  dup2\n    /* \"#utility.yul\":800:833   */\n  tag_21\n  jump\t// in\ntag_34:\n    /* \"#utility.yul\":696:839   */\n  swap3\n  swap2\n  pop\n  pop\n  jump\t// out\n    /* \"#utility.yul\":845:1196   */\ntag_5:\n    /* \"#utility.yul\":915:921   */\n  0x00\n    /* \"#utility.yul\":964:966   */\n  0x20\n    /* \"#utility.yul\":952:961   */\n  dup3\n    /* \"#utility.yul\":943:950   */\n  dup5\n    /* \"#utility.yul\":939:962   */\n  sub\n    /* \"#utility.yul\":935:967   */\n  slt\n    /* \"#utility.yul\":932:1051   */\n  iszero\n  tag_36\n  jumpi\n    /* \"#utility.yul\":970:1049   */\n  tag_37\n  tag_17\n  jump\t// in\ntag_37:\n    /* \"#utility.yul\":932:1051   */\ntag_36:\n    /* \"#utility.yul\":1090:1091   */\n  0x00\n    /* \"#utility.yul\":1115:1179   */\n  tag_38\n    /* \"#utility.yul\":1171:1178   */\n  dup5\n    /* \"#utility.yul\":1162:1168   */\n  dup3\n    /* \"#utility.yul\":1151:1160   */\n  dup6\n    /* \"#utility.yul\":1147:1169   */\n  add\n    /* \"#utility.yul\":1115:1179   */\n  tag_22\n  jump\t// in\ntag_38:\n    /* \"#utility.yul\":1105:1179   */\n  swap2\n  pop\n    /* \"#utility.yul\":1061:1189   */\n  pop\n    /* \"#utility.yul\":845:1196   */\n  swap3\n  swap2\n  pop\n  pop\n  jump\t// out\n    /* \"TronexUniverse.sol\":438:18607  contract TronexUniverse {... */\ntag_8:\n  dataSize(sub_0)\n  dup1\n  dataOffset(sub_0)\n  0x00\n  codecopy\n  0x00\n  return\nstop\n\nsub_0: assembly {\n        /* \"TronexUniverse.sol\":438:18607  contract TronexUniverse {... */\n      mstore(0x40, 0x80)\n      callvalue\n      dup1\n      iszero\n      tag_1\n      jumpi\n      revert(0x00, 0x00)\n    tag_1:\n      pop\n      jumpi(tag_2, lt(calldatasize, 0x04))\n      shr(0xe0, calldataload(0x00))\n      dup1\n      0x8da5cb5b\n      gt\n      tag_26\n      jumpi\n      dup1\n      0xe4d3cc50\n      gt\n      tag_27\n      jumpi\n      dup1\n      0xe4d3cc50\n      eq\n      tag_20\n      jumpi\n      dup1\n      0xe54189fc\n      eq\n      tag_21\n      jumpi\n      dup1\n      0xe80e4c9f\n      eq\n      tag_22\n      jumpi\n      dup1\n      0xe9d9e13f\n      eq\n      tag_23\n      jumpi\n      dup1\n      0xeadadf44\n      eq\n      tag_24\n      jumpi\n      dup1\n      0xf2fde38b\n      eq\n      tag_25\n      jumpi\n      jump(tag_2)\n    tag_27:\n      dup1\n      0x8da5cb5b\n      eq\n      tag_14\n      jumpi\n      dup1\n      0x971a6720\n      eq\n      tag_15\n      jumpi\n      dup1\n      0xa11ee6f8\n      eq\n      tag_16\n      jumpi\n      dup1\n      0xa98ad46c\n      eq\n      tag_17\n      jumpi\n      dup1\n      0xcb0e0d7d\n      eq\n      tag_18\n      jumpi\n      dup1\n      0xd379dadf\n      eq\n      tag_19\n      jumpi\n      jump(tag_2)\n    tag_26:\n      dup1\n      0x3c99092b\n      gt\n      tag_28\n      jumpi\n      dup1\n      0x3c99092b\n      eq\n      tag_8\n      jumpi\n      dup1\n      0x40f60304\n      eq\n      tag_9\n      jumpi\n      dup1\n      0x433fc828\n      eq\n      tag_10\n      jumpi\n      dup1\n      0x5396db9d\n      eq\n      tag_11\n      jumpi\n      dup1\n      0x5e9b3882\n      eq\n      tag_12\n      jumpi\n      dup1\n      0x86e95fdf\n      eq\n      tag_13\n      jumpi\n      jump(tag_2)\n    tag_28:\n      dup1\n      0x20fe8e6e\n      eq\n      tag_3\n      jumpi\n      dup1\n      0x348d4487\n      eq\n      tag_4\n      jumpi\n      dup1\n      0x3516dcd1\n      eq\n      tag_5\n      jumpi\n      dup1\n      0x365b98b2\n      eq\n      tag_6\n      jumpi\n      dup1\n      0x3c7afca5\n      eq\n      tag_7\n      jumpi\n    tag_2:\n      revert(0x00, 0x00)\n        /* \"TronexUniverse.sol\":1366:1806  uint256[] public packagePrice = [... */\n    tag_3:\n      tag_29\n      0x04\n      dup1\n      calldatasize\n      sub\n      dup2\n      add\n      swap1\n      tag_30\n      swap2\n      swap1\n      tag_31\n      jump\t// in\n    tag_30:\n      tag_32\n      jump\t// in\n    tag_29:\n      mload(0x40)\n      tag_33\n      swap2\n      swap1\n      tag_34\n      jump\t// in\n    tag_33:\n      mload(0x40)\n      dup1\n      swap2\n      sub\n      swap1\n      return\n        /* \"TronexUniverse.sol\":1294:1330  uint256 public lastUserId = ADMIN_ID */\n    tag_4:\n      tag_35\n      tag_36\n      jump\t// in\n    tag_35:\n      mload(0x40)\n      tag_37\n      swap2\n      swap1\n      tag_34\n      jump\t// in\n    tag_37:\n      mload(0x40)\n      dup1\n      swap2\n      sub\n      swap1\n      return\n        /* \"TronexUniverse.sol\":4381:5324  function registration(uint256 _referrerId) external {... */\n    tag_5:\n      tag_38\n      0x04\n      dup1\n      calldatasize\n      sub\n      dup2\n      add\n      swap1\n      tag_39\n      swap2\n      swap1\n      tag_31\n      jump\t// in\n    tag_39:\n      tag_40\n      jump\t// in\n    tag_38:\n      stop\n        /* \"TronexUniverse.sol\":1198:1235  mapping(uint256 => User) public users */\n    tag_6:\n      tag_41\n      0x04\n      dup1\n      calldatasize\n      sub\n      dup2\n      add\n      swap1\n      tag_42\n      swap2\n      swap1\n      tag_31\n      jump\t// in\n    tag_42:\n      tag_43\n      jump\t// in\n    tag_41:\n      mload(0x40)\n      tag_44\n      swap10\n      swap9\n      swap8\n      swap7\n      swap6\n      swap5\n      swap4\n      swap3\n      swap2\n      swap1\n      tag_45\n      jump\t// in\n    tag_44:\n      mload(0x40)\n      dup1\n      swap2\n      sub\n      swap1\n      return\n        /* \"TronexUniverse.sol\":2144:2179  uint256 public totalRegisteredUsers */\n    tag_7:\n      tag_46\n      tag_47\n      jump\t// in\n    tag_46:\n      mload(0x40)\n      tag_48\n      swap2\n      swap1\n      tag_34\n      jump\t// in\n    tag_48:\n      mload(0x40)\n      dup1\n      swap2\n      sub\n      swap1\n      return\n        /* \"TronexUniverse.sol\":3643:4373  function basicRegistration(uint256 _referrerId) external {... */\n    tag_8:\n      tag_49\n      0x04\n      dup1\n      calldatasize\n      sub\n      dup2\n      add\n      swap1\n      tag_50\n      swap2\n      swap1\n      tag_31\n      jump\t// in\n    tag_50:\n      tag_51\n      jump\t// in\n    tag_49:\n      stop\n        /* \"TronexUniverse.sol\":14986:15330  function adminWithdrawRoyalty(uint256 _amount) external {... */\n    tag_9:\n      tag_52\n      0x04\n      dup1\n      calldatasize\n      sub\n      dup2\n      add\n      swap1\n      tag_53\n      swap2\n      swap1\n      tag_31\n      jump\t// in\n    tag_53:\n      tag_54\n      jump\t// in\n    tag_52:\n      stop\n        /* \"TronexUniverse.sol\":2236:2284  uint256 public constant ZERO_RISK_CAP = 10 ether */\n    tag_10:\n      tag_55\n      tag_56\n      jump\t// in\n    tag_55:\n      mload(0x40)\n      tag_57\n      swap2\n      swap1\n      tag_34\n      jump\t// in\n    tag_57:\n      mload(0x40)\n      dup1\n      swap2\n      sub\n      swap1\n      return\n        /* \"TronexUniverse.sol\":5332:6082  function buyNewLevel(uint256 _level) external {... */\n    tag_11:\n      tag_58\n      0x04\n      dup1\n      calldatasize\n      sub\n      dup2\n      add\n      swap1\n      tag_59\n      swap2\n      swap1\n      tag_31\n      jump\t// in\n    tag_59:\n      tag_60\n      jump\t// in\n    tag_58:\n      stop\n        /* \"TronexUniverse.sol\":2098:2131  uint256 public royaltyFundBalance */\n    tag_12:\n      tag_61\n      tag_62\n      jump\t// in\n    tag_61:\n      mload(0x40)\n      tag_63\n      swap2\n      swap1\n      tag_34\n      jump\t// in\n    tag_63:\n      mload(0x40)\n      dup1\n      swap2\n      sub\n      swap1\n      return\n        /* \"TronexUniverse.sol\":2292:2347  uint256 public constant ZERO_RISK_DAILY_LIMIT = 3 ether */\n    tag_13:\n      tag_64\n      tag_65\n      jump\t// in\n    tag_64:\n      mload(0x40)\n      tag_66\n      swap2\n      swap1\n      tag_34\n      jump\t// in\n    tag_66:\n      mload(0x40)\n      dup1\n      swap2\n      sub\n      swap1\n      return\n        /* \"TronexUniverse.sol\":1337:1357  address public owner */\n    tag_14:\n      tag_67\n      tag_68\n      jump\t// in\n    tag_67:\n      mload(0x40)\n      tag_69\n      swap2\n      swap1\n      tag_70\n      jump\t// in\n    tag_69:\n      mload(0x40)\n      dup1\n      swap2\n      sub\n      swap1\n      return\n        /* \"TronexUniverse.sol\":1248:1287  uint256 public constant ADMIN_ID = 1000 */\n    tag_15:\n      tag_71\n      tag_72\n      jump\t// in\n    tag_71:\n      mload(0x40)\n      tag_73\n      swap2\n      swap1\n      tag_34\n      jump\t// in\n    tag_73:\n      mload(0x40)\n      dup1\n      swap2\n      sub\n      swap1\n      return\n        /* \"TronexUniverse.sol\":2057:2091  uint256 public zeroRiskFundBalance */\n    tag_16:\n      tag_74\n      tag_75\n      jump\t// in\n    tag_74:\n      mload(0x40)\n      tag_76\n      swap2\n      swap1\n      tag_34\n      jump\t// in\n    tag_76:\n      mload(0x40)\n      dup1\n      swap2\n      sub\n      swap1\n      return\n        /* \"TronexUniverse.sol\":1107:1130  IERC20 public usdtToken */\n    tag_17:\n      tag_77\n      tag_78\n      jump\t// in\n    tag_77:\n      mload(0x40)\n      tag_79\n      swap2\n      swap1\n      tag_80\n      jump\t// in\n    tag_79:\n      mload(0x40)\n      dup1\n      swap2\n      sub\n      swap1\n      return\n        /* \"TronexUniverse.sol\":1144:1190  mapping(address => uint256) public addressToId */\n    tag_18:\n      tag_81\n      0x04\n      dup1\n      calldatasize\n      sub\n      dup2\n      add\n      swap1\n      tag_82\n      swap2\n      swap1\n      tag_83\n      jump\t// in\n    tag_82:\n      tag_84\n      jump\t// in\n    tag_81:\n      mload(0x40)\n      tag_85\n      swap2\n      swap1\n      tag_34\n      jump\t// in\n    tag_85:\n      mload(0x40)\n      dup1\n      swap2\n      sub\n      swap1\n      return\n        /* \"TronexUniverse.sol\":16469:17075  function getUserInfo(uint256 _userId) external view returns (... */\n    tag_19:\n      tag_86\n      0x04\n      dup1\n      calldatasize\n      sub\n      dup2\n      add\n      swap1\n      tag_87\n      swap2\n      swap1\n      tag_31\n      jump\t// in\n    tag_87:\n      tag_88\n      jump\t// in\n    tag_86:\n      mload(0x40)\n      tag_89\n      swap8\n      swap7\n      swap6\n      swap5\n      swap4\n      swap3\n      swap2\n      swap1\n      tag_90\n      jump\t// in\n    tag_89:\n      mload(0x40)\n      dup1\n      swap2\n      sub\n      swap1\n      return\n        /* \"TronexUniverse.sol\":17083:17571  function getMatrixInfo(uint256 _userId, uint256 _level) external view returns (... */\n    tag_20:\n      tag_91\n      0x04\n      dup1\n      calldatasize\n      sub\n      dup2\n      add\n      swap1\n      tag_92\n      swap2\n      swap1\n      tag_93\n      jump\t// in\n    tag_92:\n      tag_94\n      jump\t// in\n    tag_91:\n      mload(0x40)\n      tag_95\n      swap5\n      swap4\n      swap3\n      swap2\n      swap1\n      tag_96\n      jump\t// in\n    tag_95:\n      mload(0x40)\n      dup1\n      swap2\n      sub\n      swap1\n      return\n        /* \"TronexUniverse.sol\":12905:14099  function claimZeroRisk() external {... */\n    tag_21:\n      tag_97\n      tag_98\n      jump\t// in\n    tag_97:\n      stop\n        /* \"TronexUniverse.sol\":15338:15847  function adminExtractStuckFunds() external {... */\n    tag_22:\n      tag_99\n      tag_100\n      jump\t// in\n    tag_99:\n      stop\n        /* \"TronexUniverse.sol\":2187:2218  uint256 public totalPayingUsers */\n    tag_23:\n      tag_101\n      tag_102\n      jump\t// in\n    tag_101:\n      mload(0x40)\n      tag_103\n      swap2\n      swap1\n      tag_34\n      jump\t// in\n    tag_103:\n      mload(0x40)\n      dup1\n      swap2\n      sub\n      swap1\n      return\n        /* \"TronexUniverse.sol\":17692:18604  function adminActivateSlot(uint256 _userId, uint256 _level) external {... */\n    tag_24:\n      tag_104\n      0x04\n      dup1\n      calldatasize\n      sub\n      dup2\n      add\n      swap1\n      tag_105\n      swap2\n      swap1\n      tag_93\n      jump\t// in\n    tag_105:\n      tag_106\n      jump\t// in\n    tag_104:\n      stop\n        /* \"TronexUniverse.sol\":15855:16418  function transferOwnership(address newOwner) external {... */\n    tag_25:\n      tag_107\n      0x04\n      dup1\n      calldatasize\n      sub\n      dup2\n      add\n      swap1\n      tag_108\n      swap2\n      swap1\n      tag_83\n      jump\t// in\n    tag_108:\n      tag_109\n      jump\t// in\n    tag_107:\n      stop\n        /* \"TronexUniverse.sol\":1366:1806  uint256[] public packagePrice = [... */\n    tag_32:\n      0x05\n      dup2\n      dup2\n      sload\n      dup2\n      lt\n      tag_110\n      jumpi\n      0x00\n      dup1\n      revert\n    tag_110:\n      swap1\n      0x00\n      mstore\n      keccak256(0x00, 0x20)\n      add\n      0x00\n      swap2\n      pop\n      swap1\n      pop\n      sload\n      dup2\n      jump\t// out\n        /* \"TronexUniverse.sol\":1294:1330  uint256 public lastUserId = ADMIN_ID */\n    tag_36:\n      sload(0x03)\n      dup2\n      jump\t// out\n        /* \"TronexUniverse.sol\":4381:5324  function registration(uint256 _referrerId) external {... */\n    tag_40:\n        /* \"TronexUniverse.sol\":4479:4480  0 */\n      0x00\n        /* \"TronexUniverse.sol\":4452:4463  addressToId */\n      0x01\n        /* \"TronexUniverse.sol\":4452:4475  addressToId[msg.sender] */\n      0x00\n        /* \"TronexUniverse.sol\":4464:4474  msg.sender */\n      caller\n        /* \"TronexUniverse.sol\":4452:4475  addressToId[msg.sender] */\n      0xffffffffffffffffffffffffffffffffffffffff\n      and\n      0xffffffffffffffffffffffffffffffffffffffff\n      and\n      dup2\n      mstore\n      0x20\n      add\n      swap1\n      dup2\n      mstore\n      0x20\n      add\n      0x00\n      keccak256\n      sload\n        /* \"TronexUniverse.sol\":4452:4480  addressToId[msg.sender] == 0 */\n      eq\n        /* \"TronexUniverse.sol\":4444:4503  require(addressToId[msg.sender] == 0, \"Already registered\") */\n      tag_113\n      jumpi\n      mload(0x40)\n      0x08c379a000000000000000000000000000000000000000000000000000000000\n      dup2\n      mstore\n      0x04\n      add\n      tag_114\n      swap1\n      tag_115\n      jump\t// in\n    tag_114:\n      mload(0x40)\n      dup1\n      swap2\n      sub\n      swap1\n      revert\n    tag_113:\n        /* \"TronexUniverse.sol\":4547:4548  0 */\n      0x00\n        /* \"TronexUniverse.sol\":4522:4527  users */\n      0x02\n        /* \"TronexUniverse.sol\":4522:4540  users[_referrerId] */\n      0x00\n        /* \"TronexUniverse.sol\":4528:4539  _referrerId */\n      dup4\n        /* \"TronexUniverse.sol\":4522:4540  users[_referrerId] */\n      dup2\n      mstore\n      0x20\n      add\n      swap1\n      dup2\n      mstore\n      0x20\n      add\n      0x00\n      keccak256\n        /* \"TronexUniverse.sol\":4522:4543  users[_referrerId].id */\n      0x00\n      add\n      sload\n        /* \"TronexUniverse.sol\":4522:4548  users[_referrerId].id != 0 */\n      sub\n        /* \"TronexUniverse.sol\":4514:4569  require(users[_referrerId].id != 0, \"Invalid Referrer\") */\n      tag_116\n      jumpi\n      mload(0x40)\n      0x08c379a000000000000000000000000000000000000000000000000000000000\n      dup2\n      mstore\n      0x04\n      add\n      tag_117\n      swap1\n      tag_118\n      jump\t// in\n    tag_117:\n      mload(0x40)\n      dup1\n      swap2\n      sub\n      swap1\n      revert\n    tag_116:\n        /* \"TronexUniverse.sol\":4590:4604  uint256 amount */\n      0x00\n        /* \"TronexUniverse.sol\":4607:4619  packagePrice */\n      0x05\n        /* \"TronexUniverse.sol\":4620:4621  1 */\n      0x01\n        /* \"TronexUniverse.sol\":4607:4622  packagePrice[1] */\n      dup2\n      sload\n      dup2\n      lt\n      tag_119\n      jumpi\n      tag_120\n      tag_121\n      jump\t// in\n    tag_120:\n    tag_119:\n      swap1\n      0x00\n      mstore\n      keccak256(0x00, 0x20)\n      add\n      sload\n        /* \"TronexUniverse.sol\":4590:4622  uint256 amount = packagePrice[1] */\n      swap1\n      pop\n        /* \"TronexUniverse.sol\":4641:4650  usdtToken */\n      0x00\n      0x00\n      swap1\n      sload\n      swap1\n      0x0100\n      exp\n      swap1\n      div\n      0xffffffffffffffffffffffffffffffffffffffff\n      and\n        /* \"TronexUniverse.sol\":4641:4663  usdtToken.transferFrom */\n      0xffffffffffffffffffffffffffffffffffffffff\n      and\n      0x23b872dd\n        /* \"TronexUniverse.sol\":4664:4674  msg.sender */\n      caller\n        /* \"TronexUniverse.sol\":4684:4688  this */\n      address\n        /* \"TronexUniverse.sol\":4691:4697  amount */\n      dup5\n        /* \"TronexUniverse.sol\":4641:4698  usdtToken.transferFrom(msg.sender, address(this), amount) */\n      mload(0x40)\n      dup5\n      0xffffffff\n      and\n      0xe0\n      shl\n      dup2\n      mstore\n      0x04\n      add\n      tag_123\n      swap4\n      swap3\n      swap2\n      swap1\n      tag_124\n      jump\t// in\n    tag_123:\n      0x20\n      mload(0x40)\n      dup1\n      dup4\n      sub\n      dup2\n      0x00\n      dup8\n      gas\n      call\n      iszero\n      dup1\n      iszero\n      tag_126\n      jumpi\n      returndatacopy(0x00, 0x00, returndatasize)\n      revert(0x00, returndatasize)\n    tag_126:\n      pop\n      pop\n      pop\n      pop\n      mload(0x40)\n      returndatasize\n      not(0x1f)\n      0x1f\n      dup3\n      add\n      and\n      dup3\n      add\n      dup1\n      0x40\n      mstore\n      pop\n      dup2\n      add\n      swap1\n      tag_127\n      swap2\n      swap1\n      tag_128\n      jump\t// in\n    tag_127:\n        /* \"TronexUniverse.sol\":4633:4723  require(usdtToken.transferFrom(msg.sender, address(this), amount), \"USDT transfer failed\") */\n      tag_129\n      jumpi\n      mload(0x40)\n      0x08c379a000000000000000000000000000000000000000000000000000000000\n      dup2\n      mstore\n      0x04\n      add\n      tag_130\n      swap1\n      tag_131\n      jump\t// in\n    tag_130:\n      mload(0x40)\n      dup1\n      swap2\n      sub\n      swap1\n      revert\n    tag_129:\n        /* \"TronexUniverse.sol\":4736:4746  lastUserId */\n      0x03\n      0x00\n        /* \"TronexUniverse.sol\":4736:4748  lastUserId++ */\n      dup2\n      sload\n      dup1\n      swap3\n      swap2\n      swap1\n      tag_132\n      swap1\n      tag_133\n      jump\t// in\n    tag_132:\n      swap2\n      swap1\n      pop\n      sstore\n      pop\n        /* \"TronexUniverse.sol\":4759:4776  uint256 newUserId */\n      0x00\n        /* \"TronexUniverse.sol\":4779:4789  lastUserId */\n      sload(0x03)\n        /* \"TronexUniverse.sol\":4759:4789  uint256 newUserId = lastUserId */\n      swap1\n      pop\n        /* \"TronexUniverse.sol\":4824:4833  newUserId */\n      dup1\n        /* \"TronexUniverse.sol\":4802:4807  users */\n      0x02\n        /* \"TronexUniverse.sol\":4802:4818  users[newUserId] */\n      0x00\n        /* \"TronexUniverse.sol\":4808:4817  newUserId */\n      dup4\n        /* \"TronexUniverse.sol\":4802:4818  users[newUserId] */\n      dup2\n      mstore\n      0x20\n      add\n      swap1\n      dup2\n      mstore\n      0x20\n      add\n      0x00\n      keccak256\n        /* \"TronexUniverse.sol\":4802:4821  users[newUserId].id */\n      0x00\n      add\n        /* \"TronexUniverse.sol\":4802:4833  users[newUserId].id = newUserId */\n      dup2\n      swap1\n      sstore\n      pop\n        /* \"TronexUniverse.sol\":4870:4880  msg.sender */\n      caller\n        /* \"TronexUniverse.sol\":4844:4849  users */\n      0x02\n        /* \"TronexUniverse.sol\":4844:4860  users[newUserId] */\n      0x00\n        /* \"TronexUniverse.sol\":4850:4859  newUserId */\n      dup4\n        /* \"TronexUniverse.sol\":4844:4860  users[newUserId] */\n      dup2\n      mstore\n      0x20\n      add\n      swap1\n      dup2\n      mstore\n      0x20\n      add\n      0x00\n      keccak256\n        /* \"TronexUniverse.sol\":4844:4867  users[newUserId].wallet */\n      0x01\n      add\n      0x00\n        /* \"TronexUniverse.sol\":4844:4880  users[newUserId].wallet = msg.sender */\n      0x0100\n      exp\n      dup2\n      sload\n      dup2\n      0xffffffffffffffffffffffffffffffffffffffff\n      mul\n      not\n      and\n      swap1\n      dup4\n      0xffffffffffffffffffffffffffffffffffffffff\n      and\n      mul\n      or\n      swap1\n      sstore\n      pop\n        /* \"TronexUniverse.sol\":4921:4932  _referrerId */\n      dup3\n        /* \"TronexUniverse.sol\":4891:4896  users */\n      0x02\n        /* \"TronexUniverse.sol\":4891:4907  users[newUserId] */\n      0x00\n        /* \"TronexUniverse.sol\":4897:4906  newUserId */\n      dup4\n        /* \"TronexUniverse.sol\":4891:4907  users[newUserId] */\n      dup2\n      mstore\n      0x20\n      add\n      swap1\n      dup2\n      mstore\n      0x20\n      add\n      0x00\n      keccak256\n        /* \"TronexUniverse.sol\":4891:4918  users[newUserId].referrerId */\n      0x02\n      add\n        /* \"TronexUniverse.sol\":4891:4932  users[newUserId].referrerId = _referrerId */\n      dup2\n      swap1\n      sstore\n      pop\n        /* \"TronexUniverse.sol\":4980:4981  1 */\n      0x01\n        /* \"TronexUniverse.sol\":4943:4948  users */\n      0x02\n        /* \"TronexUniverse.sol\":4943:4959  users[newUserId] */\n      0x00\n        /* \"TronexUniverse.sol\":4949:4958  newUserId */\n      dup4\n        /* \"TronexUniverse.sol\":4943:4959  users[newUserId] */\n      dup2\n      mstore\n      0x20\n      add\n      swap1\n      dup2\n      mstore\n      0x20\n      add\n      0x00\n      keccak256\n        /* \"TronexUniverse.sol\":4943:4977  users[newUserId].activeLevelsCount */\n      0x09\n      add\n        /* \"TronexUniverse.sol\":4943:4981  users[newUserId].activeLevelsCount = 1 */\n      dup2\n      swap1\n      sstore\n      pop\n        /* \"TronexUniverse.sol\":5018:5027  newUserId */\n      dup1\n        /* \"TronexUniverse.sol\":4992:5003  addressToId */\n      0x01\n        /* \"TronexUniverse.sol\":4992:5015  addressToId[msg.sender] */\n      0x00\n        /* \"TronexUniverse.sol\":5004:5014  msg.sender */\n      caller\n        /* \"TronexUniverse.sol\":4992:5015  addressToId[msg.sender] */\n      0xffffffffffffffffffffffffffffffffffffffff\n      and\n      0xffffffffffffffffffffffffffffffffffffffff\n      and\n      dup2\n      mstore\n      0x20\n      add\n      swap1\n      dup2\n      mstore\n      0x20\n      add\n      0x00\n      keccak256\n        /* \"TronexUniverse.sol\":4992:5027  addressToId[msg.sender] = newUserId */\n      dup2\n      swap1\n      sstore\n      pop\n        /* \"TronexUniverse.sol\":5048:5053  users */\n      0x02\n        /* \"TronexUniverse.sol\":5048:5066  users[_referrerId] */\n      0x00\n        /* \"TronexUniverse.sol\":5054:5065  _referrerId */\n      dup5\n        /* \"TronexUniverse.sol\":5048:5066  users[_referrerId] */\n      dup2\n      mstore\n      0x20\n      add\n      swap1\n      dup2\n      mstore\n      0x20\n      add\n      0x00\n      keccak256\n        /* \"TronexUniverse.sol\":5048:5080  users[_referrerId].totalTeamSize */\n      0x07\n      add\n      0x00\n        /* \"TronexUniverse.sol\":5048:5082  users[_referrerId].totalTeamSize++ */\n      dup2\n      sload\n      dup1\n      swap3\n      swap2\n      swap1\n      tag_134\n      swap1\n      tag_133\n      jump\t// in\n    tag_134:\n      swap2\n      swap1\n      pop\n      sstore\n      pop\n        /* \"TronexUniverse.sol\":5093:5098  users */\n      0x02\n        /* \"TronexUniverse.sol\":5093:5111  users[_referrerId] */\n      0x00\n        /* \"TronexUniverse.sol\":5099:5110  _referrerId */\n      dup5\n        /* \"TronexUniverse.sol\":5093:5111  users[_referrerId] */\n      dup2\n      mstore\n      0x20\n      add\n      swap1\n      dup2\n      mstore\n      0x20\n      add\n      0x00\n      keccak256\n        /* \"TronexUniverse.sol\":5093:5126  users[_referrerId].activeTeamSize */\n      0x08\n      add\n      0x00\n        /* \"TronexUniverse.sol\":5093:5128  users[_referrerId].activeTeamSize++ */\n      dup2\n      sload\n      dup1\n      swap3\n      swap2\n      swap1\n      tag_135\n      swap1\n      tag_133\n      jump\t// in\n    tag_135:\n      swap2\n      swap1\n      pop\n      sstore\n      pop\n        /* \"TronexUniverse.sol\":5149:5169  totalRegisteredUsers */\n      0x08\n      0x00\n        /* \"TronexUniverse.sol\":5149:5171  totalRegisteredUsers++ */\n      dup2\n      sload\n      dup1\n      swap3\n      swap2\n      swap1\n      tag_136\n      swap1\n      tag_133\n      jump\t// in\n    tag_136:\n      swap2\n      swap1\n      pop\n      sstore\n      pop\n        /* \"TronexUniverse.sol\":5182:5198  totalPayingUsers */\n      0x09\n      0x00\n        /* \"TronexUniverse.sol\":5182:5200  totalPayingUsers++ */\n      dup2\n      sload\n      dup1\n      swap3\n      swap2\n      swap1\n      tag_137\n      swap1\n      tag_133\n      jump\t// in\n    tag_137:\n      swap2\n      swap1\n      pop\n      sstore\n      pop\n        /* \"TronexUniverse.sol\":5243:5254  _referrerId */\n      dup3\n        /* \"TronexUniverse.sol\":5231:5241  msg.sender */\n      caller\n        /* \"TronexUniverse.sol\":5218:5266  Registration(msg.sender, _referrerId, newUserId) */\n      0xffffffffffffffffffffffffffffffffffffffff\n      and\n      0x0d6d8be58ef6918a4e19027a89943222bc99e02d838bd0b3e41004fd72d7f344\n        /* \"TronexUniverse.sol\":5256:5265  newUserId */\n      dup4\n        /* \"TronexUniverse.sol\":5218:5266  Registration(msg.sender, _referrerId, newUserId) */\n      mload(0x40)\n      tag_138\n      swap2\n      swap1\n      tag_34\n      jump\t// in\n    tag_138:\n      mload(0x40)\n      dup1\n      swap2\n      sub\n      swap1\n      log3\n        /* \"TronexUniverse.sol\":5279:5316  buyPackageLogic(newUserId, 1, amount) */\n      tag_139\n        /* \"TronexUniverse.sol\":5295:5304  newUserId */\n      dup2\n        /* \"TronexUniverse.sol\":5306:5307  1 */\n      0x01\n        /* \"TronexUniverse.sol\":5309:5315  amount */\n      dup5\n        /* \"TronexUniverse.sol\":5279:5294  buyPackageLogic */\n      tag_140\n        /* \"TronexUniverse.sol\":5279:5316  buyPackageLogic(newUserId, 1, amount) */\n      jump\t// in\n    tag_139:\n        /* \"TronexUniverse.sol\":4433:5324  {... */\n      pop\n      pop\n        /* \"TronexUniverse.sol\":4381:5324  function registration(uint256 _referrerId) external {... */\n      pop\n      jump\t// out\n        /* \"TronexUniverse.sol\":1198:1235  mapping(uint256 => User) public users */\n    tag_43:\n      mstore(0x20, 0x02)\n      dup1\n      0x00\n      mstore\n      keccak256(0x00, 0x40)\n      0x00\n      swap2\n      pop\n      swap1\n      pop\n      dup1\n      0x00\n      add\n      sload\n      swap1\n      dup1\n      0x01\n      add\n      0x00\n      swap1\n      sload\n      swap1\n      0x0100\n      exp\n      swap1\n      div\n      0xffffffffffffffffffffffffffffffffffffffff\n      and\n      swap1\n      dup1\n      0x02\n      add\n      sload\n      swap1\n      dup1\n      0x03\n      add\n      sload\n      swap1\n      dup1\n      0x04\n      add\n      sload\n      swap1\n      dup1\n      0x05\n      add\n      sload\n      swap1\n      dup1\n      0x07\n      add\n      sload\n      swap1\n      dup1\n      0x08\n      add\n      sload\n      swap1\n      dup1\n      0x09\n      add\n      sload\n      swap1\n      pop\n      dup10\n      jump\t// out\n        /* \"TronexUniverse.sol\":2144:2179  uint256 public totalRegisteredUsers */\n    tag_47:\n      sload(0x08)\n      dup2\n      jump\t// out\n        /* \"TronexUniverse.sol\":3643:4373  function basicRegistration(uint256 _referrerId) external {... */\n    tag_51:\n        /* \"TronexUniverse.sol\":3746:3747  0 */\n      0x00\n        /* \"TronexUniverse.sol\":3719:3730  addressToId */\n      0x01\n        /* \"TronexUniverse.sol\":3719:3742  addressToId[msg.sender] */\n      0x00\n        /* \"TronexUniverse.sol\":3731:3741  msg.sender */\n      caller\n        /* \"TronexUniverse.sol\":3719:3742  addressToId[msg.sender] */\n      0xffffffffffffffffffffffffffffffffffffffff\n      and\n      0xffffffffffffffffffffffffffffffffffffffff\n      and\n      dup2\n      mstore\n      0x20\n      add\n      swap1\n      dup2\n      mstore\n      0x20\n      add\n      0x00\n      keccak256\n      sload\n        /* \"TronexUniverse.sol\":3719:3747  addressToId[msg.sender] == 0 */\n      eq\n        /* \"TronexUniverse.sol\":3711:3770  require(addressToId[msg.sender] == 0, \"Already registered\") */\n      tag_142\n      jumpi\n      mload(0x40)\n      0x08c379a000000000000000000000000000000000000000000000000000000000\n      dup2\n      mstore\n      0x04\n      add\n      tag_143\n      swap1\n      tag_115\n      jump\t// in\n    tag_143:\n      mload(0x40)\n      dup1\n      swap2\n      sub\n      swap1\n      revert\n    tag_142:\n        /* \"TronexUniverse.sol\":1283:1287  1000 */\n      0x03e8\n        /* \"TronexUniverse.sol\":3795:3806  _referrerId */\n      dup2\n        /* \"TronexUniverse.sol\":3795:3817  _referrerId < ADMIN_ID */\n      lt\n        /* \"TronexUniverse.sol\":3795:3847  _referrerId < ADMIN_ID || users[_referrerId].id == 0 */\n      dup1\n      tag_144\n      jumpi\n      pop\n        /* \"TronexUniverse.sol\":3846:3847  0 */\n      0x00\n        /* \"TronexUniverse.sol\":3821:3826  users */\n      0x02\n        /* \"TronexUniverse.sol\":3821:3839  users[_referrerId] */\n      0x00\n        /* \"TronexUniverse.sol\":3827:3838  _referrerId */\n      dup4\n        /* \"TronexUniverse.sol\":3821:3839  users[_referrerId] */\n      dup2\n      mstore\n      0x20\n      add\n      swap1\n      dup2\n      mstore\n      0x20\n      add\n      0x00\n      keccak256\n        /* \"TronexUniverse.sol\":3821:3842  users[_referrerId].id */\n      0x00\n      add\n      sload\n        /* \"TronexUniverse.sol\":3821:3847  users[_referrerId].id == 0 */\n      eq\n        /* \"TronexUniverse.sol\":3795:3847  _referrerId < ADMIN_ID || users[_referrerId].id == 0 */\n    tag_144:\n        /* \"TronexUniverse.sol\":3791:3898  if (_referrerId < ADMIN_ID || users[_referrerId].id == 0) {... */\n      iszero\n      tag_145\n      jumpi\n        /* \"TronexUniverse.sol\":1283:1287  1000 */\n      0x03e8\n        /* \"TronexUniverse.sol\":3864:3886  _referrerId = ADMIN_ID */\n      swap1\n      pop\n        /* \"TronexUniverse.sol\":3791:3898  if (_referrerId < ADMIN_ID || users[_referrerId].id == 0) {... */\n    tag_145:\n        /* \"TronexUniverse.sol\":3910:3920  lastUserId */\n      0x03\n      0x00\n        /* \"TronexUniverse.sol\":3910:3922  lastUserId++ */\n      dup2\n      sload\n      dup1\n      swap3\n      swap2\n      swap1\n      tag_146\n      swap1\n      tag_133\n      jump\t// in\n    tag_146:\n      swap2\n      swap1\n      pop\n      sstore\n      pop\n        /* \"TronexUniverse.sol\":3933:3950  uint256 newUserId */\n      0x00\n        /* \"TronexUniverse.sol\":3953:3963  lastUserId */\n      sload(0x03)\n        /* \"TronexUniverse.sol\":3933:3963  uint256 newUserId = lastUserId */\n      swap1\n      pop\n        /* \"TronexUniverse.sol\":3976:3993  User storage user */\n      0x00\n        /* \"TronexUniverse.sol\":3996:4001  users */\n      0x02\n        /* \"TronexUniverse.sol\":3996:4012  users[newUserId] */\n      0x00\n        /* \"TronexUniverse.sol\":4002:4011  newUserId */\n      dup4\n        /* \"TronexUniverse.sol\":3996:4012  users[newUserId] */\n      dup2\n      mstore\n      0x20\n      add\n      swap1\n      dup2\n      mstore\n      0x20\n      add\n      0x00\n      keccak256\n        /* \"TronexUniverse.sol\":3976:4012  User storage user = users[newUserId] */\n      swap1\n      pop\n        /* \"TronexUniverse.sol\":4033:4042  newUserId */\n      dup2\n        /* \"TronexUniverse.sol\":4023:4027  user */\n      dup2\n        /* \"TronexUniverse.sol\":4023:4030  user.id */\n      0x00\n      add\n        /* \"TronexUniverse.sol\":4023:4042  user.id = newUserId */\n      dup2\n      swap1\n      sstore\n      pop\n        /* \"TronexUniverse.sol\":4067:4077  msg.sender */\n      caller\n        /* \"TronexUniverse.sol\":4053:4057  user */\n      dup2\n        /* \"TronexUniverse.sol\":4053:4064  user.wallet */\n      0x01\n      add\n      0x00\n        /* \"TronexUniverse.sol\":4053:4077  user.wallet = msg.sender */\n      0x0100\n      exp\n      dup2\n      sload\n      dup2\n      0xffffffffffffffffffffffffffffffffffffffff\n      mul\n      not\n      and\n      swap1\n      dup4\n      0xffffffffffffffffffffffffffffffffffffffff\n      and\n      mul\n      or\n      swap1\n      sstore\n      pop\n        /* \"TronexUniverse.sol\":4106:4117  _referrerId */\n      dup3\n        /* \"TronexUniverse.sol\":4088:4092  user */\n      dup2\n        /* \"TronexUniverse.sol\":4088:4103  user.referrerId */\n      0x02\n      add\n        /* \"TronexUniverse.sol\":4088:4117  user.referrerId = _referrerId */\n      dup2\n      swap1\n      sstore\n      pop\n        /* \"TronexUniverse.sol\":4153:4154  0 */\n      0x00\n        /* \"TronexUniverse.sol\":4128:4132  user */\n      dup2\n        /* \"TronexUniverse.sol\":4128:4150  user.activeLevelsCount */\n      0x09\n      add\n        /* \"TronexUniverse.sol\":4128:4154  user.activeLevelsCount = 0 */\n      dup2\n      swap1\n      sstore\n      pop\n        /* \"TronexUniverse.sol\":4202:4211  newUserId */\n      dup2\n        /* \"TronexUniverse.sol\":4176:4187  addressToId */\n      0x01\n        /* \"TronexUniverse.sol\":4176:4199  addressToId[msg.sender] */\n      0x00\n        /* \"TronexUniverse.sol\":4188:4198  msg.sender */\n      caller\n        /* \"TronexUniverse.sol\":4176:4199  addressToId[msg.sender] */\n      0xffffffffffffffffffffffffffffffffffffffff\n      and\n      0xffffffffffffffffffffffffffffffffffffffff\n      and\n      dup2\n      mstore\n      0x20\n      add\n      swap1\n      dup2\n      mstore\n      0x20\n      add\n      0x00\n      keccak256\n        /* \"TronexUniverse.sol\":4176:4211  addressToId[msg.sender] = newUserId */\n      dup2\n      swap1\n      sstore\n      pop\n        /* \"TronexUniverse.sol\":4232:4237  users */\n      0x02\n        /* \"TronexUniverse.sol\":4232:4250  users[_referrerId] */\n      0x00\n        /* \"TronexUniverse.sol\":4238:4249  _referrerId */\n      dup5\n        /* \"TronexUniverse.sol\":4232:4250  users[_referrerId] */\n      dup2\n      mstore\n      0x20\n      add\n      swap1\n      dup2\n      mstore\n      0x20\n      add\n      0x00\n      keccak256\n        /* \"TronexUniverse.sol\":4232:4264  users[_referrerId].totalTeamSize */\n      0x07\n      add\n      0x00\n        /* \"TronexUniverse.sol\":4232:4266  users[_referrerId].totalTeamSize++ */\n      dup2\n      sload\n      dup1\n      swap3\n      swap2\n      swap1\n      tag_147\n      swap1\n      tag_133\n      jump\t// in\n    tag_147:\n      swap2\n      swap1\n      pop\n      sstore\n      pop\n        /* \"TronexUniverse.sol\":4277:4297  totalRegisteredUsers */\n      0x08\n      0x00\n        /* \"TronexUniverse.sol\":4277:4299  totalRegisteredUsers++ */\n      dup2\n      sload\n      dup1\n      swap3\n      swap2\n      swap1\n      tag_148\n      swap1\n      tag_133\n      jump\t// in\n    tag_148:\n      swap2\n      swap1\n      pop\n      sstore\n      pop\n        /* \"TronexUniverse.sol\":4342:4353  _referrerId */\n      dup3\n        /* \"TronexUniverse.sol\":4330:4340  msg.sender */\n      caller\n        /* \"TronexUniverse.sol\":4317:4365  Registration(msg.sender, _referrerId, newUserId) */\n      0xffffffffffffffffffffffffffffffffffffffff\n      and\n      0x0d6d8be58ef6918a4e19027a89943222bc99e02d838bd0b3e41004fd72d7f344\n        /* \"TronexUniverse.sol\":4355:4364  newUserId */\n      dup5\n        /* \"TronexUniverse.sol\":4317:4365  Registration(msg.sender, _referrerId, newUserId) */\n      mload(0x40)\n      tag_149\n      swap2\n      swap1\n      tag_34\n      jump\t// in\n    tag_149:\n      mload(0x40)\n      dup1\n      swap2\n      sub\n      swap1\n      log3\n        /* \"TronexUniverse.sol\":3700:4373  {... */\n      pop\n      pop\n        /* \"TronexUniverse.sol\":3643:4373  function basicRegistration(uint256 _referrerId) external {... */\n      pop\n      jump\t// out\n        /* \"TronexUniverse.sol\":14986:15330  function adminWithdrawRoyalty(uint256 _amount) external {... */\n    tag_54:\n        /* \"TronexUniverse.sol\":15075:15080  owner */\n      0x04\n      0x00\n      swap1\n      sload\n      swap1\n      0x0100\n      exp\n      swap1\n      div\n      0xffffffffffffffffffffffffffffffffffffffff\n      and\n        /* \"TronexUniverse.sol\":15061:15080  msg.sender == owner */\n      0xffffffffffffffffffffffffffffffffffffffff\n      and\n        /* \"TronexUniverse.sol\":15061:15071  msg.sender */\n      caller\n        /* \"TronexUniverse.sol\":15061:15080  msg.sender == owner */\n      0xffffffffffffffffffffffffffffffffffffffff\n      and\n      eq\n        /* \"TronexUniverse.sol\":15053:15095  require(msg.sender == owner, \"Admin only\") */\n      tag_151\n      jumpi\n      mload(0x40)\n      0x08c379a000000000000000000000000000000000000000000000000000000000\n      dup2\n      mstore\n      0x04\n      add\n      tag_152\n      swap1\n      tag_153\n      jump\t// in\n    tag_152:\n      mload(0x40)\n      dup1\n      swap2\n      sub\n      swap1\n      revert\n    tag_151:\n        /* \"TronexUniverse.sol\":15125:15143  royaltyFundBalance */\n      sload(0x07)\n        /* \"TronexUniverse.sol\":15114:15121  _amount */\n      dup2\n        /* \"TronexUniverse.sol\":15114:15143  _amount <= royaltyFundBalance */\n      gt\n      iszero\n        /* \"TronexUniverse.sol\":15106:15166  require(_amount <= royaltyFundBalance, \"Insufficient funds\") */\n      tag_154\n      jumpi\n      mload(0x40)\n      0x08c379a000000000000000000000000000000000000000000000000000000000\n      dup2\n      mstore\n      0x04\n      add\n      tag_155\n      swap1\n      tag_156\n      jump\t// in\n    tag_155:\n      mload(0x40)\n      dup1\n      swap2\n      sub\n      swap1\n      revert\n    tag_154:\n        /* \"TronexUniverse.sol\":15199:15206  _amount */\n      dup1\n        /* \"TronexUniverse.sol\":15177:15195  royaltyFundBalance */\n      0x07\n      0x00\n        /* \"TronexUniverse.sol\":15177:15206  royaltyFundBalance -= _amount */\n      dup3\n      dup3\n      sload\n      tag_157\n      swap2\n      swap1\n      tag_158\n      jump\t// in\n    tag_157:\n      swap3\n      pop\n      pop\n      dup2\n      swap1\n      sstore\n      pop\n        /* \"TronexUniverse.sol\":15227:15239  bool success */\n      0x00\n        /* \"TronexUniverse.sol\":15242:15251  usdtToken */\n      0x00\n      0x00\n      swap1\n      sload\n      swap1\n      0x0100\n      exp\n      swap1\n      div\n      0xffffffffffffffffffffffffffffffffffffffff\n      and\n        /* \"TronexUniverse.sol\":15242:15260  usdtToken.transfer */\n      0xffffffffffffffffffffffffffffffffffffffff\n      and\n      0xa9059cbb\n        /* \"TronexUniverse.sol\":15261:15266  owner */\n      0x04\n      0x00\n      swap1\n      sload\n      swap1\n      0x0100\n      exp\n      swap1\n      div\n      0xffffffffffffffffffffffffffffffffffffffff\n      and\n        /* \"TronexUniverse.sol\":15268:15275  _amount */\n      dup5\n        /* \"TronexUniverse.sol\":15242:15276  usdtToken.transfer(owner, _amount) */\n      mload(0x40)\n      dup4\n      0xffffffff\n      and\n      0xe0\n      shl\n      dup2\n      mstore\n      0x04\n      add\n      tag_159\n      swap3\n      swap2\n      swap1\n      tag_160\n      jump\t// in\n    tag_159:\n      0x20\n      mload(0x40)\n      dup1\n      dup4\n      sub\n      dup2\n      0x00\n      dup8\n      gas\n      call\n      iszero\n      dup1\n      iszero\n      tag_162\n      jumpi\n      returndatacopy(0x00, 0x00, returndatasize)\n      revert(0x00, returndatasize)\n    tag_162:\n      pop\n      pop\n      pop\n      pop\n      mload(0x40)\n      returndatasize\n      not(0x1f)\n      0x1f\n      dup3\n      add\n      and\n      dup3\n      add\n      dup1\n      0x40\n      mstore\n      pop\n      dup2\n      add\n      swap1\n      tag_163\n      swap2\n      swap1\n      tag_128\n      jump\t// in\n    tag_163:\n        /* \"TronexUniverse.sol\":15227:15276  bool success = usdtToken.transfer(owner, _amount) */\n      swap1\n      pop\n        /* \"TronexUniverse.sol\":15295:15302  success */\n      dup1\n        /* \"TronexUniverse.sol\":15287:15322  require(success, \"Withdraw failed\") */\n      tag_164\n      jumpi\n      mload(0x40)\n      0x08c379a000000000000000000000000000000000000000000000000000000000\n      dup2\n      mstore\n      0x04\n      add\n      tag_165\n      swap1\n      tag_166\n      jump\t// in\n    tag_165:\n      mload(0x40)\n      dup1\n      swap2\n      sub\n      swap1\n      revert\n    tag_164:\n        /* \"TronexUniverse.sol\":15042:15330  {... */\n      pop\n        /* \"TronexUniverse.sol\":14986:15330  function adminWithdrawRoyalty(uint256 _amount) external {... */\n      pop\n      jump\t// out\n        /* \"TronexUniverse.sol\":2236:2284  uint256 public constant ZERO_RISK_CAP = 10 ether */\n    tag_56:\n        /* \"TronexUniverse.sol\":2276:2284  10 ether */\n      0x8ac7230489e80000\n        /* \"TronexUniverse.sol\":2236:2284  uint256 public constant ZERO_RISK_CAP = 10 ether */\n      dup2\n      jump\t// out\n        /* \"TronexUniverse.sol\":5332:6082  function buyNewLevel(uint256 _level) external {... */\n    tag_60:\n        /* \"TronexUniverse.sol\":5389:5403  uint256 userId */\n      0x00\n        /* \"TronexUniverse.sol\":5406:5417  addressToId */\n      0x01\n        /* \"TronexUniverse.sol\":5406:5429  addressToId[msg.sender] */\n      0x00\n        /* \"TronexUniverse.sol\":5418:5428  msg.sender */\n      caller\n        /* \"TronexUniverse.sol\":5406:5429  addressToId[msg.sender] */\n      0xffffffffffffffffffffffffffffffffffffffff\n      and\n      0xffffffffffffffffffffffffffffffffffffffff\n      and\n      dup2\n      mstore\n      0x20\n      add\n      swap1\n      dup2\n      mstore\n      0x20\n      add\n      0x00\n      keccak256\n      sload\n        /* \"TronexUniverse.sol\":5389:5429  uint256 userId = addressToId[msg.sender] */\n      swap1\n      pop\n        /* \"TronexUniverse.sol\":5458:5459  0 */\n      0x00\n        /* \"TronexUniverse.sol\":5448:5454  userId */\n      dup2\n        /* \"TronexUniverse.sol\":5448:5459  userId != 0 */\n      sub\n        /* \"TronexUniverse.sol\":5440:5478  require(userId != 0, \"Not registered\") */\n      tag_168\n      jumpi\n      mload(0x40)\n      0x08c379a000000000000000000000000000000000000000000000000000000000\n      dup2\n      mstore\n      0x04\n      add\n      tag_169\n      swap1\n      tag_170\n      jump\t// in\n    tag_169:\n      mload(0x40)\n      dup1\n      swap2\n      sub\n      swap1\n      revert\n    tag_168:\n        /* \"TronexUniverse.sol\":5507:5508  1 */\n      0x01\n        /* \"TronexUniverse.sol\":5497:5503  _level */\n      dup3\n        /* \"TronexUniverse.sol\":5497:5508  _level >= 1 */\n      lt\n      iszero\n        /* \"TronexUniverse.sol\":5497:5524  _level >= 1 && _level <= 10 */\n      dup1\n      iszero\n      tag_171\n      jumpi\n      pop\n        /* \"TronexUniverse.sol\":5522:5524  10 */\n      0x0a\n        /* \"TronexUniverse.sol\":5512:5518  _level */\n      dup3\n        /* \"TronexUniverse.sol\":5512:5524  _level <= 10 */\n      gt\n      iszero\n        /* \"TronexUniverse.sol\":5497:5524  _level >= 1 && _level <= 10 */\n    tag_171:\n        /* \"TronexUniverse.sol\":5489:5542  require(_level >= 1 && _level <= 10, \"Invalid Level\") */\n      tag_172\n      jumpi\n      mload(0x40)\n      0x08c379a000000000000000000000000000000000000000000000000000000000\n      dup2\n      mstore\n      0x04\n      add\n      tag_173\n      swap1\n      tag_174\n      jump\t// in\n    tag_173:\n      mload(0x40)\n      dup1\n      swap2\n      sub\n      swap1\n      revert\n    tag_172:\n        /* \"TronexUniverse.sol\":5605:5606  1 */\n      0x01\n        /* \"TronexUniverse.sol\":5596:5602  _level */\n      dup3\n        /* \"TronexUniverse.sol\":5596:5606  _level - 1 */\n      tag_175\n      swap2\n      swap1\n      tag_158\n      jump\t// in\n    tag_175:\n        /* \"TronexUniverse.sol\":5561:5566  users */\n      0x02\n        /* \"TronexUniverse.sol\":5561:5574  users[userId] */\n      0x00\n        /* \"TronexUniverse.sol\":5567:5573  userId */\n      dup4\n        /* \"TronexUniverse.sol\":5561:5574  users[userId] */\n      dup2\n      mstore\n      0x20\n      add\n      swap1\n      dup2\n      mstore\n      0x20\n      add\n      0x00\n      keccak256\n        /* \"TronexUniverse.sol\":5561:5592  users[userId].activeLevelsCount */\n      0x09\n      add\n      sload\n        /* \"TronexUniverse.sol\":5561:5606  users[userId].activeLevelsCount == _level - 1 */\n      eq\n        /* \"TronexUniverse.sol\":5553:5635  require(users[userId].activeLevelsCount == _level - 1, \"Buy previous level first\") */\n      tag_176\n      jumpi\n      mload(0x40)\n      0x08c379a000000000000000000000000000000000000000000000000000000000\n      dup2\n      mstore\n      0x04\n      add\n      tag_177\n      swap1\n      tag_178\n      jump\t// in\n    tag_177:\n      mload(0x40)\n      dup1\n      swap2\n      sub\n      swap1\n      revert\n    tag_176:\n        /* \"TronexUniverse.sol\":5648:5662  uint256 amount */\n      0x00\n        /* \"TronexUniverse.sol\":5665:5677  packagePrice */\n      0x05\n        /* \"TronexUniverse.sol\":5678:5684  _level */\n      dup4\n        /* \"TronexUniverse.sol\":5665:5685  packagePrice[_level] */\n      dup2\n      sload\n      dup2\n      lt\n      tag_179\n      jumpi\n      tag_180\n      tag_121\n      jump\t// in\n    tag_180:\n    tag_179:\n      swap1\n      0x00\n      mstore\n      keccak256(0x00, 0x20)\n      add\n      sload\n        /* \"TronexUniverse.sol\":5648:5685  uint256 amount = packagePrice[_level] */\n      swap1\n      pop\n        /* \"TronexUniverse.sol\":5704:5713  usdtToken */\n      0x00\n      0x00\n      swap1\n      sload\n      swap1\n      0x0100\n      exp\n      swap1\n      div\n      0xffffffffffffffffffffffffffffffffffffffff\n      and\n        /* \"TronexUniverse.sol\":5704:5726  usdtToken.transferFrom */\n      0xffffffffffffffffffffffffffffffffffffffff\n      and\n      0x23b872dd\n        /* \"TronexUniverse.sol\":5727:5737  msg.sender */\n      caller\n        /* \"TronexUniverse.sol\":5747:5751  this */\n      address\n        /* \"TronexUniverse.sol\":5754:5760  amount */\n      dup5\n        /* \"TronexUniverse.sol\":5704:5761  usdtToken.transferFrom(msg.sender, address(this), amount) */\n      mload(0x40)\n      dup5\n      0xffffffff\n      and\n      0xe0\n      shl\n      dup2\n      mstore\n      0x04\n      add\n      tag_182\n      swap4\n      swap3\n      swap2\n      swap1\n      tag_124\n      jump\t// in\n    tag_182:\n      0x20\n      mload(0x40)\n      dup1\n      dup4\n      sub\n      dup2\n      0x00\n      dup8\n      gas\n      call\n      iszero\n      dup1\n      iszero\n      tag_184\n      jumpi\n      returndatacopy(0x00, 0x00, returndatasize)\n      revert(0x00, returndatasize)\n    tag_184:\n      pop\n      pop\n      pop\n      pop\n      mload(0x40)\n      returndatasize\n      not(0x1f)\n      0x1f\n      dup3\n      add\n      and\n      dup3\n      add\n      dup1\n      0x40\n      mstore\n      pop\n      dup2\n      add\n      swap1\n      tag_185\n      swap2\n      swap1\n      tag_128\n      jump\t// in\n    tag_185:\n        /* \"TronexUniverse.sol\":5696:5786  require(usdtToken.transferFrom(msg.sender, address(this), amount), \"USDT transfer failed\") */\n      tag_186\n      jumpi\n      mload(0x40)\n      0x08c379a000000000000000000000000000000000000000000000000000000000\n      dup2\n      mstore\n      0x04\n      add\n      tag_187\n      swap1\n      tag_131\n      jump\t// in\n    tag_187:\n      mload(0x40)\n      dup1\n      swap2\n      sub\n      swap1\n      revert\n    tag_186:\n        /* \"TronexUniverse.sol\":5833:5839  _level */\n      dup3\n        /* \"TronexUniverse.sol\":5799:5804  users */\n      0x02\n        /* \"TronexUniverse.sol\":5799:5812  users[userId] */\n      0x00\n        /* \"TronexUniverse.sol\":5805:5811  userId */\n      dup5\n        /* \"TronexUniverse.sol\":5799:5812  users[userId] */\n      dup2\n      mstore\n      0x20\n      add\n      swap1\n      dup2\n      mstore\n      0x20\n      add\n      0x00\n      keccak256\n        /* \"TronexUniverse.sol\":5799:5830  users[userId].activeLevelsCount */\n      0x09\n      add\n        /* \"TronexUniverse.sol\":5799:5839  users[userId].activeLevelsCount = _level */\n      dup2\n      swap1\n      sstore\n      pop\n        /* \"TronexUniverse.sol\":5866:5867  1 */\n      0x01\n        /* \"TronexUniverse.sol\":5856:5862  _level */\n      dup4\n        /* \"TronexUniverse.sol\":5856:5867  _level == 1 */\n      sub\n        /* \"TronexUniverse.sol\":5852:6023  if (_level == 1) {... */\n      tag_188\n      jumpi\n        /* \"TronexUniverse.sol\":5884:5902  uint256 referrerId */\n      0x00\n        /* \"TronexUniverse.sol\":5905:5910  users */\n      0x02\n        /* \"TronexUniverse.sol\":5905:5918  users[userId] */\n      0x00\n        /* \"TronexUniverse.sol\":5911:5917  userId */\n      dup5\n        /* \"TronexUniverse.sol\":5905:5918  users[userId] */\n      dup2\n      mstore\n      0x20\n      add\n      swap1\n      dup2\n      mstore\n      0x20\n      add\n      0x00\n      keccak256\n        /* \"TronexUniverse.sol\":5905:5929  users[userId].referrerId */\n      0x02\n      add\n      sload\n        /* \"TronexUniverse.sol\":5884:5929  uint256 referrerId = users[userId].referrerId */\n      swap1\n      pop\n        /* \"TronexUniverse.sol\":5944:5949  users */\n      0x02\n        /* \"TronexUniverse.sol\":5944:5961  users[referrerId] */\n      0x00\n        /* \"TronexUniverse.sol\":5950:5960  referrerId */\n      dup3\n        /* \"TronexUniverse.sol\":5944:5961  users[referrerId] */\n      dup2\n      mstore\n      0x20\n      add\n      swap1\n      dup2\n      mstore\n      0x20\n      add\n      0x00\n      keccak256\n        /* \"TronexUniverse.sol\":5944:5976  users[referrerId].activeTeamSize */\n      0x08\n      add\n      0x00\n        /* \"TronexUniverse.sol\":5944:5978  users[referrerId].activeTeamSize++ */\n      dup2\n      sload\n      dup1\n      swap3\n      swap2\n      swap1\n      tag_189\n      swap1\n      tag_133\n      jump\t// in\n    tag_189:\n      swap2\n      swap1\n      pop\n      sstore\n      pop\n        /* \"TronexUniverse.sol\":5993:6009  totalPayingUsers */\n      0x09\n      0x00\n        /* \"TronexUniverse.sol\":5993:6011  totalPayingUsers++ */\n      dup2\n      sload\n      dup1\n      swap3\n      swap2\n      swap1\n      tag_190\n      swap1\n      tag_133\n      jump\t// in\n    tag_190:\n      swap2\n      swap1\n      pop\n      sstore\n      pop\n        /* \"TronexUniverse.sol\":5869:6023  {... */\n      pop\n        /* \"TronexUniverse.sol\":5852:6023  if (_level == 1) {... */\n    tag_188:\n        /* \"TronexUniverse.sol\":6035:6074  buyPackageLogic(userId, _level, amount) */\n      tag_191\n        /* \"TronexUniverse.sol\":6051:6057  userId */\n      dup3\n        /* \"TronexUniverse.sol\":6059:6065  _level */\n      dup5\n        /* \"TronexUniverse.sol\":6067:6073  amount */\n      dup4\n        /* \"TronexUniverse.sol\":6035:6050  buyPackageLogic */\n      tag_140\n        /* \"TronexUniverse.sol\":6035:6074  buyPackageLogic(userId, _level, amount) */\n      jump\t// in\n    tag_191:\n        /* \"TronexUniverse.sol\":5378:6082  {... */\n      pop\n      pop\n        /* \"TronexUniverse.sol\":5332:6082  function buyNewLevel(uint256 _level) external {... */\n      pop\n      jump\t// out\n        /* \"TronexUniverse.sol\":2098:2131  uint256 public royaltyFundBalance */\n    tag_62:\n      sload(0x07)\n      dup2\n      jump\t// out\n        /* \"TronexUniverse.sol\":2292:2347  uint256 public constant ZERO_RISK_DAILY_LIMIT = 3 ether */\n    tag_65:\n        /* \"TronexUniverse.sol\":2340:2347  3 ether */\n      0x29a2241af62c0000\n        /* \"TronexUniverse.sol\":2292:2347  uint256 public constant ZERO_RISK_DAILY_LIMIT = 3 ether */\n      dup2\n      jump\t// out\n        /* \"TronexUniverse.sol\":1337:1357  address public owner */\n    tag_68:\n      0x04\n      0x00\n      swap1\n      sload\n      swap1\n      0x0100\n      exp\n      swap1\n      div\n      0xffffffffffffffffffffffffffffffffffffffff\n      and\n      dup2\n      jump\t// out\n        /* \"TronexUniverse.sol\":1248:1287  uint256 public constant ADMIN_ID = 1000 */\n    tag_72:\n        /* \"TronexUniverse.sol\":1283:1287  1000 */\n      0x03e8\n        /* \"TronexUniverse.sol\":1248:1287  uint256 public constant ADMIN_ID = 1000 */\n      dup2\n      jump\t// out\n        /* \"TronexUniverse.sol\":2057:2091  uint256 public zeroRiskFundBalance */\n    tag_75:\n      sload(0x06)\n      dup2\n      jump\t// out\n        /* \"TronexUniverse.sol\":1107:1130  IERC20 public usdtToken */\n    tag_78:\n      0x00\n      0x00\n      swap1\n      sload\n      swap1\n      0x0100\n      exp\n      swap1\n      div\n      0xffffffffffffffffffffffffffffffffffffffff\n      and\n      dup2\n      jump\t// out\n        /* \"TronexUniverse.sol\":1144:1190  mapping(address => uint256) public addressToId */\n    tag_84:\n      mstore(0x20, 0x01)\n      dup1\n      0x00\n      mstore\n      keccak256(0x00, 0x40)\n      0x00\n      swap2\n      pop\n      swap1\n      pop\n      sload\n      dup2\n      jump\t// out\n        /* \"TronexUniverse.sol\":16469:17075  function getUserInfo(uint256 _userId) external view returns (... */\n    tag_88:\n        /* \"TronexUniverse.sol\":16540:16554  address wallet */\n      0x00\n        /* \"TronexUniverse.sol\":16565:16583  uint256 referrerId */\n      0x00\n        /* \"TronexUniverse.sol\":16594:16615  uint256 totalEarnings */\n      0x00\n        /* \"TronexUniverse.sol\":16626:16647  uint256 totalTeamSize */\n      0x00\n        /* \"TronexUniverse.sol\":16658:16680  uint256 activeTeamSize */\n      0x00\n        /* \"TronexUniverse.sol\":16692:16717  uint256 activeLevelsCount */\n      0x00\n        /* \"TronexUniverse.sol\":16728:16754  uint256 earnedFromZeroRisk */\n      0x00\n        /* \"TronexUniverse.sol\":16773:16790  User storage user */\n      0x00\n        /* \"TronexUniverse.sol\":16793:16798  users */\n      0x02\n        /* \"TronexUniverse.sol\":16793:16807  users[_userId] */\n      0x00\n        /* \"TronexUniverse.sol\":16799:16806  _userId */\n      dup11\n        /* \"TronexUniverse.sol\":16793:16807  users[_userId] */\n      dup2\n      mstore\n      0x20\n      add\n      swap1\n      dup2\n      mstore\n      0x20\n      add\n      0x00\n      keccak256\n        /* \"TronexUniverse.sol\":16773:16807  User storage user = users[_userId] */\n      swap1\n      pop\n        /* \"TronexUniverse.sol\":16840:16844  user */\n      dup1\n        /* \"TronexUniverse.sol\":16840:16851  user.wallet */\n      0x01\n      add\n      0x00\n      swap1\n      sload\n      swap1\n      0x0100\n      exp\n      swap1\n      div\n      0xffffffffffffffffffffffffffffffffffffffff\n      and\n        /* \"TronexUniverse.sol\":16866:16870  user */\n      dup2\n        /* \"TronexUniverse.sol\":16866:16881  user.referrerId */\n      0x02\n      add\n      sload\n        /* \"TronexUniverse.sol\":16896:16900  user */\n      dup3\n        /* \"TronexUniverse.sol\":16896:16914  user.totalEarnings */\n      0x03\n      add\n      sload\n        /* \"TronexUniverse.sol\":16929:16933  user */\n      dup4\n        /* \"TronexUniverse.sol\":16929:16947  user.totalTeamSize */\n      0x07\n      add\n      sload\n        /* \"TronexUniverse.sol\":16962:16966  user */\n      dup5\n        /* \"TronexUniverse.sol\":16962:16981  user.activeTeamSize */\n      0x08\n      add\n      sload\n        /* \"TronexUniverse.sol\":16996:17000  user */\n      dup6\n        /* \"TronexUniverse.sol\":16996:17018  user.activeLevelsCount */\n      0x09\n      add\n      sload\n        /* \"TronexUniverse.sol\":17033:17037  user */\n      dup7\n        /* \"TronexUniverse.sol\":17033:17056  user.earnedFromZeroRisk */\n      0x04\n      add\n      sload\n        /* \"TronexUniverse.sol\":16818:17067  return (... */\n      swap8\n      pop\n      swap8\n      pop\n      swap8\n      pop\n      swap8\n      pop\n      swap8\n      pop\n      swap8\n      pop\n      swap8\n      pop\n      pop\n        /* \"TronexUniverse.sol\":16469:17075  function getUserInfo(uint256 _userId) external view returns (... */\n      swap2\n      swap4\n      swap6\n      swap8\n      swap1\n      swap3\n      swap5\n      swap7\n      pop\n      jump\t// out\n        /* \"TronexUniverse.sol\":17083:17571  function getMatrixInfo(uint256 _userId, uint256 _level) external view returns (... */\n    tag_94:\n        /* \"TronexUniverse.sol\":17172:17195  uint256 currentReferrer */\n      0x00\n        /* \"TronexUniverse.sol\":17206:17233  uint256[] memory firstLevel */\n      0x60\n        /* \"TronexUniverse.sol\":17244:17272  uint256[] memory secondLevel */\n      dup1\n        /* \"TronexUniverse.sol\":17283:17303  uint256 recycleCount */\n      0x00\n        /* \"TronexUniverse.sol\":17322:17343  Matrix storage matrix */\n      0x00\n        /* \"TronexUniverse.sol\":17346:17351  users */\n      0x02\n        /* \"TronexUniverse.sol\":17346:17360  users[_userId] */\n      0x00\n        /* \"TronexUniverse.sol\":17352:17359  _userId */\n      dup9\n        /* \"TronexUniverse.sol\":17346:17360  users[_userId] */\n      dup2\n      mstore\n      0x20\n      add\n      swap1\n      dup2\n      mstore\n      0x20\n      add\n      0x00\n      keccak256\n        /* \"TronexUniverse.sol\":17346:17369  users[_userId].matrices */\n      0x06\n      add\n        /* \"TronexUniverse.sol\":17346:17377  users[_userId].matrices[_level] */\n      0x00\n        /* \"TronexUniverse.sol\":17370:17376  _level */\n      dup8\n        /* \"TronexUniverse.sol\":17346:17377  users[_userId].matrices[_level] */\n      dup2\n      mstore\n      0x20\n      add\n      swap1\n      dup2\n      mstore\n      0x20\n      add\n      0x00\n      keccak256\n        /* \"TronexUniverse.sol\":17322:17377  Matrix storage matrix = users[_userId].matrices[_level] */\n      swap1\n      pop\n        /* \"TronexUniverse.sol\":17410:17416  matrix */\n      dup1\n        /* \"TronexUniverse.sol\":17410:17432  matrix.currentReferrer */\n      0x00\n      add\n      sload\n        /* \"TronexUniverse.sol\":17448:17454  matrix */\n      dup2\n        /* \"TronexUniverse.sol\":17448:17474  matrix.firstLevelReferrals */\n      0x01\n      add\n        /* \"TronexUniverse.sol\":17490:17496  matrix */\n      dup3\n        /* \"TronexUniverse.sol\":17490:17517  matrix.secondLevelReferrals */\n      0x02\n      add\n        /* \"TronexUniverse.sol\":17533:17539  matrix */\n      dup4\n        /* \"TronexUniverse.sol\":17533:17552  matrix.recycleCount */\n      0x03\n      add\n      sload\n        /* \"TronexUniverse.sol\":17388:17563  return (... */\n      dup3\n      dup1\n      sload\n      dup1\n      0x20\n      mul\n      0x20\n      add\n      mload(0x40)\n      swap1\n      dup2\n      add\n      0x40\n      mstore\n      dup1\n      swap3\n      swap2\n      swap1\n      dup2\n      dup2\n      mstore\n      0x20\n      add\n      dup3\n      dup1\n      sload\n      dup1\n      iszero\n      tag_194\n      jumpi\n      0x20\n      mul\n      dup3\n      add\n      swap2\n      swap1\n      0x00\n      mstore\n      keccak256(0x00, 0x20)\n      swap1\n    tag_195:\n      dup2\n      sload\n      dup2\n      mstore\n      0x20\n      add\n      swap1\n      0x01\n      add\n      swap1\n      dup1\n      dup4\n      gt\n      tag_195\n      jumpi\n    tag_194:\n      pop\n      pop\n      pop\n      pop\n      pop\n      swap3\n      pop\n      dup2\n      dup1\n      sload\n      dup1\n      0x20\n      mul\n      0x20\n      add\n      mload(0x40)\n      swap1\n      dup2\n      add\n      0x40\n      mstore\n      dup1\n      swap3\n      swap2\n      swap1\n      dup2\n      dup2\n      mstore\n      0x20\n      add\n      dup3\n      dup1\n      sload\n      dup1\n      iszero\n      tag_196\n      jumpi\n      0x20\n      mul\n      dup3\n      add\n      swap2\n      swap1\n      0x00\n      mstore\n      keccak256(0x00, 0x20)\n      swap1\n    tag_197:\n      dup2\n      sload\n      dup2\n      mstore\n      0x20\n      add\n      swap1\n      0x01\n      add\n      swap1\n      dup1\n      dup4\n      gt\n      tag_197\n      jumpi\n    tag_196:\n      pop\n      pop\n      pop\n      pop\n      pop\n      swap2\n      pop\n      swap5\n      pop\n      swap5\n      pop\n      swap5\n      pop\n      swap5\n      pop\n      pop\n        /* \"TronexUniverse.sol\":17083:17571  function getMatrixInfo(uint256 _userId, uint256 _level) external view returns (... */\n      swap3\n      swap6\n      swap2\n      swap5\n      pop\n      swap3\n      pop\n      jump\t// out\n        /* \"TronexUniverse.sol\":12905:14099  function claimZeroRisk() external {... */\n    tag_98:\n        /* \"TronexUniverse.sol\":12950:12964  uint256 userId */\n      0x00\n        /* \"TronexUniverse.sol\":12967:12978  addressToId */\n      0x01\n        /* \"TronexUniverse.sol\":12967:12990  addressToId[msg.sender] */\n      0x00\n        /* \"TronexUniverse.sol\":12979:12989  msg.sender */\n      caller\n        /* \"TronexUniverse.sol\":12967:12990  addressToId[msg.sender] */\n      0xffffffffffffffffffffffffffffffffffffffff\n      and\n      0xffffffffffffffffffffffffffffffffffffffff\n      and\n      dup2\n      mstore\n      0x20\n      add\n      swap1\n      dup2\n      mstore\n      0x20\n      add\n      0x00\n      keccak256\n      sload\n        /* \"TronexUniverse.sol\":12950:12990  uint256 userId = addressToId[msg.sender] */\n      swap1\n      pop\n        /* \"TronexUniverse.sol\":13019:13020  0 */\n      0x00\n        /* \"TronexUniverse.sol\":13009:13015  userId */\n      dup2\n        /* \"TronexUniverse.sol\":13009:13020  userId != 0 */\n      sub\n        /* \"TronexUniverse.sol\":13001:13039  require(userId != 0, \"Not registered\") */\n      tag_199\n      jumpi\n      mload(0x40)\n      0x08c379a000000000000000000000000000000000000000000000000000000000\n      dup2\n      mstore\n      0x04\n      add\n      tag_200\n      swap1\n      tag_170\n      jump\t// in\n    tag_200:\n      mload(0x40)\n      dup1\n      swap2\n      sub\n      swap1\n      revert\n    tag_199:\n        /* \"TronexUniverse.sol\":13093:13094  1 */\n      0x01\n        /* \"TronexUniverse.sol\":13058:13063  users */\n      0x02\n        /* \"TronexUniverse.sol\":13058:13071  users[userId] */\n      0x00\n        /* \"TronexUniverse.sol\":13064:13070  userId */\n      dup4\n        /* \"TronexUniverse.sol\":13058:13071  users[userId] */\n      dup2\n      mstore\n      0x20\n      add\n      swap1\n      dup2\n      mstore\n      0x20\n      add\n      0x00\n      keccak256\n        /* \"TronexUniverse.sol\":13058:13089  users[userId].activeLevelsCount */\n      0x09\n      add\n      sload\n        /* \"TronexUniverse.sol\":13058:13094  users[userId].activeLevelsCount >= 1 */\n      lt\n      iszero\n        /* \"TronexUniverse.sol\":13050:13124  require(users[userId].activeLevelsCount >= 1, \"Must buy Level 1 to claim\") */\n      tag_201\n      jumpi\n      mload(0x40)\n      0x08c379a000000000000000000000000000000000000000000000000000000000\n      dup2\n      mstore\n      0x04\n      add\n      tag_202\n      swap1\n      tag_203\n      jump\t// in\n    tag_202:\n      mload(0x40)\n      dup1\n      swap2\n      sub\n      swap1\n      revert\n    tag_201:\n        /* \"TronexUniverse.sol\":13196:13202  1 days */\n      0x015180\n        /* \"TronexUniverse.sol\":13162:13167  users */\n      0x02\n        /* \"TronexUniverse.sol\":13162:13175  users[userId] */\n      0x00\n        /* \"TronexUniverse.sol\":13168:13174  userId */\n      dup4\n        /* \"TronexUniverse.sol\":13162:13175  users[userId] */\n      dup2\n      mstore\n      0x20\n      add\n      swap1\n      dup2\n      mstore\n      0x20\n      add\n      0x00\n      keccak256\n        /* \"TronexUniverse.sol\":13162:13193  users[userId].lastZeroRiskClaim */\n      0x05\n      add\n      sload\n        /* \"TronexUniverse.sol\":13162:13202  users[userId].lastZeroRiskClaim + 1 days */\n      tag_204\n      swap2\n      swap1\n      tag_205\n      jump\t// in\n    tag_204:\n        /* \"TronexUniverse.sol\":13143:13158  block.timestamp */\n      timestamp\n        /* \"TronexUniverse.sol\":13143:13202  block.timestamp >= users[userId].lastZeroRiskClaim + 1 days */\n      lt\n      iszero\n        /* \"TronexUniverse.sol\":13135:13215  require(block.timestamp >= users[userId].lastZeroRiskClaim + 1 days, \"Wait 24h\") */\n      tag_206\n      jumpi\n      mload(0x40)\n      0x08c379a000000000000000000000000000000000000000000000000000000000\n      dup2\n      mstore\n      0x04\n      add\n      tag_207\n      swap1\n      tag_208\n      jump\t// in\n    tag_207:\n      mload(0x40)\n      dup1\n      swap2\n      sub\n      swap1\n      revert\n    tag_206:\n        /* \"TronexUniverse.sol\":2276:2284  10 ether */\n      0x8ac7230489e80000\n        /* \"TronexUniverse.sol\":13234:13239  users */\n      0x02\n        /* \"TronexUniverse.sol\":13234:13247  users[userId] */\n      0x00\n        /* \"TronexUniverse.sol\":13240:13246  userId */\n      dup4\n        /* \"TronexUniverse.sol\":13234:13247  users[userId] */\n      dup2\n      mstore\n      0x20\n      add\n      swap1\n      dup2\n      mstore\n      0x20\n      add\n      0x00\n      keccak256\n        /* \"TronexUniverse.sol\":13234:13266  users[userId].earnedFromZeroRisk */\n      0x04\n      add\n      sload\n        /* \"TronexUniverse.sol\":13234:13282  users[userId].earnedFromZeroRisk < ZERO_RISK_CAP */\n      lt\n        /* \"TronexUniverse.sol\":13226:13304  require(users[userId].earnedFromZeroRisk < ZERO_RISK_CAP, \"Max limit reached\") */\n      tag_209\n      jumpi\n      mload(0x40)\n      0x08c379a000000000000000000000000000000000000000000000000000000000\n      dup2\n      mstore\n      0x04\n      add\n      tag_210\n      swap1\n      tag_211\n      jump\t// in\n    tag_210:\n      mload(0x40)\n      dup1\n      swap2\n      sub\n      swap1\n      revert\n    tag_209:\n        /* \"TronexUniverse.sol\":13345:13346  0 */\n      0x00\n        /* \"TronexUniverse.sol\":13323:13342  zeroRiskFundBalance */\n      sload(0x06)\n        /* \"TronexUniverse.sol\":13323:13346  zeroRiskFundBalance > 0 */\n      gt\n        /* \"TronexUniverse.sol\":13315:13361  require(zeroRiskFundBalance > 0, \"Pool empty\") */\n      tag_212\n      jumpi\n      mload(0x40)\n      0x08c379a000000000000000000000000000000000000000000000000000000000\n      dup2\n      mstore\n      0x04\n      add\n      tag_213\n      swap1\n      tag_214\n      jump\t// in\n    tag_213:\n      mload(0x40)\n      dup1\n      swap2\n      sub\n      swap1\n      revert\n    tag_212:\n        /* \"TronexUniverse.sol\":13374:13393  uint256 claimAmount */\n      0x00\n        /* \"TronexUniverse.sol\":13418:13434  totalPayingUsers */\n      sload(0x09)\n        /* \"TronexUniverse.sol\":13396:13415  zeroRiskFundBalance */\n      sload(0x06)\n        /* \"TronexUniverse.sol\":13396:13434  zeroRiskFundBalance / totalPayingUsers */\n      tag_215\n      swap2\n      swap1\n      tag_216\n      jump\t// in\n    tag_215:\n        /* \"TronexUniverse.sol\":13374:13434  uint256 claimAmount = zeroRiskFundBalance / totalPayingUsers */\n      swap1\n      pop\n        /* \"TronexUniverse.sol\":13467:13468  0 */\n      0x00\n        /* \"TronexUniverse.sol\":13453:13464  claimAmount */\n      dup2\n        /* \"TronexUniverse.sol\":13453:13468  claimAmount > 0 */\n      gt\n        /* \"TronexUniverse.sol\":13445:13495  require(claimAmount > 0, \"Claim amount too small\") */\n      tag_217\n      jumpi\n      mload(0x40)\n      0x08c379a000000000000000000000000000000000000000000000000000000000\n      dup2\n      mstore\n      0x04\n      add\n      tag_218\n      swap1\n      tag_219\n      jump\t// in\n    tag_218:\n      mload(0x40)\n      dup1\n      swap2\n      sub\n      swap1\n      revert\n    tag_217:\n        /* \"TronexUniverse.sol\":2340:2347  3 ether */\n      0x29a2241af62c0000\n        /* \"TronexUniverse.sol\":13511:13522  claimAmount */\n      dup2\n        /* \"TronexUniverse.sol\":13511:13546  claimAmount > ZERO_RISK_DAILY_LIMIT */\n      gt\n        /* \"TronexUniverse.sol\":13508:13583  if(claimAmount > ZERO_RISK_DAILY_LIMIT) claimAmount = ZERO_RISK_DAILY_LIMIT */\n      iszero\n      tag_220\n      jumpi\n        /* \"TronexUniverse.sol\":2340:2347  3 ether */\n      0x29a2241af62c0000\n        /* \"TronexUniverse.sol\":13548:13583  claimAmount = ZERO_RISK_DAILY_LIMIT */\n      swap1\n      pop\n        /* \"TronexUniverse.sol\":13508:13583  if(claimAmount > ZERO_RISK_DAILY_LIMIT) claimAmount = ZERO_RISK_DAILY_LIMIT */\n    tag_220:\n        /* \"TronexUniverse.sol\":2276:2284  10 ether */\n      0x8ac7230489e80000\n        /* \"TronexUniverse.sol\":13635:13646  claimAmount */\n      dup2\n        /* \"TronexUniverse.sol\":13600:13605  users */\n      0x02\n        /* \"TronexUniverse.sol\":13600:13613  users[userId] */\n      0x00\n        /* \"TronexUniverse.sol\":13606:13612  userId */\n      dup6\n        /* \"TronexUniverse.sol\":13600:13613  users[userId] */\n      dup2\n      mstore\n      0x20\n      add\n      swap1\n      dup2\n      mstore\n      0x20\n      add\n      0x00\n      keccak256\n        /* \"TronexUniverse.sol\":13600:13632  users[userId].earnedFromZeroRisk */\n      0x04\n      add\n      sload\n        /* \"TronexUniverse.sol\":13600:13646  users[userId].earnedFromZeroRisk + claimAmount */\n      tag_221\n      swap2\n      swap1\n      tag_205\n      jump\t// in\n    tag_221:\n        /* \"TronexUniverse.sol\":13600:13662  users[userId].earnedFromZeroRisk + claimAmount > ZERO_RISK_CAP */\n      gt\n        /* \"TronexUniverse.sol\":13597:13753  if(users[userId].earnedFromZeroRisk + claimAmount > ZERO_RISK_CAP) {... */\n      iszero\n      tag_222\n      jumpi\n        /* \"TronexUniverse.sol\":13709:13714  users */\n      0x02\n        /* \"TronexUniverse.sol\":13709:13722  users[userId] */\n      0x00\n        /* \"TronexUniverse.sol\":13715:13721  userId */\n      dup4\n        /* \"TronexUniverse.sol\":13709:13722  users[userId] */\n      dup2\n      mstore\n      0x20\n      add\n      swap1\n      dup2\n      mstore\n      0x20\n      add\n      0x00\n      keccak256\n        /* \"TronexUniverse.sol\":13709:13741  users[userId].earnedFromZeroRisk */\n      0x04\n      add\n      sload\n        /* \"TronexUniverse.sol\":2276:2284  10 ether */\n      0x8ac7230489e80000\n        /* \"TronexUniverse.sol\":13693:13741  ZERO_RISK_CAP - users[userId].earnedFromZeroRisk */\n      tag_223\n      swap2\n      swap1\n      tag_158\n      jump\t// in\n    tag_223:\n        /* \"TronexUniverse.sol\":13679:13741  claimAmount = ZERO_RISK_CAP - users[userId].earnedFromZeroRisk */\n      swap1\n      pop\n        /* \"TronexUniverse.sol\":13597:13753  if(users[userId].earnedFromZeroRisk + claimAmount > ZERO_RISK_CAP) {... */\n    tag_222:\n        /* \"TronexUniverse.sol\":13799:13814  block.timestamp */\n      timestamp\n        /* \"TronexUniverse.sol\":13765:13770  users */\n      0x02\n        /* \"TronexUniverse.sol\":13765:13778  users[userId] */\n      0x00\n        /* \"TronexUniverse.sol\":13771:13777  userId */\n      dup5\n        /* \"TronexUniverse.sol\":13765:13778  users[userId] */\n      dup2\n      mstore\n      0x20\n      add\n      swap1\n      dup2\n      mstore\n      0x20\n      add\n      0x00\n      keccak256\n        /* \"TronexUniverse.sol\":13765:13796  users[userId].lastZeroRiskClaim */\n      0x05\n      add\n        /* \"TronexUniverse.sol\":13765:13814  users[userId].lastZeroRiskClaim = block.timestamp */\n      dup2\n      swap1\n      sstore\n      pop\n        /* \"TronexUniverse.sol\":13861:13872  claimAmount */\n      dup1\n        /* \"TronexUniverse.sol\":13825:13830  users */\n      0x02\n        /* \"TronexUniverse.sol\":13825:13838  users[userId] */\n      0x00\n        /* \"TronexUniverse.sol\":13831:13837  userId */\n      dup5\n        /* \"TronexUniverse.sol\":13825:13838  users[userId] */\n      dup2\n      mstore\n      0x20\n      add\n      swap1\n      dup2\n      mstore\n      0x20\n      add\n      0x00\n      keccak256\n        /* \"TronexUniverse.sol\":13825:13857  users[userId].earnedFromZeroRisk */\n      0x04\n      add\n      0x00\n        /* \"TronexUniverse.sol\":13825:13872  users[userId].earnedFromZeroRisk += claimAmount */\n      dup3\n      dup3\n      sload\n      tag_224\n      swap2\n      swap1\n      tag_205\n      jump\t// in\n    tag_224:\n      swap3\n      pop\n      pop\n      dup2\n      swap1\n      sstore\n      pop\n        /* \"TronexUniverse.sol\":13906:13917  claimAmount */\n      dup1\n        /* \"TronexUniverse.sol\":13883:13902  zeroRiskFundBalance */\n      0x06\n      0x00\n        /* \"TronexUniverse.sol\":13883:13917  zeroRiskFundBalance -= claimAmount */\n      dup3\n      dup3\n      sload\n      tag_225\n      swap2\n      swap1\n      tag_158\n      jump\t// in\n    tag_225:\n      swap3\n      pop\n      pop\n      dup2\n      swap1\n      sstore\n      pop\n        /* \"TronexUniverse.sol\":13930:13942  bool success */\n      0x00\n        /* \"TronexUniverse.sol\":13945:13954  usdtToken */\n      0x00\n      0x00\n      swap1\n      sload\n      swap1\n      0x0100\n      exp\n      swap1\n      div\n      0xffffffffffffffffffffffffffffffffffffffff\n      and\n        /* \"TronexUniverse.sol\":13945:13963  usdtToken.transfer */\n      0xffffffffffffffffffffffffffffffffffffffff\n      and\n      0xa9059cbb\n        /* \"TronexUniverse.sol\":13964:13974  msg.sender */\n      caller\n        /* \"TronexUniverse.sol\":13976:13987  claimAmount */\n      dup5\n        /* \"TronexUniverse.sol\":13945:13988  usdtToken.transfer(msg.sender, claimAmount) */\n      mload(0x40)\n      dup4\n      0xffffffff\n      and\n      0xe0\n      shl\n      dup2\n      mstore\n      0x04\n      add\n      tag_226\n      swap3\n      swap2\n      swap1\n      tag_160\n      jump\t// in\n    tag_226:\n      0x20\n      mload(0x40)\n      dup1\n      dup4\n      sub\n      dup2\n      0x00\n      dup8\n      gas\n      call\n      iszero\n      dup1\n      iszero\n      tag_228\n      jumpi\n      returndatacopy(0x00, 0x00, returndatasize)\n      revert(0x00, returndatasize)\n    tag_228:\n      pop\n      pop\n      pop\n      pop\n      mload(0x40)\n      returndatasize\n      not(0x1f)\n      0x1f\n      dup3\n      add\n      and\n      dup3\n      add\n      dup1\n      0x40\n      mstore\n      pop\n      dup2\n      add\n      swap1\n      tag_229\n      swap2\n      swap1\n      tag_128\n      jump\t// in\n    tag_229:\n        /* \"TronexUniverse.sol\":13930:13988  bool success = usdtToken.transfer(msg.sender, claimAmount) */\n      swap1\n      pop\n        /* \"TronexUniverse.sol\":14007:14014  success */\n      dup1\n        /* \"TronexUniverse.sol\":13999:14039  require(success, \"USDT Transfer failed\") */\n      tag_230\n      jumpi\n      mload(0x40)\n      0x08c379a000000000000000000000000000000000000000000000000000000000\n      dup2\n      mstore\n      0x04\n      add\n      tag_231\n      swap1\n      tag_232\n      jump\t// in\n    tag_231:\n      mload(0x40)\n      dup1\n      swap2\n      sub\n      swap1\n      revert\n    tag_230:\n        /* \"TronexUniverse.sol\":14071:14077  userId */\n      dup3\n        /* \"TronexUniverse.sol\":14057:14091  ZeroRiskClaim(userId, claimAmount) */\n      0x4dc1addc23d21b7b1e4cdde9a7ef0d7b535c1d7c2156df4abdcf306c9a79174c\n        /* \"TronexUniverse.sol\":14079:14090  claimAmount */\n      dup4\n        /* \"TronexUniverse.sol\":14057:14091  ZeroRiskClaim(userId, claimAmount) */\n      mload(0x40)\n      tag_233\n      swap2\n      swap1\n      tag_34\n      jump\t// in\n    tag_233:\n      mload(0x40)\n      dup1\n      swap2\n      sub\n      swap1\n      log2\n        /* \"TronexUniverse.sol\":12939:14099  {... */\n      pop\n      pop\n      pop\n        /* \"TronexUniverse.sol\":12905:14099  function claimZeroRisk() external {... */\n      jump\t// out\n        /* \"TronexUniverse.sol\":15338:15847  function adminExtractStuckFunds() external {... */\n    tag_100:\n        /* \"TronexUniverse.sol\":15414:15419  owner */\n      0x04\n      0x00\n      swap1\n      sload\n      swap1\n      0x0100\n      exp\n      swap1\n      div\n      0xffffffffffffffffffffffffffffffffffffffff\n      and\n        /* \"TronexUniverse.sol\":15400:15419  msg.sender == owner */\n      0xffffffffffffffffffffffffffffffffffffffff\n      and\n        /* \"TronexUniverse.sol\":15400:15410  msg.sender */\n      caller\n        /* \"TronexUniverse.sol\":15400:15419  msg.sender == owner */\n      0xffffffffffffffffffffffffffffffffffffffff\n      and\n      eq\n        /* \"TronexUniverse.sol\":15392:15434  require(msg.sender == owner, \"Admin only\") */\n      tag_235\n      jumpi\n      mload(0x40)\n      0x08c379a000000000000000000000000000000000000000000000000000000000\n      dup2\n      mstore\n      0x04\n      add\n      tag_236\n      swap1\n      tag_153\n      jump\t// in\n    tag_236:\n      mload(0x40)\n      dup1\n      swap2\n      sub\n      swap1\n      revert\n    tag_235:\n        /* \"TronexUniverse.sol\":15455:15477  uint256 accountedFunds */\n      0x00\n        /* \"TronexUniverse.sol\":15501:15520  zeroRiskFundBalance */\n      sload(0x06)\n        /* \"TronexUniverse.sol\":15480:15498  royaltyFundBalance */\n      sload(0x07)\n        /* \"TronexUniverse.sol\":15480:15520  royaltyFundBalance + zeroRiskFundBalance */\n      tag_237\n      swap2\n      swap1\n      tag_205\n      jump\t// in\n    tag_237:\n        /* \"TronexUniverse.sol\":15455:15520  uint256 accountedFunds = royaltyFundBalance + zeroRiskFundBalance */\n      swap1\n      pop\n        /* \"TronexUniverse.sol\":15531:15552  uint256 actualBalance */\n      0x00\n        /* \"TronexUniverse.sol\":15555:15564  usdtToken */\n      0x00\n      0x00\n      swap1\n      sload\n      swap1\n      0x0100\n      exp\n      swap1\n      div\n      0xffffffffffffffffffffffffffffffffffffffff\n      and\n        /* \"TronexUniverse.sol\":15555:15574  usdtToken.balanceOf */\n      0xffffffffffffffffffffffffffffffffffffffff\n      and\n      0x70a08231\n        /* \"TronexUniverse.sol\":15583:15587  this */\n      address\n        /* \"TronexUniverse.sol\":15555:15589  usdtToken.balanceOf(address(this)) */\n      mload(0x40)\n      dup3\n      0xffffffff\n      and\n      0xe0\n      shl\n      dup2\n      mstore\n      0x04\n      add\n      tag_238\n      swap2\n      swap1\n      tag_70\n      jump\t// in\n    tag_238:\n      0x20\n      mload(0x40)\n      dup1\n      dup4\n      sub\n      dup2\n      dup7\n      gas\n      staticcall\n      iszero\n      dup1\n      iszero\n      tag_240\n      jumpi\n      returndatacopy(0x00, 0x00, returndatasize)\n      revert(0x00, returndatasize)\n    tag_240:\n      pop\n      pop\n      pop\n      pop\n      mload(0x40)\n      returndatasize\n      not(0x1f)\n      0x1f\n      dup3\n      add\n      and\n      dup3\n      add\n      dup1\n      0x40\n      mstore\n      pop\n      dup2\n      add\n      swap1\n      tag_241\n      swap2\n      swap1\n      tag_242\n      jump\t// in\n    tag_241:\n        /* \"TronexUniverse.sol\":15531:15589  uint256 actualBalance = usdtToken.balanceOf(address(this)) */\n      swap1\n      pop\n        /* \"TronexUniverse.sol\":15629:15643  accountedFunds */\n      dup2\n        /* \"TronexUniverse.sol\":15613:15626  actualBalance */\n      dup2\n        /* \"TronexUniverse.sol\":15613:15643  actualBalance > accountedFunds */\n      gt\n        /* \"TronexUniverse.sol\":15610:15840  if(actualBalance > accountedFunds) {... */\n      iszero\n      tag_243\n      jumpi\n        /* \"TronexUniverse.sol\":15660:15679  uint256 stuckAmount */\n      0x00\n        /* \"TronexUniverse.sol\":15698:15712  accountedFunds */\n      dup3\n        /* \"TronexUniverse.sol\":15682:15695  actualBalance */\n      dup3\n        /* \"TronexUniverse.sol\":15682:15712  actualBalance - accountedFunds */\n      tag_244\n      swap2\n      swap1\n      tag_158\n      jump\t// in\n    tag_244:\n        /* \"TronexUniverse.sol\":15660:15712  uint256 stuckAmount = actualBalance - accountedFunds */\n      swap1\n      pop\n        /* \"TronexUniverse.sol\":15749:15760  stuckAmount */\n      dup1\n        /* \"TronexUniverse.sol\":15727:15745  royaltyFundBalance */\n      0x07\n      0x00\n        /* \"TronexUniverse.sol\":15727:15760  royaltyFundBalance += stuckAmount */\n      dup3\n      dup3\n      sload\n      tag_245\n      swap2\n      swap1\n      tag_205\n      jump\t// in\n    tag_245:\n      swap3\n      pop\n      pop\n      dup2\n      swap1\n      sstore\n      pop\n        /* \"TronexUniverse.sol\":15780:15828  FundCredit(\"Recovered Stuck Funds\", stuckAmount) */\n      0x1e2a45ecb3dcf528dd38ba1f2a869b557ebce43d5035a1471745e0bb4272147d\n        /* \"TronexUniverse.sol\":15816:15827  stuckAmount */\n      dup2\n        /* \"TronexUniverse.sol\":15780:15828  FundCredit(\"Recovered Stuck Funds\", stuckAmount) */\n      mload(0x40)\n      tag_246\n      swap2\n      swap1\n      tag_247\n      jump\t// in\n    tag_246:\n      mload(0x40)\n      dup1\n      swap2\n      sub\n      swap1\n      log1\n        /* \"TronexUniverse.sol\":15645:15840  {... */\n      pop\n        /* \"TronexUniverse.sol\":15610:15840  if(actualBalance > accountedFunds) {... */\n    tag_243:\n        /* \"TronexUniverse.sol\":15381:15847  {... */\n      pop\n      pop\n        /* \"TronexUniverse.sol\":15338:15847  function adminExtractStuckFunds() external {... */\n      jump\t// out\n        /* \"TronexUniverse.sol\":2187:2218  uint256 public totalPayingUsers */\n    tag_102:\n      sload(0x09)\n      dup2\n      jump\t// out\n        /* \"TronexUniverse.sol\":17692:18604  function adminActivateSlot(uint256 _userId, uint256 _level) external {... */\n    tag_106:\n        /* \"TronexUniverse.sol\":17794:17799  owner */\n      0x04\n      0x00\n      swap1\n      sload\n      swap1\n      0x0100\n      exp\n      swap1\n      div\n      0xffffffffffffffffffffffffffffffffffffffff\n      and\n        /* \"TronexUniverse.sol\":17780:17799  msg.sender == owner */\n      0xffffffffffffffffffffffffffffffffffffffff\n      and\n        /* \"TronexUniverse.sol\":17780:17790  msg.sender */\n      caller\n        /* \"TronexUniverse.sol\":17780:17799  msg.sender == owner */\n      0xffffffffffffffffffffffffffffffffffffffff\n      and\n      eq\n        /* \"TronexUniverse.sol\":17772:17814  require(msg.sender == owner, \"Admin Only\") */\n      tag_249\n      jumpi\n      mload(0x40)\n      0x08c379a000000000000000000000000000000000000000000000000000000000\n      dup2\n      mstore\n      0x04\n      add\n      tag_250\n      swap1\n      tag_251\n      jump\t// in\n    tag_250:\n      mload(0x40)\n      dup1\n      swap2\n      sub\n      swap1\n      revert\n    tag_249:\n        /* \"TronexUniverse.sol\":17854:17855  0 */\n      0x00\n        /* \"TronexUniverse.sol\":17833:17838  users */\n      0x02\n        /* \"TronexUniverse.sol\":17833:17847  users[_userId] */\n      0x00\n        /* \"TronexUniverse.sol\":17839:17846  _userId */\n      dup5\n        /* \"TronexUniverse.sol\":17833:17847  users[_userId] */\n      dup2\n      mstore\n      0x20\n      add\n      swap1\n      dup2\n      mstore\n      0x20\n      add\n      0x00\n      keccak256\n        /* \"TronexUniverse.sol\":17833:17850  users[_userId].id */\n      0x00\n      add\n      sload\n        /* \"TronexUniverse.sol\":17833:17855  users[_userId].id != 0 */\n      sub\n        /* \"TronexUniverse.sol\":17825:17874  require(users[_userId].id != 0, \"User not found\") */\n      tag_252\n      jumpi\n      mload(0x40)\n      0x08c379a000000000000000000000000000000000000000000000000000000000\n      dup2\n      mstore\n      0x04\n      add\n      tag_253\n      swap1\n      tag_254\n      jump\t// in\n    tag_253:\n      mload(0x40)\n      dup1\n      swap2\n      sub\n      swap1\n      revert\n    tag_252:\n        /* \"TronexUniverse.sol\":17903:17904  1 */\n      0x01\n        /* \"TronexUniverse.sol\":17893:17899  _level */\n      dup2\n        /* \"TronexUniverse.sol\":17893:17904  _level >= 1 */\n      lt\n      iszero\n        /* \"TronexUniverse.sol\":17893:17920  _level >= 1 && _level <= 10 */\n      dup1\n      iszero\n      tag_255\n      jumpi\n      pop\n        /* \"TronexUniverse.sol\":17918:17920  10 */\n      0x0a\n        /* \"TronexUniverse.sol\":17908:17914  _level */\n      dup2\n        /* \"TronexUniverse.sol\":17908:17920  _level <= 10 */\n      gt\n      iszero\n        /* \"TronexUniverse.sol\":17893:17920  _level >= 1 && _level <= 10 */\n    tag_255:\n        /* \"TronexUniverse.sol\":17885:17938  require(_level >= 1 && _level <= 10, \"Invalid Level\") */\n      tag_256\n      jumpi\n      mload(0x40)\n      0x08c379a000000000000000000000000000000000000000000000000000000000\n      dup2\n      mstore\n      0x04\n      add\n      tag_257\n      swap1\n      tag_174\n      jump\t// in\n    tag_257:\n      mload(0x40)\n      dup1\n      swap2\n      sub\n      swap1\n      revert\n    tag_256:\n        /* \"TronexUniverse.sol\":17999:18000  0 */\n      0x00\n        /* \"TronexUniverse.sol\":17963:17968  users */\n      0x02\n        /* \"TronexUniverse.sol\":17963:17977  users[_userId] */\n      0x00\n        /* \"TronexUniverse.sol\":17969:17976  _userId */\n      dup5\n        /* \"TronexUniverse.sol\":17963:17977  users[_userId] */\n      dup2\n      mstore\n      0x20\n      add\n      swap1\n      dup2\n      mstore\n      0x20\n      add\n      0x00\n      keccak256\n        /* \"TronexUniverse.sol\":17963:17995  users[_userId].activeLevelsCount */\n      0x09\n      add\n      sload\n        /* \"TronexUniverse.sol\":17963:18000  users[_userId].activeLevelsCount == 0 */\n      eq\n        /* \"TronexUniverse.sol\":17963:18015  users[_userId].activeLevelsCount == 0 && _level >= 1 */\n      dup1\n      iszero\n      tag_258\n      jumpi\n      pop\n        /* \"TronexUniverse.sol\":18014:18015  1 */\n      0x01\n        /* \"TronexUniverse.sol\":18004:18010  _level */\n      dup2\n        /* \"TronexUniverse.sol\":18004:18015  _level >= 1 */\n      lt\n      iszero\n        /* \"TronexUniverse.sol\":17963:18015  users[_userId].activeLevelsCount == 0 && _level >= 1 */\n    tag_258:\n        /* \"TronexUniverse.sol\":17959:18172  if (users[_userId].activeLevelsCount == 0 && _level >= 1) {... */\n      iszero\n      tag_259\n      jumpi\n        /* \"TronexUniverse.sol\":18032:18050  uint256 referrerId */\n      0x00\n        /* \"TronexUniverse.sol\":18053:18058  users */\n      0x02\n        /* \"TronexUniverse.sol\":18053:18067  users[_userId] */\n      0x00\n        /* \"TronexUniverse.sol\":18059:18066  _userId */\n      dup5\n        /* \"TronexUniverse.sol\":18053:18067  users[_userId] */\n      dup2\n      mstore\n      0x20\n      add\n      swap1\n      dup2\n      mstore\n      0x20\n      add\n      0x00\n      keccak256\n        /* \"TronexUniverse.sol\":18053:18078  users[_userId].referrerId */\n      0x02\n      add\n      sload\n        /* \"TronexUniverse.sol\":18032:18078  uint256 referrerId = users[_userId].referrerId */\n      swap1\n      pop\n        /* \"TronexUniverse.sol\":18093:18098  users */\n      0x02\n        /* \"TronexUniverse.sol\":18093:18110  users[referrerId] */\n      0x00\n        /* \"TronexUniverse.sol\":18099:18109  referrerId */\n      dup3\n        /* \"TronexUniverse.sol\":18093:18110  users[referrerId] */\n      dup2\n      mstore\n      0x20\n      add\n      swap1\n      dup2\n      mstore\n      0x20\n      add\n      0x00\n      keccak256\n        /* \"TronexUniverse.sol\":18093:18125  users[referrerId].activeTeamSize */\n      0x08\n      add\n      0x00\n        /* \"TronexUniverse.sol\":18093:18127  users[referrerId].activeTeamSize++ */\n      dup2\n      sload\n      dup1\n      swap3\n      swap2\n      swap1\n      tag_260\n      swap1\n      tag_133\n      jump\t// in\n    tag_260:\n      swap2\n      swap1\n      pop\n      sstore\n      pop\n        /* \"TronexUniverse.sol\":18142:18158  totalPayingUsers */\n      0x09\n      0x00\n        /* \"TronexUniverse.sol\":18142:18160  totalPayingUsers++ */\n      dup2\n      sload\n      dup1\n      swap3\n      swap2\n      swap1\n      tag_261\n      swap1\n      tag_133\n      jump\t// in\n    tag_261:\n      swap2\n      swap1\n      pop\n      sstore\n      pop\n        /* \"TronexUniverse.sol\":18017:18172  {... */\n      pop\n        /* \"TronexUniverse.sol\":17959:18172  if (users[_userId].activeLevelsCount == 0 && _level >= 1) {... */\n    tag_259:\n        /* \"TronexUniverse.sol\":18219:18225  _level */\n      dup1\n        /* \"TronexUniverse.sol\":18184:18189  users */\n      0x02\n        /* \"TronexUniverse.sol\":18184:18198  users[_userId] */\n      0x00\n        /* \"TronexUniverse.sol\":18190:18197  _userId */\n      dup5\n        /* \"TronexUniverse.sol\":18184:18198  users[_userId] */\n      dup2\n      mstore\n      0x20\n      add\n      swap1\n      dup2\n      mstore\n      0x20\n      add\n      0x00\n      keccak256\n        /* \"TronexUniverse.sol\":18184:18216  users[_userId].activeLevelsCount */\n      0x09\n      add\n        /* \"TronexUniverse.sol\":18184:18225  users[_userId].activeLevelsCount = _level */\n      dup2\n      swap1\n      sstore\n      pop\n        /* \"TronexUniverse.sol\":18238:18256  uint256 fakeAmount */\n      0x00\n        /* \"TronexUniverse.sol\":18259:18271  packagePrice */\n      0x05\n        /* \"TronexUniverse.sol\":18272:18278  _level */\n      dup3\n        /* \"TronexUniverse.sol\":18259:18279  packagePrice[_level] */\n      dup2\n      sload\n      dup2\n      lt\n      tag_262\n      jumpi\n      tag_263\n      tag_121\n      jump\t// in\n    tag_263:\n    tag_262:\n      swap1\n      0x00\n      mstore\n      keccak256(0x00, 0x20)\n      add\n      sload\n        /* \"TronexUniverse.sol\":18238:18279  uint256 fakeAmount = packagePrice[_level] */\n      swap1\n      pop\n        /* \"TronexUniverse.sol\":18300:18322  uint256 fakeCommission */\n      0x00\n        /* \"TronexUniverse.sol\":18361:18366  10000 */\n      0x2710\n        /* \"TronexUniverse.sol\":1853:1857  3333 */\n      0x0d05\n        /* \"TronexUniverse.sol\":18326:18336  fakeAmount */\n      dup4\n        /* \"TronexUniverse.sol\":18326:18357  fakeAmount * DIRECT_SPONSOR_PCT */\n      tag_265\n      swap2\n      swap1\n      tag_266\n      jump\t// in\n    tag_265:\n        /* \"TronexUniverse.sol\":18325:18366  (fakeAmount * DIRECT_SPONSOR_PCT) / 10000 */\n      tag_267\n      swap2\n      swap1\n      tag_216\n      jump\t// in\n    tag_267:\n        /* \"TronexUniverse.sol\":18300:18366  uint256 fakeCommission = (fakeAmount * DIRECT_SPONSOR_PCT) / 10000 */\n      swap1\n      pop\n        /* \"TronexUniverse.sol\":18377:18400  uint256 activeSponsorId */\n      0x00\n        /* \"TronexUniverse.sol\":18403:18456  findActiveReferrer(users[_userId].referrerId, _level) */\n      tag_268\n        /* \"TronexUniverse.sol\":18422:18427  users */\n      0x02\n        /* \"TronexUniverse.sol\":18422:18436  users[_userId] */\n      0x00\n        /* \"TronexUniverse.sol\":18428:18435  _userId */\n      dup8\n        /* \"TronexUniverse.sol\":18422:18436  users[_userId] */\n      dup2\n      mstore\n      0x20\n      add\n      swap1\n      dup2\n      mstore\n      0x20\n      add\n      0x00\n      keccak256\n        /* \"TronexUniverse.sol\":18422:18447  users[_userId].referrerId */\n      0x02\n      add\n      sload\n        /* \"TronexUniverse.sol\":18449:18455  _level */\n      dup6\n        /* \"TronexUniverse.sol\":18403:18421  findActiveReferrer */\n      tag_269\n        /* \"TronexUniverse.sol\":18403:18456  findActiveReferrer(users[_userId].referrerId, _level) */\n      jump\t// in\n    tag_268:\n        /* \"TronexUniverse.sol\":18377:18456  uint256 activeSponsorId = findActiveReferrer(users[_userId].referrerId, _level) */\n      swap1\n      pop\n        /* \"TronexUniverse.sol\":18489:18504  activeSponsorId */\n      dup1\n        /* \"TronexUniverse.sol\":18482:18546  Payout(activeSponsorId, fakeCommission, \"Direct Sponsor (Test)\") */\n      0x84d59367f51ac1996d0fd634ec79c866d4b5e5aa446013eebc4f1090e19236d6\n        /* \"TronexUniverse.sol\":18506:18520  fakeCommission */\n      dup4\n        /* \"TronexUniverse.sol\":18482:18546  Payout(activeSponsorId, fakeCommission, \"Direct Sponsor (Test)\") */\n      mload(0x40)\n      tag_270\n      swap2\n      swap1\n      tag_271\n      jump\t// in\n    tag_270:\n      mload(0x40)\n      dup1\n      swap2\n      sub\n      swap1\n      log2\n        /* \"TronexUniverse.sol\":18580:18587  _userId */\n      dup5\n        /* \"TronexUniverse.sol\":18562:18596  TestingDollarUsed(_userId, _level) */\n      0xfaa1c1a520c0ae879572f170d29e7789d9914069ca5e57d63d68054661336d61\n        /* \"TronexUniverse.sol\":18589:18595  _level */\n      dup6\n        /* \"TronexUniverse.sol\":18562:18596  TestingDollarUsed(_userId, _level) */\n      mload(0x40)\n      tag_272\n      swap2\n      swap1\n      tag_34\n      jump\t// in\n    tag_272:\n      mload(0x40)\n      dup1\n      swap2\n      sub\n      swap1\n      log2\n        /* \"TronexUniverse.sol\":17761:18604  {... */\n      pop\n      pop\n      pop\n        /* \"TronexUniverse.sol\":17692:18604  function adminActivateSlot(uint256 _userId, uint256 _level) external {... */\n      pop\n      pop\n      jump\t// out\n        /* \"TronexUniverse.sol\":15855:16418  function transferOwnership(address newOwner) external {... */\n    tag_109:\n        /* \"TronexUniverse.sol\":15942:15947  owner */\n      0x04\n      0x00\n      swap1\n      sload\n      swap1\n      0x0100\n      exp\n      swap1\n      div\n      0xffffffffffffffffffffffffffffffffffffffff\n      and\n        /* \"TronexUniverse.sol\":15928:15947  msg.sender == owner */\n      0xffffffffffffffffffffffffffffffffffffffff\n      and\n        /* \"TronexUniverse.sol\":15928:15938  msg.sender */\n      caller\n        /* \"TronexUniverse.sol\":15928:15947  msg.sender == owner */\n      0xffffffffffffffffffffffffffffffffffffffff\n      and\n      eq\n        /* \"TronexUniverse.sol\":15920:15962  require(msg.sender == owner, \"Admin only\") */\n      tag_274\n      jumpi\n      mload(0x40)\n      0x08c379a000000000000000000000000000000000000000000000000000000000\n      dup2\n      mstore\n      0x04\n      add\n      tag_275\n      swap1\n      tag_153\n      jump\t// in\n    tag_275:\n      mload(0x40)\n      dup1\n      swap2\n      sub\n      swap1\n      revert\n    tag_274:\n        /* \"TronexUniverse.sol\":16001:16002  0 */\n      0x00\n        /* \"TronexUniverse.sol\":15981:16003  newOwner != address(0) */\n      0xffffffffffffffffffffffffffffffffffffffff\n      and\n        /* \"TronexUniverse.sol\":15981:15989  newOwner */\n      dup2\n        /* \"TronexUniverse.sol\":15981:16003  newOwner != address(0) */\n      0xffffffffffffffffffffffffffffffffffffffff\n      and\n      sub\n        /* \"TronexUniverse.sol\":15973:16023  require(newOwner != address(0), \"Invalid address\") */\n      tag_276\n      jumpi\n      mload(0x40)\n      0x08c379a000000000000000000000000000000000000000000000000000000000\n      dup2\n      mstore\n      0x04\n      add\n      tag_277\n      swap1\n      tag_278\n      jump\t// in\n    tag_277:\n      mload(0x40)\n      dup1\n      swap2\n      sub\n      swap1\n      revert\n    tag_276:\n        /* \"TronexUniverse.sol\":16067:16068  0 */\n      0x00\n        /* \"TronexUniverse.sol\":16042:16053  addressToId */\n      0x01\n        /* \"TronexUniverse.sol\":16042:16063  addressToId[newOwner] */\n      0x00\n        /* \"TronexUniverse.sol\":16054:16062  newOwner */\n      dup4\n        /* \"TronexUniverse.sol\":16042:16063  addressToId[newOwner] */\n      0xffffffffffffffffffffffffffffffffffffffff\n      and\n      0xffffffffffffffffffffffffffffffffffffffff\n      and\n      dup2\n      mstore\n      0x20\n      add\n      swap1\n      dup2\n      mstore\n      0x20\n      add\n      0x00\n      keccak256\n      sload\n        /* \"TronexUniverse.sol\":16042:16068  addressToId[newOwner] == 0 */\n      eq\n        /* \"TronexUniverse.sol\":16042:16105  addressToId[newOwner] == 0 || addressToId[newOwner] == ADMIN_ID */\n      dup1\n      tag_279\n      jumpi\n      pop\n        /* \"TronexUniverse.sol\":1283:1287  1000 */\n      0x03e8\n        /* \"TronexUniverse.sol\":16072:16083  addressToId */\n      0x01\n        /* \"TronexUniverse.sol\":16072:16093  addressToId[newOwner] */\n      0x00\n        /* \"TronexUniverse.sol\":16084:16092  newOwner */\n      dup4\n        /* \"TronexUniverse.sol\":16072:16093  addressToId[newOwner] */\n      0xffffffffffffffffffffffffffffffffffffffff\n      and\n      0xffffffffffffffffffffffffffffffffffffffff\n      and\n      dup2\n      mstore\n      0x20\n      add\n      swap1\n      dup2\n      mstore\n      0x20\n      add\n      0x00\n      keccak256\n      sload\n        /* \"TronexUniverse.sol\":16072:16105  addressToId[newOwner] == ADMIN_ID */\n      eq\n        /* \"TronexUniverse.sol\":16042:16105  addressToId[newOwner] == 0 || addressToId[newOwner] == ADMIN_ID */\n    tag_279:\n        /* \"TronexUniverse.sol\":16034:16136  require(addressToId[newOwner] == 0 || addressToId[newOwner] == ADMIN_ID, \"Address already registered\") */\n      tag_280\n      jumpi\n      mload(0x40)\n      0x08c379a000000000000000000000000000000000000000000000000000000000\n      dup2\n      mstore\n      0x04\n      add\n      tag_281\n      swap1\n      tag_282\n      jump\t// in\n    tag_281:\n      mload(0x40)\n      dup1\n      swap2\n      sub\n      swap1\n      revert\n    tag_280:\n        /* \"TronexUniverse.sol\":16157:16173  address oldOwner */\n      0x00\n        /* \"TronexUniverse.sol\":16176:16181  owner */\n      0x04\n      0x00\n      swap1\n      sload\n      swap1\n      0x0100\n      exp\n      swap1\n      div\n      0xffffffffffffffffffffffffffffffffffffffff\n      and\n        /* \"TronexUniverse.sol\":16157:16181  address oldOwner = owner */\n      swap1\n      pop\n        /* \"TronexUniverse.sol\":16200:16208  newOwner */\n      dup2\n        /* \"TronexUniverse.sol\":16192:16197  owner */\n      0x04\n      0x00\n        /* \"TronexUniverse.sol\":16192:16208  owner = newOwner */\n      0x0100\n      exp\n      dup2\n      sload\n      dup2\n      0xffffffffffffffffffffffffffffffffffffffff\n      mul\n      not\n      and\n      swap1\n      dup4\n      0xffffffffffffffffffffffffffffffffffffffff\n      and\n      mul\n      or\n      swap1\n      sstore\n      pop\n        /* \"TronexUniverse.sol\":16254:16262  newOwner */\n      dup2\n        /* \"TronexUniverse.sol\":16229:16234  users */\n      0x02\n        /* \"TronexUniverse.sol\":16229:16244  users[ADMIN_ID] */\n      0x00\n        /* \"TronexUniverse.sol\":1283:1287  1000 */\n      0x03e8\n        /* \"TronexUniverse.sol\":16229:16244  users[ADMIN_ID] */\n      dup2\n      mstore\n      0x20\n      add\n      swap1\n      dup2\n      mstore\n      0x20\n      add\n      0x00\n      keccak256\n        /* \"TronexUniverse.sol\":16229:16251  users[ADMIN_ID].wallet */\n      0x01\n      add\n      0x00\n        /* \"TronexUniverse.sol\":16229:16262  users[ADMIN_ID].wallet = newOwner */\n      0x0100\n      exp\n      dup2\n      sload\n      dup2\n      0xffffffffffffffffffffffffffffffffffffffff\n      mul\n      not\n      and\n      swap1\n      dup4\n      0xffffffffffffffffffffffffffffffffffffffff\n      and\n      mul\n      or\n      swap1\n      sstore\n      pop\n        /* \"TronexUniverse.sol\":16280:16291  addressToId */\n      0x01\n        /* \"TronexUniverse.sol\":16280:16301  addressToId[oldOwner] */\n      0x00\n        /* \"TronexUniverse.sol\":16292:16300  oldOwner */\n      dup3\n        /* \"TronexUniverse.sol\":16280:16301  addressToId[oldOwner] */\n      0xffffffffffffffffffffffffffffffffffffffff\n      and\n      0xffffffffffffffffffffffffffffffffffffffff\n      and\n      dup2\n      mstore\n      0x20\n      add\n      swap1\n      dup2\n      mstore\n      0x20\n      add\n      0x00\n      keccak256\n        /* \"TronexUniverse.sol\":16273:16301  delete addressToId[oldOwner] */\n      0x00\n      swap1\n      sstore\n        /* \"TronexUniverse.sol\":1283:1287  1000 */\n      0x03e8\n        /* \"TronexUniverse.sol\":16312:16323  addressToId */\n      0x01\n        /* \"TronexUniverse.sol\":16312:16333  addressToId[newOwner] */\n      0x00\n        /* \"TronexUniverse.sol\":16324:16332  newOwner */\n      dup5\n        /* \"TronexUniverse.sol\":16312:16333  addressToId[newOwner] */\n      0xffffffffffffffffffffffffffffffffffffffff\n      and\n      0xffffffffffffffffffffffffffffffffffffffff\n      and\n      dup2\n      mstore\n      0x20\n      add\n      swap1\n      dup2\n      mstore\n      0x20\n      add\n      0x00\n      keccak256\n        /* \"TronexUniverse.sol\":16312:16344  addressToId[newOwner] = ADMIN_ID */\n      dup2\n      swap1\n      sstore\n      pop\n        /* \"TronexUniverse.sol\":16401:16409  newOwner */\n      dup2\n        /* \"TronexUniverse.sol\":16370:16410  OwnershipTransferred(oldOwner, newOwner) */\n      0xffffffffffffffffffffffffffffffffffffffff\n      and\n        /* \"TronexUniverse.sol\":16391:16399  oldOwner */\n      dup2\n        /* \"TronexUniverse.sol\":16370:16410  OwnershipTransferred(oldOwner, newOwner) */\n      0xffffffffffffffffffffffffffffffffffffffff\n      and\n      0x8be0079c531659141344cd1fd0a4f28419497f9722a3daafe3b4186f6b6457e0\n      mload(0x40)\n      mload(0x40)\n      dup1\n      swap2\n      sub\n      swap1\n      log3\n        /* \"TronexUniverse.sol\":15909:16418  {... */\n      pop\n        /* \"TronexUniverse.sol\":15855:16418  function transferOwnership(address newOwner) external {... */\n      pop\n      jump\t// out\n        /* \"TronexUniverse.sol\":6120:8442  function buyPackageLogic(uint256 _userId, uint256 _level, uint256 _amount) internal {... */\n    tag_140:\n        /* \"TronexUniverse.sol\":6215:6232  User storage user */\n      0x00\n        /* \"TronexUniverse.sol\":6235:6240  users */\n      0x02\n        /* \"TronexUniverse.sol\":6235:6249  users[_userId] */\n      0x00\n        /* \"TronexUniverse.sol\":6241:6248  _userId */\n      dup6\n        /* \"TronexUniverse.sol\":6235:6249  users[_userId] */\n      dup2\n      mstore\n      0x20\n      add\n      swap1\n      dup2\n      mstore\n      0x20\n      add\n      0x00\n      keccak256\n        /* \"TronexUniverse.sol\":6215:6249  User storage user = users[_userId] */\n      swap1\n      pop\n        /* \"TronexUniverse.sol\":6260:6278  uint256 referrerId */\n      0x00\n        /* \"TronexUniverse.sol\":6281:6285  user */\n      dup2\n        /* \"TronexUniverse.sol\":6281:6296  user.referrerId */\n      0x02\n      add\n      sload\n        /* \"TronexUniverse.sol\":6260:6296  uint256 referrerId = user.referrerId */\n      swap1\n      pop\n        /* \"TronexUniverse.sol\":6390:6413  uint256 activeSponsorId */\n      0x00\n        /* \"TronexUniverse.sol\":6416:6454  findActiveReferrer(referrerId, _level) */\n      tag_284\n        /* \"TronexUniverse.sol\":6435:6445  referrerId */\n      dup3\n        /* \"TronexUniverse.sol\":6447:6453  _level */\n      dup7\n        /* \"TronexUniverse.sol\":6416:6434  findActiveReferrer */\n      tag_269\n        /* \"TronexUniverse.sol\":6416:6454  findActiveReferrer(referrerId, _level) */\n      jump\t// in\n    tag_284:\n        /* \"TronexUniverse.sol\":6390:6454  uint256 activeSponsorId = findActiveReferrer(referrerId, _level) */\n      swap1\n      pop\n        /* \"TronexUniverse.sol\":6554:6572  uint256 sponsorAmt */\n      0x00\n        /* \"TronexUniverse.sol\":6608:6613  10000 */\n      0x2710\n        /* \"TronexUniverse.sol\":1853:1857  3333 */\n      0x0d05\n        /* \"TronexUniverse.sol\":6576:6583  _amount */\n      dup7\n        /* \"TronexUniverse.sol\":6576:6604  _amount * DIRECT_SPONSOR_PCT */\n      tag_285\n      swap2\n      swap1\n      tag_266\n      jump\t// in\n    tag_285:\n        /* \"TronexUniverse.sol\":6575:6613  (_amount * DIRECT_SPONSOR_PCT) / 10000 */\n      tag_286\n      swap2\n      swap1\n      tag_216\n      jump\t// in\n    tag_286:\n        /* \"TronexUniverse.sol\":6554:6613  uint256 sponsorAmt = (_amount * DIRECT_SPONSOR_PCT) / 10000 */\n      swap1\n      pop\n        /* \"TronexUniverse.sol\":6624:6680  sendMoney(activeSponsorId, sponsorAmt, \"Direct Sponsor\") */\n      tag_287\n        /* \"TronexUniverse.sol\":6634:6649  activeSponsorId */\n      dup3\n        /* \"TronexUniverse.sol\":6651:6661  sponsorAmt */\n      dup3\n        /* \"TronexUniverse.sol\":6624:6680  sendMoney(activeSponsorId, sponsorAmt, \"Direct Sponsor\") */\n      mload(0x40)\n      dup1\n      0x40\n      add\n      0x40\n      mstore\n      dup1\n      0x0e\n      dup2\n      mstore\n      0x20\n      add\n      0x4469726563742053706f6e736f72000000000000000000000000000000000000\n      dup2\n      mstore\n      pop\n        /* \"TronexUniverse.sol\":6624:6633  sendMoney */\n      tag_288\n        /* \"TronexUniverse.sol\":6624:6680  sendMoney(activeSponsorId, sponsorAmt, \"Direct Sponsor\") */\n      jump\t// in\n    tag_287:\n        /* \"TronexUniverse.sol\":6778:6779  0 */\n      0x00\n        /* \"TronexUniverse.sol\":6756:6775  currentRecycleDepth */\n      0x0a\n        /* \"TronexUniverse.sol\":6756:6779  currentRecycleDepth = 0 */\n      dup2\n      swap1\n      sstore\n      pop\n        /* \"TronexUniverse.sol\":6837:6887  handleMatrix(_userId, referrerId, _level, _amount) */\n      tag_289\n        /* \"TronexUniverse.sol\":6850:6857  _userId */\n      dup8\n        /* \"TronexUniverse.sol\":6859:6869  referrerId */\n      dup5\n        /* \"TronexUniverse.sol\":6871:6877  _level */\n      dup9\n        /* \"TronexUniverse.sol\":6879:6886  _amount */\n      dup9\n        /* \"TronexUniverse.sol\":6837:6849  handleMatrix */\n      tag_290\n        /* \"TronexUniverse.sol\":6837:6887  handleMatrix(_userId, referrerId, _level, _amount) */\n      jump\t// in\n    tag_289:\n        /* \"TronexUniverse.sol\":6963:6982  uint256 genAmtTotal */\n      0x00\n        /* \"TronexUniverse.sol\":7014:7019  10000 */\n      0x2710\n        /* \"TronexUniverse.sol\":1951:1955  3333 */\n      0x0d05\n        /* \"TronexUniverse.sol\":6986:6993  _amount */\n      dup8\n        /* \"TronexUniverse.sol\":6986:7010  _amount * GEN_REWARD_PCT */\n      tag_291\n      swap2\n      swap1\n      tag_266\n      jump\t// in\n    tag_291:\n        /* \"TronexUniverse.sol\":6985:7019  (_amount * GEN_REWARD_PCT) / 10000 */\n      tag_292\n      swap2\n      swap1\n      tag_216\n      jump\t// in\n    tag_292:\n        /* \"TronexUniverse.sol\":6963:7019  uint256 genAmtTotal = (_amount * GEN_REWARD_PCT) / 10000 */\n      swap1\n      pop\n        /* \"TronexUniverse.sol\":7030:7047  uint256 perGenAmt */\n      0x00\n        /* \"TronexUniverse.sol\":7064:7066  10 */\n      0x0a\n        /* \"TronexUniverse.sol\":7050:7061  genAmtTotal */\n      dup3\n        /* \"TronexUniverse.sol\":7050:7066  genAmtTotal / 10 */\n      tag_293\n      swap2\n      swap1\n      tag_216\n      jump\t// in\n    tag_293:\n        /* \"TronexUniverse.sol\":7030:7066  uint256 perGenAmt = genAmtTotal / 10 */\n      swap1\n      pop\n        /* \"TronexUniverse.sol\":7077:7101  uint256 totalDistributed */\n      0x00\n        /* \"TronexUniverse.sol\":7104:7105  0 */\n      0x00\n        /* \"TronexUniverse.sol\":7077:7105  uint256 totalDistributed = 0 */\n      swap1\n      pop\n        /* \"TronexUniverse.sol\":7126:7142  uint256 uplineId */\n      0x00\n        /* \"TronexUniverse.sol\":7145:7155  referrerId */\n      dup7\n        /* \"TronexUniverse.sol\":7126:7155  uint256 uplineId = referrerId */\n      swap1\n      pop\n        /* \"TronexUniverse.sol\":7170:7179  uint256 i */\n      0x00\n        /* \"TronexUniverse.sol\":7180:7181  1 */\n      0x01\n        /* \"TronexUniverse.sol\":7170:7181  uint256 i=1 */\n      swap1\n      pop\n        /* \"TronexUniverse.sol\":7166:7680  for(uint256 i=1; i<=10; i++) {... */\n    tag_294:\n        /* \"TronexUniverse.sol\":7186:7188  10 */\n      0x0a\n        /* \"TronexUniverse.sol\":7183:7184  i */\n      dup2\n        /* \"TronexUniverse.sol\":7183:7188  i<=10 */\n      gt\n        /* \"TronexUniverse.sol\":7166:7680  for(uint256 i=1; i<=10; i++) {... */\n      tag_295\n      jumpi\n        /* \"TronexUniverse.sol\":7225:7226  0 */\n      0x00\n        /* \"TronexUniverse.sol\":7213:7221  uplineId */\n      dup3\n        /* \"TronexUniverse.sol\":7213:7226  uplineId == 0 */\n      sub\n        /* \"TronexUniverse.sol\":7210:7233  if(uplineId == 0) break */\n      iszero\n        /* \"TronexUniverse.sol\":7228:7233  break */\n      tag_295\n        /* \"TronexUniverse.sol\":7210:7233  if(uplineId == 0) break */\n      jumpi\n        /* \"TronexUniverse.sol\":7389:7395  _level */\n      dup11\n        /* \"TronexUniverse.sol\":7352:7357  users */\n      0x02\n        /* \"TronexUniverse.sol\":7352:7367  users[uplineId] */\n      0x00\n        /* \"TronexUniverse.sol\":7358:7366  uplineId */\n      dup5\n        /* \"TronexUniverse.sol\":7352:7367  users[uplineId] */\n      dup2\n      mstore\n      0x20\n      add\n      swap1\n      dup2\n      mstore\n      0x20\n      add\n      0x00\n      keccak256\n        /* \"TronexUniverse.sol\":7352:7385  users[uplineId].activeLevelsCount */\n      0x09\n      add\n      sload\n        /* \"TronexUniverse.sol\":7352:7395  users[uplineId].activeLevelsCount >= _level */\n      lt\n        /* \"TronexUniverse.sol\":7348:7531  if (users[uplineId].activeLevelsCount >= _level) {... */\n      tag_298\n      jumpi\n        /* \"TronexUniverse.sol\":7416:7467  sendMoney(uplineId, perGenAmt, \"Generation Reward\") */\n      tag_299\n        /* \"TronexUniverse.sol\":7426:7434  uplineId */\n      dup3\n        /* \"TronexUniverse.sol\":7436:7445  perGenAmt */\n      dup6\n        /* \"TronexUniverse.sol\":7416:7467  sendMoney(uplineId, perGenAmt, \"Generation Reward\") */\n      mload(0x40)\n      dup1\n      0x40\n      add\n      0x40\n      mstore\n      dup1\n      0x11\n      dup2\n      mstore\n      0x20\n      add\n      0x47656e65726174696f6e20526577617264000000000000000000000000000000\n      dup2\n      mstore\n      pop\n        /* \"TronexUniverse.sol\":7416:7425  sendMoney */\n      tag_288\n        /* \"TronexUniverse.sol\":7416:7467  sendMoney(uplineId, perGenAmt, \"Generation Reward\") */\n      jump\t// in\n    tag_299:\n        /* \"TronexUniverse.sol\":7506:7515  perGenAmt */\n      dup4\n        /* \"TronexUniverse.sol\":7486:7515  totalDistributed += perGenAmt */\n      dup4\n      tag_300\n      swap2\n      swap1\n      tag_205\n      jump\t// in\n    tag_300:\n      swap3\n      pop\n        /* \"TronexUniverse.sol\":7348:7531  if (users[uplineId].activeLevelsCount >= _level) {... */\n    tag_298:\n        /* \"TronexUniverse.sol\":7642:7647  users */\n      0x02\n        /* \"TronexUniverse.sol\":7642:7657  users[uplineId] */\n      0x00\n        /* \"TronexUniverse.sol\":7648:7656  uplineId */\n      dup4\n        /* \"TronexUniverse.sol\":7642:7657  users[uplineId] */\n      dup2\n      mstore\n      0x20\n      add\n      swap1\n      dup2\n      mstore\n      0x20\n      add\n      0x00\n      keccak256\n        /* \"TronexUniverse.sol\":7642:7668  users[uplineId].referrerId */\n      0x02\n      add\n      sload\n        /* \"TronexUniverse.sol\":7631:7668  uplineId = users[uplineId].referrerId */\n      swap2\n      pop\n        /* \"TronexUniverse.sol\":7190:7193  i++ */\n      dup1\n      dup1\n      tag_301\n      swap1\n      tag_133\n      jump\t// in\n    tag_301:\n      swap2\n      pop\n      pop\n        /* \"TronexUniverse.sol\":7166:7680  for(uint256 i=1; i<=10; i++) {... */\n      jump(tag_294)\n    tag_295:\n      pop\n        /* \"TronexUniverse.sol\":7782:7798  uint256 leftover */\n      0x00\n        /* \"TronexUniverse.sol\":7815:7831  totalDistributed */\n      dup3\n        /* \"TronexUniverse.sol\":7801:7812  genAmtTotal */\n      dup6\n        /* \"TronexUniverse.sol\":7801:7831  genAmtTotal - totalDistributed */\n      tag_302\n      swap2\n      swap1\n      tag_158\n      jump\t// in\n    tag_302:\n        /* \"TronexUniverse.sol\":7782:7831  uint256 leftover = genAmtTotal - totalDistributed */\n      swap1\n      pop\n        /* \"TronexUniverse.sol\":7856:7857  0 */\n      0x00\n        /* \"TronexUniverse.sol\":7845:7853  leftover */\n      dup2\n        /* \"TronexUniverse.sol\":7845:7857  leftover > 0 */\n      gt\n        /* \"TronexUniverse.sol\":7842:7988  if(leftover > 0) {... */\n      iszero\n      tag_303\n      jumpi\n        /* \"TronexUniverse.sol\":7896:7904  leftover */\n      dup1\n        /* \"TronexUniverse.sol\":7874:7892  royaltyFundBalance */\n      0x07\n      0x00\n        /* \"TronexUniverse.sol\":7874:7904  royaltyFundBalance += leftover */\n      dup3\n      dup3\n      sload\n      tag_304\n      swap2\n      swap1\n      tag_205\n      jump\t// in\n    tag_304:\n      swap3\n      pop\n      pop\n      dup2\n      swap1\n      sstore\n      pop\n        /* \"TronexUniverse.sol\":7924:7976  FundCredit(\"Unclaimed Generation Rewards\", leftover) */\n      0x1e2a45ecb3dcf528dd38ba1f2a869b557ebce43d5035a1471745e0bb4272147d\n        /* \"TronexUniverse.sol\":7967:7975  leftover */\n      dup2\n        /* \"TronexUniverse.sol\":7924:7976  FundCredit(\"Unclaimed Generation Rewards\", leftover) */\n      mload(0x40)\n      tag_305\n      swap2\n      swap1\n      tag_306\n      jump\t// in\n    tag_305:\n      mload(0x40)\n      dup1\n      swap2\n      sub\n      swap1\n      log1\n        /* \"TronexUniverse.sol\":7842:7988  if(leftover > 0) {... */\n    tag_303:\n        /* \"TronexUniverse.sol\":8028:8045  uint256 salaryAmt */\n      0x00\n        /* \"TronexUniverse.sol\":8078:8083  10000 */\n      0x2710\n        /* \"TronexUniverse.sol\":1998:2001  833 */\n      0x0341\n        /* \"TronexUniverse.sol\":8049:8056  _amount */\n      dup13\n        /* \"TronexUniverse.sol\":8049:8074  _amount * SALARY_FUND_PCT */\n      tag_307\n      swap2\n      swap1\n      tag_266\n      jump\t// in\n    tag_307:\n        /* \"TronexUniverse.sol\":8048:8083  (_amount * SALARY_FUND_PCT) / 10000 */\n      tag_308\n      swap2\n      swap1\n      tag_216\n      jump\t// in\n    tag_308:\n        /* \"TronexUniverse.sol\":8028:8083  uint256 salaryAmt = (_amount * SALARY_FUND_PCT) / 10000 */\n      swap1\n      pop\n        /* \"TronexUniverse.sol\":8116:8125  salaryAmt */\n      dup1\n        /* \"TronexUniverse.sol\":8094:8112  royaltyFundBalance */\n      0x07\n      0x00\n        /* \"TronexUniverse.sol\":8094:8125  royaltyFundBalance += salaryAmt */\n      dup3\n      dup3\n      sload\n      tag_309\n      swap2\n      swap1\n      tag_205\n      jump\t// in\n    tag_309:\n      swap3\n      pop\n      pop\n      dup2\n      swap1\n      sstore\n      pop\n        /* \"TronexUniverse.sol\":8141:8178  FundCredit(\"Royalty Fund\", salaryAmt) */\n      0x1e2a45ecb3dcf528dd38ba1f2a869b557ebce43d5035a1471745e0bb4272147d\n        /* \"TronexUniverse.sol\":8168:8177  salaryAmt */\n      dup2\n        /* \"TronexUniverse.sol\":8141:8178  FundCredit(\"Royalty Fund\", salaryAmt) */\n      mload(0x40)\n      tag_310\n      swap2\n      swap1\n      tag_311\n      jump\t// in\n    tag_310:\n      mload(0x40)\n      dup1\n      swap2\n      sub\n      swap1\n      log1\n        /* \"TronexUniverse.sol\":8221:8236  uint256 riskAmt */\n      0x00\n        /* \"TronexUniverse.sol\":8267:8272  10000 */\n      0x2710\n        /* \"TronexUniverse.sol\":2042:2045  834 */\n      0x0342\n        /* \"TronexUniverse.sol\":8240:8247  _amount */\n      dup14\n        /* \"TronexUniverse.sol\":8240:8263  _amount * ZERO_RISK_PCT */\n      tag_312\n      swap2\n      swap1\n      tag_266\n      jump\t// in\n    tag_312:\n        /* \"TronexUniverse.sol\":8239:8272  (_amount * ZERO_RISK_PCT) / 10000 */\n      tag_313\n      swap2\n      swap1\n      tag_216\n      jump\t// in\n    tag_313:\n        /* \"TronexUniverse.sol\":8221:8272  uint256 riskAmt = (_amount * ZERO_RISK_PCT) / 10000 */\n      swap1\n      pop\n        /* \"TronexUniverse.sol\":8306:8313  riskAmt */\n      dup1\n        /* \"TronexUniverse.sol\":8283:8302  zeroRiskFundBalance */\n      0x06\n      0x00\n        /* \"TronexUniverse.sol\":8283:8313  zeroRiskFundBalance += riskAmt */\n      dup3\n      dup3\n      sload\n      tag_314\n      swap2\n      swap1\n      tag_205\n      jump\t// in\n    tag_314:\n      swap3\n      pop\n      pop\n      dup2\n      swap1\n      sstore\n      pop\n        /* \"TronexUniverse.sol\":8329:8366  FundCredit(\"Zero Risk Fund\", riskAmt) */\n      0x1e2a45ecb3dcf528dd38ba1f2a869b557ebce43d5035a1471745e0bb4272147d\n        /* \"TronexUniverse.sol\":8358:8365  riskAmt */\n      dup2\n        /* \"TronexUniverse.sol\":8329:8366  FundCredit(\"Zero Risk Fund\", riskAmt) */\n      mload(0x40)\n      tag_315\n      swap2\n      swap1\n      tag_316\n      jump\t// in\n    tag_315:\n      mload(0x40)\n      dup1\n      swap2\n      sub\n      swap1\n      log1\n        /* \"TronexUniverse.sol\":8418:8424  _level */\n      dup13\n        /* \"TronexUniverse.sol\":8409:8416  _userId */\n      dup15\n        /* \"TronexUniverse.sol\":8392:8434  PackagePurchased(_userId, _level, _amount) */\n      0x66635a66d1d0381969092efe5f2f6f55d82de7d629e4341e8cb55304df8f87e0\n        /* \"TronexUniverse.sol\":8426:8433  _amount */\n      dup15\n        /* \"TronexUniverse.sol\":8392:8434  PackagePurchased(_userId, _level, _amount) */\n      mload(0x40)\n      tag_317\n      swap2\n      swap1\n      tag_34\n      jump\t// in\n    tag_317:\n      mload(0x40)\n      dup1\n      swap2\n      sub\n      swap1\n      log3\n        /* \"TronexUniverse.sol\":6204:8442  {... */\n      pop\n      pop\n      pop\n      pop\n      pop\n      pop\n      pop\n      pop\n      pop\n      pop\n      pop\n        /* \"TronexUniverse.sol\":6120:8442  function buyPackageLogic(uint256 _userId, uint256 _level, uint256 _amount) internal {... */\n      pop\n      pop\n      pop\n      jump\t// out\n        /* \"TronexUniverse.sol\":8706:9096  function findActiveReferrer(uint256 _userId, uint256 _level) internal view returns (uint256) {... */\n    tag_269:\n        /* \"TronexUniverse.sol\":8790:8797  uint256 */\n      0x00\n        /* \"TronexUniverse.sol\":8810:8825  uint256 current */\n      0x00\n        /* \"TronexUniverse.sol\":8828:8835  _userId */\n      dup4\n        /* \"TronexUniverse.sol\":8810:8835  uint256 current = _userId */\n      swap1\n      pop\n        /* \"TronexUniverse.sol\":8846:9063  while (current != 0 && current != ADMIN_ID) {... */\n    tag_319:\n        /* \"TronexUniverse.sol\":8864:8865  0 */\n      0x00\n        /* \"TronexUniverse.sol\":8853:8860  current */\n      dup2\n        /* \"TronexUniverse.sol\":8853:8865  current != 0 */\n      eq\n      iszero\n        /* \"TronexUniverse.sol\":8853:8888  current != 0 && current != ADMIN_ID */\n      dup1\n      iszero\n      tag_321\n      jumpi\n      pop\n        /* \"TronexUniverse.sol\":1283:1287  1000 */\n      0x03e8\n        /* \"TronexUniverse.sol\":8869:8876  current */\n      dup2\n        /* \"TronexUniverse.sol\":8869:8888  current != ADMIN_ID */\n      eq\n      iszero\n        /* \"TronexUniverse.sol\":8853:8888  current != 0 && current != ADMIN_ID */\n    tag_321:\n        /* \"TronexUniverse.sol\":8846:9063  while (current != 0 && current != ADMIN_ID) {... */\n      iszero\n      tag_320\n      jumpi\n        /* \"TronexUniverse.sol\":8945:8951  _level */\n      dup3\n        /* \"TronexUniverse.sol\":8909:8914  users */\n      0x02\n        /* \"TronexUniverse.sol\":8909:8923  users[current] */\n      0x00\n        /* \"TronexUniverse.sol\":8915:8922  current */\n      dup4\n        /* \"TronexUniverse.sol\":8909:8923  users[current] */\n      dup2\n      mstore\n      0x20\n      add\n      swap1\n      dup2\n      mstore\n      0x20\n      add\n      0x00\n      keccak256\n        /* \"TronexUniverse.sol\":8909:8941  users[current].activeLevelsCount */\n      0x09\n      add\n      sload\n        /* \"TronexUniverse.sol\":8909:8951  users[current].activeLevelsCount >= _level */\n      lt\n        /* \"TronexUniverse.sol\":8905:9002  if (users[current].activeLevelsCount >= _level) {... */\n      tag_322\n      jumpi\n        /* \"TronexUniverse.sol\":8979:8986  current */\n      dup1\n        /* \"TronexUniverse.sol\":8972:8986  return current */\n      swap2\n      pop\n      pop\n      jump(tag_318)\n        /* \"TronexUniverse.sol\":8905:9002  if (users[current].activeLevelsCount >= _level) {... */\n    tag_322:\n        /* \"TronexUniverse.sol\":9026:9031  users */\n      0x02\n        /* \"TronexUniverse.sol\":9026:9040  users[current] */\n      0x00\n        /* \"TronexUniverse.sol\":9032:9039  current */\n      dup3\n        /* \"TronexUniverse.sol\":9026:9040  users[current] */\n      dup2\n      mstore\n      0x20\n      add\n      swap1\n      dup2\n      mstore\n      0x20\n      add\n      0x00\n      keccak256\n        /* \"TronexUniverse.sol\":9026:9051  users[current].referrerId */\n      0x02\n      add\n      sload\n        /* \"TronexUniverse.sol\":9016:9051  current = users[current].referrerId */\n      swap1\n      pop\n        /* \"TronexUniverse.sol\":8846:9063  while (current != 0 && current != ADMIN_ID) {... */\n      jump(tag_319)\n    tag_320:\n        /* \"TronexUniverse.sol\":1283:1287  1000 */\n      0x03e8\n        /* \"TronexUniverse.sol\":9073:9088  return ADMIN_ID */\n      swap2\n      pop\n      pop\n        /* \"TronexUniverse.sol\":8706:9096  function findActiveReferrer(uint256 _userId, uint256 _level) internal view returns (uint256) {... */\n    tag_318:\n      swap3\n      swap2\n      pop\n      pop\n      jump\t// out\n        /* \"TronexUniverse.sol\":14149:14943  function sendMoney(uint256 _userId, uint256 _amount, string memory _reason) internal {... */\n    tag_288:\n        /* \"TronexUniverse.sol\":14259:14260  0 */\n      0x00\n        /* \"TronexUniverse.sol\":14248:14255  _userId */\n      dup4\n        /* \"TronexUniverse.sol\":14248:14260  _userId == 0 */\n      sub\n        /* \"TronexUniverse.sol\":14245:14280  if(_userId == 0) _userId = ADMIN_ID */\n      tag_324\n      jumpi\n        /* \"TronexUniverse.sol\":1283:1287  1000 */\n      0x03e8\n        /* \"TronexUniverse.sol\":14262:14280  _userId = ADMIN_ID */\n      swap3\n      pop\n        /* \"TronexUniverse.sol\":14245:14280  if(_userId == 0) _userId = ADMIN_ID */\n    tag_324:\n        /* \"TronexUniverse.sol\":14292:14308  address receiver */\n      0x00\n        /* \"TronexUniverse.sol\":14311:14316  users */\n      0x02\n        /* \"TronexUniverse.sol\":14311:14325  users[_userId] */\n      0x00\n        /* \"TronexUniverse.sol\":14317:14324  _userId */\n      dup6\n        /* \"TronexUniverse.sol\":14311:14325  users[_userId] */\n      dup2\n      mstore\n      0x20\n      add\n      swap1\n      dup2\n      mstore\n      0x20\n      add\n      0x00\n      keccak256\n        /* \"TronexUniverse.sol\":14311:14332  users[_userId].wallet */\n      0x01\n      add\n      0x00\n      swap1\n      sload\n      swap1\n      0x0100\n      exp\n      swap1\n      div\n      0xffffffffffffffffffffffffffffffffffffffff\n      and\n        /* \"TronexUniverse.sol\":14292:14332  address receiver = users[_userId].wallet */\n      swap1\n      pop\n        /* \"TronexUniverse.sol\":14376:14377  0 */\n      0x00\n        /* \"TronexUniverse.sol\":14356:14378  receiver == address(0) */\n      0xffffffffffffffffffffffffffffffffffffffff\n      and\n        /* \"TronexUniverse.sol\":14356:14364  receiver */\n      dup2\n        /* \"TronexUniverse.sol\":14356:14378  receiver == address(0) */\n      0xffffffffffffffffffffffffffffffffffffffff\n      and\n      eq\n        /* \"TronexUniverse.sol\":14356:14407  receiver == address(0) || receiver == address(this) */\n      dup1\n      tag_325\n      jumpi\n      pop\n        /* \"TronexUniverse.sol\":14402:14406  this */\n      address\n        /* \"TronexUniverse.sol\":14382:14407  receiver == address(this) */\n      0xffffffffffffffffffffffffffffffffffffffff\n      and\n        /* \"TronexUniverse.sol\":14382:14390  receiver */\n      dup2\n        /* \"TronexUniverse.sol\":14382:14407  receiver == address(this) */\n      0xffffffffffffffffffffffffffffffffffffffff\n      and\n      eq\n        /* \"TronexUniverse.sol\":14356:14407  receiver == address(0) || receiver == address(this) */\n    tag_325:\n        /* \"TronexUniverse.sol\":14353:14593  if(receiver == address(0) || receiver == address(this)) {... */\n      iszero\n      tag_326\n      jumpi\n        /* \"TronexUniverse.sol\":14446:14453  _amount */\n      dup3\n        /* \"TronexUniverse.sol\":14424:14442  royaltyFundBalance */\n      0x07\n      0x00\n        /* \"TronexUniverse.sol\":14424:14453  royaltyFundBalance += _amount */\n      dup3\n      dup3\n      sload\n      tag_327\n      swap2\n      swap1\n      tag_205\n      jump\t// in\n    tag_327:\n      swap3\n      pop\n      pop\n      dup2\n      swap1\n      sstore\n      pop\n        /* \"TronexUniverse.sol\":14486:14493  _userId */\n      dup4\n        /* \"TronexUniverse.sol\":14473:14560  PayoutFailed(_userId, _amount, string(abi.encodePacked(_reason, \" (Invalid Address)\"))) */\n      0xab44bc453c004a489f9f8687f4280a881ba62bcd3920e9fa5815b35b7c5cc02d\n        /* \"TronexUniverse.sol\":14495:14502  _amount */\n      dup5\n        /* \"TronexUniverse.sol\":14528:14535  _reason */\n      dup5\n        /* \"TronexUniverse.sol\":14511:14558  abi.encodePacked(_reason, \" (Invalid Address)\") */\n      add(0x20, mload(0x40))\n      tag_328\n      swap2\n      swap1\n      tag_329\n      jump\t// in\n    tag_328:\n      mload(0x40)\n      0x20\n      dup2\n      dup4\n      sub\n      sub\n      dup2\n      mstore\n      swap1\n      0x40\n      mstore\n        /* \"TronexUniverse.sol\":14473:14560  PayoutFailed(_userId, _amount, string(abi.encodePacked(_reason, \" (Invalid Address)\"))) */\n      mload(0x40)\n      tag_330\n      swap3\n      swap2\n      swap1\n      tag_331\n      jump\t// in\n    tag_330:\n      mload(0x40)\n      dup1\n      swap2\n      sub\n      swap1\n      log2\n        /* \"TronexUniverse.sol\":14575:14582  return; */\n      pop\n      jump(tag_323)\n        /* \"TronexUniverse.sol\":14353:14593  if(receiver == address(0) || receiver == address(this)) {... */\n    tag_326:\n        /* \"TronexUniverse.sol\":14637:14644  _amount */\n      dup3\n        /* \"TronexUniverse.sol\":14605:14610  users */\n      0x02\n        /* \"TronexUniverse.sol\":14605:14619  users[_userId] */\n      0x00\n        /* \"TronexUniverse.sol\":14611:14618  _userId */\n      dup7\n        /* \"TronexUniverse.sol\":14605:14619  users[_userId] */\n      dup2\n      mstore\n      0x20\n      add\n      swap1\n      dup2\n      mstore\n      0x20\n      add\n      0x00\n      keccak256\n        /* \"TronexUniverse.sol\":14605:14633  users[_userId].totalEarnings */\n      0x03\n      add\n      0x00\n        /* \"TronexUniverse.sol\":14605:14644  users[_userId].totalEarnings += _amount */\n      dup3\n      dup3\n      sload\n      tag_332\n      swap2\n      swap1\n      tag_205\n      jump\t// in\n    tag_332:\n      swap3\n      pop\n      pop\n      dup2\n      swap1\n      sstore\n      pop\n        /* \"TronexUniverse.sol\":14665:14677  bool success */\n      0x00\n        /* \"TronexUniverse.sol\":14680:14689  usdtToken */\n      0x00\n      0x00\n      swap1\n      sload\n      swap1\n      0x0100\n      exp\n      swap1\n      div\n      0xffffffffffffffffffffffffffffffffffffffff\n      and\n        /* \"TronexUniverse.sol\":14680:14698  usdtToken.transfer */\n      0xffffffffffffffffffffffffffffffffffffffff\n      and\n      0xa9059cbb\n        /* \"TronexUniverse.sol\":14699:14707  receiver */\n      dup4\n        /* \"TronexUniverse.sol\":14709:14716  _amount */\n      dup7\n        /* \"TronexUniverse.sol\":14680:14717  usdtToken.transfer(receiver, _amount) */\n      mload(0x40)\n      dup4\n      0xffffffff\n      and\n      0xe0\n      shl\n      dup2\n      mstore\n      0x04\n      add\n      tag_333\n      swap3\n      swap2\n      swap1\n      tag_160\n      jump\t// in\n    tag_333:\n      0x20\n      mload(0x40)\n      dup1\n      dup4\n      sub\n      dup2\n      0x00\n      dup8\n      gas\n      call\n      iszero\n      dup1\n      iszero\n      tag_335\n      jumpi\n      returndatacopy(0x00, 0x00, returndatasize)\n      revert(0x00, returndatasize)\n    tag_335:\n      pop\n      pop\n      pop\n      pop\n      mload(0x40)\n      returndatasize\n      not(0x1f)\n      0x1f\n      dup3\n      add\n      and\n      dup3\n      add\n      dup1\n      0x40\n      mstore\n      pop\n      dup2\n      add\n      swap1\n      tag_336\n      swap2\n      swap1\n      tag_128\n      jump\t// in\n    tag_336:\n        /* \"TronexUniverse.sol\":14665:14717  bool success = usdtToken.transfer(receiver, _amount) */\n      swap1\n      pop\n        /* \"TronexUniverse.sol\":14741:14748  success */\n      dup1\n        /* \"TronexUniverse.sol\":14738:14936  if(success) {... */\n      iszero\n      tag_337\n      jumpi\n        /* \"TronexUniverse.sol\":14777:14784  _userId */\n      dup5\n        /* \"TronexUniverse.sol\":14770:14803  Payout(_userId, _amount, _reason) */\n      0x84d59367f51ac1996d0fd634ec79c866d4b5e5aa446013eebc4f1090e19236d6\n        /* \"TronexUniverse.sol\":14786:14793  _amount */\n      dup6\n        /* \"TronexUniverse.sol\":14795:14802  _reason */\n      dup6\n        /* \"TronexUniverse.sol\":14770:14803  Payout(_userId, _amount, _reason) */\n      mload(0x40)\n      tag_338\n      swap3\n      swap2\n      swap1\n      tag_331\n      jump\t// in\n    tag_338:\n      mload(0x40)\n      dup1\n      swap2\n      sub\n      swap1\n      log2\n        /* \"TronexUniverse.sol\":14738:14936  if(success) {... */\n      jump(tag_339)\n    tag_337:\n        /* \"TronexUniverse.sol\":14858:14865  _amount */\n      dup4\n        /* \"TronexUniverse.sol\":14836:14854  royaltyFundBalance */\n      0x07\n      0x00\n        /* \"TronexUniverse.sol\":14836:14865  royaltyFundBalance += _amount */\n      dup3\n      dup3\n      sload\n      tag_340\n      swap2\n      swap1\n      tag_205\n      jump\t// in\n    tag_340:\n      swap3\n      pop\n      pop\n      dup2\n      swap1\n      sstore\n      pop\n        /* \"TronexUniverse.sol\":14898:14905  _userId */\n      dup5\n        /* \"TronexUniverse.sol\":14885:14924  PayoutFailed(_userId, _amount, _reason) */\n      0xab44bc453c004a489f9f8687f4280a881ba62bcd3920e9fa5815b35b7c5cc02d\n        /* \"TronexUniverse.sol\":14907:14914  _amount */\n      dup6\n        /* \"TronexUniverse.sol\":14916:14923  _reason */\n      dup6\n        /* \"TronexUniverse.sol\":14885:14924  PayoutFailed(_userId, _amount, _reason) */\n      mload(0x40)\n      tag_341\n      swap3\n      swap2\n      swap1\n      tag_331\n      jump\t// in\n    tag_341:\n      mload(0x40)\n      dup1\n      swap2\n      sub\n      swap1\n      log2\n        /* \"TronexUniverse.sol\":14738:14936  if(success) {... */\n    tag_339:\n        /* \"TronexUniverse.sol\":14234:14943  {... */\n      pop\n      pop\n        /* \"TronexUniverse.sol\":14149:14943  function sendMoney(uint256 _userId, uint256 _amount, string memory _reason) internal {... */\n    tag_323:\n      pop\n      pop\n      pop\n      jump\t// out\n        /* \"TronexUniverse.sol\":8450:8698  function handleMatrix(uint256 _userId, uint256 _referrerId, uint256 _level, uint256 _amount) internal {... */\n    tag_290:\n        /* \"TronexUniverse.sol\":8563:8584  uint256 activeSponsor */\n      0x00\n        /* \"TronexUniverse.sol\":8587:8626  findActiveReferrer(_referrerId, _level) */\n      tag_343\n        /* \"TronexUniverse.sol\":8606:8617  _referrerId */\n      dup5\n        /* \"TronexUniverse.sol\":8619:8625  _level */\n      dup5\n        /* \"TronexUniverse.sol\":8587:8605  findActiveReferrer */\n      tag_269\n        /* \"TronexUniverse.sol\":8587:8626  findActiveReferrer(_referrerId, _level) */\n      jump\t// in\n    tag_343:\n        /* \"TronexUniverse.sol\":8563:8626  uint256 activeSponsor = findActiveReferrer(_referrerId, _level) */\n      swap1\n      pop\n        /* \"TronexUniverse.sol\":8637:8690  updateMatrix(_userId, activeSponsor, _level, _amount) */\n      tag_344\n        /* \"TronexUniverse.sol\":8650:8657  _userId */\n      dup6\n        /* \"TronexUniverse.sol\":8659:8672  activeSponsor */\n      dup3\n        /* \"TronexUniverse.sol\":8674:8680  _level */\n      dup6\n        /* \"TronexUniverse.sol\":8682:8689  _amount */\n      dup6\n        /* \"TronexUniverse.sol\":8637:8649  updateMatrix */\n      tag_345\n        /* \"TronexUniverse.sol\":8637:8690  updateMatrix(_userId, activeSponsor, _level, _amount) */\n      jump\t// in\n    tag_344:\n        /* \"TronexUniverse.sol\":8552:8698  {... */\n      pop\n        /* \"TronexUniverse.sol\":8450:8698  function handleMatrix(uint256 _userId, uint256 _referrerId, uint256 _level, uint256 _amount) internal {... */\n      pop\n      pop\n      pop\n      pop\n      jump\t// out\n        /* \"TronexUniverse.sol\":9104:11475  function updateMatrix(uint256 _userId, uint256 _sponsorId, uint256 _level, uint256 _amount) internal {... */\n    tag_345:\n        /* \"TronexUniverse.sol\":9216:9244  Matrix storage sponsorMatrix */\n      0x00\n        /* \"TronexUniverse.sol\":9247:9252  users */\n      0x02\n        /* \"TronexUniverse.sol\":9247:9264  users[_sponsorId] */\n      0x00\n        /* \"TronexUniverse.sol\":9253:9263  _sponsorId */\n      dup6\n        /* \"TronexUniverse.sol\":9247:9264  users[_sponsorId] */\n      dup2\n      mstore\n      0x20\n      add\n      swap1\n      dup2\n      mstore\n      0x20\n      add\n      0x00\n      keccak256\n        /* \"TronexUniverse.sol\":9247:9273  users[_sponsorId].matrices */\n      0x06\n      add\n        /* \"TronexUniverse.sol\":9247:9281  users[_sponsorId].matrices[_level] */\n      0x00\n        /* \"TronexUniverse.sol\":9274:9280  _level */\n      dup5\n        /* \"TronexUniverse.sol\":9247:9281  users[_sponsorId].matrices[_level] */\n      dup2\n      mstore\n      0x20\n      add\n      swap1\n      dup2\n      mstore\n      0x20\n      add\n      0x00\n      keccak256\n        /* \"TronexUniverse.sol\":9216:9281  Matrix storage sponsorMatrix = users[_sponsorId].matrices[_level] */\n      swap1\n      pop\n        /* \"TronexUniverse.sol\":9292:9309  uint256 matrixAmt */\n      0x00\n        /* \"TronexUniverse.sol\":9347:9352  10000 */\n      0x2710\n        /* \"TronexUniverse.sol\":1905:1909  1667 */\n      0x0683\n        /* \"TronexUniverse.sol\":9313:9320  _amount */\n      dup5\n        /* \"TronexUniverse.sol\":9313:9343  _amount * MATRIX_SPILLOVER_PCT */\n      tag_347\n      swap2\n      swap1\n      tag_266\n      jump\t// in\n    tag_347:\n        /* \"TronexUniverse.sol\":9312:9352  (_amount * MATRIX_SPILLOVER_PCT) / 10000 */\n      tag_348\n      swap2\n      swap1\n      tag_216\n      jump\t// in\n    tag_348:\n        /* \"TronexUniverse.sol\":9292:9352  uint256 matrixAmt = (_amount * MATRIX_SPILLOVER_PCT) / 10000 */\n      swap1\n      pop\n        /* \"TronexUniverse.sol\":9412:9413  2 */\n      0x02\n        /* \"TronexUniverse.sol\":9369:9382  sponsorMatrix */\n      dup3\n        /* \"TronexUniverse.sol\":9369:9402  sponsorMatrix.firstLevelReferrals */\n      0x01\n      add\n        /* \"TronexUniverse.sol\":9369:9409  sponsorMatrix.firstLevelReferrals.length */\n      dup1\n      sload\n      swap1\n      pop\n        /* \"TronexUniverse.sol\":9369:9413  sponsorMatrix.firstLevelReferrals.length < 2 */\n      lt\n        /* \"TronexUniverse.sol\":9365:11468  if (sponsorMatrix.firstLevelReferrals.length < 2) {... */\n      iszero\n      tag_349\n      jumpi\n        /* \"TronexUniverse.sol\":9430:9443  sponsorMatrix */\n      dup2\n        /* \"TronexUniverse.sol\":9430:9463  sponsorMatrix.firstLevelReferrals */\n      0x01\n      add\n        /* \"TronexUniverse.sol\":9469:9476  _userId */\n      dup7\n        /* \"TronexUniverse.sol\":9430:9477  sponsorMatrix.firstLevelReferrals.push(_userId) */\n      swap1\n      dup1\n      0x01\n      dup2\n      sload\n      add\n      dup1\n      dup3\n      sstore\n      dup1\n      swap2\n      pop\n      pop\n      0x01\n      swap1\n      sub\n      swap1\n      0x00\n      mstore\n      keccak256(0x00, 0x20)\n      add\n      0x00\n      swap1\n      swap2\n      swap1\n      swap2\n      swap1\n      swap2\n      pop\n      sstore\n        /* \"TronexUniverse.sol\":9542:9552  _sponsorId */\n      dup5\n        /* \"TronexUniverse.sol\":9492:9497  users */\n      0x02\n        /* \"TronexUniverse.sol\":9492:9506  users[_userId] */\n      0x00\n        /* \"TronexUniverse.sol\":9498:9505  _userId */\n      dup9\n        /* \"TronexUniverse.sol\":9492:9506  users[_userId] */\n      dup2\n      mstore\n      0x20\n      add\n      swap1\n      dup2\n      mstore\n      0x20\n      add\n      0x00\n      keccak256\n        /* \"TronexUniverse.sol\":9492:9515  users[_userId].matrices */\n      0x06\n      add\n        /* \"TronexUniverse.sol\":9492:9523  users[_userId].matrices[_level] */\n      0x00\n        /* \"TronexUniverse.sol\":9516:9522  _level */\n      dup7\n        /* \"TronexUniverse.sol\":9492:9523  users[_userId].matrices[_level] */\n      dup2\n      mstore\n      0x20\n      add\n      swap1\n      dup2\n      mstore\n      0x20\n      add\n      0x00\n      keccak256\n        /* \"TronexUniverse.sol\":9492:9539  users[_userId].matrices[_level].currentReferrer */\n      0x00\n      add\n        /* \"TronexUniverse.sol\":9492:9552  users[_userId].matrices[_level].currentReferrer = _sponsorId */\n      dup2\n      swap1\n      sstore\n      pop\n        /* \"TronexUniverse.sol\":9569:9589  uint256 refOfSponsor */\n      0x00\n        /* \"TronexUniverse.sol\":9592:9605  sponsorMatrix */\n      dup3\n        /* \"TronexUniverse.sol\":9592:9621  sponsorMatrix.currentReferrer */\n      0x00\n      add\n      sload\n        /* \"TronexUniverse.sol\":9569:9621  uint256 refOfSponsor = sponsorMatrix.currentReferrer */\n      swap1\n      pop\n        /* \"TronexUniverse.sol\":9656:9657  0 */\n      0x00\n        /* \"TronexUniverse.sol\":9640:9652  refOfSponsor */\n      dup2\n        /* \"TronexUniverse.sol\":9640:9657  refOfSponsor != 0 */\n      eq\n        /* \"TronexUniverse.sol\":9636:10192  if (refOfSponsor != 0) {... */\n      tag_351\n      jumpi\n        /* \"TronexUniverse.sol\":9678:9705  Matrix storage higherMatrix */\n      0x00\n        /* \"TronexUniverse.sol\":9708:9713  users */\n      0x02\n        /* \"TronexUniverse.sol\":9708:9727  users[refOfSponsor] */\n      0x00\n        /* \"TronexUniverse.sol\":9714:9726  refOfSponsor */\n      dup4\n        /* \"TronexUniverse.sol\":9708:9727  users[refOfSponsor] */\n      dup2\n      mstore\n      0x20\n      add\n      swap1\n      dup2\n      mstore\n      0x20\n      add\n      0x00\n      keccak256\n        /* \"TronexUniverse.sol\":9708:9736  users[refOfSponsor].matrices */\n      0x06\n      add\n        /* \"TronexUniverse.sol\":9708:9744  users[refOfSponsor].matrices[_level] */\n      0x00\n        /* \"TronexUniverse.sol\":9737:9743  _level */\n      dup8\n        /* \"TronexUniverse.sol\":9708:9744  users[refOfSponsor].matrices[_level] */\n      dup2\n      mstore\n      0x20\n      add\n      swap1\n      dup2\n      mstore\n      0x20\n      add\n      0x00\n      keccak256\n        /* \"TronexUniverse.sol\":9678:9744  Matrix storage higherMatrix = users[refOfSponsor].matrices[_level] */\n      swap1\n      pop\n        /* \"TronexUniverse.sol\":9763:9775  higherMatrix */\n      dup1\n        /* \"TronexUniverse.sol\":9763:9796  higherMatrix.secondLevelReferrals */\n      0x02\n      add\n        /* \"TronexUniverse.sol\":9802:9809  _userId */\n      dup9\n        /* \"TronexUniverse.sol\":9763:9810  higherMatrix.secondLevelReferrals.push(_userId) */\n      swap1\n      dup1\n      0x01\n      dup2\n      sload\n      add\n      dup1\n      dup3\n      sstore\n      dup1\n      swap2\n      pop\n      pop\n      0x01\n      swap1\n      sub\n      swap1\n      0x00\n      mstore\n      keccak256(0x00, 0x20)\n      add\n      0x00\n      swap1\n      swap2\n      swap1\n      swap2\n      swap1\n      swap2\n      pop\n      sstore\n        /* \"TronexUniverse.sol\":9895:9896  4 */\n      0x04\n        /* \"TronexUniverse.sol\":9851:9863  higherMatrix */\n      dup2\n        /* \"TronexUniverse.sol\":9851:9884  higherMatrix.secondLevelReferrals */\n      0x02\n      add\n        /* \"TronexUniverse.sol\":9851:9891  higherMatrix.secondLevelReferrals.length */\n      dup1\n      sload\n      swap1\n      pop\n        /* \"TronexUniverse.sol\":9851:9896  higherMatrix.secondLevelReferrals.length == 4 */\n      sub\n        /* \"TronexUniverse.sol\":9847:10087  if (higherMatrix.secondLevelReferrals.length == 4) {... */\n      tag_353\n      jumpi\n        /* \"TronexUniverse.sol\":9921:9967  handleRecycle(refOfSponsor, _level, matrixAmt) */\n      tag_354\n        /* \"TronexUniverse.sol\":9935:9947  refOfSponsor */\n      dup3\n        /* \"TronexUniverse.sol\":9949:9955  _level */\n      dup8\n        /* \"TronexUniverse.sol\":9957:9966  matrixAmt */\n      dup6\n        /* \"TronexUniverse.sol\":9921:9934  handleRecycle */\n      tag_355\n        /* \"TronexUniverse.sol\":9921:9967  handleRecycle(refOfSponsor, _level, matrixAmt) */\n      jump\t// in\n    tag_354:\n        /* \"TronexUniverse.sol\":9847:10087  if (higherMatrix.secondLevelReferrals.length == 4) {... */\n      jump(tag_356)\n    tag_353:\n        /* \"TronexUniverse.sol\":10016:10067  sendMoney(refOfSponsor, matrixAmt, \"Matrix Income\") */\n      tag_357\n        /* \"TronexUniverse.sol\":10026:10038  refOfSponsor */\n      dup3\n        /* \"TronexUniverse.sol\":10040:10049  matrixAmt */\n      dup5\n        /* \"TronexUniverse.sol\":10016:10067  sendMoney(refOfSponsor, matrixAmt, \"Matrix Income\") */\n      mload(0x40)\n      dup1\n      0x40\n      add\n      0x40\n      mstore\n      dup1\n      0x0d\n      dup2\n      mstore\n      0x20\n      add\n      0x4d617472697820496e636f6d6500000000000000000000000000000000000000\n      dup2\n      mstore\n      pop\n        /* \"TronexUniverse.sol\":10016:10025  sendMoney */\n      tag_288\n        /* \"TronexUniverse.sol\":10016:10067  sendMoney(refOfSponsor, matrixAmt, \"Matrix Income\") */\n      jump\t// in\n    tag_357:\n        /* \"TronexUniverse.sol\":9847:10087  if (higherMatrix.secondLevelReferrals.length == 4) {... */\n    tag_356:\n        /* \"TronexUniverse.sol\":9659:10102  {... */\n      pop\n        /* \"TronexUniverse.sol\":9636:10192  if (refOfSponsor != 0) {... */\n      jump(tag_358)\n    tag_351:\n        /* \"TronexUniverse.sol\":10127:10176  sendMoney(_sponsorId, matrixAmt, \"Matrix Income\") */\n      tag_359\n        /* \"TronexUniverse.sol\":10137:10147  _sponsorId */\n      dup7\n        /* \"TronexUniverse.sol\":10149:10158  matrixAmt */\n      dup4\n        /* \"TronexUniverse.sol\":10127:10176  sendMoney(_sponsorId, matrixAmt, \"Matrix Income\") */\n      mload(0x40)\n      dup1\n      0x40\n      add\n      0x40\n      mstore\n      dup1\n      0x0d\n      dup2\n      mstore\n      0x20\n      add\n      0x4d617472697820496e636f6d6500000000000000000000000000000000000000\n      dup2\n      mstore\n      pop\n        /* \"TronexUniverse.sol\":10127:10136  sendMoney */\n      tag_288\n        /* \"TronexUniverse.sol\":10127:10176  sendMoney(_sponsorId, matrixAmt, \"Matrix Income\") */\n      jump\t// in\n    tag_359:\n        /* \"TronexUniverse.sol\":9636:10192  if (refOfSponsor != 0) {... */\n    tag_358:\n        /* \"TronexUniverse.sol\":9415:10203  {... */\n      pop\n        /* \"TronexUniverse.sol\":9365:11468  if (sponsorMatrix.firstLevelReferrals.length < 2) {... */\n      jump(tag_360)\n    tag_349:\n        /* \"TronexUniverse.sol\":10224:10240  uint256 leftNode */\n      0x00\n        /* \"TronexUniverse.sol\":10243:10256  sponsorMatrix */\n      dup3\n        /* \"TronexUniverse.sol\":10243:10276  sponsorMatrix.firstLevelReferrals */\n      0x01\n      add\n        /* \"TronexUniverse.sol\":10277:10278  0 */\n      0x00\n        /* \"TronexUniverse.sol\":10243:10279  sponsorMatrix.firstLevelReferrals[0] */\n      dup2\n      sload\n      dup2\n      lt\n      tag_361\n      jumpi\n      tag_362\n      tag_121\n      jump\t// in\n    tag_362:\n    tag_361:\n      swap1\n      0x00\n      mstore\n      keccak256(0x00, 0x20)\n      add\n      sload\n        /* \"TronexUniverse.sol\":10224:10279  uint256 leftNode = sponsorMatrix.firstLevelReferrals[0] */\n      swap1\n      pop\n        /* \"TronexUniverse.sol\":10294:10311  uint256 rightNode */\n      0x00\n        /* \"TronexUniverse.sol\":10314:10327  sponsorMatrix */\n      dup4\n        /* \"TronexUniverse.sol\":10314:10347  sponsorMatrix.firstLevelReferrals */\n      0x01\n      add\n        /* \"TronexUniverse.sol\":10348:10349  1 */\n      0x01\n        /* \"TronexUniverse.sol\":10314:10350  sponsorMatrix.firstLevelReferrals[1] */\n      dup2\n      sload\n      dup2\n      lt\n      tag_364\n      jumpi\n      tag_365\n      tag_121\n      jump\t// in\n    tag_365:\n    tag_364:\n      swap1\n      0x00\n      mstore\n      keccak256(0x00, 0x20)\n      add\n      sload\n        /* \"TronexUniverse.sol\":10294:10350  uint256 rightNode = sponsorMatrix.firstLevelReferrals[1] */\n      swap1\n      pop\n        /* \"TronexUniverse.sol\":10367:10385  uint256 targetNode */\n      0x00\n        /* \"TronexUniverse.sol\":10521:10522  2 */\n      0x02\n        /* \"TronexUniverse.sol\":10459:10464  users */\n      dup1\n        /* \"TronexUniverse.sol\":10459:10474  users[leftNode] */\n      0x00\n        /* \"TronexUniverse.sol\":10465:10473  leftNode */\n      dup6\n        /* \"TronexUniverse.sol\":10459:10474  users[leftNode] */\n      dup2\n      mstore\n      0x20\n      add\n      swap1\n      dup2\n      mstore\n      0x20\n      add\n      0x00\n      keccak256\n        /* \"TronexUniverse.sol\":10459:10483  users[leftNode].matrices */\n      0x06\n      add\n        /* \"TronexUniverse.sol\":10459:10491  users[leftNode].matrices[_level] */\n      0x00\n        /* \"TronexUniverse.sol\":10484:10490  _level */\n      dup10\n        /* \"TronexUniverse.sol\":10459:10491  users[leftNode].matrices[_level] */\n      dup2\n      mstore\n      0x20\n      add\n      swap1\n      dup2\n      mstore\n      0x20\n      add\n      0x00\n      keccak256\n        /* \"TronexUniverse.sol\":10459:10511  users[leftNode].matrices[_level].firstLevelReferrals */\n      0x01\n      add\n        /* \"TronexUniverse.sol\":10459:10518  users[leftNode].matrices[_level].firstLevelReferrals.length */\n      dup1\n      sload\n      swap1\n      pop\n        /* \"TronexUniverse.sol\":10459:10522  users[leftNode].matrices[_level].firstLevelReferrals.length < 2 */\n      lt\n        /* \"TronexUniverse.sol\":10455:10995  if (users[leftNode].matrices[_level].firstLevelReferrals.length < 2) {... */\n      iszero\n      tag_367\n      jumpi\n        /* \"TronexUniverse.sol\":10556:10564  leftNode */\n      dup3\n        /* \"TronexUniverse.sol\":10543:10564  targetNode = leftNode */\n      swap1\n      pop\n        /* \"TronexUniverse.sol\":10455:10995  if (users[leftNode].matrices[_level].firstLevelReferrals.length < 2) {... */\n      jump(tag_368)\n    tag_367:\n        /* \"TronexUniverse.sol\":10653:10654  2 */\n      0x02\n        /* \"TronexUniverse.sol\":10590:10595  users */\n      dup1\n        /* \"TronexUniverse.sol\":10590:10606  users[rightNode] */\n      0x00\n        /* \"TronexUniverse.sol\":10596:10605  rightNode */\n      dup5\n        /* \"TronexUniverse.sol\":10590:10606  users[rightNode] */\n      dup2\n      mstore\n      0x20\n      add\n      swap1\n      dup2\n      mstore\n      0x20\n      add\n      0x00\n      keccak256\n        /* \"TronexUniverse.sol\":10590:10615  users[rightNode].matrices */\n      0x06\n      add\n        /* \"TronexUniverse.sol\":10590:10623  users[rightNode].matrices[_level] */\n      0x00\n        /* \"TronexUniverse.sol\":10616:10622  _level */\n      dup10\n        /* \"TronexUniverse.sol\":10590:10623  users[rightNode].matrices[_level] */\n      dup2\n      mstore\n      0x20\n      add\n      swap1\n      dup2\n      mstore\n      0x20\n      add\n      0x00\n      keccak256\n        /* \"TronexUniverse.sol\":10590:10643  users[rightNode].matrices[_level].firstLevelReferrals */\n      0x01\n      add\n        /* \"TronexUniverse.sol\":10590:10650  users[rightNode].matrices[_level].firstLevelReferrals.length */\n      dup1\n      sload\n      swap1\n      pop\n        /* \"TronexUniverse.sol\":10590:10654  users[rightNode].matrices[_level].firstLevelReferrals.length < 2 */\n      lt\n        /* \"TronexUniverse.sol\":10586:10995  if (users[rightNode].matrices[_level].firstLevelReferrals.length < 2) {... */\n      iszero\n      tag_369\n      jumpi\n        /* \"TronexUniverse.sol\":10688:10697  rightNode */\n      dup2\n        /* \"TronexUniverse.sol\":10675:10697  targetNode = rightNode */\n      swap1\n      pop\n        /* \"TronexUniverse.sol\":10586:10995  if (users[rightNode].matrices[_level].firstLevelReferrals.length < 2) {... */\n      jump(tag_370)\n    tag_369:\n        /* \"TronexUniverse.sol\":10871:10880  matrixAmt */\n      dup4\n        /* \"TronexUniverse.sol\":10849:10867  royaltyFundBalance */\n      0x07\n      0x00\n        /* \"TronexUniverse.sol\":10849:10880  royaltyFundBalance += matrixAmt */\n      dup3\n      dup3\n      sload\n      tag_371\n      swap2\n      swap1\n      tag_205\n      jump\t// in\n    tag_371:\n      swap3\n      pop\n      pop\n      dup2\n      swap1\n      sstore\n      pop\n        /* \"TronexUniverse.sol\":10904:10954  FundCredit(\"Matrix Overflow Safecatch\", matrixAmt) */\n      0x1e2a45ecb3dcf528dd38ba1f2a869b557ebce43d5035a1471745e0bb4272147d\n        /* \"TronexUniverse.sol\":10944:10953  matrixAmt */\n      dup5\n        /* \"TronexUniverse.sol\":10904:10954  FundCredit(\"Matrix Overflow Safecatch\", matrixAmt) */\n      mload(0x40)\n      tag_372\n      swap2\n      swap1\n      tag_373\n      jump\t// in\n    tag_372:\n      mload(0x40)\n      dup1\n      swap2\n      sub\n      swap1\n      log1\n        /* \"TronexUniverse.sol\":10973:10980  return; */\n      pop\n      pop\n      pop\n      pop\n      pop\n      jump(tag_346)\n        /* \"TronexUniverse.sol\":10586:10995  if (users[rightNode].matrices[_level].firstLevelReferrals.length < 2) {... */\n    tag_370:\n        /* \"TronexUniverse.sol\":10455:10995  if (users[leftNode].matrices[_level].firstLevelReferrals.length < 2) {... */\n    tag_368:\n        /* \"TronexUniverse.sol\":11011:11016  users */\n      0x02\n        /* \"TronexUniverse.sol\":11011:11028  users[targetNode] */\n      0x00\n        /* \"TronexUniverse.sol\":11017:11027  targetNode */\n      dup3\n        /* \"TronexUniverse.sol\":11011:11028  users[targetNode] */\n      dup2\n      mstore\n      0x20\n      add\n      swap1\n      dup2\n      mstore\n      0x20\n      add\n      0x00\n      keccak256\n        /* \"TronexUniverse.sol\":11011:11037  users[targetNode].matrices */\n      0x06\n      add\n        /* \"TronexUniverse.sol\":11011:11045  users[targetNode].matrices[_level] */\n      0x00\n        /* \"TronexUniverse.sol\":11038:11044  _level */\n      dup9\n        /* \"TronexUniverse.sol\":11011:11045  users[targetNode].matrices[_level] */\n      dup2\n      mstore\n      0x20\n      add\n      swap1\n      dup2\n      mstore\n      0x20\n      add\n      0x00\n      keccak256\n        /* \"TronexUniverse.sol\":11011:11065  users[targetNode].matrices[_level].firstLevelReferrals */\n      0x01\n      add\n        /* \"TronexUniverse.sol\":11071:11078  _userId */\n      dup10\n        /* \"TronexUniverse.sol\":11011:11079  users[targetNode].matrices[_level].firstLevelReferrals.push(_userId) */\n      swap1\n      dup1\n      0x01\n      dup2\n      sload\n      add\n      dup1\n      dup3\n      sstore\n      dup1\n      swap2\n      pop\n      pop\n      0x01\n      swap1\n      sub\n      swap1\n      0x00\n      mstore\n      keccak256(0x00, 0x20)\n      add\n      0x00\n      swap1\n      swap2\n      swap1\n      swap2\n      swap1\n      swap2\n      pop\n      sstore\n        /* \"TronexUniverse.sol\":11144:11154  targetNode */\n      dup1\n        /* \"TronexUniverse.sol\":11094:11099  users */\n      0x02\n        /* \"TronexUniverse.sol\":11094:11108  users[_userId] */\n      0x00\n        /* \"TronexUniverse.sol\":11100:11107  _userId */\n      dup12\n        /* \"TronexUniverse.sol\":11094:11108  users[_userId] */\n      dup2\n      mstore\n      0x20\n      add\n      swap1\n      dup2\n      mstore\n      0x20\n      add\n      0x00\n      keccak256\n        /* \"TronexUniverse.sol\":11094:11117  users[_userId].matrices */\n      0x06\n      add\n        /* \"TronexUniverse.sol\":11094:11125  users[_userId].matrices[_level] */\n      0x00\n        /* \"TronexUniverse.sol\":11118:11124  _level */\n      dup10\n        /* \"TronexUniverse.sol\":11094:11125  users[_userId].matrices[_level] */\n      dup2\n      mstore\n      0x20\n      add\n      swap1\n      dup2\n      mstore\n      0x20\n      add\n      0x00\n      keccak256\n        /* \"TronexUniverse.sol\":11094:11141  users[_userId].matrices[_level].currentReferrer */\n      0x00\n      add\n        /* \"TronexUniverse.sol\":11094:11154  users[_userId].matrices[_level].currentReferrer = targetNode */\n      dup2\n      swap1\n      sstore\n      pop\n        /* \"TronexUniverse.sol\":11171:11184  sponsorMatrix */\n      dup5\n        /* \"TronexUniverse.sol\":11171:11205  sponsorMatrix.secondLevelReferrals */\n      0x02\n      add\n        /* \"TronexUniverse.sol\":11211:11218  _userId */\n      dup10\n        /* \"TronexUniverse.sol\":11171:11219  sponsorMatrix.secondLevelReferrals.push(_userId) */\n      swap1\n      dup1\n      0x01\n      dup2\n      sload\n      add\n      dup1\n      dup3\n      sstore\n      dup1\n      swap2\n      pop\n      pop\n      0x01\n      swap1\n      sub\n      swap1\n      0x00\n      mstore\n      keccak256(0x00, 0x20)\n      add\n      0x00\n      swap1\n      swap2\n      swap1\n      swap2\n      swap1\n      swap2\n      pop\n      sstore\n        /* \"TronexUniverse.sol\":11285:11286  4 */\n      0x04\n        /* \"TronexUniverse.sol\":11240:11253  sponsorMatrix */\n      dup6\n        /* \"TronexUniverse.sol\":11240:11274  sponsorMatrix.secondLevelReferrals */\n      0x02\n      add\n        /* \"TronexUniverse.sol\":11240:11281  sponsorMatrix.secondLevelReferrals.length */\n      dup1\n      sload\n      swap1\n      pop\n        /* \"TronexUniverse.sol\":11240:11286  sponsorMatrix.secondLevelReferrals.length == 4 */\n      sub\n        /* \"TronexUniverse.sol\":11236:11457  if (sponsorMatrix.secondLevelReferrals.length == 4) {... */\n      tag_376\n      jumpi\n        /* \"TronexUniverse.sol\":11307:11351  handleRecycle(_sponsorId, _level, matrixAmt) */\n      tag_377\n        /* \"TronexUniverse.sol\":11321:11331  _sponsorId */\n      dup9\n        /* \"TronexUniverse.sol\":11333:11339  _level */\n      dup9\n        /* \"TronexUniverse.sol\":11341:11350  matrixAmt */\n      dup7\n        /* \"TronexUniverse.sol\":11307:11320  handleRecycle */\n      tag_355\n        /* \"TronexUniverse.sol\":11307:11351  handleRecycle(_sponsorId, _level, matrixAmt) */\n      jump\t// in\n    tag_377:\n        /* \"TronexUniverse.sol\":11236:11457  if (sponsorMatrix.secondLevelReferrals.length == 4) {... */\n      jump(tag_378)\n    tag_376:\n        /* \"TronexUniverse.sol\":11392:11441  sendMoney(_sponsorId, matrixAmt, \"Matrix Income\") */\n      tag_379\n        /* \"TronexUniverse.sol\":11402:11412  _sponsorId */\n      dup9\n        /* \"TronexUniverse.sol\":11414:11423  matrixAmt */\n      dup6\n        /* \"TronexUniverse.sol\":11392:11441  sendMoney(_sponsorId, matrixAmt, \"Matrix Income\") */\n      mload(0x40)\n      dup1\n      0x40\n      add\n      0x40\n      mstore\n      dup1\n      0x0d\n      dup2\n      mstore\n      0x20\n      add\n      0x4d617472697820496e636f6d6500000000000000000000000000000000000000\n      dup2\n      mstore\n      pop\n        /* \"TronexUniverse.sol\":11392:11401  sendMoney */\n      tag_288\n        /* \"TronexUniverse.sol\":11392:11441  sendMoney(_sponsorId, matrixAmt, \"Matrix Income\") */\n      jump\t// in\n    tag_379:\n        /* \"TronexUniverse.sol\":11236:11457  if (sponsorMatrix.secondLevelReferrals.length == 4) {... */\n    tag_378:\n        /* \"TronexUniverse.sol\":10209:11468  {... */\n      pop\n      pop\n      pop\n        /* \"TronexUniverse.sol\":9365:11468  if (sponsorMatrix.firstLevelReferrals.length < 2) {... */\n    tag_360:\n        /* \"TronexUniverse.sol\":9205:11475  {... */\n      pop\n      pop\n        /* \"TronexUniverse.sol\":9104:11475  function updateMatrix(uint256 _userId, uint256 _sponsorId, uint256 _level, uint256 _amount) internal {... */\n    tag_346:\n      pop\n      pop\n      pop\n      pop\n      jump\t// out\n        /* \"TronexUniverse.sol\":11483:12855  function handleRecycle(uint256 _userId, uint256 _level, uint256 _matrixAmt) internal {... */\n    tag_355:\n        /* \"TronexUniverse.sol\":11579:11595  Matrix storage m */\n      0x00\n        /* \"TronexUniverse.sol\":11598:11603  users */\n      0x02\n        /* \"TronexUniverse.sol\":11598:11612  users[_userId] */\n      0x00\n        /* \"TronexUniverse.sol\":11604:11611  _userId */\n      dup6\n        /* \"TronexUniverse.sol\":11598:11612  users[_userId] */\n      dup2\n      mstore\n      0x20\n      add\n      swap1\n      dup2\n      mstore\n      0x20\n      add\n      0x00\n      keccak256\n        /* \"TronexUniverse.sol\":11598:11621  users[_userId].matrices */\n      0x06\n      add\n        /* \"TronexUniverse.sol\":11598:11629  users[_userId].matrices[_level] */\n      0x00\n        /* \"TronexUniverse.sol\":11622:11628  _level */\n      dup5\n        /* \"TronexUniverse.sol\":11598:11629  users[_userId].matrices[_level] */\n      dup2\n      mstore\n      0x20\n      add\n      swap1\n      dup2\n      mstore\n      0x20\n      add\n      0x00\n      keccak256\n        /* \"TronexUniverse.sol\":11579:11629  Matrix storage m = users[_userId].matrices[_level] */\n      swap1\n      pop\n        /* \"TronexUniverse.sol\":11650:11651  m */\n      dup1\n        /* \"TronexUniverse.sol\":11650:11664  m.recycleCount */\n      0x03\n      add\n      0x00\n        /* \"TronexUniverse.sol\":11650:11666  m.recycleCount++ */\n      dup2\n      sload\n      dup1\n      swap3\n      swap2\n      swap1\n      tag_381\n      swap1\n      tag_133\n      jump\t// in\n    tag_381:\n      swap2\n      swap1\n      pop\n      sstore\n      pop\n        /* \"TronexUniverse.sol\":11705:11711  _level */\n      dup3\n        /* \"TronexUniverse.sol\":11696:11703  _userId */\n      dup5\n        /* \"TronexUniverse.sol\":11682:11728  MatrixRecycle(_userId, _level, m.recycleCount) */\n      0xac99621eab4de122ce50be4d7e06a1841167686b9db744457f12d80f5eebedad\n        /* \"TronexUniverse.sol\":11713:11714  m */\n      dup4\n        /* \"TronexUniverse.sol\":11713:11727  m.recycleCount */\n      0x03\n      add\n      sload\n        /* \"TronexUniverse.sol\":11682:11728  MatrixRecycle(_userId, _level, m.recycleCount) */\n      mload(0x40)\n      tag_382\n      swap2\n      swap1\n      tag_34\n      jump\t// in\n    tag_382:\n      mload(0x40)\n      dup1\n      swap2\n      sub\n      swap1\n      log3\n        /* \"TronexUniverse.sol\":11828:11837  uint256 i */\n      0x00\n        /* \"TronexUniverse.sol\":11838:11839  0 */\n      0x00\n        /* \"TronexUniverse.sol\":11828:11839  uint256 i=0 */\n      swap1\n      pop\n        /* \"TronexUniverse.sol\":11824:11975  for(uint256 i=0; i < m.firstLevelReferrals.length; i++) {... */\n    tag_383:\n        /* \"TronexUniverse.sol\":11845:11846  m */\n      dup2\n        /* \"TronexUniverse.sol\":11845:11866  m.firstLevelReferrals */\n      0x01\n      add\n        /* \"TronexUniverse.sol\":11845:11873  m.firstLevelReferrals.length */\n      dup1\n      sload\n      swap1\n      pop\n        /* \"TronexUniverse.sol\":11841:11842  i */\n      dup2\n        /* \"TronexUniverse.sol\":11841:11873  i < m.firstLevelReferrals.length */\n      lt\n        /* \"TronexUniverse.sol\":11824:11975  for(uint256 i=0; i < m.firstLevelReferrals.length; i++) {... */\n      iszero\n      tag_384\n      jumpi\n        /* \"TronexUniverse.sol\":11962:11963  0 */\n      0x00\n        /* \"TronexUniverse.sol\":11895:11900  users */\n      0x02\n        /* \"TronexUniverse.sol\":11895:11926  users[m.firstLevelReferrals[i]] */\n      0x00\n        /* \"TronexUniverse.sol\":11901:11902  m */\n      dup5\n        /* \"TronexUniverse.sol\":11901:11922  m.firstLevelReferrals */\n      0x01\n      add\n        /* \"TronexUniverse.sol\":11923:11924  i */\n      dup5\n        /* \"TronexUniverse.sol\":11901:11925  m.firstLevelReferrals[i] */\n      dup2\n      sload\n      dup2\n      lt\n      tag_386\n      jumpi\n      tag_387\n      tag_121\n      jump\t// in\n    tag_387:\n    tag_386:\n      swap1\n      0x00\n      mstore\n      keccak256(0x00, 0x20)\n      add\n      sload\n        /* \"TronexUniverse.sol\":11895:11926  users[m.firstLevelReferrals[i]] */\n      dup2\n      mstore\n      0x20\n      add\n      swap1\n      dup2\n      mstore\n      0x20\n      add\n      0x00\n      keccak256\n        /* \"TronexUniverse.sol\":11895:11935  users[m.firstLevelReferrals[i]].matrices */\n      0x06\n      add\n        /* \"TronexUniverse.sol\":11895:11943  users[m.firstLevelReferrals[i]].matrices[_level] */\n      0x00\n        /* \"TronexUniverse.sol\":11936:11942  _level */\n      dup7\n        /* \"TronexUniverse.sol\":11895:11943  users[m.firstLevelReferrals[i]].matrices[_level] */\n      dup2\n      mstore\n      0x20\n      add\n      swap1\n      dup2\n      mstore\n      0x20\n      add\n      0x00\n      keccak256\n        /* \"TronexUniverse.sol\":11895:11959  users[m.firstLevelReferrals[i]].matrices[_level].currentReferrer */\n      0x00\n      add\n        /* \"TronexUniverse.sol\":11895:11963  users[m.firstLevelReferrals[i]].matrices[_level].currentReferrer = 0 */\n      dup2\n      swap1\n      sstore\n      pop\n        /* \"TronexUniverse.sol\":11875:11878  i++ */\n      dup1\n      dup1\n      0x01\n      add\n      swap2\n      pop\n      pop\n        /* \"TronexUniverse.sol\":11824:11975  for(uint256 i=0; i < m.firstLevelReferrals.length; i++) {... */\n      jump(tag_383)\n    tag_384:\n      pop\n        /* \"TronexUniverse.sol\":11989:11998  uint256 i */\n      0x00\n        /* \"TronexUniverse.sol\":11999:12000  0 */\n      0x00\n        /* \"TronexUniverse.sol\":11989:12000  uint256 i=0 */\n      swap1\n      pop\n        /* \"TronexUniverse.sol\":11985:12138  for(uint256 i=0; i < m.secondLevelReferrals.length; i++) {... */\n    tag_389:\n        /* \"TronexUniverse.sol\":12006:12007  m */\n      dup2\n        /* \"TronexUniverse.sol\":12006:12028  m.secondLevelReferrals */\n      0x02\n      add\n        /* \"TronexUniverse.sol\":12006:12035  m.secondLevelReferrals.length */\n      dup1\n      sload\n      swap1\n      pop\n        /* \"TronexUniverse.sol\":12002:12003  i */\n      dup2\n        /* \"TronexUniverse.sol\":12002:12035  i < m.secondLevelReferrals.length */\n      lt\n        /* \"TronexUniverse.sol\":11985:12138  for(uint256 i=0; i < m.secondLevelReferrals.length; i++) {... */\n      iszero\n      tag_390\n      jumpi\n        /* \"TronexUniverse.sol\":12125:12126  0 */\n      0x00\n        /* \"TronexUniverse.sol\":12057:12062  users */\n      0x02\n        /* \"TronexUniverse.sol\":12057:12089  users[m.secondLevelReferrals[i]] */\n      0x00\n        /* \"TronexUniverse.sol\":12063:12064  m */\n      dup5\n        /* \"TronexUniverse.sol\":12063:12085  m.secondLevelReferrals */\n      0x02\n      add\n        /* \"TronexUniverse.sol\":12086:12087  i */\n      dup5\n        /* \"TronexUniverse.sol\":12063:12088  m.secondLevelReferrals[i] */\n      dup2\n      sload\n      dup2\n      lt\n      tag_392\n      jumpi\n      tag_393\n      tag_121\n      jump\t// in\n    tag_393:\n    tag_392:\n      swap1\n      0x00\n      mstore\n      keccak256(0x00, 0x20)\n      add\n      sload\n        /* \"TronexUniverse.sol\":12057:12089  users[m.secondLevelReferrals[i]] */\n      dup2\n      mstore\n      0x20\n      add\n      swap1\n      dup2\n      mstore\n      0x20\n      add\n      0x00\n      keccak256\n        /* \"TronexUniverse.sol\":12057:12098  users[m.secondLevelReferrals[i]].matrices */\n      0x06\n      add\n        /* \"TronexUniverse.sol\":12057:12106  users[m.secondLevelReferrals[i]].matrices[_level] */\n      0x00\n        /* \"TronexUniverse.sol\":12099:12105  _level */\n      dup7\n        /* \"TronexUniverse.sol\":12057:12106  users[m.secondLevelReferrals[i]].matrices[_level] */\n      dup2\n      mstore\n      0x20\n      add\n      swap1\n      dup2\n      mstore\n      0x20\n      add\n      0x00\n      keccak256\n        /* \"TronexUniverse.sol\":12057:12122  users[m.secondLevelReferrals[i]].matrices[_level].currentReferrer */\n      0x00\n      add\n        /* \"TronexUniverse.sol\":12057:12126  users[m.secondLevelReferrals[i]].matrices[_level].currentReferrer = 0 */\n      dup2\n      swap1\n      sstore\n      pop\n        /* \"TronexUniverse.sol\":12037:12040  i++ */\n      dup1\n      dup1\n      0x01\n      add\n      swap2\n      pop\n      pop\n        /* \"TronexUniverse.sol\":11985:12138  for(uint256 i=0; i < m.secondLevelReferrals.length; i++) {... */\n      jump(tag_389)\n    tag_390:\n      pop\n        /* \"TronexUniverse.sol\":12157:12158  m */\n      dup1\n        /* \"TronexUniverse.sol\":12157:12178  m.firstLevelReferrals */\n      0x01\n      add\n      0x00\n        /* \"TronexUniverse.sol\":12150:12178  delete m.firstLevelReferrals */\n      tag_395\n      swap2\n      swap1\n      tag_396\n      jump\t// in\n    tag_395:\n        /* \"TronexUniverse.sol\":12196:12197  m */\n      dup1\n        /* \"TronexUniverse.sol\":12196:12218  m.secondLevelReferrals */\n      0x02\n      add\n      0x00\n        /* \"TronexUniverse.sol\":12189:12218  delete m.secondLevelReferrals */\n      tag_397\n      swap2\n      swap1\n      tag_396\n      jump\t// in\n    tag_397:\n        /* \"TronexUniverse.sol\":1283:1287  1000 */\n      0x03e8\n        /* \"TronexUniverse.sol\":12243:12250  _userId */\n      dup5\n        /* \"TronexUniverse.sol\":12243:12262  _userId == ADMIN_ID */\n      sub\n        /* \"TronexUniverse.sol\":12239:12410  if (_userId == ADMIN_ID) {... */\n      tag_398\n      jumpi\n        /* \"TronexUniverse.sol\":12301:12311  _matrixAmt */\n      dup2\n        /* \"TronexUniverse.sol\":12279:12297  royaltyFundBalance */\n      0x07\n      0x00\n        /* \"TronexUniverse.sol\":12279:12311  royaltyFundBalance += _matrixAmt */\n      dup3\n      dup3\n      sload\n      tag_399\n      swap2\n      swap1\n      tag_205\n      jump\t// in\n    tag_399:\n      swap3\n      pop\n      pop\n      dup2\n      swap1\n      sstore\n      pop\n        /* \"TronexUniverse.sol\":12331:12377  FundCredit(\"Admin Recycle Income\", _matrixAmt) */\n      0x1e2a45ecb3dcf528dd38ba1f2a869b557ebce43d5035a1471745e0bb4272147d\n        /* \"TronexUniverse.sol\":12366:12376  _matrixAmt */\n      dup3\n        /* \"TronexUniverse.sol\":12331:12377  FundCredit(\"Admin Recycle Income\", _matrixAmt) */\n      mload(0x40)\n      tag_400\n      swap2\n      swap1\n      tag_401\n      jump\t// in\n    tag_400:\n      mload(0x40)\n      dup1\n      swap2\n      sub\n      swap1\n      log1\n        /* \"TronexUniverse.sol\":12392:12399  return; */\n      pop\n      jump(tag_380)\n        /* \"TronexUniverse.sol\":12239:12410  if (_userId == ADMIN_ID) {... */\n    tag_398:\n        /* \"TronexUniverse.sol\":12460:12479  currentRecycleDepth */\n      0x0a\n      0x00\n        /* \"TronexUniverse.sol\":12460:12481  currentRecycleDepth++ */\n      dup2\n      sload\n      dup1\n      swap3\n      swap2\n      swap1\n      tag_402\n      swap1\n      tag_133\n      jump\t// in\n    tag_402:\n      swap2\n      swap1\n      pop\n      sstore\n      pop\n        /* \"TronexUniverse.sol\":2463:2464  5 */\n      0x05\n        /* \"TronexUniverse.sol\":12496:12515  currentRecycleDepth */\n      sload(0x0a)\n        /* \"TronexUniverse.sol\":12496:12536  currentRecycleDepth >= MAX_RECYCLE_DEPTH */\n      lt\n        /* \"TronexUniverse.sol\":12492:12691  if (currentRecycleDepth >= MAX_RECYCLE_DEPTH) {... */\n      tag_403\n      jumpi\n        /* \"TronexUniverse.sol\":12575:12585  _matrixAmt */\n      dup2\n        /* \"TronexUniverse.sol\":12553:12571  royaltyFundBalance */\n      0x07\n      0x00\n        /* \"TronexUniverse.sol\":12553:12585  royaltyFundBalance += _matrixAmt */\n      dup3\n      dup3\n      sload\n      tag_404\n      swap2\n      swap1\n      tag_205\n      jump\t// in\n    tag_404:\n      swap3\n      pop\n      pop\n      dup2\n      swap1\n      sstore\n      pop\n        /* \"TronexUniverse.sol\":12605:12658  FundCredit(\"Max Recycle Depth Safecatch\", _matrixAmt) */\n      0x1e2a45ecb3dcf528dd38ba1f2a869b557ebce43d5035a1471745e0bb4272147d\n        /* \"TronexUniverse.sol\":12647:12657  _matrixAmt */\n      dup3\n        /* \"TronexUniverse.sol\":12605:12658  FundCredit(\"Max Recycle Depth Safecatch\", _matrixAmt) */\n      mload(0x40)\n      tag_405\n      swap2\n      swap1\n      tag_406\n      jump\t// in\n    tag_405:\n      mload(0x40)\n      dup1\n      swap2\n      sub\n      swap1\n      log1\n        /* \"TronexUniverse.sol\":12673:12680  return; */\n      pop\n      jump(tag_380)\n        /* \"TronexUniverse.sol\":12492:12691  if (currentRecycleDepth >= MAX_RECYCLE_DEPTH) {... */\n    tag_403:\n        /* \"TronexUniverse.sol\":12703:12724  uint256 activeSponsor */\n      0x00\n        /* \"TronexUniverse.sol\":12727:12780  findActiveReferrer(users[_userId].referrerId, _level) */\n      tag_407\n        /* \"TronexUniverse.sol\":12746:12751  users */\n      0x02\n        /* \"TronexUniverse.sol\":12746:12760  users[_userId] */\n      0x00\n        /* \"TronexUniverse.sol\":12752:12759  _userId */\n      dup8\n        /* \"TronexUniverse.sol\":12746:12760  users[_userId] */\n      dup2\n      mstore\n      0x20\n      add\n      swap1\n      dup2\n      mstore\n      0x20\n      add\n      0x00\n      keccak256\n        /* \"TronexUniverse.sol\":12746:12771  users[_userId].referrerId */\n      0x02\n      add\n      sload\n        /* \"TronexUniverse.sol\":12773:12779  _level */\n      dup6\n        /* \"TronexUniverse.sol\":12727:12745  findActiveReferrer */\n      tag_269\n        /* \"TronexUniverse.sol\":12727:12780  findActiveReferrer(users[_userId].referrerId, _level) */\n      jump\t// in\n    tag_407:\n        /* \"TronexUniverse.sol\":12703:12780  uint256 activeSponsor = findActiveReferrer(users[_userId].referrerId, _level) */\n      swap1\n      pop\n        /* \"TronexUniverse.sol\":12791:12847  updateMatrix(_userId, activeSponsor, _level, _matrixAmt) */\n      tag_408\n        /* \"TronexUniverse.sol\":12804:12811  _userId */\n      dup6\n        /* \"TronexUniverse.sol\":12813:12826  activeSponsor */\n      dup3\n        /* \"TronexUniverse.sol\":12828:12834  _level */\n      dup7\n        /* \"TronexUniverse.sol\":12836:12846  _matrixAmt */\n      dup7\n        /* \"TronexUniverse.sol\":12791:12803  updateMatrix */\n      tag_345\n        /* \"TronexUniverse.sol\":12791:12847  updateMatrix(_userId, activeSponsor, _level, _matrixAmt) */\n      jump\t// in\n    tag_408:\n        /* \"TronexUniverse.sol\":11568:12855  {... */\n      pop\n      pop\n        /* \"TronexUniverse.sol\":11483:12855  function handleRecycle(uint256 _userId, uint256 _level, uint256 _matrixAmt) internal {... */\n    tag_380:\n      pop\n      pop\n      pop\n      jump\t// out\n    tag_396:\n      pop\n      dup1\n      sload\n      0x00\n      dup3\n      sstore\n      swap1\n      0x00\n      mstore\n      keccak256(0x00, 0x20)\n      swap1\n      dup2\n      add\n      swap1\n      tag_410\n      swap2\n      swap1\n      tag_411\n      jump\t// in\n    tag_410:\n      pop\n      jump\t// out\n    tag_411:\n    tag_412:\n      dup1\n      dup3\n      gt\n      iszero\n      tag_413\n      jumpi\n      0x00\n      dup2\n      0x00\n      swap1\n      sstore\n      pop\n      0x01\n      add\n      jump(tag_412)\n    tag_413:\n      pop\n      swap1\n      jump\t// out\n        /* \"#utility.yul\":88:205   */\n    tag_415:\n        /* \"#utility.yul\":197:198   */\n      0x00\n        /* \"#utility.yul\":194:195   */\n      0x00\n        /* \"#utility.yul\":187:199   */\n      revert\n        /* \"#utility.yul\":334:411   */\n    tag_417:\n        /* \"#utility.yul\":371:378   */\n      0x00\n        /* \"#utility.yul\":400:405   */\n      dup2\n        /* \"#utility.yul\":389:405   */\n      swap1\n      pop\n        /* \"#utility.yul\":334:411   */\n      swap2\n      swap1\n      pop\n      jump\t// out\n        /* \"#utility.yul\":417:539   */\n    tag_418:\n        /* \"#utility.yul\":490:514   */\n      tag_513\n        /* \"#utility.yul\":508:513   */\n      dup2\n        /* \"#utility.yul\":490:514   */\n      tag_417\n      jump\t// in\n    tag_513:\n        /* \"#utility.yul\":483:488   */\n      dup2\n        /* \"#utility.yul\":480:515   */\n      eq\n        /* \"#utility.yul\":470:533   */\n      tag_514\n      jumpi\n        /* \"#utility.yul\":529:530   */\n      0x00\n        /* \"#utility.yul\":526:527   */\n      0x00\n        /* \"#utility.yul\":519:531   */\n      revert\n        /* \"#utility.yul\":470:533   */\n    tag_514:\n        /* \"#utility.yul\":417:539   */\n      pop\n      jump\t// out\n        /* \"#utility.yul\":545:684   */\n    tag_419:\n        /* \"#utility.yul\":591:596   */\n      0x00\n        /* \"#utility.yul\":629:635   */\n      dup2\n        /* \"#utility.yul\":616:636   */\n      calldataload\n        /* \"#utility.yul\":607:636   */\n      swap1\n      pop\n        /* \"#utility.yul\":645:678   */\n      tag_516\n        /* \"#utility.yul\":672:677   */\n      dup2\n        /* \"#utility.yul\":645:678   */\n      tag_418\n      jump\t// in\n    tag_516:\n        /* \"#utility.yul\":545:684   */\n      swap3\n      swap2\n      pop\n      pop\n      jump\t// out\n        /* \"#utility.yul\":690:1019   */\n    tag_31:\n        /* \"#utility.yul\":749:755   */\n      0x00\n        /* \"#utility.yul\":798:800   */\n      0x20\n        /* \"#utility.yul\":786:795   */\n      dup3\n        /* \"#utility.yul\":777:784   */\n      dup5\n        /* \"#utility.yul\":773:796   */\n      sub\n        /* \"#utility.yul\":769:801   */\n      slt\n        /* \"#utility.yul\":766:885   */\n      iszero\n      tag_518\n      jumpi\n        /* \"#utility.yul\":804:883   */\n      tag_519\n      tag_415\n      jump\t// in\n    tag_519:\n        /* \"#utility.yul\":766:885   */\n    tag_518:\n        /* \"#utility.yul\":924:925   */\n      0x00\n        /* \"#utility.yul\":949:1002   */\n      tag_520\n        /* \"#utility.yul\":994:1001   */\n      dup5\n        /* \"#utility.yul\":985:991   */\n      dup3\n        /* \"#utility.yul\":974:983   */\n      dup6\n        /* \"#utility.yul\":970:992   */\n      add\n        /* \"#utility.yul\":949:1002   */\n      tag_419\n      jump\t// in\n    tag_520:\n        /* \"#utility.yul\":939:1002   */\n      swap2\n      pop\n        /* \"#utility.yul\":895:1012   */\n      pop\n        /* \"#utility.yul\":690:1019   */\n      swap3\n      swap2\n      pop\n      pop\n      jump\t// out\n        /* \"#utility.yul\":1025:1143   */\n    tag_420:\n        /* \"#utility.yul\":1112:1136   */\n      tag_522\n        /* \"#utility.yul\":1130:1135   */\n      dup2\n        /* \"#utility.yul\":1112:1136   */\n      tag_417\n      jump\t// in\n    tag_522:\n        /* \"#utility.yul\":1107:1110   */\n      dup3\n        /* \"#utility.yul\":1100:1137   */\n      mstore\n        /* \"#utility.yul\":1025:1143   */\n      pop\n      pop\n      jump\t// out\n        /* \"#utility.yul\":1149:1371   */\n    tag_34:\n        /* \"#utility.yul\":1242:1246   */\n      0x00\n        /* \"#utility.yul\":1280:1282   */\n      0x20\n        /* \"#utility.yul\":1269:1278   */\n      dup3\n        /* \"#utility.yul\":1265:1283   */\n      add\n        /* \"#utility.yul\":1257:1283   */\n      swap1\n      pop\n        /* \"#utility.yul\":1293:1364   */\n      tag_524\n        /* \"#utility.yul\":1361:1362   */\n      0x00\n        /* \"#utility.yul\":1350:1359   */\n      dup4\n        /* \"#utility.yul\":1346:1363   */\n      add\n        /* \"#utility.yul\":1337:1343   */\n      dup5\n        /* \"#utility.yul\":1293:1364   */\n      tag_420\n      jump\t// in\n    tag_524:\n        /* \"#utility.yul\":1149:1371   */\n      swap3\n      swap2\n      pop\n      pop\n      jump\t// out\n        /* \"#utility.yul\":1377:1503   */\n    tag_421:\n        /* \"#utility.yul\":1414:1421   */\n      0x00\n        /* \"#utility.yul\":1454:1496   */\n      0xffffffffffffffffffffffffffffffffffffffff\n        /* \"#utility.yul\":1447:1452   */\n      dup3\n        /* \"#utility.yul\":1443:1497   */\n      and\n        /* \"#utility.yul\":1432:1497   */\n      swap1\n      pop\n        /* \"#utility.yul\":1377:1503   */\n      swap2\n      swap1\n      pop\n      jump\t// out\n        /* \"#utility.yul\":1509:1605   */\n    tag_422:\n        /* \"#utility.yul\":1546:1553   */\n      0x00\n        /* \"#utility.yul\":1575:1599   */\n      tag_527\n        /* \"#utility.yul\":1593:1598   */\n      dup3\n        /* \"#utility.yul\":1575:1599   */\n      tag_421\n      jump\t// in\n    tag_527:\n        /* \"#utility.yul\":1564:1599   */\n      swap1\n      pop\n        /* \"#utility.yul\":1509:1605   */\n      swap2\n      swap1\n      pop\n      jump\t// out\n        /* \"#utility.yul\":1611:1729   */\n    tag_423:\n        /* \"#utility.yul\":1698:1722   */\n      tag_529\n        /* \"#utility.yul\":1716:1721   */\n      dup2\n        /* \"#utility.yul\":1698:1722   */\n      tag_422\n      jump\t// in\n    tag_529:\n        /* \"#utility.yul\":1693:1696   */\n      dup3\n        /* \"#utility.yul\":1686:1723   */\n      mstore\n        /* \"#utility.yul\":1611:1729   */\n      pop\n      pop\n      jump\t// out\n        /* \"#utility.yul\":1735:2843   */\n    tag_45:\n        /* \"#utility.yul\":2052:2056   */\n      0x00\n        /* \"#utility.yul\":2090:2093   */\n      0x0120\n        /* \"#utility.yul\":2079:2088   */\n      dup3\n        /* \"#utility.yul\":2075:2094   */\n      add\n        /* \"#utility.yul\":2067:2094   */\n      swap1\n      pop\n        /* \"#utility.yul\":2104:2175   */\n      tag_531\n        /* \"#utility.yul\":2172:2173   */\n      0x00\n        /* \"#utility.yul\":2161:2170   */\n      dup4\n        /* \"#utility.yul\":2157:2174   */\n      add\n        /* \"#utility.yul\":2148:2154   */\n      dup13\n        /* \"#utility.yul\":2104:2175   */\n      tag_420\n      jump\t// in\n    tag_531:\n        /* \"#utility.yul\":2185:2257   */\n      tag_532\n        /* \"#utility.yul\":2253:2255   */\n      0x20\n        /* \"#utility.yul\":2242:2251   */\n      dup4\n        /* \"#utility.yul\":2238:2256   */\n      add\n        /* \"#utility.yul\":2229:2235   */\n      dup12\n        /* \"#utility.yul\":2185:2257   */\n      tag_423\n      jump\t// in\n    tag_532:\n        /* \"#utility.yul\":2267:2339   */\n      tag_533\n        /* \"#utility.yul\":2335:2337   */\n      0x40\n        /* \"#utility.yul\":2324:2333   */\n      dup4\n        /* \"#utility.yul\":2320:2338   */\n      add\n        /* \"#utility.yul\":2311:2317   */\n      dup11\n        /* \"#utility.yul\":2267:2339   */\n      tag_420\n      jump\t// in\n    tag_533:\n        /* \"#utility.yul\":2349:2421   */\n      tag_534\n        /* \"#utility.yul\":2417:2419   */\n      0x60\n        /* \"#utility.yul\":2406:2415   */\n      dup4\n        /* \"#utility.yul\":2402:2420   */\n      add\n        /* \"#utility.yul\":2393:2399   */\n      dup10\n        /* \"#utility.yul\":2349:2421   */\n      tag_420\n      jump\t// in\n    tag_534:\n        /* \"#utility.yul\":2431:2504   */\n      tag_535\n        /* \"#utility.yul\":2499:2502   */\n      0x80\n        /* \"#utility.yul\":2488:2497   */\n      dup4\n        /* \"#utility.yul\":2484:2503   */\n      add\n        /* \"#utility.yul\":2475:2481   */\n      dup9\n        /* \"#utility.yul\":2431:2504   */\n      tag_420\n      jump\t// in\n    tag_535:\n        /* \"#utility.yul\":2514:2587   */\n      tag_536\n        /* \"#utility.yul\":2582:2585   */\n      0xa0\n        /* \"#utility.yul\":2571:2580   */\n      dup4\n        /* \"#utility.yul\":2567:2586   */\n      add\n        /* \"#utility.yul\":2558:2564   */\n      dup8\n        /* \"#utility.yul\":2514:2587   */\n      tag_420\n      jump\t// in\n    tag_536:\n        /* \"#utility.yul\":2597:2670   */\n      tag_537\n        /* \"#utility.yul\":2665:2668   */\n      0xc0\n        /* \"#utility.yul\":2654:2663   */\n      dup4\n        /* \"#utility.yul\":2650:2669   */\n      add\n        /* \"#utility.yul\":2641:2647   */\n      dup7\n        /* \"#utility.yul\":2597:2670   */\n      tag_420\n      jump\t// in\n    tag_537:\n        /* \"#utility.yul\":2680:2753   */\n      tag_538\n        /* \"#utility.yul\":2748:2751   */\n      0xe0\n        /* \"#utility.yul\":2737:2746   */\n      dup4\n        /* \"#utility.yul\":2733:2752   */\n      add\n        /* \"#utility.yul\":2724:2730   */\n      dup6\n        /* \"#utility.yul\":2680:2753   */\n      tag_420\n      jump\t// in\n    tag_538:\n        /* \"#utility.yul\":2763:2836   */\n      tag_539\n        /* \"#utility.yul\":2831:2834   */\n      0x0100\n        /* \"#utility.yul\":2820:2829   */\n      dup4\n        /* \"#utility.yul\":2816:2835   */\n      add\n        /* \"#utility.yul\":2807:2813   */\n      dup5\n        /* \"#utility.yul\":2763:2836   */\n      tag_420\n      jump\t// in\n    tag_539:\n        /* \"#utility.yul\":1735:2843   */\n      swap11\n      swap10\n      pop\n      pop\n      pop\n      pop\n      pop\n      pop\n      pop\n      pop\n      pop\n      pop\n      jump\t// out\n        /* \"#utility.yul\":2849:3071   */\n    tag_70:\n        /* \"#utility.yul\":2942:2946   */\n      0x00\n        /* \"#utility.yul\":2980:2982   */\n      0x20\n        /* \"#utility.yul\":2969:2978   */\n      dup3\n        /* \"#utility.yul\":2965:2983   */\n      add\n        /* \"#utility.yul\":2957:2983   */\n      swap1\n      pop\n        /* \"#utility.yul\":2993:3064   */\n      tag_541\n        /* \"#utility.yul\":3061:3062   */\n      0x00\n        /* \"#utility.yul\":3050:3059   */\n      dup4\n        /* \"#utility.yul\":3046:3063   */\n      add\n        /* \"#utility.yul\":3037:3043   */\n      dup5\n        /* \"#utility.yul\":2993:3064   */\n      tag_423\n      jump\t// in\n    tag_541:\n        /* \"#utility.yul\":2849:3071   */\n      swap3\n      swap2\n      pop\n      pop\n      jump\t// out\n        /* \"#utility.yul\":3077:3137   */\n    tag_424:\n        /* \"#utility.yul\":3105:3108   */\n      0x00\n        /* \"#utility.yul\":3126:3131   */\n      dup2\n        /* \"#utility.yul\":3119:3131   */\n      swap1\n      pop\n        /* \"#utility.yul\":3077:3137   */\n      swap2\n      swap1\n      pop\n      jump\t// out\n        /* \"#utility.yul\":3143:3285   */\n    tag_425:\n        /* \"#utility.yul\":3193:3202   */\n      0x00\n        /* \"#utility.yul\":3226:3279   */\n      tag_544\n        /* \"#utility.yul\":3244:3278   */\n      tag_545\n        /* \"#utility.yul\":3253:3277   */\n      tag_546\n        /* \"#utility.yul\":3271:3276   */\n      dup5\n        /* \"#utility.yul\":3253:3277   */\n      tag_421\n      jump\t// in\n    tag_546:\n        /* \"#utility.yul\":3244:3278   */\n      tag_424\n      jump\t// in\n    tag_545:\n        /* \"#utility.yul\":3226:3279   */\n      tag_421\n      jump\t// in\n    tag_544:\n        /* \"#utility.yul\":3213:3279   */\n      swap1\n      pop\n        /* \"#utility.yul\":3143:3285   */\n      swap2\n      swap1\n      pop\n      jump\t// out\n        /* \"#utility.yul\":3291:3417   */\n    tag_426:\n        /* \"#utility.yul\":3341:3350   */\n      0x00\n        /* \"#utility.yul\":3374:3411   */\n      tag_548\n        /* \"#utility.yul\":3405:3410   */\n      dup3\n        /* \"#utility.yul\":3374:3411   */\n      tag_425\n      jump\t// in\n    tag_548:\n        /* \"#utility.yul\":3361:3411   */\n      swap1\n      pop\n        /* \"#utility.yul\":3291:3417   */\n      swap2\n      swap1\n      pop\n      jump\t// out\n        /* \"#utility.yul\":3423:3562   */\n    tag_427:\n        /* \"#utility.yul\":3486:3495   */\n      0x00\n        /* \"#utility.yul\":3519:3556   */\n      tag_550\n        /* \"#utility.yul\":3550:3555   */\n      dup3\n        /* \"#utility.yul\":3519:3556   */\n      tag_426\n      jump\t// in\n    tag_550:\n        /* \"#utility.yul\":3506:3556   */\n      swap1\n      pop\n        /* \"#utility.yul\":3423:3562   */\n      swap2\n      swap1\n      pop\n      jump\t// out\n        /* \"#utility.yul\":3568:3725   */\n    tag_428:\n        /* \"#utility.yul\":3668:3718   */\n      tag_552\n        /* \"#utility.yul\":3712:3717   */\n      dup2\n        /* \"#utility.yul\":3668:3718   */\n      tag_427\n      jump\t// in\n    tag_552:\n        /* \"#utility.yul\":3663:3666   */\n      dup3\n        /* \"#utility.yul\":3656:3719   */\n      mstore\n        /* \"#utility.yul\":3568:3725   */\n      pop\n      pop\n      jump\t// out\n        /* \"#utility.yul\":3731:3979   */\n    tag_80:\n        /* \"#utility.yul\":3837:3841   */\n      0x00\n        /* \"#utility.yul\":3875:3877   */\n      0x20\n        /* \"#utility.yul\":3864:3873   */\n      dup3\n        /* \"#utility.yul\":3860:3878   */\n      add\n        /* \"#utility.yul\":3852:3878   */\n      swap1\n      pop\n        /* \"#utility.yul\":3888:3972   */\n      tag_554\n        /* \"#utility.yul\":3969:3970   */\n      0x00\n        /* \"#utility.yul\":3958:3967   */\n      dup4\n        /* \"#utility.yul\":3954:3971   */\n      add\n        /* \"#utility.yul\":3945:3951   */\n      dup5\n        /* \"#utility.yul\":3888:3972   */\n      tag_428\n      jump\t// in\n    tag_554:\n        /* \"#utility.yul\":3731:3979   */\n      swap3\n      swap2\n      pop\n      pop\n      jump\t// out\n        /* \"#utility.yul\":3985:4107   */\n    tag_429:\n        /* \"#utility.yul\":4058:4082   */\n      tag_556\n        /* \"#utility.yul\":4076:4081   */\n      dup2\n        /* \"#utility.yul\":4058:4082   */\n      tag_422\n      jump\t// in\n    tag_556:\n        /* \"#utility.yul\":4051:4056   */\n      dup2\n        /* \"#utility.yul\":4048:4083   */\n      eq\n        /* \"#utility.yul\":4038:4101   */\n      tag_557\n      jumpi\n        /* \"#utility.yul\":4097:4098   */\n      0x00\n        /* \"#utility.yul\":4094:4095   */\n      0x00\n        /* \"#utility.yul\":4087:4099   */\n      revert\n        /* \"#utility.yul\":4038:4101   */\n    tag_557:\n        /* \"#utility.yul\":3985:4107   */\n      pop\n      jump\t// out\n        /* \"#utility.yul\":4113:4252   */\n    tag_430:\n        /* \"#utility.yul\":4159:4164   */\n      0x00\n        /* \"#utility.yul\":4197:4203   */\n      dup2\n        /* \"#utility.yul\":4184:4204   */\n      calldataload\n        /* \"#utility.yul\":4175:4204   */\n      swap1\n      pop\n        /* \"#utility.yul\":4213:4246   */\n      tag_559\n        /* \"#utility.yul\":4240:4245   */\n      dup2\n        /* \"#utility.yul\":4213:4246   */\n      tag_429\n      jump\t// in\n    tag_559:\n        /* \"#utility.yul\":4113:4252   */\n      swap3\n      swap2\n      pop\n      pop\n      jump\t// out\n        /* \"#utility.yul\":4258:4587   */\n    tag_83:\n        /* \"#utility.yul\":4317:4323   */\n      0x00\n        /* \"#utility.yul\":4366:4368   */\n      0x20\n        /* \"#utility.yul\":4354:4363   */\n      dup3\n        /* \"#utility.yul\":4345:4352   */\n      dup5\n        /* \"#utility.yul\":4341:4364   */\n      sub\n        /* \"#utility.yul\":4337:4369   */\n      slt\n        /* \"#utility.yul\":4334:4453   */\n      iszero\n      tag_561\n      jumpi\n        /* \"#utility.yul\":4372:4451   */\n      tag_562\n      tag_415\n      jump\t// in\n    tag_562:\n        /* \"#utility.yul\":4334:4453   */\n    tag_561:\n        /* \"#utility.yul\":4492:4493   */\n      0x00\n        /* \"#utility.yul\":4517:4570   */\n      tag_563\n        /* \"#utility.yul\":4562:4569   */\n      dup5\n        /* \"#utility.yul\":4553:4559   */\n      dup3\n        /* \"#utility.yul\":4542:4551   */\n      dup6\n        /* \"#utility.yul\":4538:4560   */\n      add\n        /* \"#utility.yul\":4517:4570   */\n      tag_430\n      jump\t// in\n    tag_563:\n        /* \"#utility.yul\":4507:4570   */\n      swap2\n      pop\n        /* \"#utility.yul\":4463:4580   */\n      pop\n        /* \"#utility.yul\":4258:4587   */\n      swap3\n      swap2\n      pop\n      pop\n      jump\t// out\n        /* \"#utility.yul\":4593:5479   */\n    tag_90:\n        /* \"#utility.yul\":4854:4858   */\n      0x00\n        /* \"#utility.yul\":4892:4895   */\n      0xe0\n        /* \"#utility.yul\":4881:4890   */\n      dup3\n        /* \"#utility.yul\":4877:4896   */\n      add\n        /* \"#utility.yul\":4869:4896   */\n      swap1\n      pop\n        /* \"#utility.yul\":4906:4977   */\n      tag_565\n        /* \"#utility.yul\":4974:4975   */\n      0x00\n        /* \"#utility.yul\":4963:4972   */\n      dup4\n        /* \"#utility.yul\":4959:4976   */\n      add\n        /* \"#utility.yul\":4950:4956   */\n      dup11\n        /* \"#utility.yul\":4906:4977   */\n      tag_423\n      jump\t// in\n    tag_565:\n        /* \"#utility.yul\":4987:5059   */\n      tag_566\n        /* \"#utility.yul\":5055:5057   */\n      0x20\n        /* \"#utility.yul\":5044:5053   */\n      dup4\n        /* \"#utility.yul\":5040:5058   */\n      add\n        /* \"#utility.yul\":5031:5037   */\n      dup10\n        /* \"#utility.yul\":4987:5059   */\n      tag_420\n      jump\t// in\n    tag_566:\n        /* \"#utility.yul\":5069:5141   */\n      tag_567\n        /* \"#utility.yul\":5137:5139   */\n      0x40\n        /* \"#utility.yul\":5126:5135   */\n      dup4\n        /* \"#utility.yul\":5122:5140   */\n      add\n        /* \"#utility.yul\":5113:5119   */\n      dup9\n        /* \"#utility.yul\":5069:5141   */\n      tag_420\n      jump\t// in\n    tag_567:\n        /* \"#utility.yul\":5151:5223   */\n      tag_568\n        /* \"#utility.yul\":5219:5221   */\n      0x60\n        /* \"#utility.yul\":5208:5217   */\n      dup4\n        /* \"#utility.yul\":5204:5222   */\n      add\n        /* \"#utility.yul\":5195:5201   */\n      dup8\n        /* \"#utility.yul\":5151:5223   */\n      tag_420\n      jump\t// in\n    tag_568:\n        /* \"#utility.yul\":5233:5306   */\n      tag_569\n        /* \"#utility.yul\":5301:5304   */\n      0x80\n        /* \"#utility.yul\":5290:5299   */\n      dup4\n        /* \"#utility.yul\":5286:5305   */\n      add\n        /* \"#utility.yul\":5277:5283   */\n      dup7\n        /* \"#utility.yul\":5233:5306   */\n      tag_420\n      jump\t// in\n    tag_569:\n        /* \"#utility.yul\":5316:5389   */\n      tag_570\n        /* \"#utility.yul\":5384:5387   */\n      0xa0\n        /* \"#utility.yul\":5373:5382   */\n      dup4\n        /* \"#utility.yul\":5369:5388   */\n      add\n        /* \"#utility.yul\":5360:5366   */\n      dup6\n        /* \"#utility.yul\":5316:5389   */\n      tag_420\n      jump\t// in\n    tag_570:\n        /* \"#utility.yul\":5399:5472   */\n      tag_571\n        /* \"#utility.yul\":5467:5470   */\n      0xc0\n        /* \"#utility.yul\":5456:5465   */\n      dup4\n        /* \"#utility.yul\":5452:5471   */\n      add\n        /* \"#utility.yul\":5443:5449   */\n      dup5\n        /* \"#utility.yul\":5399:5472   */\n      tag_420\n      jump\t// in\n    tag_571:\n        /* \"#utility.yul\":4593:5479   */\n      swap9\n      swap8\n      pop\n      pop\n      pop\n      pop\n      pop\n      pop\n      pop\n      pop\n      jump\t// out\n        /* \"#utility.yul\":5485:5959   */\n    tag_93:\n        /* \"#utility.yul\":5553:5559   */\n      0x00\n        /* \"#utility.yul\":5561:5567   */\n      0x00\n        /* \"#utility.yul\":5610:5612   */\n      0x40\n        /* \"#utility.yul\":5598:5607   */\n      dup4\n        /* \"#utility.yul\":5589:5596   */\n      dup6\n        /* \"#utility.yul\":5585:5608   */\n      sub\n        /* \"#utility.yul\":5581:5613   */\n      slt\n        /* \"#utility.yul\":5578:5697   */\n      iszero\n      tag_573\n      jumpi\n        /* \"#utility.yul\":5616:5695   */\n      tag_574\n      tag_415\n      jump\t// in\n    tag_574:\n        /* \"#utility.yul\":5578:5697   */\n    tag_573:\n        /* \"#utility.yul\":5736:5737   */\n      0x00\n        /* \"#utility.yul\":5761:5814   */\n      tag_575\n        /* \"#utility.yul\":5806:5813   */\n      dup6\n        /* \"#utility.yul\":5797:5803   */\n      dup3\n        /* \"#utility.yul\":5786:5795   */\n      dup7\n        /* \"#utility.yul\":5782:5804   */\n      add\n        /* \"#utility.yul\":5761:5814   */\n      tag_419\n      jump\t// in\n    tag_575:\n        /* \"#utility.yul\":5751:5814   */\n      swap3\n      pop\n        /* \"#utility.yul\":5707:5824   */\n      pop\n        /* \"#utility.yul\":5863:5865   */\n      0x20\n        /* \"#utility.yul\":5889:5942   */\n      tag_576\n        /* \"#utility.yul\":5934:5941   */\n      dup6\n        /* \"#utility.yul\":5925:5931   */\n      dup3\n        /* \"#utility.yul\":5914:5923   */\n      dup7\n        /* \"#utility.yul\":5910:5932   */\n      add\n        /* \"#utility.yul\":5889:5942   */\n      tag_419\n      jump\t// in\n    tag_576:\n        /* \"#utility.yul\":5879:5942   */\n      swap2\n      pop\n        /* \"#utility.yul\":5834:5952   */\n      pop\n        /* \"#utility.yul\":5485:5959   */\n      swap3\n      pop\n      swap3\n      swap1\n      pop\n      jump\t// out\n        /* \"#utility.yul\":5965:6079   */\n    tag_431:\n        /* \"#utility.yul\":6032:6038   */\n      0x00\n        /* \"#utility.yul\":6066:6071   */\n      dup2\n        /* \"#utility.yul\":6060:6072   */\n      mload\n        /* \"#utility.yul\":6050:6072   */\n      swap1\n      pop\n        /* \"#utility.yul\":5965:6079   */\n      swap2\n      swap1\n      pop\n      jump\t// out\n        /* \"#utility.yul\":6085:6269   */\n    tag_432:\n        /* \"#utility.yul\":6184:6195   */\n      0x00\n        /* \"#utility.yul\":6218:6224   */\n      dup3\n        /* \"#utility.yul\":6213:6216   */\n      dup3\n        /* \"#utility.yul\":6206:6225   */\n      mstore\n        /* \"#utility.yul\":6258:6262   */\n      0x20\n        /* \"#utility.yul\":6253:6256   */\n      dup3\n        /* \"#utility.yul\":6249:6263   */\n      add\n        /* \"#utility.yul\":6234:6263   */\n      swap1\n      pop\n        /* \"#utility.yul\":6085:6269   */\n      swap3\n      swap2\n      pop\n      pop\n      jump\t// out\n        /* \"#utility.yul\":6275:6407   */\n    tag_433:\n        /* \"#utility.yul\":6342:6346   */\n      0x00\n        /* \"#utility.yul\":6365:6368   */\n      dup2\n        /* \"#utility.yul\":6357:6368   */\n      swap1\n      pop\n        /* \"#utility.yul\":6395:6399   */\n      0x20\n        /* \"#utility.yul\":6390:6393   */\n      dup3\n        /* \"#utility.yul\":6386:6400   */\n      add\n        /* \"#utility.yul\":6378:6400   */\n      swap1\n      pop\n        /* \"#utility.yul\":6275:6407   */\n      swap2\n      swap1\n      pop\n      jump\t// out\n        /* \"#utility.yul\":6413:6521   */\n    tag_434:\n        /* \"#utility.yul\":6490:6514   */\n      tag_581\n        /* \"#utility.yul\":6508:6513   */\n      dup2\n        /* \"#utility.yul\":6490:6514   */\n      tag_417\n      jump\t// in\n    tag_581:\n        /* \"#utility.yul\":6485:6488   */\n      dup3\n        /* \"#utility.yul\":6478:6515   */\n      mstore\n        /* \"#utility.yul\":6413:6521   */\n      pop\n      pop\n      jump\t// out\n        /* \"#utility.yul\":6527:6706   */\n    tag_435:\n        /* \"#utility.yul\":6596:6606   */\n      0x00\n        /* \"#utility.yul\":6617:6663   */\n      tag_583\n        /* \"#utility.yul\":6659:6662   */\n      dup4\n        /* \"#utility.yul\":6651:6657   */\n      dup4\n        /* \"#utility.yul\":6617:6663   */\n      tag_434\n      jump\t// in\n    tag_583:\n        /* \"#utility.yul\":6695:6699   */\n      0x20\n        /* \"#utility.yul\":6690:6693   */\n      dup4\n        /* \"#utility.yul\":6686:6700   */\n      add\n        /* \"#utility.yul\":6672:6700   */\n      swap1\n      pop\n        /* \"#utility.yul\":6527:6706   */\n      swap3\n      swap2\n      pop\n      pop\n      jump\t// out\n        /* \"#utility.yul\":6712:6825   */\n    tag_436:\n        /* \"#utility.yul\":6782:6786   */\n      0x00\n        /* \"#utility.yul\":6814:6818   */\n      0x20\n        /* \"#utility.yul\":6809:6812   */\n      dup3\n        /* \"#utility.yul\":6805:6819   */\n      add\n        /* \"#utility.yul\":6797:6819   */\n      swap1\n      pop\n        /* \"#utility.yul\":6712:6825   */\n      swap2\n      swap1\n      pop\n      jump\t// out\n        /* \"#utility.yul\":6861:7593   */\n    tag_437:\n        /* \"#utility.yul\":6980:6983   */\n      0x00\n        /* \"#utility.yul\":7009:7063   */\n      tag_586\n        /* \"#utility.yul\":7057:7062   */\n      dup3\n        /* \"#utility.yul\":7009:7063   */\n      tag_431\n      jump\t// in\n    tag_586:\n        /* \"#utility.yul\":7079:7165   */\n      tag_587\n        /* \"#utility.yul\":7158:7164   */\n      dup2\n        /* \"#utility.yul\":7153:7156   */\n      dup6\n        /* \"#utility.yul\":7079:7165   */\n      tag_432\n      jump\t// in\n    tag_587:\n        /* \"#utility.yul\":7072:7165   */\n      swap4\n      pop\n        /* \"#utility.yul\":7189:7245   */\n      tag_588\n        /* \"#utility.yul\":7239:7244   */\n      dup4\n        /* \"#utility.yul\":7189:7245   */\n      tag_433\n      jump\t// in\n    tag_588:\n        /* \"#utility.yul\":7268:7275   */\n      dup1\n        /* \"#utility.yul\":7299:7300   */\n      0x00\n        /* \"#utility.yul\":7284:7568   */\n    tag_589:\n        /* \"#utility.yul\":7309:7315   */\n      dup4\n        /* \"#utility.yul\":7306:7307   */\n      dup2\n        /* \"#utility.yul\":7303:7316   */\n      lt\n        /* \"#utility.yul\":7284:7568   */\n      iszero\n      tag_591\n      jumpi\n        /* \"#utility.yul\":7385:7391   */\n      dup2\n        /* \"#utility.yul\":7379:7392   */\n      mload\n        /* \"#utility.yul\":7412:7475   */\n      tag_592\n        /* \"#utility.yul\":7471:7474   */\n      dup9\n        /* \"#utility.yul\":7456:7469   */\n      dup3\n        /* \"#utility.yul\":7412:7475   */\n      tag_435\n      jump\t// in\n    tag_592:\n        /* \"#utility.yul\":7405:7475   */\n      swap8\n      pop\n        /* \"#utility.yul\":7498:7558   */\n      tag_593\n        /* \"#utility.yul\":7551:7557   */\n      dup4\n        /* \"#utility.yul\":7498:7558   */\n      tag_436\n      jump\t// in\n    tag_593:\n        /* \"#utility.yul\":7488:7558   */\n      swap3\n      pop\n        /* \"#utility.yul\":7344:7568   */\n      pop\n        /* \"#utility.yul\":7331:7332   */\n      0x01\n        /* \"#utility.yul\":7328:7329   */\n      dup2\n        /* \"#utility.yul\":7324:7333   */\n      add\n        /* \"#utility.yul\":7319:7333   */\n      swap1\n      pop\n        /* \"#utility.yul\":7284:7568   */\n      jump(tag_589)\n    tag_591:\n        /* \"#utility.yul\":7288:7302   */\n      pop\n        /* \"#utility.yul\":7584:7587   */\n      dup6\n        /* \"#utility.yul\":7577:7587   */\n      swap4\n      pop\n        /* \"#utility.yul\":6985:7593   */\n      pop\n      pop\n      pop\n        /* \"#utility.yul\":6861:7593   */\n      swap3\n      swap2\n      pop\n      pop\n      jump\t// out\n        /* \"#utility.yul\":7599:8454   */\n    tag_96:\n        /* \"#utility.yul\":7876:7880   */\n      0x00\n        /* \"#utility.yul\":7914:7917   */\n      0x80\n        /* \"#utility.yul\":7903:7912   */\n      dup3\n        /* \"#utility.yul\":7899:7918   */\n      add\n        /* \"#utility.yul\":7891:7918   */\n      swap1\n      pop\n        /* \"#utility.yul\":7928:7999   */\n      tag_595\n        /* \"#utility.yul\":7996:7997   */\n      0x00\n        /* \"#utility.yul\":7985:7994   */\n      dup4\n        /* \"#utility.yul\":7981:7998   */\n      add\n        /* \"#utility.yul\":7972:7978   */\n      dup8\n        /* \"#utility.yul\":7928:7999   */\n      tag_420\n      jump\t// in\n    tag_595:\n        /* \"#utility.yul\":8046:8055   */\n      dup2\n        /* \"#utility.yul\":8040:8044   */\n      dup2\n        /* \"#utility.yul\":8036:8056   */\n      sub\n        /* \"#utility.yul\":8031:8033   */\n      0x20\n        /* \"#utility.yul\":8020:8029   */\n      dup4\n        /* \"#utility.yul\":8016:8034   */\n      add\n        /* \"#utility.yul\":8009:8057   */\n      mstore\n        /* \"#utility.yul\":8074:8182   */\n      tag_596\n        /* \"#utility.yul\":8177:8181   */\n      dup2\n        /* \"#utility.yul\":8168:8174   */\n      dup7\n        /* \"#utility.yul\":8074:8182   */\n      tag_437\n      jump\t// in\n    tag_596:\n        /* \"#utility.yul\":8066:8182   */\n      swap1\n      pop\n        /* \"#utility.yul\":8229:8238   */\n      dup2\n        /* \"#utility.yul\":8223:8227   */\n      dup2\n        /* \"#utility.yul\":8219:8239   */\n      sub\n        /* \"#utility.yul\":8214:8216   */\n      0x40\n        /* \"#utility.yul\":8203:8212   */\n      dup4\n        /* \"#utility.yul\":8199:8217   */\n      add\n        /* \"#utility.yul\":8192:8240   */\n      mstore\n        /* \"#utility.yul\":8257:8365   */\n      tag_597\n        /* \"#utility.yul\":8360:8364   */\n      dup2\n        /* \"#utility.yul\":8351:8357   */\n      dup6\n        /* \"#utility.yul\":8257:8365   */\n      tag_437\n      jump\t// in\n    tag_597:\n        /* \"#utility.yul\":8249:8365   */\n      swap1\n      pop\n        /* \"#utility.yul\":8375:8447   */\n      tag_598\n        /* \"#utility.yul\":8443:8445   */\n      0x60\n        /* \"#utility.yul\":8432:8441   */\n      dup4\n        /* \"#utility.yul\":8428:8446   */\n      add\n        /* \"#utility.yul\":8419:8425   */\n      dup5\n        /* \"#utility.yul\":8375:8447   */\n      tag_420\n      jump\t// in\n    tag_598:\n        /* \"#utility.yul\":7599:8454   */\n      swap6\n      swap5\n      pop\n      pop\n      pop\n      pop\n      pop\n      jump\t// out\n        /* \"#utility.yul\":8460:8629   */\n    tag_438:\n        /* \"#utility.yul\":8544:8555   */\n      0x00\n        /* \"#utility.yul\":8578:8584   */\n      dup3\n        /* \"#utility.yul\":8573:8576   */\n      dup3\n        /* \"#utility.yul\":8566:8585   */\n      mstore\n        /* \"#utility.yul\":8618:8622   */\n      0x20\n        /* \"#utility.yul\":8613:8616   */\n      dup3\n        /* \"#utility.yul\":8609:8623   */\n      add\n        /* \"#utility.yul\":8594:8623   */\n      swap1\n      pop\n        /* \"#utility.yul\":8460:8629   */\n      swap3\n      swap2\n      pop\n      pop\n      jump\t// out\n        /* \"#utility.yul\":8635:8803   */\n    tag_439:\n        /* \"#utility.yul\":8775:8795   */\n      0x416c726561647920726567697374657265640000000000000000000000000000\n        /* \"#utility.yul\":8771:8772   */\n      0x00\n        /* \"#utility.yul\":8763:8769   */\n      dup3\n        /* \"#utility.yul\":8759:8773   */\n      add\n        /* \"#utility.yul\":8752:8796   */\n      mstore\n        /* \"#utility.yul\":8635:8803   */\n      pop\n      jump\t// out\n        /* \"#utility.yul\":8809:9175   */\n    tag_440:\n        /* \"#utility.yul\":8951:8954   */\n      0x00\n        /* \"#utility.yul\":8972:9039   */\n      tag_602\n        /* \"#utility.yul\":9036:9038   */\n      0x12\n        /* \"#utility.yul\":9031:9034   */\n      dup4\n        /* \"#utility.yul\":8972:9039   */\n      tag_438\n      jump\t// in\n    tag_602:\n        /* \"#utility.yul\":8965:9039   */\n      swap2\n      pop\n        /* \"#utility.yul\":9048:9141   */\n      tag_603\n        /* \"#utility.yul\":9137:9140   */\n      dup3\n        /* \"#utility.yul\":9048:9141   */\n      tag_439\n      jump\t// in\n    tag_603:\n        /* \"#utility.yul\":9166:9168   */\n      0x20\n        /* \"#utility.yul\":9161:9164   */\n      dup3\n        /* \"#utility.yul\":9157:9169   */\n      add\n        /* \"#utility.yul\":9150:9169   */\n      swap1\n      pop\n        /* \"#utility.yul\":8809:9175   */\n      swap2\n      swap1\n      pop\n      jump\t// out\n        /* \"#utility.yul\":9181:9600   */\n    tag_115:\n        /* \"#utility.yul\":9347:9351   */\n      0x00\n        /* \"#utility.yul\":9385:9387   */\n      0x20\n        /* \"#utility.yul\":9374:9383   */\n      dup3\n        /* \"#utility.yul\":9370:9388   */\n      add\n        /* \"#utility.yul\":9362:9388   */\n      swap1\n      pop\n        /* \"#utility.yul\":9434:9443   */\n      dup2\n        /* \"#utility.yul\":9428:9432   */\n      dup2\n        /* \"#utility.yul\":9424:9444   */\n      sub\n        /* \"#utility.yul\":9420:9421   */\n      0x00\n        /* \"#utility.yul\":9409:9418   */\n      dup4\n        /* \"#utility.yul\":9405:9422   */\n      add\n        /* \"#utility.yul\":9398:9445   */\n      mstore\n        /* \"#utility.yul\":9462:9593   */\n      tag_605\n        /* \"#utility.yul\":9588:9592   */\n      dup2\n        /* \"#utility.yul\":9462:9593   */\n      tag_440\n      jump\t// in\n    tag_605:\n        /* \"#utility.yul\":9454:9593   */\n      swap1\n      pop\n        /* \"#utility.yul\":9181:9600   */\n      swap2\n      swap1\n      pop\n      jump\t// out\n        /* \"#utility.yul\":9606:9772   */\n    tag_441:\n        /* \"#utility.yul\":9746:9764   */\n      0x496e76616c696420526566657272657200000000000000000000000000000000\n        /* \"#utility.yul\":9742:9743   */\n      0x00\n        /* \"#utility.yul\":9734:9740   */\n      dup3\n        /* \"#utility.yul\":9730:9744   */\n      add\n        /* \"#utility.yul\":9723:9765   */\n      mstore\n        /* \"#utility.yul\":9606:9772   */\n      pop\n      jump\t// out\n        /* \"#utility.yul\":9778:10144   */\n    tag_442:\n        /* \"#utility.yul\":9920:9923   */\n      0x00\n        /* \"#utility.yul\":9941:10008   */\n      tag_608\n        /* \"#utility.yul\":10005:10007   */\n      0x10\n        /* \"#utility.yul\":10000:10003   */\n      dup4\n        /* \"#utility.yul\":9941:10008   */\n      tag_438\n      jump\t// in\n    tag_608:\n        /* \"#utility.yul\":9934:10008   */\n      swap2\n      pop\n        /* \"#utility.yul\":10017:10110   */\n      tag_609\n        /* \"#utility.yul\":10106:10109   */\n      dup3\n        /* \"#utility.yul\":10017:10110   */\n      tag_441\n      jump\t// in\n    tag_609:\n        /* \"#utility.yul\":10135:10137   */\n      0x20\n        /* \"#utility.yul\":10130:10133   */\n      dup3\n        /* \"#utility.yul\":10126:10138   */\n      add\n        /* \"#utility.yul\":10119:10138   */\n      swap1\n      pop\n        /* \"#utility.yul\":9778:10144   */\n      swap2\n      swap1\n      pop\n      jump\t// out\n        /* \"#utility.yul\":10150:10569   */\n    tag_118:\n        /* \"#utility.yul\":10316:10320   */\n      0x00\n        /* \"#utility.yul\":10354:10356   */\n      0x20\n        /* \"#utility.yul\":10343:10352   */\n      dup3\n        /* \"#utility.yul\":10339:10357   */\n      add\n        /* \"#utility.yul\":10331:10357   */\n      swap1\n      pop\n        /* \"#utility.yul\":10403:10412   */\n      dup2\n        /* \"#utility.yul\":10397:10401   */\n      dup2\n        /* \"#utility.yul\":10393:10413   */\n      sub\n        /* \"#utility.yul\":10389:10390   */\n      0x00\n        /* \"#utility.yul\":10378:10387   */\n      dup4\n        /* \"#utility.yul\":10374:10391   */\n      add\n        /* \"#utility.yul\":10367:10414   */\n      mstore\n        /* \"#utility.yul\":10431:10562   */\n      tag_611\n        /* \"#utility.yul\":10557:10561   */\n      dup2\n        /* \"#utility.yul\":10431:10562   */\n      tag_442\n      jump\t// in\n    tag_611:\n        /* \"#utility.yul\":10423:10562   */\n      swap1\n      pop\n        /* \"#utility.yul\":10150:10569   */\n      swap2\n      swap1\n      pop\n      jump\t// out\n        /* \"#utility.yul\":10575:10755   */\n    tag_121:\n        /* \"#utility.yul\":10623:10700   */\n      0x4e487b7100000000000000000000000000000000000000000000000000000000\n        /* \"#utility.yul\":10620:10621   */\n      0x00\n        /* \"#utility.yul\":10613:10701   */\n      mstore\n        /* \"#utility.yul\":10720:10724   */\n      0x32\n        /* \"#utility.yul\":10717:10718   */\n      0x04\n        /* \"#utility.yul\":10710:10725   */\n      mstore\n        /* \"#utility.yul\":10744:10748   */\n      0x24\n        /* \"#utility.yul\":10741:10742   */\n      0x00\n        /* \"#utility.yul\":10734:10749   */\n      revert\n        /* \"#utility.yul\":10761:11203   */\n    tag_124:\n        /* \"#utility.yul\":10910:10914   */\n      0x00\n        /* \"#utility.yul\":10948:10950   */\n      0x60\n        /* \"#utility.yul\":10937:10946   */\n      dup3\n        /* \"#utility.yul\":10933:10951   */\n      add\n        /* \"#utility.yul\":10925:10951   */\n      swap1\n      pop\n        /* \"#utility.yul\":10961:11032   */\n      tag_614\n        /* \"#utility.yul\":11029:11030   */\n      0x00\n        /* \"#utility.yul\":11018:11027   */\n      dup4\n        /* \"#utility.yul\":11014:11031   */\n      add\n        /* \"#utility.yul\":11005:11011   */\n      dup7\n        /* \"#utility.yul\":10961:11032   */\n      tag_423\n      jump\t// in\n    tag_614:\n        /* \"#utility.yul\":11042:11114   */\n      tag_615\n        /* \"#utility.yul\":11110:11112   */\n      0x20\n        /* \"#utility.yul\":11099:11108   */\n      dup4\n        /* \"#utility.yul\":11095:11113   */\n      add\n        /* \"#utility.yul\":11086:11092   */\n      dup6\n        /* \"#utility.yul\":11042:11114   */\n      tag_423\n      jump\t// in\n    tag_615:\n        /* \"#utility.yul\":11124:11196   */\n      tag_616\n        /* \"#utility.yul\":11192:11194   */\n      0x40\n        /* \"#utility.yul\":11181:11190   */\n      dup4\n        /* \"#utility.yul\":11177:11195   */\n      add\n        /* \"#utility.yul\":11168:11174   */\n      dup5\n        /* \"#utility.yul\":11124:11196   */\n      tag_420\n      jump\t// in\n    tag_616:\n        /* \"#utility.yul\":10761:11203   */\n      swap5\n      swap4\n      pop\n      pop\n      pop\n      pop\n      jump\t// out\n        /* \"#utility.yul\":11209:11299   */\n    tag_443:\n        /* \"#utility.yul\":11243:11250   */\n      0x00\n        /* \"#utility.yul\":11286:11291   */\n      dup2\n        /* \"#utility.yul\":11279:11292   */\n      iszero\n        /* \"#utility.yul\":11272:11293   */\n      iszero\n        /* \"#utility.yul\":11261:11293   */\n      swap1\n      pop\n        /* \"#utility.yul\":11209:11299   */\n      swap2\n      swap1\n      pop\n      jump\t// out\n        /* \"#utility.yul\":11305:11421   */\n    tag_444:\n        /* \"#utility.yul\":11375:11396   */\n      tag_619\n        /* \"#utility.yul\":11390:11395   */\n      dup2\n        /* \"#utility.yul\":11375:11396   */\n      tag_443\n      jump\t// in\n    tag_619:\n        /* \"#utility.yul\":11368:11373   */\n      dup2\n        /* \"#utility.yul\":11365:11397   */\n      eq\n        /* \"#utility.yul\":11355:11415   */\n      tag_620\n      jumpi\n        /* \"#utility.yul\":11411:11412   */\n      0x00\n        /* \"#utility.yul\":11408:11409   */\n      0x00\n        /* \"#utility.yul\":11401:11413   */\n      revert\n        /* \"#utility.yul\":11355:11415   */\n    tag_620:\n        /* \"#utility.yul\":11305:11421   */\n      pop\n      jump\t// out\n        /* \"#utility.yul\":11427:11564   */\n    tag_445:\n        /* \"#utility.yul\":11481:11486   */\n      0x00\n        /* \"#utility.yul\":11512:11518   */\n      dup2\n        /* \"#utility.yul\":11506:11519   */\n      mload\n        /* \"#utility.yul\":11497:11519   */\n      swap1\n      pop\n        /* \"#utility.yul\":11528:11558   */\n      tag_622\n        /* \"#utility.yul\":11552:11557   */\n      dup2\n        /* \"#utility.yul\":11528:11558   */\n      tag_444\n      jump\t// in\n    tag_622:\n        /* \"#utility.yul\":11427:11564   */\n      swap3\n      swap2\n      pop\n      pop\n      jump\t// out\n        /* \"#utility.yul\":11570:11915   */\n    tag_128:\n        /* \"#utility.yul\":11637:11643   */\n      0x00\n        /* \"#utility.yul\":11686:11688   */\n      0x20\n        /* \"#utility.yul\":11674:11683   */\n      dup3\n        /* \"#utility.yul\":11665:11672   */\n      dup5\n        /* \"#utility.yul\":11661:11684   */\n      sub\n        /* \"#utility.yul\":11657:11689   */\n      slt\n        /* \"#utility.yul\":11654:11773   */\n      iszero\n      tag_624\n      jumpi\n        /* \"#utility.yul\":11692:11771   */\n      tag_625\n      tag_415\n      jump\t// in\n    tag_625:\n        /* \"#utility.yul\":11654:11773   */\n    tag_624:\n        /* \"#utility.yul\":11812:11813   */\n      0x00\n        /* \"#utility.yul\":11837:11898   */\n      tag_626\n        /* \"#utility.yul\":11890:11897   */\n      dup5\n        /* \"#utility.yul\":11881:11887   */\n      dup3\n        /* \"#utility.yul\":11870:11879   */\n      dup6\n        /* \"#utility.yul\":11866:11888   */\n      add\n        /* \"#utility.yul\":11837:11898   */\n      tag_445\n      jump\t// in\n    tag_626:\n        /* \"#utility.yul\":11827:11898   */\n      swap2\n      pop\n        /* \"#utility.yul\":11783:11908   */\n      pop\n        /* \"#utility.yul\":11570:11915   */\n      swap3\n      swap2\n      pop\n      pop\n      jump\t// out\n        /* \"#utility.yul\":11921:12091   */\n    tag_446:\n        /* \"#utility.yul\":12061:12083   */\n      0x55534454207472616e73666572206661696c6564000000000000000000000000\n        /* \"#utility.yul\":12057:12058   */\n      0x00\n        /* \"#utility.yul\":12049:12055   */\n      dup3\n        /* \"#utility.yul\":12045:12059   */\n      add\n        /* \"#utility.yul\":12038:12084   */\n      mstore\n        /* \"#utility.yul\":11921:12091   */\n      pop\n      jump\t// out\n        /* \"#utility.yul\":12097:12463   */\n    tag_447:\n        /* \"#utility.yul\":12239:12242   */\n      0x00\n        /* \"#utility.yul\":12260:12327   */\n      tag_629\n        /* \"#utility.yul\":12324:12326   */\n      0x14\n        /* \"#utility.yul\":12319:12322   */\n      dup4\n        /* \"#utility.yul\":12260:12327   */\n      tag_438\n      jump\t// in\n    tag_629:\n        /* \"#utility.yul\":12253:12327   */\n      swap2\n      pop\n        /* \"#utility.yul\":12336:12429   */\n      tag_630\n        /* \"#utility.yul\":12425:12428   */\n      dup3\n        /* \"#utility.yul\":12336:12429   */\n      tag_446\n      jump\t// in\n    tag_630:\n        /* \"#utility.yul\":12454:12456   */\n      0x20\n        /* \"#utility.yul\":12449:12452   */\n      dup3\n        /* \"#utility.yul\":12445:12457   */\n      add\n        /* \"#utility.yul\":12438:12457   */\n      swap1\n      pop\n        /* \"#utility.yul\":12097:12463   */\n      swap2\n      swap1\n      pop\n      jump\t// out\n        /* \"#utility.yul\":12469:12888   */\n    tag_131:\n        /* \"#utility.yul\":12635:12639   */\n      0x00\n        /* \"#utility.yul\":12673:12675   */\n      0x20\n        /* \"#utility.yul\":12662:12671   */\n      dup3\n        /* \"#utility.yul\":12658:12676   */\n      add\n        /* \"#utility.yul\":12650:12676   */\n      swap1\n      pop\n        /* \"#utility.yul\":12722:12731   */\n      dup2\n        /* \"#utility.yul\":12716:12720   */\n      dup2\n        /* \"#utility.yul\":12712:12732   */\n      sub\n        /* \"#utility.yul\":12708:12709   */\n      0x00\n        /* \"#utility.yul\":12697:12706   */\n      dup4\n        /* \"#utility.yul\":12693:12710   */\n      add\n        /* \"#utility.yul\":12686:12733   */\n      mstore\n        /* \"#utility.yul\":12750:12881   */\n      tag_632\n        /* \"#utility.yul\":12876:12880   */\n      dup2\n        /* \"#utility.yul\":12750:12881   */\n      tag_447\n      jump\t// in\n    tag_632:\n        /* \"#utility.yul\":12742:12881   */\n      swap1\n      pop\n        /* \"#utility.yul\":12469:12888   */\n      swap2\n      swap1\n      pop\n      jump\t// out\n        /* \"#utility.yul\":12894:13074   */\n    tag_448:\n        /* \"#utility.yul\":12942:13019   */\n      0x4e487b7100000000000000000000000000000000000000000000000000000000\n        /* \"#utility.yul\":12939:12940   */\n      0x00\n        /* \"#utility.yul\":12932:13020   */\n      mstore\n        /* \"#utility.yul\":13039:13043   */\n      0x11\n        /* \"#utility.yul\":13036:13037   */\n      0x04\n        /* \"#utility.yul\":13029:13044   */\n      mstore\n        /* \"#utility.yul\":13063:13067   */\n      0x24\n        /* \"#utility.yul\":13060:13061   */\n      0x00\n        /* \"#utility.yul\":13053:13068   */\n      revert\n        /* \"#utility.yul\":13080:13313   */\n    tag_133:\n        /* \"#utility.yul\":13119:13122   */\n      0x00\n        /* \"#utility.yul\":13142:13166   */\n      tag_635\n        /* \"#utility.yul\":13160:13165   */\n      dup3\n        /* \"#utility.yul\":13142:13166   */\n      tag_417\n      jump\t// in\n    tag_635:\n        /* \"#utility.yul\":13133:13166   */\n      swap2\n      pop\n        /* \"#utility.yul\":13188:13254   */\n      0xffffffffffffffffffffffffffffffffffffffffffffffffffffffffffffffff\n        /* \"#utility.yul\":13181:13186   */\n      dup3\n        /* \"#utility.yul\":13178:13255   */\n      sub\n        /* \"#utility.yul\":13175:13278   */\n      tag_636\n      jumpi\n        /* \"#utility.yul\":13258:13276   */\n      tag_637\n      tag_448\n      jump\t// in\n    tag_637:\n        /* \"#utility.yul\":13175:13278   */\n    tag_636:\n        /* \"#utility.yul\":13305:13306   */\n      0x01\n        /* \"#utility.yul\":13298:13303   */\n      dup3\n        /* \"#utility.yul\":13294:13307   */\n      add\n        /* \"#utility.yul\":13287:13307   */\n      swap1\n      pop\n        /* \"#utility.yul\":13080:13313   */\n      swap2\n      swap1\n      pop\n      jump\t// out\n        /* \"#utility.yul\":13319:13479   */\n    tag_449:\n        /* \"#utility.yul\":13459:13471   */\n      0x41646d696e206f6e6c7900000000000000000000000000000000000000000000\n        /* \"#utility.yul\":13455:13456   */\n      0x00\n        /* \"#utility.yul\":13447:13453   */\n      dup3\n        /* \"#utility.yul\":13443:13457   */\n      add\n        /* \"#utility.yul\":13436:13472   */\n      mstore\n        /* \"#utility.yul\":13319:13479   */\n      pop\n      jump\t// out\n        /* \"#utility.yul\":13485:13851   */\n    tag_450:\n        /* \"#utility.yul\":13627:13630   */\n      0x00\n        /* \"#utility.yul\":13648:13715   */\n      tag_640\n        /* \"#utility.yul\":13712:13714   */\n      0x0a\n        /* \"#utility.yul\":13707:13710   */\n      dup4\n        /* \"#utility.yul\":13648:13715   */\n      tag_438\n      jump\t// in\n    tag_640:\n        /* \"#utility.yul\":13641:13715   */\n      swap2\n      pop\n        /* \"#utility.yul\":13724:13817   */\n      tag_641\n        /* \"#utility.yul\":13813:13816   */\n      dup3\n        /* \"#utility.yul\":13724:13817   */\n      tag_449\n      jump\t// in\n    tag_641:\n        /* \"#utility.yul\":13842:13844   */\n      0x20\n        /* \"#utility.yul\":13837:13840   */\n      dup3\n        /* \"#utility.yul\":13833:13845   */\n      add\n        /* \"#utility.yul\":13826:13845   */\n      swap1\n      pop\n        /* \"#utility.yul\":13485:13851   */\n      swap2\n      swap1\n      pop\n      jump\t// out\n        /* \"#utility.yul\":13857:14276   */\n    tag_153:\n        /* \"#utility.yul\":14023:14027   */\n      0x00\n        /* \"#utility.yul\":14061:14063   */\n      0x20\n        /* \"#utility.yul\":14050:14059   */\n      dup3\n        /* \"#utility.yul\":14046:14064   */\n      add\n        /* \"#utility.yul\":14038:14064   */\n      swap1\n      pop\n        /* \"#utility.yul\":14110:14119   */\n      dup2\n        /* \"#utility.yul\":14104:14108   */\n      dup2\n        /* \"#utility.yul\":14100:14120   */\n      sub\n        /* \"#utility.yul\":14096:14097   */\n      0x00\n        /* \"#utility.yul\":14085:14094   */\n      dup4\n        /* \"#utility.yul\":14081:14098   */\n      add\n        /* \"#utility.yul\":14074:14121   */\n      mstore\n        /* \"#utility.yul\":14138:14269   */\n      tag_643\n        /* \"#utility.yul\":14264:14268   */\n      dup2\n        /* \"#utility.yul\":14138:14269   */\n      tag_450\n      jump\t// in\n    tag_643:\n        /* \"#utility.yul\":14130:14269   */\n      swap1\n      pop\n        /* \"#utility.yul\":13857:14276   */\n      swap2\n      swap1\n      pop\n      jump\t// out\n        /* \"#utility.yul\":14282:14450   */\n    tag_451:\n        /* \"#utility.yul\":14422:14442   */\n      0x496e73756666696369656e742066756e64730000000000000000000000000000\n        /* \"#utility.yul\":14418:14419   */\n      0x00\n        /* \"#utility.yul\":14410:14416   */\n      dup3\n        /* \"#utility.yul\":14406:14420   */\n      add\n        /* \"#utility.yul\":14399:14443   */\n      mstore\n        /* \"#utility.yul\":14282:14450   */\n      pop\n      jump\t// out\n        /* \"#utility.yul\":14456:14822   */\n    tag_452:\n        /* \"#utility.yul\":14598:14601   */\n      0x00\n        /* \"#utility.yul\":14619:14686   */\n      tag_646\n        /* \"#utility.yul\":14683:14685   */\n      0x12\n        /* \"#utility.yul\":14678:14681   */\n      dup4\n        /* \"#utility.yul\":14619:14686   */\n      tag_438\n      jump\t// in\n    tag_646:\n        /* \"#utility.yul\":14612:14686   */\n      swap2\n      pop\n        /* \"#utility.yul\":14695:14788   */\n      tag_647\n        /* \"#utility.yul\":14784:14787   */\n      dup3\n        /* \"#utility.yul\":14695:14788   */\n      tag_451\n      jump\t// in\n    tag_647:\n        /* \"#utility.yul\":14813:14815   */\n      0x20\n        /* \"#utility.yul\":14808:14811   */\n      dup3\n        /* \"#utility.yul\":14804:14816   */\n      add\n        /* \"#utility.yul\":14797:14816   */\n      swap1\n      pop\n        /* \"#utility.yul\":14456:14822   */\n      swap2\n      swap1\n      pop\n      jump\t// out\n        /* \"#utility.yul\":14828:15247   */\n    tag_156:\n        /* \"#utility.yul\":14994:14998   */\n      0x00\n        /* \"#utility.yul\":15032:15034   */\n      0x20\n        /* \"#utility.yul\":15021:15030   */\n      dup3\n        /* \"#utility.yul\":15017:15035   */\n      add\n        /* \"#utility.yul\":15009:15035   */\n      swap1\n      pop\n        /* \"#utility.yul\":15081:15090   */\n      dup2\n        /* \"#utility.yul\":15075:15079   */\n      dup2\n        /* \"#utility.yul\":15071:15091   */\n      sub\n        /* \"#utility.yul\":15067:15068   */\n      0x00\n        /* \"#utility.yul\":15056:15065   */\n      dup4\n        /* \"#utility.yul\":15052:15069   */\n      add\n        /* \"#utility.yul\":15045:15092   */\n      mstore\n        /* \"#utility.yul\":15109:15240   */\n      tag_649\n        /* \"#utility.yul\":15235:15239   */\n      dup2\n        /* \"#utility.yul\":15109:15240   */\n      tag_452\n      jump\t// in\n    tag_649:\n        /* \"#utility.yul\":15101:15240   */\n      swap1\n      pop\n        /* \"#utility.yul\":14828:15247   */\n      swap2\n      swap1\n      pop\n      jump\t// out\n        /* \"#utility.yul\":15253:15447   */\n    tag_158:\n        /* \"#utility.yul\":15293:15297   */\n      0x00\n        /* \"#utility.yul\":15313:15333   */\n      tag_651\n        /* \"#utility.yul\":15331:15332   */\n      dup3\n        /* \"#utility.yul\":15313:15333   */\n      tag_417\n      jump\t// in\n    tag_651:\n        /* \"#utility.yul\":15308:15333   */\n      swap2\n      pop\n        /* \"#utility.yul\":15347:15367   */\n      tag_652\n        /* \"#utility.yul\":15365:15366   */\n      dup4\n        /* \"#utility.yul\":15347:15367   */\n      tag_417\n      jump\t// in\n    tag_652:\n        /* \"#utility.yul\":15342:15367   */\n      swap3\n      pop\n        /* \"#utility.yul\":15391:15392   */\n      dup3\n        /* \"#utility.yul\":15388:15389   */\n      dup3\n        /* \"#utility.yul\":15384:15393   */\n      sub\n        /* \"#utility.yul\":15376:15393   */\n      swap1\n      pop\n        /* \"#utility.yul\":15415:15416   */\n      dup2\n        /* \"#utility.yul\":15409:15413   */\n      dup2\n        /* \"#utility.yul\":15406:15417   */\n      gt\n        /* \"#utility.yul\":15403:15440   */\n      iszero\n      tag_653\n      jumpi\n        /* \"#utility.yul\":15420:15438   */\n      tag_654\n      tag_448\n      jump\t// in\n    tag_654:\n        /* \"#utility.yul\":15403:15440   */\n    tag_653:\n        /* \"#utility.yul\":15253:15447   */\n      swap3\n      swap2\n      pop\n      pop\n      jump\t// out\n        /* \"#utility.yul\":15453:15785   */\n    tag_160:\n        /* \"#utility.yul\":15574:15578   */\n      0x00\n        /* \"#utility.yul\":15612:15614   */\n      0x40\n        /* \"#utility.yul\":15601:15610   */\n      dup3\n        /* \"#utility.yul\":15597:15615   */\n      add\n        /* \"#utility.yul\":15589:15615   */\n      swap1\n      pop\n        /* \"#utility.yul\":15625:15696   */\n      tag_656\n        /* \"#utility.yul\":15693:15694   */\n      0x00\n        /* \"#utility.yul\":15682:15691   */\n      dup4\n        /* \"#utility.yul\":15678:15695   */\n      add\n        /* \"#utility.yul\":15669:15675   */\n      dup6\n        /* \"#utility.yul\":15625:15696   */\n      tag_423\n      jump\t// in\n    tag_656:\n        /* \"#utility.yul\":15706:15778   */\n      tag_657\n        /* \"#utility.yul\":15774:15776   */\n      0x20\n        /* \"#utility.yul\":15763:15772   */\n      dup4\n        /* \"#utility.yul\":15759:15777   */\n      add\n        /* \"#utility.yul\":15750:15756   */\n      dup5\n        /* \"#utility.yul\":15706:15778   */\n      tag_420\n      jump\t// in\n    tag_657:\n        /* \"#utility.yul\":15453:15785   */\n      swap4\n      swap3\n      pop\n      pop\n      pop\n      jump\t// out\n        /* \"#utility.yul\":15791:15956   */\n    tag_453:\n        /* \"#utility.yul\":15931:15948   */\n      0x5769746864726177206661696c65640000000000000000000000000000000000\n        /* \"#utility.yul\":15927:15928   */\n      0x00\n        /* \"#utility.yul\":15919:15925   */\n      dup3\n        /* \"#utility.yul\":15915:15929   */\n      add\n        /* \"#utility.yul\":15908:15949   */\n      mstore\n        /* \"#utility.yul\":15791:15956   */\n      pop\n      jump\t// out\n        /* \"#utility.yul\":15962:16328   */\n    tag_454:\n        /* \"#utility.yul\":16104:16107   */\n      0x00\n        /* \"#utility.yul\":16125:16192   */\n      tag_660\n        /* \"#utility.yul\":16189:16191   */\n      0x0f\n        /* \"#utility.yul\":16184:16187   */\n      dup4\n        /* \"#utility.yul\":16125:16192   */\n      tag_438\n      jump\t// in\n    tag_660:\n        /* \"#utility.yul\":16118:16192   */\n      swap2\n      pop\n        /* \"#utility.yul\":16201:16294   */\n      tag_661\n        /* \"#utility.yul\":16290:16293   */\n      dup3\n        /* \"#utility.yul\":16201:16294   */\n      tag_453\n      jump\t// in\n    tag_661:\n        /* \"#utility.yul\":16319:16321   */\n      0x20\n        /* \"#utility.yul\":16314:16317   */\n      dup3\n        /* \"#utility.yul\":16310:16322   */\n      add\n        /* \"#utility.yul\":16303:16322   */\n      swap1\n      pop\n        /* \"#utility.yul\":15962:16328   */\n      swap2\n      swap1\n      pop\n      jump\t// out\n        /* \"#utility.yul\":16334:16753   */\n    tag_166:\n        /* \"#utility.yul\":16500:16504   */\n      0x00\n        /* \"#utility.yul\":16538:16540   */\n      0x20\n        /* \"#utility.yul\":16527:16536   */\n      dup3\n        /* \"#utility.yul\":16523:16541   */\n      add\n        /* \"#utility.yul\":16515:16541   */\n      swap1\n      pop\n        /* \"#utility.yul\":16587:16596   */\n      dup2\n        /* \"#utility.yul\":16581:16585   */\n      dup2\n        /* \"#utility.yul\":16577:16597   */\n      sub\n        /* \"#utility.yul\":16573:16574   */\n      0x00\n        /* \"#utility.yul\":16562:16571   */\n      dup4\n        /* \"#utility.yul\":16558:16575   */\n      add\n        /* \"#utility.yul\":16551:16598   */\n      mstore\n        /* \"#utility.yul\":16615:16746   */\n      tag_663\n        /* \"#utility.yul\":16741:16745   */\n      dup2\n        /* \"#utility.yul\":16615:16746   */\n      tag_454\n      jump\t// in\n    tag_663:\n        /* \"#utility.yul\":16607:16746   */\n      swap1\n      pop\n        /* \"#utility.yul\":16334:16753   */\n      swap2\n      swap1\n      pop\n      jump\t// out\n        /* \"#utility.yul\":16759:16923   */\n    tag_455:\n        /* \"#utility.yul\":16899:16915   */\n      0x4e6f742072656769737465726564000000000000000000000000000000000000\n        /* \"#utility.yul\":16895:16896   */\n      0x00\n        /* \"#utility.yul\":16887:16893   */\n      dup3\n        /* \"#utility.yul\":16883:16897   */\n      add\n        /* \"#utility.yul\":16876:16916   */\n      mstore\n        /* \"#utility.yul\":16759:16923   */\n      pop\n      jump\t// out\n        /* \"#utility.yul\":16929:17295   */\n    tag_456:\n        /* \"#utility.yul\":17071:17074   */\n      0x00\n        /* \"#utility.yul\":17092:17159   */\n      tag_666\n        /* \"#utility.yul\":17156:17158   */\n      0x0e\n        /* \"#utility.yul\":17151:17154   */\n      dup4\n        /* \"#utility.yul\":17092:17159   */\n      tag_438\n      jump\t// in\n    tag_666:\n        /* \"#utility.yul\":17085:17159   */\n      swap2\n      pop\n        /* \"#utility.yul\":17168:17261   */\n      tag_667\n        /* \"#utility.yul\":17257:17260   */\n      dup3\n        /* \"#utility.yul\":17168:17261   */\n      tag_455\n      jump\t// in\n    tag_667:\n        /* \"#utility.yul\":17286:17288   */\n      0x20\n        /* \"#utility.yul\":17281:17284   */\n      dup3\n        /* \"#utility.yul\":17277:17289   */\n      add\n        /* \"#utility.yul\":17270:17289   */\n      swap1\n      pop\n        /* \"#utility.yul\":16929:17295   */\n      swap2\n      swap1\n      pop\n      jump\t// out\n        /* \"#utility.yul\":17301:17720   */\n    tag_170:\n        /* \"#utility.yul\":17467:17471   */\n      0x00\n        /* \"#utility.yul\":17505:17507   */\n      0x20\n        /* \"#utility.yul\":17494:17503   */\n      dup3\n        /* \"#utility.yul\":17490:17508   */\n      add\n        /* \"#utility.yul\":17482:17508   */\n      swap1\n      pop\n        /* \"#utility.yul\":17554:17563   */\n      dup2\n        /* \"#utility.yul\":17548:17552   */\n      dup2\n        /* \"#utility.yul\":17544:17564   */\n      sub\n        /* \"#utility.yul\":17540:17541   */\n      0x00\n        /* \"#utility.yul\":17529:17538   */\n      dup4\n        /* \"#utility.yul\":17525:17542   */\n      add\n        /* \"#utility.yul\":17518:17565   */\n      mstore\n        /* \"#utility.yul\":17582:17713   */\n      tag_669\n        /* \"#utility.yul\":17708:17712   */\n      dup2\n        /* \"#utility.yul\":17582:17713   */\n      tag_456\n      jump\t// in\n    tag_669:\n        /* \"#utility.yul\":17574:17713   */\n      swap1\n      pop\n        /* \"#utility.yul\":17301:17720   */\n      swap2\n      swap1\n      pop\n      jump\t// out\n        /* \"#utility.yul\":17726:17889   */\n    tag_457:\n        /* \"#utility.yul\":17866:17881   */\n      0x496e76616c6964204c6576656c00000000000000000000000000000000000000\n        /* \"#utility.yul\":17862:17863   */\n      0x00\n        /* \"#utility.yul\":17854:17860   */\n      dup3\n        /* \"#utility.yul\":17850:17864   */\n      add\n        /* \"#utility.yul\":17843:17882   */\n      mstore\n        /* \"#utility.yul\":17726:17889   */\n      pop\n      jump\t// out\n        /* \"#utility.yul\":17895:18261   */\n    tag_458:\n        /* \"#utility.yul\":18037:18040   */\n      0x00\n        /* \"#utility.yul\":18058:18125   */\n      tag_672\n        /* \"#utility.yul\":18122:18124   */\n      0x0d\n        /* \"#utility.yul\":18117:18120   */\n      dup4\n        /* \"#utility.yul\":18058:18125   */\n      tag_438\n      jump\t// in\n    tag_672:\n        /* \"#utility.yul\":18051:18125   */\n      swap2\n      pop\n        /* \"#utility.yul\":18134:18227   */\n      tag_673\n        /* \"#utility.yul\":18223:18226   */\n      dup3\n        /* \"#utility.yul\":18134:18227   */\n      tag_457\n      jump\t// in\n    tag_673:\n        /* \"#utility.yul\":18252:18254   */\n      0x20\n        /* \"#utility.yul\":18247:18250   */\n      dup3\n        /* \"#utility.yul\":18243:18255   */\n      add\n        /* \"#utility.yul\":18236:18255   */\n      swap1\n      pop\n        /* \"#utility.yul\":17895:18261   */\n      swap2\n      swap1\n      pop\n      jump\t// out\n        /* \"#utility.yul\":18267:18686   */\n    tag_174:\n        /* \"#utility.yul\":18433:18437   */\n      0x00\n        /* \"#utility.yul\":18471:18473   */\n      0x20\n        /* \"#utility.yul\":18460:18469   */\n      dup3\n        /* \"#utility.yul\":18456:18474   */\n      add\n        /* \"#utility.yul\":18448:18474   */\n      swap1\n      pop\n        /* \"#utility.yul\":18520:18529   */\n      dup2\n        /* \"#utility.yul\":18514:18518   */\n      dup2\n        /* \"#utility.yul\":18510:18530   */\n      sub\n        /* \"#utility.yul\":18506:18507   */\n      0x00\n        /* \"#utility.yul\":18495:18504   */\n      dup4\n        /* \"#utility.yul\":18491:18508   */\n      add\n        /* \"#utility.yul\":18484:18531   */\n      mstore\n        /* \"#utility.yul\":18548:18679   */\n      tag_675\n        /* \"#utility.yul\":18674:18678   */\n      dup2\n        /* \"#utility.yul\":18548:18679   */\n      tag_458\n      jump\t// in\n    tag_675:\n        /* \"#utility.yul\":18540:18679   */\n      swap1\n      pop\n        /* \"#utility.yul\":18267:18686   */\n      swap2\n      swap1\n      pop\n      jump\t// out\n        /* \"#utility.yul\":18692:18866   */\n    tag_459:\n        /* \"#utility.yul\":18832:18858   */\n      0x4275792070726576696f7573206c6576656c2066697273740000000000000000\n        /* \"#utility.yul\":18828:18829   */\n      0x00\n        /* \"#utility.yul\":18820:18826   */\n      dup3\n        /* \"#utility.yul\":18816:18830   */\n      add\n        /* \"#utility.yul\":18809:18859   */\n      mstore\n        /* \"#utility.yul\":18692:18866   */\n      pop\n      jump\t// out\n        /* \"#utility.yul\":18872:19238   */\n    tag_460:\n        /* \"#utility.yul\":19014:19017   */\n      0x00\n        /* \"#utility.yul\":19035:19102   */\n      tag_678\n        /* \"#utility.yul\":19099:19101   */\n      0x18\n        /* \"#utility.yul\":19094:19097   */\n      dup4\n        /* \"#utility.yul\":19035:19102   */\n      tag_438\n      jump\t// in\n    tag_678:\n        /* \"#utility.yul\":19028:19102   */\n      swap2\n      pop\n        /* \"#utility.yul\":19111:19204   */\n      tag_679\n        /* \"#utility.yul\":19200:19203   */\n      dup3\n        /* \"#utility.yul\":19111:19204   */\n      tag_459\n      jump\t// in\n    tag_679:\n        /* \"#utility.yul\":19229:19231   */\n      0x20\n        /* \"#utility.yul\":19224:19227   */\n      dup3\n        /* \"#utility.yul\":19220:19232   */\n      add\n        /* \"#utility.yul\":19213:19232   */\n      swap1\n      pop\n        /* \"#utility.yul\":18872:19238   */\n      swap2\n      swap1\n      pop\n      jump\t// out\n        /* \"#utility.yul\":19244:19663   */\n    tag_178:\n        /* \"#utility.yul\":19410:19414   */\n      0x00\n        /* \"#utility.yul\":19448:19450   */\n      0x20\n        /* \"#utility.yul\":19437:19446   */\n      dup3\n        /* \"#utility.yul\":19433:19451   */\n      add\n        /* \"#utility.yul\":19425:19451   */\n      swap1\n      pop\n        /* \"#utility.yul\":19497:19506   */\n      dup2\n        /* \"#utility.yul\":19491:19495   */\n      dup2\n        /* \"#utility.yul\":19487:19507   */\n      sub\n        /* \"#utility.yul\":19483:19484   */\n      0x00\n        /* \"#utility.yul\":19472:19481   */\n      dup4\n        /* \"#utility.yul\":19468:19485   */\n      add\n        /* \"#utility.yul\":19461:19508   */\n      mstore\n        /* \"#utility.yul\":19525:19656   */\n      tag_681\n        /* \"#utility.yul\":19651:19655   */\n      dup2\n        /* \"#utility.yul\":19525:19656   */\n      tag_460\n      jump\t// in\n    tag_681:\n        /* \"#utility.yul\":19517:19656   */\n      swap1\n      pop\n        /* \"#utility.yul\":19244:19663   */\n      swap2\n      swap1\n      pop\n      jump\t// out\n        /* \"#utility.yul\":19669:19844   */\n    tag_461:\n        /* \"#utility.yul\":19809:19836   */\n      0x4d75737420627579204c6576656c203120746f20636c61696d00000000000000\n        /* \"#utility.yul\":19805:19806   */\n      0x00\n        /* \"#utility.yul\":19797:19803   */\n      dup3\n        /* \"#utility.yul\":19793:19807   */\n      add\n        /* \"#utility.yul\":19786:19837   */\n      mstore\n        /* \"#utility.yul\":19669:19844   */\n      pop\n      jump\t// out\n        /* \"#utility.yul\":19850:20216   */\n    tag_462:\n        /* \"#utility.yul\":19992:19995   */\n      0x00\n        /* \"#utility.yul\":20013:20080   */\n      tag_684\n        /* \"#utility.yul\":20077:20079   */\n      0x19\n        /* \"#utility.yul\":20072:20075   */\n      dup4\n        /* \"#utility.yul\":20013:20080   */\n      tag_438\n      jump\t// in\n    tag_684:\n        /* \"#utility.yul\":20006:20080   */\n      swap2\n      pop\n        /* \"#utility.yul\":20089:20182   */\n      tag_685\n        /* \"#utility.yul\":20178:20181   */\n      dup3\n        /* \"#utility.yul\":20089:20182   */\n      tag_461\n      jump\t// in\n    tag_685:\n        /* \"#utility.yul\":20207:20209   */\n      0x20\n        /* \"#utility.yul\":20202:20205   */\n      dup3\n        /* \"#utility.yul\":20198:20210   */\n      add\n        /* \"#utility.yul\":20191:20210   */\n      swap1\n      pop\n        /* \"#utility.yul\":19850:20216   */\n      swap2\n      swap1\n      pop\n      jump\t// out\n        /* \"#utility.yul\":20222:20641   */\n    tag_203:\n        /* \"#utility.yul\":20388:20392   */\n      0x00\n        /* \"#utility.yul\":20426:20428   */\n      0x20\n        /* \"#utility.yul\":20415:20424   */\n      dup3\n        /* \"#utility.yul\":20411:20429   */\n      add\n        /* \"#utility.yul\":20403:20429   */\n      swap1\n      pop\n        /* \"#utility.yul\":20475:20484   */\n      dup2\n        /* \"#utility.yul\":20469:20473   */\n      dup2\n        /* \"#utility.yul\":20465:20485   */\n      sub\n        /* \"#utility.yul\":20461:20462   */\n      0x00\n        /* \"#utility.yul\":20450:20459   */\n      dup4\n        /* \"#utility.yul\":20446:20463   */\n      add\n        /* \"#utility.yul\":20439:20486   */\n      mstore\n        /* \"#utility.yul\":20503:20634   */\n      tag_687\n        /* \"#utility.yul\":20629:20633   */\n      dup2\n        /* \"#utility.yul\":20503:20634   */\n      tag_462\n      jump\t// in\n    tag_687:\n        /* \"#utility.yul\":20495:20634   */\n      swap1\n      pop\n        /* \"#utility.yul\":20222:20641   */\n      swap2\n      swap1\n      pop\n      jump\t// out\n        /* \"#utility.yul\":20647:20838   */\n    tag_205:\n        /* \"#utility.yul\":20687:20690   */\n      0x00\n        /* \"#utility.yul\":20706:20726   */\n      tag_689\n        /* \"#utility.yul\":20724:20725   */\n      dup3\n        /* \"#utility.yul\":20706:20726   */\n      tag_417\n      jump\t// in\n    tag_689:\n        /* \"#utility.yul\":20701:20726   */\n      swap2\n      pop\n        /* \"#utility.yul\":20740:20760   */\n      tag_690\n        /* \"#utility.yul\":20758:20759   */\n      dup4\n        /* \"#utility.yul\":20740:20760   */\n      tag_417\n      jump\t// in\n    tag_690:\n        /* \"#utility.yul\":20735:20760   */\n      swap3\n      pop\n        /* \"#utility.yul\":20783:20784   */\n      dup3\n        /* \"#utility.yul\":20780:20781   */\n      dup3\n        /* \"#utility.yul\":20776:20785   */\n      add\n        /* \"#utility.yul\":20769:20785   */\n      swap1\n      pop\n        /* \"#utility.yul\":20804:20807   */\n      dup1\n        /* \"#utility.yul\":20801:20802   */\n      dup3\n        /* \"#utility.yul\":20798:20808   */\n      gt\n        /* \"#utility.yul\":20795:20831   */\n      iszero\n      tag_691\n      jumpi\n        /* \"#utility.yul\":20811:20829   */\n      tag_692\n      tag_448\n      jump\t// in\n    tag_692:\n        /* \"#utility.yul\":20795:20831   */\n    tag_691:\n        /* \"#utility.yul\":20647:20838   */\n      swap3\n      swap2\n      pop\n      pop\n      jump\t// out\n        /* \"#utility.yul\":20844:21002   */\n    tag_463:\n        /* \"#utility.yul\":20984:20994   */\n      0x5761697420323468000000000000000000000000000000000000000000000000\n        /* \"#utility.yul\":20980:20981   */\n      0x00\n        /* \"#utility.yul\":20972:20978   */\n      dup3\n        /* \"#utility.yul\":20968:20982   */\n      add\n        /* \"#utility.yul\":20961:20995   */\n      mstore\n        /* \"#utility.yul\":20844:21002   */\n      pop\n      jump\t// out\n        /* \"#utility.yul\":21008:21373   */\n    tag_464:\n        /* \"#utility.yul\":21150:21153   */\n      0x00\n        /* \"#utility.yul\":21171:21237   */\n      tag_695\n        /* \"#utility.yul\":21235:21236   */\n      0x08\n        /* \"#utility.yul\":21230:21233   */\n      dup4\n        /* \"#utility.yul\":21171:21237   */\n      tag_438\n      jump\t// in\n    tag_695:\n        /* \"#utility.yul\":21164:21237   */\n      swap2\n      pop\n        /* \"#utility.yul\":21246:21339   */\n      tag_696\n        /* \"#utility.yul\":21335:21338   */\n      dup3\n        /* \"#utility.yul\":21246:21339   */\n      tag_463\n      jump\t// in\n    tag_696:\n        /* \"#utility.yul\":21364:21366   */\n      0x20\n        /* \"#utility.yul\":21359:21362   */\n      dup3\n        /* \"#utility.yul\":21355:21367   */\n      add\n        /* \"#utility.yul\":21348:21367   */\n      swap1\n      pop\n        /* \"#utility.yul\":21008:21373   */\n      swap2\n      swap1\n      pop\n      jump\t// out\n        /* \"#utility.yul\":21379:21798   */\n    tag_208:\n        /* \"#utility.yul\":21545:21549   */\n      0x00\n        /* \"#utility.yul\":21583:21585   */\n      0x20\n        /* \"#utility.yul\":21572:21581   */\n      dup3\n        /* \"#utility.yul\":21568:21586   */\n      add\n        /* \"#utility.yul\":21560:21586   */\n      swap1\n      pop\n        /* \"#utility.yul\":21632:21641   */\n      dup2\n        /* \"#utility.yul\":21626:21630   */\n      dup2\n        /* \"#utility.yul\":21622:21642   */\n      sub\n        /* \"#utility.yul\":21618:21619   */\n      0x00\n        /* \"#utility.yul\":21607:21616   */\n      dup4\n        /* \"#utility.yul\":21603:21620   */\n      add\n        /* \"#utility.yul\":21596:21643   */\n      mstore\n        /* \"#utility.yul\":21660:21791   */\n      tag_698\n        /* \"#utility.yul\":21786:21790   */\n      dup2\n        /* \"#utility.yul\":21660:21791   */\n      tag_464\n      jump\t// in\n    tag_698:\n        /* \"#utility.yul\":21652:21791   */\n      swap1\n      pop\n        /* \"#utility.yul\":21379:21798   */\n      swap2\n      swap1\n      pop\n      jump\t// out\n        /* \"#utility.yul\":21804:21971   */\n    tag_465:\n        /* \"#utility.yul\":21944:21963   */\n      0x4d6178206c696d69742072656163686564000000000000000000000000000000\n        /* \"#utility.yul\":21940:21941   */\n      0x00\n        /* \"#utility.yul\":21932:21938   */\n      dup3\n        /* \"#utility.yul\":21928:21942   */\n      add\n        /* \"#utility.yul\":21921:21964   */\n      mstore\n        /* \"#utility.yul\":21804:21971   */\n      pop\n      jump\t// out\n        /* \"#utility.yul\":21977:22343   */\n    tag_466:\n        /* \"#utility.yul\":22119:22122   */\n      0x00\n        /* \"#utility.yul\":22140:22207   */\n      tag_701\n        /* \"#utility.yul\":22204:22206   */\n      0x11\n        /* \"#utility.yul\":22199:22202   */\n      dup4\n        /* \"#utility.yul\":22140:22207   */\n      tag_438\n      jump\t// in\n    tag_701:\n        /* \"#utility.yul\":22133:22207   */\n      swap2\n      pop\n        /* \"#utility.yul\":22216:22309   */\n      tag_702\n        /* \"#utility.yul\":22305:22308   */\n      dup3\n        /* \"#utility.yul\":22216:22309   */\n      tag_465\n      jump\t// in\n    tag_702:\n        /* \"#utility.yul\":22334:22336   */\n      0x20\n        /* \"#utility.yul\":22329:22332   */\n      dup3\n        /* \"#utility.yul\":22325:22337   */\n      add\n        /* \"#utility.yul\":22318:22337   */\n      swap1\n      pop\n        /* \"#utility.yul\":21977:22343   */\n      swap2\n      swap1\n      pop\n      jump\t// out\n        /* \"#utility.yul\":22349:22768   */\n    tag_211:\n        /* \"#utility.yul\":22515:22519   */\n      0x00\n        /* \"#utility.yul\":22553:22555   */\n      0x20\n        /* \"#utility.yul\":22542:22551   */\n      dup3\n        /* \"#utility.yul\":22538:22556   */\n      add\n        /* \"#utility.yul\":22530:22556   */\n      swap1\n      pop\n        /* \"#utility.yul\":22602:22611   */\n      dup2\n        /* \"#utility.yul\":22596:22600   */\n      dup2\n        /* \"#utility.yul\":22592:22612   */\n      sub\n        /* \"#utility.yul\":22588:22589   */\n      0x00\n        /* \"#utility.yul\":22577:22586   */\n      dup4\n        /* \"#utility.yul\":22573:22590   */\n      add\n        /* \"#utility.yul\":22566:22613   */\n      mstore\n        /* \"#utility.yul\":22630:22761   */\n      tag_704\n        /* \"#utility.yul\":22756:22760   */\n      dup2\n        /* \"#utility.yul\":22630:22761   */\n      tag_466\n      jump\t// in\n    tag_704:\n        /* \"#utility.yul\":22622:22761   */\n      swap1\n      pop\n        /* \"#utility.yul\":22349:22768   */\n      swap2\n      swap1\n      pop\n      jump\t// out\n        /* \"#utility.yul\":22774:22934   */\n    tag_467:\n        /* \"#utility.yul\":22914:22926   */\n      0x506f6f6c20656d70747900000000000000000000000000000000000000000000\n        /* \"#utility.yul\":22910:22911   */\n      0x00\n        /* \"#utility.yul\":22902:22908   */\n      dup3\n        /* \"#utility.yul\":22898:22912   */\n      add\n        /* \"#utility.yul\":22891:22927   */\n      mstore\n        /* \"#utility.yul\":22774:22934   */\n      pop\n      jump\t// out\n        /* \"#utility.yul\":22940:23306   */\n    tag_468:\n        /* \"#utility.yul\":23082:23085   */\n      0x00\n        /* \"#utility.yul\":23103:23170   */\n      tag_707\n        /* \"#utility.yul\":23167:23169   */\n      0x0a\n        /* \"#utility.yul\":23162:23165   */\n      dup4\n        /* \"#utility.yul\":23103:23170   */\n      tag_438\n      jump\t// in\n    tag_707:\n        /* \"#utility.yul\":23096:23170   */\n      swap2\n      pop\n        /* \"#utility.yul\":23179:23272   */\n      tag_708\n        /* \"#utility.yul\":23268:23271   */\n      dup3\n        /* \"#utility.yul\":23179:23272   */\n      tag_467\n      jump\t// in\n    tag_708:\n        /* \"#utility.yul\":23297:23299   */\n      0x20\n        /* \"#utility.yul\":23292:23295   */\n      dup3\n        /* \"#utility.yul\":23288:23300   */\n      add\n        /* \"#utility.yul\":23281:23300   */\n      swap1\n      pop\n        /* \"#utility.yul\":22940:23306   */\n      swap2\n      swap1\n      pop\n      jump\t// out\n        /* \"#utility.yul\":23312:23731   */\n    tag_214:\n        /* \"#utility.yul\":23478:23482   */\n      0x00\n        /* \"#utility.yul\":23516:23518   */\n      0x20\n        /* \"#utility.yul\":23505:23514   */\n      dup3\n        /* \"#utility.yul\":23501:23519   */\n      add\n        /* \"#utility.yul\":23493:23519   */\n      swap1\n      pop\n        /* \"#utility.yul\":23565:23574   */\n      dup2\n        /* \"#utility.yul\":23559:23563   */\n      dup2\n        /* \"#utility.yul\":23555:23575   */\n      sub\n        /* \"#utility.yul\":23551:23552   */\n      0x00\n        /* \"#utility.yul\":23540:23549   */\n      dup4\n        /* \"#utility.yul\":23536:23553   */\n      add\n        /* \"#utility.yul\":23529:23576   */\n      mstore\n        /* \"#utility.yul\":23593:23724   */\n      tag_710\n        /* \"#utility.yul\":23719:23723   */\n      dup2\n        /* \"#utility.yul\":23593:23724   */\n      tag_468\n      jump\t// in\n    tag_710:\n        /* \"#utility.yul\":23585:23724   */\n      swap1\n      pop\n        /* \"#utility.yul\":23312:23731   */\n      swap2\n      swap1\n      pop\n      jump\t// out\n        /* \"#utility.yul\":23737:23917   */\n    tag_469:\n        /* \"#utility.yul\":23785:23862   */\n      0x4e487b7100000000000000000000000000000000000000000000000000000000\n        /* \"#utility.yul\":23782:23783   */\n      0x00\n        /* \"#utility.yul\":23775:23863   */\n      mstore\n        /* \"#utility.yul\":23882:23886   */\n      0x12\n        /* \"#utility.yul\":23879:23880   */\n      0x04\n        /* \"#utility.yul\":23872:23887   */\n      mstore\n        /* \"#utility.yul\":23906:23910   */\n      0x24\n        /* \"#utility.yul\":23903:23904   */\n      0x00\n        /* \"#utility.yul\":23896:23911   */\n      revert\n        /* \"#utility.yul\":23923:24108   */\n    tag_216:\n        /* \"#utility.yul\":23963:23964   */\n      0x00\n        /* \"#utility.yul\":23980:24000   */\n      tag_713\n        /* \"#utility.yul\":23998:23999   */\n      dup3\n        /* \"#utility.yul\":23980:24000   */\n      tag_417\n      jump\t// in\n    tag_713:\n        /* \"#utility.yul\":23975:24000   */\n      swap2\n      pop\n        /* \"#utility.yul\":24014:24034   */\n      tag_714\n        /* \"#utility.yul\":24032:24033   */\n      dup4\n        /* \"#utility.yul\":24014:24034   */\n      tag_417\n      jump\t// in\n    tag_714:\n        /* \"#utility.yul\":24009:24034   */\n      swap3\n      pop\n        /* \"#utility.yul\":24053:24054   */\n      dup3\n        /* \"#utility.yul\":24043:24078   */\n      tag_715\n      jumpi\n        /* \"#utility.yul\":24058:24076   */\n      tag_716\n      tag_469\n      jump\t// in\n    tag_716:\n        /* \"#utility.yul\":24043:24078   */\n    tag_715:\n        /* \"#utility.yul\":24100:24101   */\n      dup3\n        /* \"#utility.yul\":24097:24098   */\n      dup3\n        /* \"#utility.yul\":24093:24102   */\n      div\n        /* \"#utility.yul\":24088:24102   */\n      swap1\n      pop\n        /* \"#utility.yul\":23923:24108   */\n      swap3\n      swap2\n      pop\n      pop\n      jump\t// out\n        /* \"#utility.yul\":24114:24286   */\n    tag_470:\n        /* \"#utility.yul\":24254:24278   */\n      0x436c61696d20616d6f756e7420746f6f20736d616c6c00000000000000000000\n        /* \"#utility.yul\":24250:24251   */\n      0x00\n        /* \"#utility.yul\":24242:24248   */\n      dup3\n        /* \"#utility.yul\":24238:24252   */\n      add\n        /* \"#utility.yul\":24231:24279   */\n      mstore\n        /* \"#utility.yul\":24114:24286   */\n      pop\n      jump\t// out\n        /* \"#utility.yul\":24292:24658   */\n    tag_471:\n        /* \"#utility.yul\":24434:24437   */\n      0x00\n        /* \"#utility.yul\":24455:24522   */\n      tag_719\n        /* \"#utility.yul\":24519:24521   */\n      0x16\n        /* \"#utility.yul\":24514:24517   */\n      dup4\n        /* \"#utility.yul\":24455:24522   */\n      tag_438\n      jump\t// in\n    tag_719:\n        /* \"#utility.yul\":24448:24522   */\n      swap2\n      pop\n        /* \"#utility.yul\":24531:24624   */\n      tag_720\n        /* \"#utility.yul\":24620:24623   */\n      dup3\n        /* \"#utility.yul\":24531:24624   */\n      tag_470\n      jump\t// in\n    tag_720:\n        /* \"#utility.yul\":24649:24651   */\n      0x20\n        /* \"#utility.yul\":24644:24647   */\n      dup3\n        /* \"#utility.yul\":24640:24652   */\n      add\n        /* \"#utility.yul\":24633:24652   */\n      swap1\n      pop\n        /* \"#utility.yul\":24292:24658   */\n      swap2\n      swap1\n      pop\n      jump\t// out\n        /* \"#utility.yul\":24664:25083   */\n    tag_219:\n        /* \"#utility.yul\":24830:24834   */\n      0x00\n        /* \"#utility.yul\":24868:24870   */\n      0x20\n        /* \"#utility.yul\":24857:24866   */\n      dup3\n        /* \"#utility.yul\":24853:24871   */\n      add\n        /* \"#utility.yul\":24845:24871   */\n      swap1\n      pop\n        /* \"#utility.yul\":24917:24926   */\n      dup2\n        /* \"#utility.yul\":24911:24915   */\n      dup2\n        /* \"#utility.yul\":24907:24927   */\n      sub\n        /* \"#utility.yul\":24903:24904   */\n      0x00\n        /* \"#utility.yul\":24892:24901   */\n      dup4\n        /* \"#utility.yul\":24888:24905   */\n      add\n        /* \"#utility.yul\":24881:24928   */\n      mstore\n        /* \"#utility.yul\":24945:25076   */\n      tag_722\n        /* \"#utility.yul\":25071:25075   */\n      dup2\n        /* \"#utility.yul\":24945:25076   */\n      tag_471\n      jump\t// in\n    tag_722:\n        /* \"#utility.yul\":24937:25076   */\n      swap1\n      pop\n        /* \"#utility.yul\":24664:25083   */\n      swap2\n      swap1\n      pop\n      jump\t// out\n        /* \"#utility.yul\":25089:25259   */\n    tag_472:\n        /* \"#utility.yul\":25229:25251   */\n      0x55534454205472616e73666572206661696c6564000000000000000000000000\n        /* \"#utility.yul\":25225:25226   */\n      0x00\n        /* \"#utility.yul\":25217:25223   */\n      dup3\n        /* \"#utility.yul\":25213:25227   */\n      add\n        /* \"#utility.yul\":25206:25252   */\n      mstore\n        /* \"#utility.yul\":25089:25259   */\n      pop\n      jump\t// out\n        /* \"#utility.yul\":25265:25631   */\n    tag_473:\n        /* \"#utility.yul\":25407:25410   */\n      0x00\n        /* \"#utility.yul\":25428:25495   */\n      tag_725\n        /* \"#utility.yul\":25492:25494   */\n      0x14\n        /* \"#utility.yul\":25487:25490   */\n      dup4\n        /* \"#utility.yul\":25428:25495   */\n      tag_438\n      jump\t// in\n    tag_725:\n        /* \"#utility.yul\":25421:25495   */\n      swap2\n      pop\n        /* \"#utility.yul\":25504:25597   */\n      tag_726\n        /* \"#utility.yul\":25593:25596   */\n      dup3\n        /* \"#utility.yul\":25504:25597   */\n      tag_472\n      jump\t// in\n    tag_726:\n        /* \"#utility.yul\":25622:25624   */\n      0x20\n        /* \"#utility.yul\":25617:25620   */\n      dup3\n        /* \"#utility.yul\":25613:25625   */\n      add\n        /* \"#utility.yul\":25606:25625   */\n      swap1\n      pop\n        /* \"#utility.yul\":25265:25631   */\n      swap2\n      swap1\n      pop\n      jump\t// out\n        /* \"#utility.yul\":25637:26056   */\n    tag_232:\n        /* \"#utility.yul\":25803:25807   */\n      0x00\n        /* \"#utility.yul\":25841:25843   */\n      0x20\n        /* \"#utility.yul\":25830:25839   */\n      dup3\n        /* \"#utility.yul\":25826:25844   */\n      add\n        /* \"#utility.yul\":25818:25844   */\n      swap1\n      pop\n        /* \"#utility.yul\":25890:25899   */\n      dup2\n        /* \"#utility.yul\":25884:25888   */\n      dup2\n        /* \"#utility.yul\":25880:25900   */\n      sub\n        /* \"#utility.yul\":25876:25877   */\n      0x00\n        /* \"#utility.yul\":25865:25874   */\n      dup4\n        /* \"#utility.yul\":25861:25878   */\n      add\n        /* \"#utility.yul\":25854:25901   */\n      mstore\n        /* \"#utility.yul\":25918:26049   */\n      tag_728\n        /* \"#utility.yul\":26044:26048   */\n      dup2\n        /* \"#utility.yul\":25918:26049   */\n      tag_473\n      jump\t// in\n    tag_728:\n        /* \"#utility.yul\":25910:26049   */\n      swap1\n      pop\n        /* \"#utility.yul\":25637:26056   */\n      swap2\n      swap1\n      pop\n      jump\t// out\n        /* \"#utility.yul\":26062:26205   */\n    tag_474:\n        /* \"#utility.yul\":26119:26124   */\n      0x00\n        /* \"#utility.yul\":26150:26156   */\n      dup2\n        /* \"#utility.yul\":26144:26157   */\n      mload\n        /* \"#utility.yul\":26135:26157   */\n      swap1\n      pop\n        /* \"#utility.yul\":26166:26199   */\n      tag_730\n        /* \"#utility.yul\":26193:26198   */\n      dup2\n        /* \"#utility.yul\":26166:26199   */\n      tag_418\n      jump\t// in\n    tag_730:\n        /* \"#utility.yul\":26062:26205   */\n      swap3\n      swap2\n      pop\n      pop\n      jump\t// out\n        /* \"#utility.yul\":26211:26562   */\n    tag_242:\n        /* \"#utility.yul\":26281:26287   */\n      0x00\n        /* \"#utility.yul\":26330:26332   */\n      0x20\n        /* \"#utility.yul\":26318:26327   */\n      dup3\n        /* \"#utility.yul\":26309:26316   */\n      dup5\n        /* \"#utility.yul\":26305:26328   */\n      sub\n        /* \"#utility.yul\":26301:26333   */\n      slt\n        /* \"#utility.yul\":26298:26417   */\n      iszero\n      tag_732\n      jumpi\n        /* \"#utility.yul\":26336:26415   */\n      tag_733\n      tag_415\n      jump\t// in\n    tag_733:\n        /* \"#utility.yul\":26298:26417   */\n    tag_732:\n        /* \"#utility.yul\":26456:26457   */\n      0x00\n        /* \"#utility.yul\":26481:26545   */\n      tag_734\n        /* \"#utility.yul\":26537:26544   */\n      dup5\n        /* \"#utility.yul\":26528:26534   */\n      dup3\n        /* \"#utility.yul\":26517:26526   */\n      dup6\n        /* \"#utility.yul\":26513:26535   */\n      add\n        /* \"#utility.yul\":26481:26545   */\n      tag_474\n      jump\t// in\n    tag_734:\n        /* \"#utility.yul\":26471:26545   */\n      swap2\n      pop\n        /* \"#utility.yul\":26427:26555   */\n      pop\n        /* \"#utility.yul\":26211:26562   */\n      swap3\n      swap2\n      pop\n      pop\n      jump\t// out\n        /* \"#utility.yul\":26568:26739   */\n    tag_475:\n        /* \"#utility.yul\":26708:26731   */\n      0x5265636f766572656420537475636b2046756e64730000000000000000000000\n        /* \"#utility.yul\":26704:26705   */\n      0x00\n        /* \"#utility.yul\":26696:26702   */\n      dup3\n        /* \"#utility.yul\":26692:26706   */\n      add\n        /* \"#utility.yul\":26685:26732   */\n      mstore\n        /* \"#utility.yul\":26568:26739   */\n      pop\n      jump\t// out\n        /* \"#utility.yul\":26745:27111   */\n    tag_476:\n        /* \"#utility.yul\":26887:26890   */\n      0x00\n        /* \"#utility.yul\":26908:26975   */\n      tag_737\n        /* \"#utility.yul\":26972:26974   */\n      0x15\n        /* \"#utility.yul\":26967:26970   */\n      dup4\n        /* \"#utility.yul\":26908:26975   */\n      tag_438\n      jump\t// in\n    tag_737:\n        /* \"#utility.yul\":26901:26975   */\n      swap2\n      pop\n        /* \"#utility.yul\":26984:27077   */\n      tag_738\n        /* \"#utility.yul\":27073:27076   */\n      dup3\n        /* \"#utility.yul\":26984:27077   */\n      tag_475\n      jump\t// in\n    tag_738:\n        /* \"#utility.yul\":27102:27104   */\n      0x20\n        /* \"#utility.yul\":27097:27100   */\n      dup3\n        /* \"#utility.yul\":27093:27105   */\n      add\n        /* \"#utility.yul\":27086:27105   */\n      swap1\n      pop\n        /* \"#utility.yul\":26745:27111   */\n      swap2\n      swap1\n      pop\n      jump\t// out\n        /* \"#utility.yul\":27117:27646   */\n    tag_247:\n        /* \"#utility.yul\":27311:27315   */\n      0x00\n        /* \"#utility.yul\":27349:27351   */\n      0x40\n        /* \"#utility.yul\":27338:27347   */\n      dup3\n        /* \"#utility.yul\":27334:27352   */\n      add\n        /* \"#utility.yul\":27326:27352   */\n      swap1\n      pop\n        /* \"#utility.yul\":27398:27407   */\n      dup2\n        /* \"#utility.yul\":27392:27396   */\n      dup2\n        /* \"#utility.yul\":27388:27408   */\n      sub\n        /* \"#utility.yul\":27384:27385   */\n      0x00\n        /* \"#utility.yul\":27373:27382   */\n      dup4\n        /* \"#utility.yul\":27369:27386   */\n      add\n        /* \"#utility.yul\":27362:27409   */\n      mstore\n        /* \"#utility.yul\":27426:27557   */\n      tag_740\n        /* \"#utility.yul\":27552:27556   */\n      dup2\n        /* \"#utility.yul\":27426:27557   */\n      tag_476\n      jump\t// in\n    tag_740:\n        /* \"#utility.yul\":27418:27557   */\n      swap1\n      pop\n        /* \"#utility.yul\":27567:27639   */\n      tag_741\n        /* \"#utility.yul\":27635:27637   */\n      0x20\n        /* \"#utility.yul\":27624:27633   */\n      dup4\n        /* \"#utility.yul\":27620:27638   */\n      add\n        /* \"#utility.yul\":27611:27617   */\n      dup5\n        /* \"#utility.yul\":27567:27639   */\n      tag_420\n      jump\t// in\n    tag_741:\n        /* \"#utility.yul\":27117:27646   */\n      swap3\n      swap2\n      pop\n      pop\n      jump\t// out\n        /* \"#utility.yul\":27652:27812   */\n    tag_477:\n        /* \"#utility.yul\":27792:27804   */\n      0x41646d696e204f6e6c7900000000000000000000000000000000000000000000\n        /* \"#utility.yul\":27788:27789   */\n      0x00\n        /* \"#utility.yul\":27780:27786   */\n      dup3\n        /* \"#utility.yul\":27776:27790   */\n      add\n        /* \"#utility.yul\":27769:27805   */\n      mstore\n        /* \"#utility.yul\":27652:27812   */\n      pop\n      jump\t// out\n        /* \"#utility.yul\":27818:28184   */\n    tag_478:\n        /* \"#utility.yul\":27960:27963   */\n      0x00\n        /* \"#utility.yul\":27981:28048   */\n      tag_744\n        /* \"#utility.yul\":28045:28047   */\n      0x0a\n        /* \"#utility.yul\":28040:28043   */\n      dup4\n        /* \"#utility.yul\":27981:28048   */\n      tag_438\n      jump\t// in\n    tag_744:\n        /* \"#utility.yul\":27974:28048   */\n      swap2\n      pop\n        /* \"#utility.yul\":28057:28150   */\n      tag_745\n        /* \"#utility.yul\":28146:28149   */\n      dup3\n        /* \"#utility.yul\":28057:28150   */\n      tag_477\n      jump\t// in\n    tag_745:\n        /* \"#utility.yul\":28175:28177   */\n      0x20\n        /* \"#utility.yul\":28170:28173   */\n      dup3\n        /* \"#utility.yul\":28166:28178   */\n      add\n        /* \"#utility.yul\":28159:28178   */\n      swap1\n      pop\n        /* \"#utility.yul\":27818:28184   */\n      swap2\n      swap1\n      pop\n      jump\t// out\n        /* \"#utility.yul\":28190:28609   */\n    tag_251:\n        /* \"#utility.yul\":28356:28360   */\n      0x00\n        /* \"#utility.yul\":28394:28396   */\n      0x20\n        /* \"#utility.yul\":28383:28392   */\n      dup3\n        /* \"#utility.yul\":28379:28397   */\n      add\n        /* \"#utility.yul\":28371:28397   */\n      swap1\n      pop\n        /* \"#utility.yul\":28443:28452   */\n      dup2\n        /* \"#utility.yul\":28437:28441   */\n      dup2\n        /* \"#utility.yul\":28433:28453   */\n      sub\n        /* \"#utility.yul\":28429:28430   */\n      0x00\n        /* \"#utility.yul\":28418:28427   */\n      dup4\n        /* \"#utility.yul\":28414:28431   */\n      add\n        /* \"#utility.yul\":28407:28454   */\n      mstore\n        /* \"#utility.yul\":28471:28602   */\n      tag_747\n        /* \"#utility.yul\":28597:28601   */\n      dup2\n        /* \"#utility.yul\":28471:28602   */\n      tag_478\n      jump\t// in\n    tag_747:\n        /* \"#utility.yul\":28463:28602   */\n      swap1\n      pop\n        /* \"#utility.yul\":28190:28609   */\n      swap2\n      swap1\n      pop\n      jump\t// out\n        /* \"#utility.yul\":28615:28779   */\n    tag_479:\n        /* \"#utility.yul\":28755:28771   */\n      0x55736572206e6f7420666f756e64000000000000000000000000000000000000\n        /* \"#utility.yul\":28751:28752   */\n      0x00\n        /* \"#utility.yul\":28743:28749   */\n      dup3\n        /* \"#utility.yul\":28739:28753   */\n      add\n        /* \"#utility.yul\":28732:28772   */\n      mstore\n        /* \"#utility.yul\":28615:28779   */\n      pop\n      jump\t// out\n        /* \"#utility.yul\":28785:29151   */\n    tag_480:\n        /* \"#utility.yul\":28927:28930   */\n      0x00\n        /* \"#utility.yul\":28948:29015   */\n      tag_750\n        /* \"#utility.yul\":29012:29014   */\n      0x0e\n        /* \"#utility.yul\":29007:29010   */\n      dup4\n        /* \"#utility.yul\":28948:29015   */\n      tag_438\n      jump\t// in\n    tag_750:\n        /* \"#utility.yul\":28941:29015   */\n      swap2\n      pop\n        /* \"#utility.yul\":29024:29117   */\n      tag_751\n        /* \"#utility.yul\":29113:29116   */\n      dup3\n        /* \"#utility.yul\":29024:29117   */\n      tag_479\n      jump\t// in\n    tag_751:\n        /* \"#utility.yul\":29142:29144   */\n      0x20\n        /* \"#utility.yul\":29137:29140   */\n      dup3\n        /* \"#utility.yul\":29133:29145   */\n      add\n        /* \"#utility.yul\":29126:29145   */\n      swap1\n      pop\n        /* \"#utility.yul\":28785:29151   */\n      swap2\n      swap1\n      pop\n      jump\t// out\n        /* \"#utility.yul\":29157:29576   */\n    tag_254:\n        /* \"#utility.yul\":29323:29327   */\n      0x00\n        /* \"#utility.yul\":29361:29363   */\n      0x20\n        /* \"#utility.yul\":29350:29359   */\n      dup3\n        /* \"#utility.yul\":29346:29364   */\n      add\n        /* \"#utility.yul\":29338:29364   */\n      swap1\n      pop\n        /* \"#utility.yul\":29410:29419   */\n      dup2\n        /* \"#utility.yul\":29404:29408   */\n      dup2\n        /* \"#utility.yul\":29400:29420   */\n      sub\n        /* \"#utility.yul\":29396:29397   */\n      0x00\n        /* \"#utility.yul\":29385:29394   */\n      dup4\n        /* \"#utility.yul\":29381:29398   */\n      add\n        /* \"#utility.yul\":29374:29421   */\n      mstore\n        /* \"#utility.yul\":29438:29569   */\n      tag_753\n        /* \"#utility.yul\":29564:29568   */\n      dup2\n        /* \"#utility.yul\":29438:29569   */\n      tag_480\n      jump\t// in\n    tag_753:\n        /* \"#utility.yul\":29430:29569   */\n      swap1\n      pop\n        /* \"#utility.yul\":29157:29576   */\n      swap2\n      swap1\n      pop\n      jump\t// out\n        /* \"#utility.yul\":29582:29992   */\n    tag_266:\n        /* \"#utility.yul\":29622:29629   */\n      0x00\n        /* \"#utility.yul\":29645:29665   */\n      tag_755\n        /* \"#utility.yul\":29663:29664   */\n      dup3\n        /* \"#utility.yul\":29645:29665   */\n      tag_417\n      jump\t// in\n    tag_755:\n        /* \"#utility.yul\":29640:29665   */\n      swap2\n      pop\n        /* \"#utility.yul\":29679:29699   */\n      tag_756\n        /* \"#utility.yul\":29697:29698   */\n      dup4\n        /* \"#utility.yul\":29679:29699   */\n      tag_417\n      jump\t// in\n    tag_756:\n        /* \"#utility.yul\":29674:29699   */\n      swap3\n      pop\n        /* \"#utility.yul\":29734:29735   */\n      dup3\n        /* \"#utility.yul\":29731:29732   */\n      dup3\n        /* \"#utility.yul\":29727:29736   */\n      mul\n        /* \"#utility.yul\":29756:29786   */\n      tag_757\n        /* \"#utility.yul\":29774:29785   */\n      dup2\n        /* \"#utility.yul\":29756:29786   */\n      tag_417\n      jump\t// in\n    tag_757:\n        /* \"#utility.yul\":29745:29786   */\n      swap2\n      pop\n        /* \"#utility.yul\":29935:29936   */\n      dup3\n        /* \"#utility.yul\":29926:29933   */\n      dup3\n        /* \"#utility.yul\":29922:29937   */\n      div\n        /* \"#utility.yul\":29919:29920   */\n      dup5\n        /* \"#utility.yul\":29916:29938   */\n      eq\n        /* \"#utility.yul\":29896:29897   */\n      dup4\n        /* \"#utility.yul\":29889:29898   */\n      iszero\n        /* \"#utility.yul\":29869:29952   */\n      or\n        /* \"#utility.yul\":29846:29985   */\n      tag_758\n      jumpi\n        /* \"#utility.yul\":29965:29983   */\n      tag_759\n      tag_448\n      jump\t// in\n    tag_759:\n        /* \"#utility.yul\":29846:29985   */\n    tag_758:\n        /* \"#utility.yul\":29630:29992   */\n      pop\n        /* \"#utility.yul\":29582:29992   */\n      swap3\n      swap2\n      pop\n      pop\n      jump\t// out\n        /* \"#utility.yul\":29998:30169   */\n    tag_481:\n        /* \"#utility.yul\":30138:30161   */\n      0x4469726563742053706f6e736f72202854657374290000000000000000000000\n        /* \"#utility.yul\":30134:30135   */\n      0x00\n        /* \"#utility.yul\":30126:30132   */\n      dup3\n        /* \"#utility.yul\":30122:30136   */\n      add\n        /* \"#utility.yul\":30115:30162   */\n      mstore\n        /* \"#utility.yul\":29998:30169   */\n      pop\n      jump\t// out\n        /* \"#utility.yul\":30175:30541   */\n    tag_482:\n        /* \"#utility.yul\":30317:30320   */\n      0x00\n        /* \"#utility.yul\":30338:30405   */\n      tag_762\n        /* \"#utility.yul\":30402:30404   */\n      0x15\n        /* \"#utility.yul\":30397:30400   */\n      dup4\n        /* \"#utility.yul\":30338:30405   */\n      tag_438\n      jump\t// in\n    tag_762:\n        /* \"#utility.yul\":30331:30405   */\n      swap2\n      pop\n        /* \"#utility.yul\":30414:30507   */\n      tag_763\n        /* \"#utility.yul\":30503:30506   */\n      dup3\n        /* \"#utility.yul\":30414:30507   */\n      tag_481\n      jump\t// in\n    tag_763:\n        /* \"#utility.yul\":30532:30534   */\n      0x20\n        /* \"#utility.yul\":30527:30530   */\n      dup3\n        /* \"#utility.yul\":30523:30535   */\n      add\n        /* \"#utility.yul\":30516:30535   */\n      swap1\n      pop\n        /* \"#utility.yul\":30175:30541   */\n      swap2\n      swap1\n      pop\n      jump\t// out\n        /* \"#utility.yul\":30547:31076   */\n    tag_271:\n        /* \"#utility.yul\":30741:30745   */\n      0x00\n        /* \"#utility.yul\":30779:30781   */\n      0x40\n        /* \"#utility.yul\":30768:30777   */\n      dup3\n        /* \"#utility.yul\":30764:30782   */\n      add\n        /* \"#utility.yul\":30756:30782   */\n      swap1\n      pop\n        /* \"#utility.yul\":30792:30863   */\n      tag_765\n        /* \"#utility.yul\":30860:30861   */\n      0x00\n        /* \"#utility.yul\":30849:30858   */\n      dup4\n        /* \"#utility.yul\":30845:30862   */\n      add\n        /* \"#utility.yul\":30836:30842   */\n      dup5\n        /* \"#utility.yul\":30792:30863   */\n      tag_420\n      jump\t// in\n    tag_765:\n        /* \"#utility.yul\":30910:30919   */\n      dup2\n        /* \"#utility.yul\":30904:30908   */\n      dup2\n        /* \"#utility.yul\":30900:30920   */\n      sub\n        /* \"#utility.yul\":30895:30897   */\n      0x20\n        /* \"#utility.yul\":30884:30893   */\n      dup4\n        /* \"#utility.yul\":30880:30898   */\n      add\n        /* \"#utility.yul\":30873:30921   */\n      mstore\n        /* \"#utility.yul\":30938:31069   */\n      tag_766\n        /* \"#utility.yul\":31064:31068   */\n      dup2\n        /* \"#utility.yul\":30938:31069   */\n      tag_482\n      jump\t// in\n    tag_766:\n        /* \"#utility.yul\":30930:31069   */\n      swap1\n      pop\n        /* \"#utility.yul\":30547:31076   */\n      swap3\n      swap2\n      pop\n      pop\n      jump\t// out\n        /* \"#utility.yul\":31082:31247   */\n    tag_483:\n        /* \"#utility.yul\":31222:31239   */\n      0x496e76616c696420616464726573730000000000000000000000000000000000\n        /* \"#utility.yul\":31218:31219   */\n      0x00\n        /* \"#utility.yul\":31210:31216   */\n      dup3\n        /* \"#utility.yul\":31206:31220   */\n      add\n        /* \"#utility.yul\":31199:31240   */\n      mstore\n        /* \"#utility.yul\":31082:31247   */\n      pop\n      jump\t// out\n        /* \"#utility.yul\":31253:31619   */\n    tag_484:\n        /* \"#utility.yul\":31395:31398   */\n      0x00\n        /* \"#utility.yul\":31416:31483   */\n      tag_769\n        /* \"#utility.yul\":31480:31482   */\n      0x0f\n        /* \"#utility.yul\":31475:31478   */\n      dup4\n        /* \"#utility.yul\":31416:31483   */\n      tag_438\n      jump\t// in\n    tag_769:\n        /* \"#utility.yul\":31409:31483   */\n      swap2\n      pop\n        /* \"#utility.yul\":31492:31585   */\n      tag_770\n        /* \"#utility.yul\":31581:31584   */\n      dup3\n        /* \"#utility.yul\":31492:31585   */\n      tag_483\n      jump\t// in\n    tag_770:\n        /* \"#utility.yul\":31610:31612   */\n      0x20\n        /* \"#utility.yul\":31605:31608   */\n      dup3\n        /* \"#utility.yul\":31601:31613   */\n      add\n        /* \"#utility.yul\":31594:31613   */\n      swap1\n      pop\n        /* \"#utility.yul\":31253:31619   */\n      swap2\n      swap1\n      pop\n      jump\t// out\n        /* \"#utility.yul\":31625:32044   */\n    tag_278:\n        /* \"#utility.yul\":31791:31795   */\n      0x00\n        /* \"#utility.yul\":31829:31831   */\n      0x20\n        /* \"#utility.yul\":31818:31827   */\n      dup3\n        /* \"#utility.yul\":31814:31832   */\n      add\n        /* \"#utility.yul\":31806:31832   */\n      swap1\n      pop\n        /* \"#utility.yul\":31878:31887   */\n      dup2\n        /* \"#utility.yul\":31872:31876   */\n      dup2\n        /* \"#utility.yul\":31868:31888   */\n      sub\n        /* \"#utility.yul\":31864:31865   */\n      0x00\n        /* \"#utility.yul\":31853:31862   */\n      dup4\n        /* \"#utility.yul\":31849:31866   */\n      add\n        /* \"#utility.yul\":31842:31889   */\n      mstore\n        /* \"#utility.yul\":31906:32037   */\n      tag_772\n        /* \"#utility.yul\":32032:32036   */\n      dup2\n        /* \"#utility.yul\":31906:32037   */\n      tag_484\n      jump\t// in\n    tag_772:\n        /* \"#utility.yul\":31898:32037   */\n      swap1\n      pop\n        /* \"#utility.yul\":31625:32044   */\n      swap2\n      swap1\n      pop\n      jump\t// out\n        /* \"#utility.yul\":32050:32226   */\n    tag_485:\n        /* \"#utility.yul\":32190:32218   */\n      0x4164647265737320616c72656164792072656769737465726564000000000000\n        /* \"#utility.yul\":32186:32187   */\n      0x00\n        /* \"#utility.yul\":32178:32184   */\n      dup3\n        /* \"#utility.yul\":32174:32188   */\n      add\n        /* \"#utility.yul\":32167:32219   */\n      mstore\n        /* \"#utility.yul\":32050:32226   */\n      pop\n      jump\t// out\n        /* \"#utility.yul\":32232:32598   */\n    tag_486:\n        /* \"#utility.yul\":32374:32377   */\n      0x00\n        /* \"#utility.yul\":32395:32462   */\n      tag_775\n        /* \"#utility.yul\":32459:32461   */\n      0x1a\n        /* \"#utility.yul\":32454:32457   */\n      dup4\n        /* \"#utility.yul\":32395:32462   */\n      tag_438\n      jump\t// in\n    tag_775:\n        /* \"#utility.yul\":32388:32462   */\n      swap2\n      pop\n        /* \"#utility.yul\":32471:32564   */\n      tag_776\n        /* \"#utility.yul\":32560:32563   */\n      dup3\n        /* \"#utility.yul\":32471:32564   */\n      tag_485\n      jump\t// in\n    tag_776:\n        /* \"#utility.yul\":32589:32591   */\n      0x20\n        /* \"#utility.yul\":32584:32587   */\n      dup3\n        /* \"#utility.yul\":32580:32592   */\n      add\n        /* \"#utility.yul\":32573:32592   */\n      swap1\n      pop\n        /* \"#utility.yul\":32232:32598   */\n      swap2\n      swap1\n      pop\n      jump\t// out\n        /* \"#utility.yul\":32604:33023   */\n    tag_282:\n        /* \"#utility.yul\":32770:32774   */\n      0x00\n        /* \"#utility.yul\":32808:32810   */\n      0x20\n        /* \"#utility.yul\":32797:32806   */\n      dup3\n        /* \"#utility.yul\":32793:32811   */\n      add\n        /* \"#utility.yul\":32785:32811   */\n      swap1\n      pop\n        /* \"#utility.yul\":32857:32866   */\n      dup2\n        /* \"#utility.yul\":32851:32855   */\n      dup2\n        /* \"#utility.yul\":32847:32867   */\n      sub\n        /* \"#utility.yul\":32843:32844   */\n      0x00\n        /* \"#utility.yul\":32832:32841   */\n      dup4\n        /* \"#utility.yul\":32828:32845   */\n      add\n        /* \"#utility.yul\":32821:32868   */\n      mstore\n        /* \"#utility.yul\":32885:33016   */\n      tag_778\n        /* \"#utility.yul\":33011:33015   */\n      dup2\n        /* \"#utility.yul\":32885:33016   */\n      tag_486\n      jump\t// in\n    tag_778:\n        /* \"#utility.yul\":32877:33016   */\n      swap1\n      pop\n        /* \"#utility.yul\":32604:33023   */\n      swap2\n      swap1\n      pop\n      jump\t// out\n        /* \"#utility.yul\":33029:33207   */\n    tag_487:\n        /* \"#utility.yul\":33169:33199   */\n      0x556e636c61696d65642047656e65726174696f6e205265776172647300000000\n        /* \"#utility.yul\":33165:33166   */\n      0x00\n        /* \"#utility.yul\":33157:33163   */\n      dup3\n        /* \"#utility.yul\":33153:33167   */\n      add\n        /* \"#utility.yul\":33146:33200   */\n      mstore\n        /* \"#utility.yul\":33029:33207   */\n      pop\n      jump\t// out\n        /* \"#utility.yul\":33213:33579   */\n    tag_488:\n        /* \"#utility.yul\":33355:33358   */\n      0x00\n        /* \"#utility.yul\":33376:33443   */\n      tag_781\n        /* \"#utility.yul\":33440:33442   */\n      0x1c\n        /* \"#utility.yul\":33435:33438   */\n      dup4\n        /* \"#utility.yul\":33376:33443   */\n      tag_438\n      jump\t// in\n    tag_781:\n        /* \"#utility.yul\":33369:33443   */\n      swap2\n      pop\n        /* \"#utility.yul\":33452:33545   */\n      tag_782\n        /* \"#utility.yul\":33541:33544   */\n      dup3\n        /* \"#utility.yul\":33452:33545   */\n      tag_487\n      jump\t// in\n    tag_782:\n        /* \"#utility.yul\":33570:33572   */\n      0x20\n        /* \"#utility.yul\":33565:33568   */\n      dup3\n        /* \"#utility.yul\":33561:33573   */\n      add\n        /* \"#utility.yul\":33554:33573   */\n      swap1\n      pop\n        /* \"#utility.yul\":33213:33579   */\n      swap2\n      swap1\n      pop\n      jump\t// out\n        /* \"#utility.yul\":33585:34114   */\n    tag_306:\n        /* \"#utility.yul\":33779:33783   */\n      0x00\n        /* \"#utility.yul\":33817:33819   */\n      0x40\n        /* \"#utility.yul\":33806:33815   */\n      dup3\n        /* \"#utility.yul\":33802:33820   */\n      add\n        /* \"#utility.yul\":33794:33820   */\n      swap1\n      pop\n        /* \"#utility.yul\":33866:33875   */\n      dup2\n        /* \"#utility.yul\":33860:33864   */\n      dup2\n        /* \"#utility.yul\":33856:33876   */\n      sub\n        /* \"#utility.yul\":33852:33853   */\n      0x00\n        /* \"#utility.yul\":33841:33850   */\n      dup4\n        /* \"#utility.yul\":33837:33854   */\n      add\n        /* \"#utility.yul\":33830:33877   */\n      mstore\n        /* \"#utility.yul\":33894:34025   */\n      tag_784\n        /* \"#utility.yul\":34020:34024   */\n      dup2\n        /* \"#utility.yul\":33894:34025   */\n      tag_488\n      jump\t// in\n    tag_784:\n        /* \"#utility.yul\":33886:34025   */\n      swap1\n      pop\n        /* \"#utility.yul\":34035:34107   */\n      tag_785\n        /* \"#utility.yul\":34103:34105   */\n      0x20\n        /* \"#utility.yul\":34092:34101   */\n      dup4\n        /* \"#utility.yul\":34088:34106   */\n      add\n        /* \"#utility.yul\":34079:34085   */\n      dup5\n        /* \"#utility.yul\":34035:34107   */\n      tag_420\n      jump\t// in\n    tag_785:\n        /* \"#utility.yul\":33585:34114   */\n      swap3\n      swap2\n      pop\n      pop\n      jump\t// out\n        /* \"#utility.yul\":34120:34282   */\n    tag_489:\n        /* \"#utility.yul\":34260:34274   */\n      0x526f79616c74792046756e640000000000000000000000000000000000000000\n        /* \"#utility.yul\":34256:34257   */\n      0x00\n        /* \"#utility.yul\":34248:34254   */\n      dup3\n        /* \"#utility.yul\":34244:34258   */\n      add\n        /* \"#utility.yul\":34237:34275   */\n      mstore\n        /* \"#utility.yul\":34120:34282   */\n      pop\n      jump\t// out\n        /* \"#utility.yul\":34288:34654   */\n    tag_490:\n        /* \"#utility.yul\":34430:34433   */\n      0x00\n        /* \"#utility.yul\":34451:34518   */\n      tag_788\n        /* \"#utility.yul\":34515:34517   */\n      0x0c\n        /* \"#utility.yul\":34510:34513   */\n      dup4\n        /* \"#utility.yul\":34451:34518   */\n      tag_438\n      jump\t// in\n    tag_788:\n        /* \"#utility.yul\":34444:34518   */\n      swap2\n      pop\n        /* \"#utility.yul\":34527:34620   */\n      tag_789\n        /* \"#utility.yul\":34616:34619   */\n      dup3\n        /* \"#utility.yul\":34527:34620   */\n      tag_489\n      jump\t// in\n    tag_789:\n        /* \"#utility.yul\":34645:34647   */\n      0x20\n        /* \"#utility.yul\":34640:34643   */\n      dup3\n        /* \"#utility.yul\":34636:34648   */\n      add\n        /* \"#utility.yul\":34629:34648   */\n      swap1\n      pop\n        /* \"#utility.yul\":34288:34654   */\n      swap2\n      swap1\n      pop\n      jump\t// out\n        /* \"#utility.yul\":34660:35189   */\n    tag_311:\n        /* \"#utility.yul\":34854:34858   */\n      0x00\n        /* \"#utility.yul\":34892:34894   */\n      0x40\n        /* \"#utility.yul\":34881:34890   */\n      dup3\n        /* \"#utility.yul\":34877:34895   */\n      add\n        /* \"#utility.yul\":34869:34895   */\n      swap1\n      pop\n        /* \"#utility.yul\":34941:34950   */\n      dup2\n        /* \"#utility.yul\":34935:34939   */\n      dup2\n        /* \"#utility.yul\":34931:34951   */\n      sub\n        /* \"#utility.yul\":34927:34928   */\n      0x00\n        /* \"#utility.yul\":34916:34925   */\n      dup4\n        /* \"#utility.yul\":34912:34929   */\n      add\n        /* \"#utility.yul\":34905:34952   */\n      mstore\n        /* \"#utility.yul\":34969:35100   */\n      tag_791\n        /* \"#utility.yul\":35095:35099   */\n      dup2\n        /* \"#utility.yul\":34969:35100   */\n      tag_490\n      jump\t// in\n    tag_791:\n        /* \"#utility.yul\":34961:35100   */\n      swap1\n      pop\n        /* \"#utility.yul\":35110:35182   */\n      tag_792\n        /* \"#utility.yul\":35178:35180   */\n      0x20\n        /* \"#utility.yul\":35167:35176   */\n      dup4\n        /* \"#utility.yul\":35163:35181   */\n      add\n        /* \"#utility.yul\":35154:35160   */\n      dup5\n        /* \"#utility.yul\":35110:35182   */\n      tag_420\n      jump\t// in\n    tag_792:\n        /* \"#utility.yul\":34660:35189   */\n      swap3\n      swap2\n      pop\n      pop\n      jump\t// out\n        /* \"#utility.yul\":35195:35359   */\n    tag_491:\n        /* \"#utility.yul\":35335:35351   */\n      0x5a65726f205269736b2046756e64000000000000000000000000000000000000\n        /* \"#utility.yul\":35331:35332   */\n      0x00\n        /* \"#utility.yul\":35323:35329   */\n      dup3\n        /* \"#utility.yul\":35319:35333   */\n      add\n        /* \"#utility.yul\":35312:35352   */\n      mstore\n        /* \"#utility.yul\":35195:35359   */\n      pop\n      jump\t// out\n        /* \"#utility.yul\":35365:35731   */\n    tag_492:\n        /* \"#utility.yul\":35507:35510   */\n      0x00\n        /* \"#utility.yul\":35528:35595   */\n      tag_795\n        /* \"#utility.yul\":35592:35594   */\n      0x0e\n        /* \"#utility.yul\":35587:35590   */\n      dup4\n        /* \"#utility.yul\":35528:35595   */\n      tag_438\n      jump\t// in\n    tag_795:\n        /* \"#utility.yul\":35521:35595   */\n      swap2\n      pop\n        /* \"#utility.yul\":35604:35697   */\n      tag_796\n        /* \"#utility.yul\":35693:35696   */\n      dup3\n        /* \"#utility.yul\":35604:35697   */\n      tag_491\n      jump\t// in\n    tag_796:\n        /* \"#utility.yul\":35722:35724   */\n      0x20\n        /* \"#utility.yul\":35717:35720   */\n      dup3\n        /* \"#utility.yul\":35713:35725   */\n      add\n        /* \"#utility.yul\":35706:35725   */\n      swap1\n      pop\n        /* \"#utility.yul\":35365:35731   */\n      swap2\n      swap1\n      pop\n      jump\t// out\n        /* \"#utility.yul\":35737:36266   */\n    tag_316:\n        /* \"#utility.yul\":35931:35935   */\n      0x00\n        /* \"#utility.yul\":35969:35971   */\n      0x40\n        /* \"#utility.yul\":35958:35967   */\n      dup3\n        /* \"#utility.yul\":35954:35972   */\n      add\n        /* \"#utility.yul\":35946:35972   */\n      swap1\n      pop\n        /* \"#utility.yul\":36018:36027   */\n      dup2\n        /* \"#utility.yul\":36012:36016   */\n      dup2\n        /* \"#utility.yul\":36008:36028   */\n      sub\n        /* \"#utility.yul\":36004:36005   */\n      0x00\n        /* \"#utility.yul\":35993:36002   */\n      dup4\n        /* \"#utility.yul\":35989:36006   */\n      add\n        /* \"#utility.yul\":35982:36029   */\n      mstore\n        /* \"#utility.yul\":36046:36177   */\n      tag_798\n        /* \"#utility.yul\":36172:36176   */\n      dup2\n        /* \"#utility.yul\":36046:36177   */\n      tag_492\n      jump\t// in\n    tag_798:\n        /* \"#utility.yul\":36038:36177   */\n      swap1\n      pop\n        /* \"#utility.yul\":36187:36259   */\n      tag_799\n        /* \"#utility.yul\":36255:36257   */\n      0x20\n        /* \"#utility.yul\":36244:36253   */\n      dup4\n        /* \"#utility.yul\":36240:36258   */\n      add\n        /* \"#utility.yul\":36231:36237   */\n      dup5\n        /* \"#utility.yul\":36187:36259   */\n      tag_420\n      jump\t// in\n    tag_799:\n        /* \"#utility.yul\":35737:36266   */\n      swap3\n      swap2\n      pop\n      pop\n      jump\t// out\n        /* \"#utility.yul\":36272:36371   */\n    tag_493:\n        /* \"#utility.yul\":36324:36330   */\n      0x00\n        /* \"#utility.yul\":36358:36363   */\n      dup2\n        /* \"#utility.yul\":36352:36364   */\n      mload\n        /* \"#utility.yul\":36342:36364   */\n      swap1\n      pop\n        /* \"#utility.yul\":36272:36371   */\n      swap2\n      swap1\n      pop\n      jump\t// out\n        /* \"#utility.yul\":36377:36525   */\n    tag_494:\n        /* \"#utility.yul\":36479:36490   */\n      0x00\n        /* \"#utility.yul\":36516:36519   */\n      dup2\n        /* \"#utility.yul\":36501:36519   */\n      swap1\n      pop\n        /* \"#utility.yul\":36377:36525   */\n      swap3\n      swap2\n      pop\n      pop\n      jump\t// out\n        /* \"#utility.yul\":36531:36670   */\n    tag_495:\n        /* \"#utility.yul\":36620:36626   */\n      dup3\n        /* \"#utility.yul\":36615:36618   */\n      dup2\n        /* \"#utility.yul\":36610:36613   */\n      dup4\n        /* \"#utility.yul\":36604:36627   */\n      mcopy\n        /* \"#utility.yul\":36661:36662   */\n      0x00\n        /* \"#utility.yul\":36652:36658   */\n      dup4\n        /* \"#utility.yul\":36647:36650   */\n      dup4\n        /* \"#utility.yul\":36643:36659   */\n      add\n        /* \"#utility.yul\":36636:36663   */\n      mstore\n        /* \"#utility.yul\":36531:36670   */\n      pop\n      pop\n      pop\n      jump\t// out\n        /* \"#utility.yul\":36676:37066   */\n    tag_496:\n        /* \"#utility.yul\":36782:36785   */\n      0x00\n        /* \"#utility.yul\":36810:36849   */\n      tag_804\n        /* \"#utility.yul\":36843:36848   */\n      dup3\n        /* \"#utility.yul\":36810:36849   */\n      tag_493\n      jump\t// in\n    tag_804:\n        /* \"#utility.yul\":36865:36954   */\n      tag_805\n        /* \"#utility.yul\":36947:36953   */\n      dup2\n        /* \"#utility.yul\":36942:36945   */\n      dup6\n        /* \"#utility.yul\":36865:36954   */\n      tag_494\n      jump\t// in\n    tag_805:\n        /* \"#utility.yul\":36858:36954   */\n      swap4\n      pop\n        /* \"#utility.yul\":36963:37028   */\n      tag_806\n        /* \"#utility.yul\":37021:37027   */\n      dup2\n        /* \"#utility.yul\":37016:37019   */\n      dup6\n        /* \"#utility.yul\":37009:37013   */\n      0x20\n        /* \"#utility.yul\":37002:37007   */\n      dup7\n        /* \"#utility.yul\":36998:37014   */\n      add\n        /* \"#utility.yul\":36963:37028   */\n      tag_495\n      jump\t// in\n    tag_806:\n        /* \"#utility.yul\":37053:37059   */\n      dup1\n        /* \"#utility.yul\":37048:37051   */\n      dup5\n        /* \"#utility.yul\":37044:37060   */\n      add\n        /* \"#utility.yul\":37037:37060   */\n      swap2\n      pop\n        /* \"#utility.yul\":36786:37066   */\n      pop\n        /* \"#utility.yul\":36676:37066   */\n      swap3\n      swap2\n      pop\n      pop\n      jump\t// out\n        /* \"#utility.yul\":37072:37240   */\n    tag_497:\n        /* \"#utility.yul\":37212:37232   */\n      0x2028496e76616c69642041646472657373290000000000000000000000000000\n        /* \"#utility.yul\":37208:37209   */\n      0x00\n        /* \"#utility.yul\":37200:37206   */\n      dup3\n        /* \"#utility.yul\":37196:37210   */\n      add\n        /* \"#utility.yul\":37189:37233   */\n      mstore\n        /* \"#utility.yul\":37072:37240   */\n      pop\n      jump\t// out\n        /* \"#utility.yul\":37246:37648   */\n    tag_498:\n        /* \"#utility.yul\":37406:37409   */\n      0x00\n        /* \"#utility.yul\":37427:37512   */\n      tag_809\n        /* \"#utility.yul\":37509:37511   */\n      0x12\n        /* \"#utility.yul\":37504:37507   */\n      dup4\n        /* \"#utility.yul\":37427:37512   */\n      tag_494\n      jump\t// in\n    tag_809:\n        /* \"#utility.yul\":37420:37512   */\n      swap2\n      pop\n        /* \"#utility.yul\":37521:37614   */\n      tag_810\n        /* \"#utility.yul\":37610:37613   */\n      dup3\n        /* \"#utility.yul\":37521:37614   */\n      tag_497\n      jump\t// in\n    tag_810:\n        /* \"#utility.yul\":37639:37641   */\n      0x12\n        /* \"#utility.yul\":37634:37637   */\n      dup3\n        /* \"#utility.yul\":37630:37642   */\n      add\n        /* \"#utility.yul\":37623:37642   */\n      swap1\n      pop\n        /* \"#utility.yul\":37246:37648   */\n      swap2\n      swap1\n      pop\n      jump\t// out\n        /* \"#utility.yul\":37654:38195   */\n    tag_329:\n        /* \"#utility.yul\":37887:37890   */\n      0x00\n        /* \"#utility.yul\":37909:38004   */\n      tag_812\n        /* \"#utility.yul\":38000:38003   */\n      dup3\n        /* \"#utility.yul\":37991:37997   */\n      dup5\n        /* \"#utility.yul\":37909:38004   */\n      tag_496\n      jump\t// in\n    tag_812:\n        /* \"#utility.yul\":37902:38004   */\n      swap2\n      pop\n        /* \"#utility.yul\":38021:38169   */\n      tag_813\n        /* \"#utility.yul\":38165:38168   */\n      dup3\n        /* \"#utility.yul\":38021:38169   */\n      tag_498\n      jump\t// in\n    tag_813:\n        /* \"#utility.yul\":38014:38169   */\n      swap2\n      pop\n        /* \"#utility.yul\":38186:38189   */\n      dup2\n        /* \"#utility.yul\":38179:38189   */\n      swap1\n      pop\n        /* \"#utility.yul\":37654:38195   */\n      swap3\n      swap2\n      pop\n      pop\n      jump\t// out\n        /* \"#utility.yul\":38201:38303   */\n    tag_499:\n        /* \"#utility.yul\":38242:38248   */\n      0x00\n        /* \"#utility.yul\":38293:38295   */\n      0x1f\n        /* \"#utility.yul\":38289:38296   */\n      not\n        /* \"#utility.yul\":38284:38286   */\n      0x1f\n        /* \"#utility.yul\":38277:38282   */\n      dup4\n        /* \"#utility.yul\":38273:38287   */\n      add\n        /* \"#utility.yul\":38269:38297   */\n      and\n        /* \"#utility.yul\":38259:38297   */\n      swap1\n      pop\n        /* \"#utility.yul\":38201:38303   */\n      swap2\n      swap1\n      pop\n      jump\t// out\n        /* \"#utility.yul\":38309:38686   */\n    tag_500:\n        /* \"#utility.yul\":38397:38400   */\n      0x00\n        /* \"#utility.yul\":38425:38464   */\n      tag_816\n        /* \"#utility.yul\":38458:38463   */\n      dup3\n        /* \"#utility.yul\":38425:38464   */\n      tag_493\n      jump\t// in\n    tag_816:\n        /* \"#utility.yul\":38480:38551   */\n      tag_817\n        /* \"#utility.yul\":38544:38550   */\n      dup2\n        /* \"#utility.yul\":38539:38542   */\n      dup6\n        /* \"#utility.yul\":38480:38551   */\n      tag_438\n      jump\t// in\n    tag_817:\n        /* \"#utility.yul\":38473:38551   */\n      swap4\n      pop\n        /* \"#utility.yul\":38560:38625   */\n      tag_818\n        /* \"#utility.yul\":38618:38624   */\n      dup2\n        /* \"#utility.yul\":38613:38616   */\n      dup6\n        /* \"#utility.yul\":38606:38610   */\n      0x20\n        /* \"#utility.yul\":38599:38604   */\n      dup7\n        /* \"#utility.yul\":38595:38611   */\n      add\n        /* \"#utility.yul\":38560:38625   */\n      tag_495\n      jump\t// in\n    tag_818:\n        /* \"#utility.yul\":38650:38679   */\n      tag_819\n        /* \"#utility.yul\":38672:38678   */\n      dup2\n        /* \"#utility.yul\":38650:38679   */\n      tag_499\n      jump\t// in\n    tag_819:\n        /* \"#utility.yul\":38645:38648   */\n      dup5\n        /* \"#utility.yul\":38641:38680   */\n      add\n        /* \"#utility.yul\":38634:38680   */\n      swap2\n      pop\n        /* \"#utility.yul\":38401:38686   */\n      pop\n        /* \"#utility.yul\":38309:38686   */\n      swap3\n      swap2\n      pop\n      pop\n      jump\t// out\n        /* \"#utility.yul\":38692:39115   */\n    tag_331:\n        /* \"#utility.yul\":38833:38837   */\n      0x00\n        /* \"#utility.yul\":38871:38873   */\n      0x40\n        /* \"#utility.yul\":38860:38869   */\n      dup3\n        /* \"#utility.yul\":38856:38874   */\n      add\n        /* \"#utility.yul\":38848:38874   */\n      swap1\n      pop\n        /* \"#utility.yul\":38884:38955   */\n      tag_821\n        /* \"#utility.yul\":38952:38953   */\n      0x00\n        /* \"#utility.yul\":38941:38950   */\n      dup4\n        /* \"#utility.yul\":38937:38954   */\n      add\n        /* \"#utility.yul\":38928:38934   */\n      dup6\n        /* \"#utility.yul\":38884:38955   */\n      tag_420\n      jump\t// in\n    tag_821:\n        /* \"#utility.yul\":39002:39011   */\n      dup2\n        /* \"#utility.yul\":38996:39000   */\n      dup2\n        /* \"#utility.yul\":38992:39012   */\n      sub\n        /* \"#utility.yul\":38987:38989   */\n      0x20\n        /* \"#utility.yul\":38976:38985   */\n      dup4\n        /* \"#utility.yul\":38972:38990   */\n      add\n        /* \"#utility.yul\":38965:39013   */\n      mstore\n        /* \"#utility.yul\":39030:39108   */\n      tag_822\n        /* \"#utility.yul\":39103:39107   */\n      dup2\n        /* \"#utility.yul\":39094:39100   */\n      dup5\n        /* \"#utility.yul\":39030:39108   */\n      tag_500\n      jump\t// in\n    tag_822:\n        /* \"#utility.yul\":39022:39108   */\n      swap1\n      pop\n        /* \"#utility.yul\":38692:39115   */\n      swap4\n      swap3\n      pop\n      pop\n      pop\n      jump\t// out\n        /* \"#utility.yul\":39121:39296   */\n    tag_501:\n        /* \"#utility.yul\":39261:39288   */\n      0x4d6174726978204f766572666c6f772053616665636174636800000000000000\n        /* \"#utility.yul\":39257:39258   */\n      0x00\n        /* \"#utility.yul\":39249:39255   */\n      dup3\n        /* \"#utility.yul\":39245:39259   */\n      add\n        /* \"#utility.yul\":39238:39289   */\n      mstore\n        /* \"#utility.yul\":39121:39296   */\n      pop\n      jump\t// out\n        /* \"#utility.yul\":39302:39668   */\n    tag_502:\n        /* \"#utility.yul\":39444:39447   */\n      0x00\n        /* \"#utility.yul\":39465:39532   */\n      tag_825\n        /* \"#utility.yul\":39529:39531   */\n      0x19\n        /* \"#utility.yul\":39524:39527   */\n      dup4\n        /* \"#utility.yul\":39465:39532   */\n      tag_438\n      jump\t// in\n    tag_825:\n        /* \"#utility.yul\":39458:39532   */\n      swap2\n      pop\n        /* \"#utility.yul\":39541:39634   */\n      tag_826\n        /* \"#utility.yul\":39630:39633   */\n      dup3\n        /* \"#utility.yul\":39541:39634   */\n      tag_501\n      jump\t// in\n    tag_826:\n        /* \"#utility.yul\":39659:39661   */\n      0x20\n        /* \"#utility.yul\":39654:39657   */\n      dup3\n        /* \"#utility.yul\":39650:39662   */\n      add\n        /* \"#utility.yul\":39643:39662   */\n      swap1\n      pop\n        /* \"#utility.yul\":39302:39668   */\n      swap2\n      swap1\n      pop\n      jump\t// out\n        /* \"#utility.yul\":39674:40203   */\n    tag_373:\n        /* \"#utility.yul\":39868:39872   */\n      0x00\n        /* \"#utility.yul\":39906:39908   */\n      0x40\n        /* \"#utility.yul\":39895:39904   */\n      dup3\n        /* \"#utility.yul\":39891:39909   */\n      add\n        /* \"#utility.yul\":39883:39909   */\n      swap1\n      pop\n        /* \"#utility.yul\":39955:39964   */\n      dup2\n        /* \"#utility.yul\":39949:39953   */\n      dup2\n        /* \"#utility.yul\":39945:39965   */\n      sub\n        /* \"#utility.yul\":39941:39942   */\n      0x00\n        /* \"#utility.yul\":39930:39939   */\n      dup4\n        /* \"#utility.yul\":39926:39943   */\n      add\n        /* \"#utility.yul\":39919:39966   */\n      mstore\n        /* \"#utility.yul\":39983:40114   */\n      tag_828\n        /* \"#utility.yul\":40109:40113   */\n      dup2\n        /* \"#utility.yul\":39983:40114   */\n      tag_502\n      jump\t// in\n    tag_828:\n        /* \"#utility.yul\":39975:40114   */\n      swap1\n      pop\n        /* \"#utility.yul\":40124:40196   */\n      tag_829\n        /* \"#utility.yul\":40192:40194   */\n      0x20\n        /* \"#utility.yul\":40181:40190   */\n      dup4\n        /* \"#utility.yul\":40177:40195   */\n      add\n        /* \"#utility.yul\":40168:40174   */\n      dup5\n        /* \"#utility.yul\":40124:40196   */\n      tag_420\n      jump\t// in\n    tag_829:\n        /* \"#utility.yul\":39674:40203   */\n      swap3\n      swap2\n      pop\n      pop\n      jump\t// out\n        /* \"#utility.yul\":40209:40379   */\n    tag_503:\n        /* \"#utility.yul\":40349:40371   */\n      0x41646d696e2052656379636c6520496e636f6d65000000000000000000000000\n        /* \"#utility.yul\":40345:40346   */\n      0x00\n        /* \"#utility.yul\":40337:40343   */\n      dup3\n        /* \"#utility.yul\":40333:40347   */\n      add\n        /* \"#utility.yul\":40326:40372   */\n      mstore\n        /* \"#utility.yul\":40209:40379   */\n      pop\n      jump\t// out\n        /* \"#utility.yul\":40385:40751   */\n    tag_504:\n        /* \"#utility.yul\":40527:40530   */\n      0x00\n        /* \"#utility.yul\":40548:40615   */\n      tag_832\n        /* \"#utility.yul\":40612:40614   */\n      0x14\n        /* \"#utility.yul\":40607:40610   */\n      dup4\n        /* \"#utility.yul\":40548:40615   */\n      tag_438\n      jump\t// in\n    tag_832:\n        /* \"#utility.yul\":40541:40615   */\n      swap2\n      pop\n        /* \"#utility.yul\":40624:40717   */\n      tag_833\n        /* \"#utility.yul\":40713:40716   */\n      dup3\n        /* \"#utility.yul\":40624:40717   */\n      tag_503\n      jump\t// in\n    tag_833:\n        /* \"#utility.yul\":40742:40744   */\n      0x20\n        /* \"#utility.yul\":40737:40740   */\n      dup3\n        /* \"#utility.yul\":40733:40745   */\n      add\n        /* \"#utility.yul\":40726:40745   */\n      swap1\n      pop\n        /* \"#utility.yul\":40385:40751   */\n      swap2\n      swap1\n      pop\n      jump\t// out\n        /* \"#utility.yul\":40757:41286   */\n    tag_401:\n        /* \"#utility.yul\":40951:40955   */\n      0x00\n        /* \"#utility.yul\":40989:40991   */\n      0x40\n        /* \"#utility.yul\":40978:40987   */\n      dup3\n        /* \"#utility.yul\":40974:40992   */\n      add\n        /* \"#utility.yul\":40966:40992   */\n      swap1\n      pop\n        /* \"#utility.yul\":41038:41047   */\n      dup2\n        /* \"#utility.yul\":41032:41036   */\n      dup2\n        /* \"#utility.yul\":41028:41048   */\n      sub\n        /* \"#utility.yul\":41024:41025   */\n      0x00\n        /* \"#utility.yul\":41013:41022   */\n      dup4\n        /* \"#utility.yul\":41009:41026   */\n      add\n        /* \"#utility.yul\":41002:41049   */\n      mstore\n        /* \"#utility.yul\":41066:41197   */\n      tag_835\n        /* \"#utility.yul\":41192:41196   */\n      dup2\n        /* \"#utility.yul\":41066:41197   */\n      tag_504\n      jump\t// in\n    tag_835:\n        /* \"#utility.yul\":41058:41197   */\n      swap1\n      pop\n        /* \"#utility.yul\":41207:41279   */\n      tag_836\n        /* \"#utility.yul\":41275:41277   */\n      0x20\n        /* \"#utility.yul\":41264:41273   */\n      dup4\n        /* \"#utility.yul\":41260:41278   */\n      add\n        /* \"#utility.yul\":41251:41257   */\n      dup5\n        /* \"#utility.yul\":41207:41279   */\n      tag_420\n      jump\t// in\n    tag_836:\n        /* \"#utility.yul\":40757:41286   */\n      swap3\n      swap2\n      pop\n      pop\n      jump\t// out\n        /* \"#utility.yul\":41292:41469   */\n    tag_505:\n        /* \"#utility.yul\":41432:41461   */\n      0x4d61782052656379636c65204465707468205361666563617463680000000000\n        /* \"#utility.yul\":41428:41429   */\n      0x00\n        /* \"#utility.yul\":41420:41426   */\n      dup3\n        /* \"#utility.yul\":41416:41430   */\n      add\n        /* \"#utility.yul\":41409:41462   */\n      mstore\n        /* \"#utility.yul\":41292:41469   */\n      pop\n      jump\t// out\n        /* \"#utility.yul\":41475:41841   */\n    tag_506:\n        /* \"#utility.yul\":41617:41620   */\n      0x00\n        /* \"#utility.yul\":41638:41705   */\n      tag_839\n        /* \"#utility.yul\":41702:41704   */\n      0x1b\n        /* \"#utility.yul\":41697:41700   */\n      dup4\n        /* \"#utility.yul\":41638:41705   */\n      tag_438\n      jump\t// in\n    tag_839:\n        /* \"#utility.yul\":41631:41705   */\n      swap2\n      pop\n        /* \"#utility.yul\":41714:41807   */\n      tag_840\n        /* \"#utility.yul\":41803:41806   */\n      dup3\n        /* \"#utility.yul\":41714:41807   */\n      tag_505\n      jump\t// in\n    tag_840:\n        /* \"#utility.yul\":41832:41834   */\n      0x20\n        /* \"#utility.yul\":41827:41830   */\n      dup3\n        /* \"#utility.yul\":41823:41835   */\n      add\n        /* \"#utility.yul\":41816:41835   */\n      swap1\n      pop\n        /* \"#utility.yul\":41475:41841   */\n      swap2\n      swap1\n      pop\n      jump\t// out\n        /* \"#utility.yul\":41847:42376   */\n    tag_406:\n        /* \"#utility.yul\":42041:42045   */\n      0x00\n        /* \"#utility.yul\":42079:42081   */\n      0x40\n        /* \"#utility.yul\":42068:42077   */\n      dup3\n        /* \"#utility.yul\":42064:42082   */\n      add\n        /* \"#utility.yul\":42056:42082   */\n      swap1\n      pop\n        /* \"#utility.yul\":42128:42137   */\n      dup2\n        /* \"#utility.yul\":42122:42126   */\n      dup2\n        /* \"#utility.yul\":42118:42138   */\n      sub\n        /* \"#utility.yul\":42114:42115   */\n      0x00\n        /* \"#utility.yul\":42103:42112   */\n      dup4\n        /* \"#utility.yul\":42099:42116   */\n      add\n        /* \"#utility.yul\":42092:42139   */\n      mstore\n        /* \"#utility.yul\":42156:42287   */\n      tag_842\n        /* \"#utility.yul\":42282:42286   */\n      dup2\n        /* \"#utility.yul\":42156:42287   */\n      tag_506\n      jump\t// in\n    tag_842:\n        /* \"#utility.yul\":42148:42287   */\n      swap1\n      pop\n        /* \"#utility.yul\":42297:42369   */\n      tag_843\n        /* \"#utility.yul\":42365:42367   */\n      0x20\n        /* \"#utility.yul\":42354:42363   */\n      dup4\n        /* \"#utility.yul\":42350:42368   */\n      add\n        /* \"#utility.yul\":42341:42347   */\n      dup5\n        /* \"#utility.yul\":42297:42369   */\n      tag_420\n      jump\t// in\n    tag_843:\n        /* \"#utility.yul\":41847:42376   */\n      swap3\n      swap2\n      pop\n      pop\n      jump\t// out\n\n    auxdata: 0xa26469706673582212206b353fb20fb34b74bcbc4535e5d5698abc5cdcb9f13e83dc1144339506eeae8664736f6c634300081f0033\n}\n",
				"bytecode": {
					"linkReferences": {},
					"object": "60806040526103e86003556040518061016001604052805f68ffffffffffffffffff1681526020016753444835ec58000068ffffffffffffffffff168152602001678ac7230489e8000068ffffffffffffffffff1681526020016801158e460913d0000068ffffffffffffffffff16815260200168022b1c8c1227a0000068ffffffffffffffffff1681526020016804563918244f40000068ffffffffffffffffff1681526020016808ac7230489e80000068ffffffffffffffffff168152602001681158e460913d00000068ffffffffffffffffff1681526020016822b1c8c1227a00000068ffffffffffffffffff168152602001684563918244f400000068ffffffffffffffffff168152602001688ac7230489e800000068ffffffffffffffffff16815250600590600b610137929190610327565b50348015610143575f5ffd5b5060405161412b38038061412b833981810160405281019061016591906103f8565b3360045f6101000a81548173ffffffffffffffffffffffffffffffffffffffff021916908373ffffffffffffffffffffffffffffffffffffffff160217905550805f5f6101000a81548173ffffffffffffffffffffffffffffffffffffffff021916908373ffffffffffffffffffffffffffffffffffffffff1602179055506103e860025f6103e881526020019081526020015f205f018190555060045f9054906101000a900473ffffffffffffffffffffffffffffffffffffffff1660025f6103e881526020019081526020015f206001015f6101000a81548173ffffffffffffffffffffffffffffffffffffffff021916908373ffffffffffffffffffffffffffffffffffffffff1602179055505f60025f6103e881526020019081526020015f2060020181905550600a60025f6103e881526020019081526020015f20600901819055506103e860015f60045f9054906101000a900473ffffffffffffffffffffffffffffffffffffffff1673ffffffffffffffffffffffffffffffffffffffff1673ffffffffffffffffffffffffffffffffffffffff1681526020019081526020015f20819055506001600881905550600160098190555050610423565b828054828255905f5260205f2090810192821561036e579160200282015b8281111561036d578251829068ffffffffffffffffff16905591602001919060010190610345565b5b50905061037b919061037f565b5090565b5b80821115610396575f815f905550600101610380565b5090565b5f5ffd5b5f73ffffffffffffffffffffffffffffffffffffffff82169050919050565b5f6103c78261039e565b9050919050565b6103d7816103bd565b81146103e1575f5ffd5b50565b5f815190506103f2816103ce565b92915050565b5f6020828403121561040d5761040c61039a565b5b5f61041a848285016103e4565b91505092915050565b613cfb806104305f395ff3fe608060405234801561000f575f5ffd5b506004361061014b575f3560e01c80638da5cb5b116100c1578063e4d3cc501161007a578063e4d3cc501461039b578063e54189fc146103ce578063e80e4c9f146103d8578063e9d9e13f146103e2578063eadadf4414610400578063f2fde38b1461041c5761014b565b80638da5cb5b146102bd578063971a6720146102db578063a11ee6f8146102f9578063a98ad46c14610317578063cb0e0d7d14610335578063d379dadf146103655761014b565b80633c99092b116101135780633c99092b1461020f57806340f603041461022b578063433fc828146102475780635396db9d146102655780635e9b38821461028157806386e95fdf1461029f5761014b565b806320fe8e6e1461014f578063348d44871461017f5780633516dcd11461019d578063365b98b2146101b95780633c7afca5146101f1575b5f5ffd5b610169600480360381019061016491906129c8565b610438565b6040516101769190612a02565b60405180910390f35b610187610458565b6040516101949190612a02565b60405180910390f35b6101b760048036038101906101b291906129c8565b61045e565b005b6101d360048036038101906101ce91906129c8565b61080b565b6040516101e899989796959493929190612a5a565b60405180910390f35b6101f9610874565b6040516102069190612a02565b60405180910390f35b610229600480360381019061022491906129c8565b61087a565b005b610245600480360381019061024091906129c8565b610a89565b005b61024f610c78565b60405161025c9190612a02565b60405180910390f35b61027f600480360381019061027a91906129c8565b610c84565b005b610289610f41565b6040516102969190612a02565b60405180910390f35b6102a7610f47565b6040516102b49190612a02565b60405180910390f35b6102c5610f53565b6040516102d29190612ae5565b60405180910390f35b6102e3610f78565b6040516102f09190612a02565b60405180910390f35b610301610f7e565b60405161030e9190612a02565b60405180910390f35b61031f610f84565b60405161032c9190612b59565b60405180910390f35b61034f600480360381019061034a9190612b9c565b610fa8565b60405161035c9190612a02565b60405180910390f35b61037f600480360381019061037a91906129c8565b610fbd565b6040516103929796959493929190612bc7565b60405180910390f35b6103b560048036038101906103b09190612c34565b611034565b6040516103c59493929190612d29565b60405180910390f35b6103d6611122565b005b6103e0611545565b005b6103ea6116ee565b6040516103f79190612a02565b60405180910390f35b61041a60048036038101906104159190612c34565b6116f4565b005b61043660048036038101906104319190612b9c565b61199b565b005b60058181548110610447575f80fd5b905f5260205f20015f915090505481565b60035481565b5f60015f3373ffffffffffffffffffffffffffffffffffffffff1673ffffffffffffffffffffffffffffffffffffffff1681526020019081526020015f2054146104dd576040517f08c379a00000000000000000000000000000000000000000000000000000000081526004016104d490612dd4565b60405180910390fd5b5f60025f8381526020019081526020015f205f015403610532576040517f08c379a000000000000000000000000000000000000000000000000000000000815260040161052990612e3c565b60405180910390fd5b5f600560018154811061054857610547612e5a565b5b905f5260205f20015490505f5f9054906101000a900473ffffffffffffffffffffffffffffffffffffffff1673ffffffffffffffffffffffffffffffffffffffff166323b872dd3330846040518463ffffffff1660e01b81526004016105b093929190612e87565b6020604051808303815f875af11580156105cc573d5f5f3e3d5ffd5b505050506040513d601f19601f820116820180604052508101906105f09190612ef1565b61062f576040517f08c379a000000000000000000000000000000000000000000000000000000000815260040161062690612f66565b60405180910390fd5b60035f81548092919061064190612fb1565b91905055505f60035490508060025f8381526020019081526020015f205f01819055503360025f8381526020019081526020015f206001015f6101000a81548173ffffffffffffffffffffffffffffffffffffffff021916908373ffffffffffffffffffffffffffffffffffffffff1602179055508260025f8381526020019081526020015f2060020181905550600160025f8381526020019081526020015f20600901819055508060015f3373ffffffffffffffffffffffffffffffffffffffff1673ffffffffffffffffffffffffffffffffffffffff1681526020019081526020015f208190555060025f8481526020019081526020015f206007015f81548092919061074f90612fb1565b919050555060025f8481526020019081526020015f206008015f81548092919061077890612fb1565b919050555060085f81548092919061078f90612fb1565b919050555060095f8154809291906107a690612fb1565b9190505550823373ffffffffffffffffffffffffffffffffffffffff167f0d6d8be58ef6918a4e19027a89943222bc99e02d838bd0b3e41004fd72d7f344836040516107f29190612a02565b60405180910390a361080681600184611cfb565b505050565b6002602052805f5260405f205f91509050805f015490806001015f9054906101000a900473ffffffffffffffffffffffffffffffffffffffff16908060020154908060030154908060040154908060050154908060070154908060080154908060090154905089565b60085481565b5f60015f3373ffffffffffffffffffffffffffffffffffffffff1673ffffffffffffffffffffffffffffffffffffffff1681526020019081526020015f2054146108f9576040517f08c379a00000000000000000000000000000000000000000000000000000000081526004016108f090612dd4565b60405180910390fd5b6103e881108061091b57505f60025f8381526020019081526020015f205f0154145b15610926576103e890505b60035f81548092919061093890612fb1565b91905055505f60035490505f60025f8381526020019081526020015f20905081815f018190555033816001015f6101000a81548173ffffffffffffffffffffffffffffffffffffffff021916908373ffffffffffffffffffffffffffffffffffffffff1602179055508281600201819055505f81600901819055508160015f3373ffffffffffffffffffffffffffffffffffffffff1673ffffffffffffffffffffffffffffffffffffffff1681526020019081526020015f208190555060025f8481526020019081526020015f206007015f815480929190610a1990612fb1565b919050555060085f815480929190610a3090612fb1565b9190505550823373ffffffffffffffffffffffffffffffffffffffff167f0d6d8be58ef6918a4e19027a89943222bc99e02d838bd0b3e41004fd72d7f34484604051610a7c9190612a02565b60405180910390a3505050565b60045f9054906101000a900473ffffffffffffffffffffffffffffffffffffffff1673ffffffffffffffffffffffffffffffffffffffff163373ffffffffffffffffffffffffffffffffffffffff1614610b18576040517f08c379a0000000000000000000000000000000000000000000000000000000008152600401610b0f90613042565b60405180910390fd5b600754811115610b5d576040517f08c379a0000000000000000000000000000000000000000000000000000000008152600401610b54906130aa565b60405180910390fd5b8060075f828254610b6e91906130c8565b925050819055505f5f5f9054906101000a900473ffffffffffffffffffffffffffffffffffffffff1673ffffffffffffffffffffffffffffffffffffffff1663a9059cbb60045f9054906101000a900473ffffffffffffffffffffffffffffffffffffffff16846040518363ffffffff1660e01b8152600401610bf29291906130fb565b6020604051808303815f875af1158015610c0e573d5f5f3e3d5ffd5b505050506040513d601f19601f82011682018060405250810190610c329190612ef1565b905080610c74576040517f08c379a0000000000000000000000000000000000000000000000000000000008152600401610c6b9061316c565b60405180910390fd5b5050565b678ac7230489e8000081565b5f60015f3373ffffffffffffffffffffffffffffffffffffffff1673ffffffffffffffffffffffffffffffffffffffff1681526020019081526020015f205490505f8103610d07576040517f08c379a0000000000000000000000000000000000000000000000000000000008152600401610cfe906131d4565b60405180910390fd5b60018210158015610d195750600a8211155b610d58576040517f08c379a0000000000000000000000000000000000000000000000000000000008152600401610d4f9061323c565b60405180910390fd5b600182610d6591906130c8565b60025f8381526020019081526020015f206009015414610dba576040517f08c379a0000000000000000000000000000000000000000000000000000000008152600401610db1906132a4565b60405180910390fd5b5f60058381548110610dcf57610dce612e5a565b5b905f5260205f20015490505f5f9054906101000a900473ffffffffffffffffffffffffffffffffffffffff1673ffffffffffffffffffffffffffffffffffffffff166323b872dd3330846040518463ffffffff1660e01b8152600401610e3793929190612e87565b6020604051808303815f875af1158015610e53573d5f5f3e3d5ffd5b505050506040513d601f19601f82011682018060405250810190610e779190612ef1565b610eb6576040517f08c379a0000000000000000000000000000000000000000000000000000000008152600401610ead90612f66565b60405180910390fd5b8260025f8481526020019081526020015f206009018190555060018303610f31575f60025f8481526020019081526020015f2060020154905060025f8281526020019081526020015f206008015f815480929190610f1390612fb1565b919050555060095f815480929190610f2a90612fb1565b9190505550505b610f3c828483611cfb565b505050565b60075481565b6729a2241af62c000081565b60045f9054906101000a900473ffffffffffffffffffffffffffffffffffffffff1681565b6103e881565b60065481565b5f5f9054906101000a900473ffffffffffffffffffffffffffffffffffffffff1681565b6001602052805f5260405f205f915090505481565b5f5f5f5f5f5f5f5f60025f8a81526020019081526020015f209050806001015f9054906101000a900473ffffffffffffffffffffffffffffffffffffffff16816002015482600301548360070154846008015485600901548660040154975097509750975097509750975050919395979092949650565b5f6060805f5f60025f8881526020019081526020015f206006015f8781526020019081526020015f209050805f015481600101826002018360030154828054806020026020016040519081016040528092919081815260200182805480156110b957602002820191905f5260205f20905b8154815260200190600101908083116110a5575b505050505092508180548060200260200160405190810160405280929190818152602001828054801561110957602002820191905f5260205f20905b8154815260200190600101908083116110f5575b5050505050915094509450945094505092959194509250565b5f60015f3373ffffffffffffffffffffffffffffffffffffffff1673ffffffffffffffffffffffffffffffffffffffff1681526020019081526020015f205490505f81036111a5576040517f08c379a000000000000000000000000000000000000000000000000000000000815260040161119c906131d4565b60405180910390fd5b600160025f8381526020019081526020015f206009015410156111fd576040517f08c379a00000000000000000000000000000000000000000000000000000000081526004016111f49061330c565b60405180910390fd5b6201518060025f8381526020019081526020015f2060050154611220919061332a565b421015611262576040517f08c379a0000000000000000000000000000000000000000000000000000000008152600401611259906133a7565b60405180910390fd5b678ac7230489e8000060025f8381526020019081526020015f2060040154106112c0576040517f08c379a00000000000000000000000000000000000000000000000000000000081526004016112b79061340f565b60405180910390fd5b5f60065411611304576040517f08c379a00000000000000000000000000000000000000000000000000000000081526004016112fb90613477565b60405180910390fd5b5f60095460065461131591906134c2565b90505f8111611359576040517f08c379a00000000000000000000000000000000000000000000000000000000081526004016113509061353c565b60405180910390fd5b6729a2241af62c0000811115611375576729a2241af62c000090505b678ac7230489e800008160025f8581526020019081526020015f206004015461139e919061332a565b11156113cf5760025f8381526020019081526020015f2060040154678ac7230489e800006113cc91906130c8565b90505b4260025f8481526020019081526020015f20600501819055508060025f8481526020019081526020015f206004015f82825461140b919061332a565b925050819055508060065f82825461142391906130c8565b925050819055505f5f5f9054906101000a900473ffffffffffffffffffffffffffffffffffffffff1673ffffffffffffffffffffffffffffffffffffffff1663a9059cbb33846040518363ffffffff1660e01b81526004016114869291906130fb565b6020604051808303815f875af11580156114a2573d5f5f3e3d5ffd5b505050506040513d601f19601f820116820180604052508101906114c69190612ef1565b905080611508576040517f08c379a00000000000000000000000000000000000000000000000000000000081526004016114ff906135a4565b60405180910390fd5b827f4dc1addc23d21b7b1e4cdde9a7ef0d7b535c1d7c2156df4abdcf306c9a79174c836040516115389190612a02565b60405180910390a2505050565b60045f9054906101000a900473ffffffffffffffffffffffffffffffffffffffff1673ffffffffffffffffffffffffffffffffffffffff163373ffffffffffffffffffffffffffffffffffffffff16146115d4576040517f08c379a00000000000000000000000000000000000000000000000000000000081526004016115cb90613042565b60405180910390fd5b5f6006546007546115e5919061332a565b90505f5f5f9054906101000a900473ffffffffffffffffffffffffffffffffffffffff1673ffffffffffffffffffffffffffffffffffffffff166370a08231306040518263ffffffff1660e01b81526004016116419190612ae5565b602060405180830381865afa15801561165c573d5f5f3e3d5ffd5b505050506040513d601f19601f8201168201806040525081019061168091906135d6565b9050818111156116ea575f828261169791906130c8565b90508060075f8282546116aa919061332a565b925050819055507f1e2a45ecb3dcf528dd38ba1f2a869b557ebce43d5035a1471745e0bb4272147d816040516116e0919061364b565b60405180910390a1505b5050565b60095481565b60045f9054906101000a900473ffffffffffffffffffffffffffffffffffffffff1673ffffffffffffffffffffffffffffffffffffffff163373ffffffffffffffffffffffffffffffffffffffff1614611783576040517f08c379a000000000000000000000000000000000000000000000000000000000815260040161177a906136c1565b60405180910390fd5b5f60025f8481526020019081526020015f205f0154036117d8576040517f08c379a00000000000000000000000000000000000000000000000000000000081526004016117cf90613729565b60405180910390fd5b600181101580156117ea5750600a8111155b611829576040517f08c379a00000000000000000000000000000000000000000000000000000000081526004016118209061323c565b60405180910390fd5b5f60025f8481526020019081526020015f206009015414801561184d575060018110155b156118ac575f60025f8481526020019081526020015f2060020154905060025f8281526020019081526020015f206008015f81548092919061188e90612fb1565b919050555060095f8154809291906118a590612fb1565b9190505550505b8060025f8481526020019081526020015f20600901819055505f600582815481106118da576118d9612e5a565b5b905f5260205f20015490505f612710610d05836118f79190613747565b61190191906134c2565b90505f61192260025f8781526020019081526020015f206002015485612000565b9050807f84d59367f51ac1996d0fd634ec79c866d4b5e5aa446013eebc4f1090e19236d68360405161195491906137d2565b60405180910390a2847ffaa1c1a520c0ae879572f170d29e7789d9914069ca5e57d63d68054661336d618560405161198c9190612a02565b60405180910390a25050505050565b60045f9054906101000a900473ffffffffffffffffffffffffffffffffffffffff1673ffffffffffffffffffffffffffffffffffffffff163373ffffffffffffffffffffffffffffffffffffffff1614611a2a576040517f08c379a0000000000000000000000000000000000000000000000000000000008152600401611a2190613042565b60405180910390fd5b5f73ffffffffffffffffffffffffffffffffffffffff168173ffffffffffffffffffffffffffffffffffffffff1603611a98576040517f08c379a0000000000000000000000000000000000000000000000000000000008152600401611a8f90613848565b60405180910390fd5b5f60015f8373ffffffffffffffffffffffffffffffffffffffff1673ffffffffffffffffffffffffffffffffffffffff1681526020019081526020015f20541480611b2157506103e860015f8373ffffffffffffffffffffffffffffffffffffffff1673ffffffffffffffffffffffffffffffffffffffff1681526020019081526020015f2054145b611b60576040517f08c379a0000000000000000000000000000000000000000000000000000000008152600401611b57906138b0565b60405180910390fd5b5f60045f9054906101000a900473ffffffffffffffffffffffffffffffffffffffff1690508160045f6101000a81548173ffffffffffffffffffffffffffffffffffffffff021916908373ffffffffffffffffffffffffffffffffffffffff1602179055508160025f6103e881526020019081526020015f206001015f6101000a81548173ffffffffffffffffffffffffffffffffffffffff021916908373ffffffffffffffffffffffffffffffffffffffff16021790555060015f8273ffffffffffffffffffffffffffffffffffffffff1673ffffffffffffffffffffffffffffffffffffffff1681526020019081526020015f205f90556103e860015f8473ffffffffffffffffffffffffffffffffffffffff1673ffffffffffffffffffffffffffffffffffffffff1681526020019081526020015f20819055508173ffffffffffffffffffffffffffffffffffffffff168173ffffffffffffffffffffffffffffffffffffffff167f8be0079c531659141344cd1fd0a4f28419497f9722a3daafe3b4186f6b6457e060405160405180910390a35050565b5f60025f8581526020019081526020015f2090505f816002015490505f611d228286612000565b90505f612710610d0586611d369190613747565b611d4091906134c2565b9050611d8282826040518060400160405280600e81526020017f4469726563742053706f6e736f7200000000000000000000000000000000000081525061206a565b5f600a81905550611d95878488886122f7565b5f612710610d0587611da79190613747565b611db191906134c2565b90505f600a82611dc191906134c2565b90505f5f90505f8690505f600190505b600a8111611e75575f820315611e75578a60025f8481526020019081526020015f206009015410611e4b57611e3c82856040518060400160405280601181526020017f47656e65726174696f6e2052657761726400000000000000000000000000000081525061206a565b8383611e48919061332a565b92505b60025f8381526020019081526020015f206002015491508080611e6d90612fb1565b915050611dd1565b505f8285611e8391906130c8565b90505f811115611edd578060075f828254611e9e919061332a565b925050819055507f1e2a45ecb3dcf528dd38ba1f2a869b557ebce43d5035a1471745e0bb4272147d81604051611ed49190613918565b60405180910390a15b5f6127106103418c611eef9190613747565b611ef991906134c2565b90508060075f828254611f0c919061332a565b925050819055507f1e2a45ecb3dcf528dd38ba1f2a869b557ebce43d5035a1471745e0bb4272147d81604051611f42919061398e565b60405180910390a15f6127106103428d611f5c9190613747565b611f6691906134c2565b90508060065f828254611f79919061332a565b925050819055507f1e2a45ecb3dcf528dd38ba1f2a869b557ebce43d5035a1471745e0bb4272147d81604051611faf9190613a04565b60405180910390a18c8e7f66635a66d1d0381969092efe5f2f6f55d82de7d629e4341e8cb55304df8f87e08e604051611fe89190612a02565b60405180910390a35050505050505050505050505050565b5f5f8390505b5f811415801561201857506103e88114155b1561205d578260025f8381526020019081526020015f2060090154106120415780915050612064565b60025f8281526020019081526020015f20600201549050612006565b6103e89150505b92915050565b5f8303612077576103e892505b5f60025f8581526020019081526020015f206001015f9054906101000a900473ffffffffffffffffffffffffffffffffffffffff1690505f73ffffffffffffffffffffffffffffffffffffffff168173ffffffffffffffffffffffffffffffffffffffff16148061211357503073ffffffffffffffffffffffffffffffffffffffff168173ffffffffffffffffffffffffffffffffffffffff16145b1561218f578260075f828254612129919061332a565b92505081905550837fab44bc453c004a489f9f8687f4280a881ba62bcd3920e9fa5815b35b7c5cc02d84846040516020016121649190613acc565b604051602081830303815290604052604051612181929190613b35565b60405180910390a2506122f2565b8260025f8681526020019081526020015f206003015f8282546121b2919061332a565b925050819055505f5f5f9054906101000a900473ffffffffffffffffffffffffffffffffffffffff1673ffffffffffffffffffffffffffffffffffffffff1663a9059cbb83866040518363ffffffff1660e01b81526004016122159291906130fb565b6020604051808303815f875af1158015612231573d5f5f3e3d5ffd5b505050506040513d601f19601f820116820180604052508101906122559190612ef1565b9050801561229c57847f84d59367f51ac1996d0fd634ec79c866d4b5e5aa446013eebc4f1090e19236d6858560405161228f929190613b35565b60405180910390a26122ef565b8360075f8282546122ad919061332a565b92505081905550847fab44bc453c004a489f9f8687f4280a881ba62bcd3920e9fa5815b35b7c5cc02d85856040516122e6929190613b35565b60405180910390a25b50505b505050565b5f6123028484612000565b905061231085828585612317565b5050505050565b5f60025f8581526020019081526020015f206006015f8481526020019081526020015f2090505f6127106106838461234f9190613747565b61235991906134c2565b90506002826001018054905010156124c6578160010186908060018154018082558091505060019003905f5260205f20015f90919091909150558460025f8881526020019081526020015f206006015f8681526020019081526020015f205f01819055505f825f015490505f811461247f575f60025f8381526020019081526020015f206006015f8781526020019081526020015f2090508060020188908060018154018082558091505060019003905f5260205f20015f90919091909150556004816002018054905003612438576124338287856126e1565b612479565b61247882846040518060400160405280600d81526020017f4d617472697820496e636f6d650000000000000000000000000000000000000081525061206a565b5b506124c0565b6124bf86836040518060400160405280600d81526020017f4d617472697820496e636f6d650000000000000000000000000000000000000081525061206a565b5b506126d8565b5f826001015f815481106124dd576124dc612e5a565b5b905f5260205f20015490505f83600101600181548110612500576124ff612e5a565b5b905f5260205f20015490505f6002805f8581526020019081526020015f206006015f8981526020019081526020015f20600101805490501015612545578290506125d8565b6002805f8481526020019081526020015f206006015f8981526020019081526020015f2060010180549050101561257e578190506125d7565b8360075f82825461258f919061332a565b925050819055507f1e2a45ecb3dcf528dd38ba1f2a869b557ebce43d5035a1471745e0bb4272147d846040516125c59190613bad565b60405180910390a150505050506126db565b5b60025f8281526020019081526020015f206006015f8881526020019081526020015f2060010189908060018154018082558091505060019003905f5260205f20015f90919091909150558060025f8b81526020019081526020015f206006015f8981526020019081526020015f205f01819055508460020189908060018154018082558091505060019003905f5260205f20015f909190919091505560048560020180549050036126935761268e8888866126e1565b6126d4565b6126d388856040518060400160405280600d81526020017f4d617472697820496e636f6d650000000000000000000000000000000000000081525061206a565b5b5050505b50505b50505050565b5f60025f8581526020019081526020015f206006015f8481526020019081526020015f209050806003015f81548092919061271b90612fb1565b919050555082847fac99621eab4de122ce50be4d7e06a1841167686b9db744457f12d80f5eebedad83600301546040516127559190612a02565b60405180910390a35f5f90505b81600101805490508110156127c6575f60025f84600101848154811061278b5761278a612e5a565b5b905f5260205f20015481526020019081526020015f206006015f8681526020019081526020015f205f01819055508080600101915050612762565b505f5f90505b8160020180549050811015612830575f60025f8460020184815481106127f5576127f4612e5a565b5b905f5260205f20015481526020019081526020015f206006015f8681526020019081526020015f205f018190555080806001019150506127cc565b50806001015f6128409190612958565b806002015f61284f9190612958565b6103e884036128ad578160075f828254612869919061332a565b925050819055507f1e2a45ecb3dcf528dd38ba1f2a869b557ebce43d5035a1471745e0bb4272147d8260405161289f9190613c23565b60405180910390a150612953565b600a5f8154809291906128bf90612fb1565b91905055506005600a5410612923578160075f8282546128df919061332a565b925050819055507f1e2a45ecb3dcf528dd38ba1f2a869b557ebce43d5035a1471745e0bb4272147d826040516129159190613c99565b60405180910390a150612953565b5f61294260025f8781526020019081526020015f206002015485612000565b905061295085828686612317565b50505b505050565b5080545f8255905f5260205f20908101906129739190612976565b50565b5b8082111561298d575f815f905550600101612977565b5090565b5f5ffd5b5f819050919050565b6129a781612995565b81146129b1575f5ffd5b50565b5f813590506129c28161299e565b92915050565b5f602082840312156129dd576129dc612991565b5b5f6129ea848285016129b4565b91505092915050565b6129fc81612995565b82525050565b5f602082019050612a155f8301846129f3565b92915050565b5f73ffffffffffffffffffffffffffffffffffffffff82169050919050565b5f612a4482612a1b565b9050919050565b612a5481612a3a565b82525050565b5f61012082019050612a6e5f83018c6129f3565b612a7b602083018b612a4b565b612a88604083018a6129f3565b612a9560608301896129f3565b612aa260808301886129f3565b612aaf60a08301876129f3565b612abc60c08301866129f3565b612ac960e08301856129f3565b612ad76101008301846129f3565b9a9950505050505050505050565b5f602082019050612af85f830184612a4b565b92915050565b5f819050919050565b5f612b21612b1c612b1784612a1b565b612afe565b612a1b565b9050919050565b5f612b3282612b07565b9050919050565b5f612b4382612b28565b9050919050565b612b5381612b39565b82525050565b5f602082019050612b6c5f830184612b4a565b92915050565b612b7b81612a3a565b8114612b85575f5ffd5b50565b5f81359050612b9681612b72565b92915050565b5f60208284031215612bb157612bb0612991565b5b5f612bbe84828501612b88565b91505092915050565b5f60e082019050612bda5f83018a612a4b565b612be760208301896129f3565b612bf460408301886129f3565b612c0160608301876129f3565b612c0e60808301866129f3565b612c1b60a08301856129f3565b612c2860c08301846129f3565b98975050505050505050565b5f5f60408385031215612c4a57612c49612991565b5b5f612c57858286016129b4565b9250506020612c68858286016129b4565b9150509250929050565b5f81519050919050565b5f82825260208201905092915050565b5f819050602082019050919050565b612ca481612995565b82525050565b5f612cb58383612c9b565b60208301905092915050565b5f602082019050919050565b5f612cd782612c72565b612ce18185612c7c565b9350612cec83612c8c565b805f5b83811015612d1c578151612d038882612caa565b9750612d0e83612cc1565b925050600181019050612cef565b5085935050505092915050565b5f608082019050612d3c5f8301876129f3565b8181036020830152612d4e8186612ccd565b90508181036040830152612d628185612ccd565b9050612d7160608301846129f3565b95945050505050565b5f82825260208201905092915050565b7f416c7265616479207265676973746572656400000000000000000000000000005f82015250565b5f612dbe601283612d7a565b9150612dc982612d8a565b602082019050919050565b5f6020820190508181035f830152612deb81612db2565b9050919050565b7f496e76616c6964205265666572726572000000000000000000000000000000005f82015250565b5f612e26601083612d7a565b9150612e3182612df2565b602082019050919050565b5f6020820190508181035f830152612e5381612e1a565b9050919050565b7f4e487b71000000000000000000000000000000000000000000000000000000005f52603260045260245ffd5b5f606082019050612e9a5f830186612a4b565b612ea76020830185612a4b565b612eb460408301846129f3565b949350505050565b5f8115159050919050565b612ed081612ebc565b8114612eda575f5ffd5b50565b5f81519050612eeb81612ec7565b92915050565b5f60208284031215612f0657612f05612991565b5b5f612f1384828501612edd565b91505092915050565b7f55534454207472616e73666572206661696c65640000000000000000000000005f82015250565b5f612f50601483612d7a565b9150612f5b82612f1c565b602082019050919050565b5f6020820190508181035f830152612f7d81612f44565b9050919050565b7f4e487b71000000000000000000000000000000000000000000000000000000005f52601160045260245ffd5b5f612fbb82612995565b91507fffffffffffffffffffffffffffffffffffffffffffffffffffffffffffffffff8203612fed57612fec612f84565b5b600182019050919050565b7f41646d696e206f6e6c79000000000000000000000000000000000000000000005f82015250565b5f61302c600a83612d7a565b915061303782612ff8565b602082019050919050565b5f6020820190508181035f83015261305981613020565b9050919050565b7f496e73756666696369656e742066756e647300000000000000000000000000005f82015250565b5f613094601283612d7a565b915061309f82613060565b602082019050919050565b5f6020820190508181035f8301526130c181613088565b9050919050565b5f6130d282612995565b91506130dd83612995565b92508282039050818111156130f5576130f4612f84565b5b92915050565b5f60408201905061310e5f830185612a4b565b61311b60208301846129f3565b9392505050565b7f5769746864726177206661696c656400000000000000000000000000000000005f82015250565b5f613156600f83612d7a565b915061316182613122565b602082019050919050565b5f6020820190508181035f8301526131838161314a565b9050919050565b7f4e6f7420726567697374657265640000000000000000000000000000000000005f82015250565b5f6131be600e83612d7a565b91506131c98261318a565b602082019050919050565b5f6020820190508181035f8301526131eb816131b2565b9050919050565b7f496e76616c6964204c6576656c000000000000000000000000000000000000005f82015250565b5f613226600d83612d7a565b9150613231826131f2565b602082019050919050565b5f6020820190508181035f8301526132538161321a565b9050919050565b7f4275792070726576696f7573206c6576656c20666972737400000000000000005f82015250565b5f61328e601883612d7a565b91506132998261325a565b602082019050919050565b5f6020820190508181035f8301526132bb81613282565b9050919050565b7f4d75737420627579204c6576656c203120746f20636c61696d000000000000005f82015250565b5f6132f6601983612d7a565b9150613301826132c2565b602082019050919050565b5f6020820190508181035f830152613323816132ea565b9050919050565b5f61333482612995565b915061333f83612995565b925082820190508082111561335757613356612f84565b5b92915050565b7f57616974203234680000000000000000000000000000000000000000000000005f82015250565b5f613391600883612d7a565b915061339c8261335d565b602082019050919050565b5f6020820190508181035f8301526133be81613385565b9050919050565b7f4d6178206c696d697420726561636865640000000000000000000000000000005f82015250565b5f6133f9601183612d7a565b9150613404826133c5565b602082019050919050565b5f6020820190508181035f830152613426816133ed565b9050919050565b7f506f6f6c20656d707479000000000000000000000000000000000000000000005f82015250565b5f613461600a83612d7a565b915061346c8261342d565b602082019050919050565b5f6020820190508181035f83015261348e81613455565b9050919050565b7f4e487b71000000000000000000000000000000000000000000000000000000005f52601260045260245ffd5b5f6134cc82612995565b91506134d783612995565b9250826134e7576134e6613495565b5b828204905092915050565b7f436c61696d20616d6f756e7420746f6f20736d616c6c000000000000000000005f82015250565b5f613526601683612d7a565b9150613531826134f2565b602082019050919050565b5f6020820190508181035f8301526135538161351a565b9050919050565b7f55534454205472616e73666572206661696c65640000000000000000000000005f82015250565b5f61358e601483612d7a565b91506135998261355a565b602082019050919050565b5f6020820190508181035f8301526135bb81613582565b9050919050565b5f815190506135d08161299e565b92915050565b5f602082840312156135eb576135ea612991565b5b5f6135f8848285016135c2565b91505092915050565b7f5265636f766572656420537475636b2046756e647300000000000000000000005f82015250565b5f613635601583612d7a565b915061364082613601565b602082019050919050565b5f6040820190508181035f83015261366281613629565b905061367160208301846129f3565b92915050565b7f41646d696e204f6e6c79000000000000000000000000000000000000000000005f82015250565b5f6136ab600a83612d7a565b91506136b682613677565b602082019050919050565b5f6020820190508181035f8301526136d88161369f565b9050919050565b7f55736572206e6f7420666f756e640000000000000000000000000000000000005f82015250565b5f613713600e83612d7a565b915061371e826136df565b602082019050919050565b5f6020820190508181035f83015261374081613707565b9050919050565b5f61375182612995565b915061375c83612995565b925082820261376a81612995565b9150828204841483151761378157613780612f84565b5b5092915050565b7f4469726563742053706f6e736f722028546573742900000000000000000000005f82015250565b5f6137bc601583612d7a565b91506137c782613788565b602082019050919050565b5f6040820190506137e55f8301846129f3565b81810360208301526137f6816137b0565b905092915050565b7f496e76616c6964206164647265737300000000000000000000000000000000005f82015250565b5f613832600f83612d7a565b915061383d826137fe565b602082019050919050565b5f6020820190508181035f83015261385f81613826565b9050919050565b7f4164647265737320616c726561647920726567697374657265640000000000005f82015250565b5f61389a601a83612d7a565b91506138a582613866565b602082019050919050565b5f6020820190508181035f8301526138c78161388e565b9050919050565b7f556e636c61696d65642047656e65726174696f6e2052657761726473000000005f82015250565b5f613902601c83612d7a565b915061390d826138ce565b602082019050919050565b5f6040820190508181035f83015261392f816138f6565b905061393e60208301846129f3565b92915050565b7f526f79616c74792046756e6400000000000000000000000000000000000000005f82015250565b5f613978600c83612d7a565b915061398382613944565b602082019050919050565b5f6040820190508181035f8301526139a58161396c565b90506139b460208301846129f3565b92915050565b7f5a65726f205269736b2046756e640000000000000000000000000000000000005f82015250565b5f6139ee600e83612d7a565b91506139f9826139ba565b602082019050919050565b5f6040820190508181035f830152613a1b816139e2565b9050613a2a60208301846129f3565b92915050565b5f81519050919050565b5f81905092915050565b8281835e5f83830152505050565b5f613a5c82613a30565b613a668185613a3a565b9350613a76818560208601613a44565b80840191505092915050565b7f2028496e76616c696420416464726573732900000000000000000000000000005f82015250565b5f613ab6601283613a3a565b9150613ac182613a82565b601282019050919050565b5f613ad78284613a52565b9150613ae282613aaa565b915081905092915050565b5f601f19601f8301169050919050565b5f613b0782613a30565b613b118185612d7a565b9350613b21818560208601613a44565b613b2a81613aed565b840191505092915050565b5f604082019050613b485f8301856129f3565b8181036020830152613b5a8184613afd565b90509392505050565b7f4d6174726978204f766572666c6f7720536166656361746368000000000000005f82015250565b5f613b97601983612d7a565b9150613ba282613b63565b602082019050919050565b5f6040820190508181035f830152613bc481613b8b565b9050613bd360208301846129f3565b92915050565b7f41646d696e2052656379636c6520496e636f6d650000000000000000000000005f82015250565b5f613c0d601483612d7a565b9150613c1882613bd9565b602082019050919050565b5f6040820190508181035f830152613c3a81613c01565b9050613c4960208301846129f3565b92915050565b7f4d61782052656379636c652044657074682053616665636174636800000000005f82015250565b5f613c83601b83612d7a565b9150613c8e82613c4f565b602082019050919050565b5f6040820190508181035f830152613cb081613c77565b9050613cbf60208301846129f3565b9291505056fea26469706673582212206b353fb20fb34b74bcbc4535e5d5698abc5cdcb9f13e83dc1144339506eeae8664736f6c634300081f0033",
					"opcodes": "PUSH1 0x80 PUSH1 0x40 MSTORE PUSH2 0x3E8 PUSH1 0x3 SSTORE PUSH1 0x40 MLOAD DUP1 PUSH2 0x160 ADD PUSH1 0x40 MSTORE DUP1 PUSH0 PUSH9 0xFFFFFFFFFFFFFFFFFF AND DUP2 MSTORE PUSH1 0x20 ADD PUSH8 0x53444835EC580000 PUSH9 0xFFFFFFFFFFFFFFFFFF AND DUP2 MSTORE PUSH1 0x20 ADD PUSH8 0x8AC7230489E80000 PUSH9 0xFFFFFFFFFFFFFFFFFF AND DUP2 MSTORE PUSH1 0x20 ADD PUSH9 0x1158E460913D00000 PUSH9 0xFFFFFFFFFFFFFFFFFF AND DUP2 MSTORE PUSH1 0x20 ADD PUSH9 0x22B1C8C1227A00000 PUSH9 0xFFFFFFFFFFFFFFFFFF AND DUP2 MSTORE PUSH1 0x20 ADD PUSH9 0x4563918244F400000 PUSH9 0xFFFFFFFFFFFFFFFFFF AND DUP2 MSTORE PUSH1 0x20 ADD PUSH9 0x8AC7230489E800000 PUSH9 0xFFFFFFFFFFFFFFFFFF AND DUP2 MSTORE PUSH1 0x20 ADD PUSH9 0x1158E460913D000000 PUSH9 0xFFFFFFFFFFFFFFFFFF AND DUP2 MSTORE PUSH1 0x20 ADD PUSH9 0x22B1C8C1227A000000 PUSH9 0xFFFFFFFFFFFFFFFFFF AND DUP2 MSTORE PUSH1 0x20 ADD PUSH9 0x4563918244F4000000 PUSH9 0xFFFFFFFFFFFFFFFFFF AND DUP2 MSTORE PUSH1 0x20 ADD PUSH9 0x8AC7230489E8000000 PUSH9 0xFFFFFFFFFFFFFFFFFF AND DUP2 MSTORE POP PUSH1 0x5 SWAP1 PUSH1 0xB PUSH2 0x137 SWAP3 SWAP2 SWAP1 PUSH2 0x327 JUMP JUMPDEST POP CALLVALUE DUP1 ISZERO PUSH2 0x143 JUMPI PUSH0 PUSH0 REVERT JUMPDEST POP PUSH1 0x40 MLOAD PUSH2 0x412B CODESIZE SUB DUP1 PUSH2 0x412B DUP4 CODECOPY DUP2 DUP2 ADD PUSH1 0x40 MSTORE DUP2 ADD SWAP1 PUSH2 0x165 SWAP2 SWAP1 PUSH2 0x3F8 JUMP JUMPDEST CALLER PUSH1 0x4 PUSH0 PUSH2 0x100 EXP DUP2 SLOAD DUP2 PUSH20 0xFFFFFFFFFFFFFFFFFFFFFFFFFFFFFFFFFFFFFFFF MUL NOT AND SWAP1 DUP4 PUSH20 0xFFFFFFFFFFFFFFFFFFFFFFFFFFFFFFFFFFFFFFFF AND MUL OR SWAP1 SSTORE POP DUP1 PUSH0 PUSH0 PUSH2 0x100 EXP DUP2 SLOAD DUP2 PUSH20 0xFFFFFFFFFFFFFFFFFFFFFFFFFFFFFFFFFFFFFFFF MUL NOT AND SWAP1 DUP4 PUSH20 0xFFFFFFFFFFFFFFFFFFFFFFFFFFFFFFFFFFFFFFFF AND MUL OR SWAP1 SSTORE POP PUSH2 0x3E8 PUSH1 0x2 PUSH0 PUSH2 0x3E8 DUP2 MSTORE PUSH1 0x20 ADD SWAP1 DUP2 MSTORE PUSH1 0x20 ADD PUSH0 KECCAK256 PUSH0 ADD DUP2 SWAP1 SSTORE POP PUSH1 0x4 PUSH0 SWAP1 SLOAD SWAP1 PUSH2 0x100 EXP SWAP1 DIV PUSH20 0xFFFFFFFFFFFFFFFFFFFFFFFFFFFFFFFFFFFFFFFF AND PUSH1 0x2 PUSH0 PUSH2 0x3E8 DUP2 MSTORE PUSH1 0x20 ADD SWAP1 DUP2 MSTORE PUSH1 0x20 ADD PUSH0 KECCAK256 PUSH1 0x1 ADD PUSH0 PUSH2 0x100 EXP DUP2 SLOAD DUP2 PUSH20 0xFFFFFFFFFFFFFFFFFFFFFFFFFFFFFFFFFFFFFFFF MUL NOT AND SWAP1 DUP4 PUSH20 0xFFFFFFFFFFFFFFFFFFFFFFFFFFFFFFFFFFFFFFFF AND MUL OR SWAP1 SSTORE POP PUSH0 PUSH1 0x2 PUSH0 PUSH2 0x3E8 DUP2 MSTORE PUSH1 0x20 ADD SWAP1 DUP2 MSTORE PUSH1 0x20 ADD PUSH0 KECCAK256 PUSH1 0x2 ADD DUP2 SWAP1 SSTORE POP PUSH1 0xA PUSH1 0x2 PUSH0 PUSH2 0x3E8 DUP2 MSTORE PUSH1 0x20 ADD SWAP1 DUP2 MSTORE PUSH1 0x20 ADD PUSH0 KECCAK256 PUSH1 0x9 ADD DUP2 SWAP1 SSTORE POP PUSH2 0x3E8 PUSH1 0x1 PUSH0 PUSH1 0x4 PUSH0 SWAP1 SLOAD SWAP1 PUSH2 0x100 EXP SWAP1 DIV PUSH20 0xFFFFFFFFFFFFFFFFFFFFFFFFFFFFFFFFFFFFFFFF AND PUSH20 0xFFFFFFFFFFFFFFFFFFFFFFFFFFFFFFFFFFFFFFFF AND PUSH20 0xFFFFFFFFFFFFFFFFFFFFFFFFFFFFFFFFFFFFFFFF AND DUP2 MSTORE PUSH1 0x20 ADD SWAP1 DUP2 MSTORE PUSH1 0x20 ADD PUSH0 KECCAK256 DUP2 SWAP1 SSTORE POP PUSH1 0x1 PUSH1 0x8 DUP2 SWAP1 SSTORE POP PUSH1 0x1 PUSH1 0x9 DUP2 SWAP1 SSTORE POP POP PUSH2 0x423 JUMP JUMPDEST DUP3 DUP1 SLOAD DUP3 DUP3 SSTORE SWAP1 PUSH0 MSTORE PUSH1 0x20 PUSH0 KECCAK256 SWAP1 DUP2 ADD SWAP3 DUP3 ISZERO PUSH2 0x36E JUMPI SWAP2 PUSH1 0x20 MUL DUP3 ADD JUMPDEST DUP3 DUP2 GT ISZERO PUSH2 0x36D JUMPI DUP3 MLOAD DUP3 SWAP1 PUSH9 0xFFFFFFFFFFFFFFFFFF AND SWAP1 SSTORE SWAP2 PUSH1 0x20 ADD SWAP2 SWAP1 PUSH1 0x1 ADD SWAP1 PUSH2 0x345 JUMP JUMPDEST JUMPDEST POP SWAP1 POP PUSH2 0x37B SWAP2 SWAP1 PUSH2 0x37F JUMP JUMPDEST POP SWAP1 JUMP JUMPDEST JUMPDEST DUP1 DUP3 GT ISZERO PUSH2 0x396 JUMPI PUSH0 DUP2 PUSH0 SWAP1 SSTORE POP PUSH1 0x1 ADD PUSH2 0x380 JUMP JUMPDEST POP SWAP1 JUMP JUMPDEST PUSH0 PUSH0 REVERT JUMPDEST PUSH0 PUSH20 0xFFFFFFFFFFFFFFFFFFFFFFFFFFFFFFFFFFFFFFFF DUP3 AND SWAP1 POP SWAP2 SWAP1 POP JUMP JUMPDEST PUSH0 PUSH2 0x3C7 DUP3 PUSH2 0x39E JUMP JUMPDEST SWAP1 POP SWAP2 SWAP1 POP JUMP JUMPDEST PUSH2 0x3D7 DUP2 PUSH2 0x3BD JUMP JUMPDEST DUP2 EQ PUSH2 0x3E1 JUMPI PUSH0 PUSH0 REVERT JUMPDEST POP JUMP JUMPDEST PUSH0 DUP2 MLOAD SWAP1 POP PUSH2 0x3F2 DUP2 PUSH2 0x3CE JUMP JUMPDEST SWAP3 SWAP2 POP POP JUMP JUMPDEST PUSH0 PUSH1 0x20 DUP3 DUP5 SUB SLT ISZERO PUSH2 0x40D JUMPI PUSH2 0x40C PUSH2 0x39A JUMP JUMPDEST JUMPDEST PUSH0 PUSH2 0x41A DUP5 DUP3 DUP6 ADD PUSH2 0x3E4 JUMP JUMPDEST SWAP2 POP POP SWAP3 SWAP2 POP POP JUMP JUMPDEST PUSH2 0x3CFB DUP1 PUSH2 0x430 PUSH0 CODECOPY PUSH0 RETURN INVALID PUSH1 0x80 PUSH1 0x40 MSTORE CALLVALUE DUP1 ISZERO PUSH2 0xF JUMPI PUSH0 PUSH0 REVERT JUMPDEST POP PUSH1 0x4 CALLDATASIZE LT PUSH2 0x14B JUMPI PUSH0 CALLDATALOAD PUSH1 0xE0 SHR DUP1 PUSH4 0x8DA5CB5B GT PUSH2 0xC1 JUMPI DUP1 PUSH4 0xE4D3CC50 GT PUSH2 0x7A JUMPI DUP1 PUSH4 0xE4D3CC50 EQ PUSH2 0x39B JUMPI DUP1 PUSH4 0xE54189FC EQ PUSH2 0x3CE JUMPI DUP1 PUSH4 0xE80E4C9F EQ PUSH2 0x3D8 JUMPI DUP1 PUSH4 0xE9D9E13F EQ PUSH2 0x3E2 JUMPI DUP1 PUSH4 0xEADADF44 EQ PUSH2 0x400 JUMPI DUP1 PUSH4 0xF2FDE38B EQ PUSH2 0x41C JUMPI PUSH2 0x14B JUMP JUMPDEST DUP1 PUSH4 0x8DA5CB5B EQ PUSH2 0x2BD JUMPI DUP1 PUSH4 0x971A6720 EQ PUSH2 0x2DB JUMPI DUP1 PUSH4 0xA11EE6F8 EQ PUSH2 0x2F9 JUMPI DUP1 PUSH4 0xA98AD46C EQ PUSH2 0x317 JUMPI DUP1 PUSH4 0xCB0E0D7D EQ PUSH2 0x335 JUMPI DUP1 PUSH4 0xD379DADF EQ PUSH2 0x365 JUMPI PUSH2 0x14B JUMP JUMPDEST DUP1 PUSH4 0x3C99092B GT PUSH2 0x113 JUMPI DUP1 PUSH4 0x3C99092B EQ PUSH2 0x20F JUMPI DUP1 PUSH4 0x40F60304 EQ PUSH2 0x22B JUMPI DUP1 PUSH4 0x433FC828 EQ PUSH2 0x247 JUMPI DUP1 PUSH4 0x5396DB9D EQ PUSH2 0x265 JUMPI DUP1 PUSH4 0x5E9B3882 EQ PUSH2 0x281 JUMPI DUP1 PUSH4 0x86E95FDF EQ PUSH2 0x29F JUMPI PUSH2 0x14B JUMP JUMPDEST DUP1 PUSH4 0x20FE8E6E EQ PUSH2 0x14F JUMPI DUP1 PUSH4 0x348D4487 EQ PUSH2 0x17F JUMPI DUP1 PUSH4 0x3516DCD1 EQ PUSH2 0x19D JUMPI DUP1 PUSH4 0x365B98B2 EQ PUSH2 0x1B9 JUMPI DUP1 PUSH4 0x3C7AFCA5 EQ PUSH2 0x1F1 JUMPI JUMPDEST PUSH0 PUSH0 REVERT JUMPDEST PUSH2 0x169 PUSH1 0x4 DUP1 CALLDATASIZE SUB DUP2 ADD SWAP1 PUSH2 0x164 SWAP2 SWAP1 PUSH2 0x29C8 JUMP JUMPDEST PUSH2 0x438 JUMP JUMPDEST PUSH1 0x40 MLOAD PUSH2 0x176 SWAP2 SWAP1 PUSH2 0x2A02 JUMP JUMPDEST PUSH1 0x40 MLOAD DUP1 SWAP2 SUB SWAP1 RETURN JUMPDEST PUSH2 0x187 PUSH2 0x458 JUMP JUMPDEST PUSH1 0x40 MLOAD PUSH2 0x194 SWAP2 SWAP1 PUSH2 0x2A02 JUMP JUMPDEST PUSH1 0x40 MLOAD DUP1 SWAP2 SUB SWAP1 RETURN JUMPDEST PUSH2 0x1B7 PUSH1 0x4 DUP1 CALLDATASIZE SUB DUP2 ADD SWAP1 PUSH2 0x1B2 SWAP2 SWAP1 PUSH2 0x29C8 JUMP JUMPDEST PUSH2 0x45E JUMP JUMPDEST STOP JUMPDEST PUSH2 0x1D3 PUSH1 0x4 DUP1 CALLDATASIZE SUB DUP2 ADD SWAP1 PUSH2 0x1CE SWAP2 SWAP1 PUSH2 0x29C8 JUMP JUMPDEST PUSH2 0x80B JUMP JUMPDEST PUSH1 0x40 MLOAD PUSH2 0x1E8 SWAP10 SWAP9 SWAP8 SWAP7 SWAP6 SWAP5 SWAP4 SWAP3 SWAP2 SWAP1 PUSH2 0x2A5A JUMP JUMPDEST PUSH1 0x40 MLOAD DUP1 SWAP2 SUB SWAP1 RETURN JUMPDEST PUSH2 0x1F9 PUSH2 0x874 JUMP JUMPDEST PUSH1 0x40 MLOAD PUSH2 0x206 SWAP2 SWAP1 PUSH2 0x2A02 JUMP JUMPDEST PUSH1 0x40 MLOAD DUP1 SWAP2 SUB SWAP1 RETURN JUMPDEST PUSH2 0x229 PUSH1 0x4 DUP1 CALLDATASIZE SUB DUP2 ADD SWAP1 PUSH2 0x224 SWAP2 SWAP1 PUSH2 0x29C8 JUMP JUMPDEST PUSH2 0x87A JUMP JUMPDEST STOP JUMPDEST PUSH2 0x245 PUSH1 0x4 DUP1 CALLDATASIZE SUB DUP2 ADD SWAP1 PUSH2 0x240 SWAP2 SWAP1 PUSH2 0x29C8 JUMP JUMPDEST PUSH2 0xA89 JUMP JUMPDEST STOP JUMPDEST PUSH2 0x24F PUSH2 0xC78 JUMP JUMPDEST PUSH1 0x40 MLOAD PUSH2 0x25C SWAP2 SWAP1 PUSH2 0x2A02 JUMP JUMPDEST PUSH1 0x40 MLOAD DUP1 SWAP2 SUB SWAP1 RETURN JUMPDEST PUSH2 0x27F PUSH1 0x4 DUP1 CALLDATASIZE SUB DUP2 ADD SWAP1 PUSH2 0x27A SWAP2 SWAP1 PUSH2 0x29C8 JUMP JUMPDEST PUSH2 0xC84 JUMP JUMPDEST STOP JUMPDEST PUSH2 0x289 PUSH2 0xF41 JUMP JUMPDEST PUSH1 0x40 MLOAD PUSH2 0x296 SWAP2 SWAP1 PUSH2 0x2A02 JUMP JUMPDEST PUSH1 0x40 MLOAD DUP1 SWAP2 SUB SWAP1 RETURN JUMPDEST PUSH2 0x2A7 PUSH2 0xF47 JUMP JUMPDEST PUSH1 0x40 MLOAD PUSH2 0x2B4 SWAP2 SWAP1 PUSH2 0x2A02 JUMP JUMPDEST PUSH1 0x40 MLOAD DUP1 SWAP2 SUB SWAP1 RETURN JUMPDEST PUSH2 0x2C5 PUSH2 0xF53 JUMP JUMPDEST PUSH1 0x40 MLOAD PUSH2 0x2D2 SWAP2 SWAP1 PUSH2 0x2AE5 JUMP JUMPDEST PUSH1 0x40 MLOAD DUP1 SWAP2 SUB SWAP1 RETURN JUMPDEST PUSH2 0x2E3 PUSH2 0xF78 JUMP JUMPDEST PUSH1 0x40 MLOAD PUSH2 0x2F0 SWAP2 SWAP1 PUSH2 0x2A02 JUMP JUMPDEST PUSH1 0x40 MLOAD DUP1 SWAP2 SUB SWAP1 RETURN JUMPDEST PUSH2 0x301 PUSH2 0xF7E JUMP JUMPDEST PUSH1 0x40 MLOAD PUSH2 0x30E SWAP2 SWAP1 PUSH2 0x2A02 JUMP JUMPDEST PUSH1 0x40 MLOAD DUP1 SWAP2 SUB SWAP1 RETURN JUMPDEST PUSH2 0x31F PUSH2 0xF84 JUMP JUMPDEST PUSH1 0x40 MLOAD PUSH2 0x32C SWAP2 SWAP1 PUSH2 0x2B59 JUMP JUMPDEST PUSH1 0x40 MLOAD DUP1 SWAP2 SUB SWAP1 RETURN JUMPDEST PUSH2 0x34F PUSH1 0x4 DUP1 CALLDATASIZE SUB DUP2 ADD SWAP1 PUSH2 0x34A SWAP2 SWAP1 PUSH2 0x2B9C JUMP JUMPDEST PUSH2 0xFA8 JUMP JUMPDEST PUSH1 0x40 MLOAD PUSH2 0x35C SWAP2 SWAP1 PUSH2 0x2A02 JUMP JUMPDEST PUSH1 0x40 MLOAD DUP1 SWAP2 SUB SWAP1 RETURN JUMPDEST PUSH2 0x37F PUSH1 0x4 DUP1 CALLDATASIZE SUB DUP2 ADD SWAP1 PUSH2 0x37A SWAP2 SWAP1 PUSH2 0x29C8 JUMP JUMPDEST PUSH2 0xFBD JUMP JUMPDEST PUSH1 0x40 MLOAD PUSH2 0x392 SWAP8 SWAP7 SWAP6 SWAP5 SWAP4 SWAP3 SWAP2 SWAP1 PUSH2 0x2BC7 JUMP JUMPDEST PUSH1 0x40 MLOAD DUP1 SWAP2 SUB SWAP1 RETURN JUMPDEST PUSH2 0x3B5 PUSH1 0x4 DUP1 CALLDATASIZE SUB DUP2 ADD SWAP1 PUSH2 0x3B0 SWAP2 SWAP1 PUSH2 0x2C34 JUMP JUMPDEST PUSH2 0x1034 JUMP JUMPDEST PUSH1 0x40 MLOAD PUSH2 0x3C5 SWAP5 SWAP4 SWAP3 SWAP2 SWAP1 PUSH2 0x2D29 JUMP JUMPDEST PUSH1 0x40 MLOAD DUP1 SWAP2 SUB SWAP1 RETURN JUMPDEST PUSH2 0x3D6 PUSH2 0x1122 JUMP JUMPDEST STOP JUMPDEST PUSH2 0x3E0 PUSH2 0x1545 JUMP JUMPDEST STOP JUMPDEST PUSH2 0x3EA PUSH2 0x16EE JUMP JUMPDEST PUSH1 0x40 MLOAD PUSH2 0x3F7 SWAP2 SWAP1 PUSH2 0x2A02 JUMP JUMPDEST PUSH1 0x40 MLOAD DUP1 SWAP2 SUB SWAP1 RETURN JUMPDEST PUSH2 0x41A PUSH1 0x4 DUP1 CALLDATASIZE SUB DUP2 ADD SWAP1 PUSH2 0x415 SWAP2 SWAP1 PUSH2 0x2C34 JUMP JUMPDEST PUSH2 0x16F4 JUMP JUMPDEST STOP JUMPDEST PUSH2 0x436 PUSH1 0x4 DUP1 CALLDATASIZE SUB DUP2 ADD SWAP1 PUSH2 0x431 SWAP2 SWAP1 PUSH2 0x2B9C JUMP JUMPDEST PUSH2 0x199B JUMP JUMPDEST STOP JUMPDEST PUSH1 0x5 DUP2 DUP2 SLOAD DUP2 LT PUSH2 0x447 JUMPI PUSH0 DUP1 REVERT JUMPDEST SWAP1 PUSH0 MSTORE PUSH1 0x20 PUSH0 KECCAK256 ADD PUSH0 SWAP2 POP SWAP1 POP SLOAD DUP2 JUMP JUMPDEST PUSH1 0x3 SLOAD DUP2 JUMP JUMPDEST PUSH0 PUSH1 0x1 PUSH0 CALLER PUSH20 0xFFFFFFFFFFFFFFFFFFFFFFFFFFFFFFFFFFFFFFFF AND PUSH20 0xFFFFFFFFFFFFFFFFFFFFFFFFFFFFFFFFFFFFFFFF AND DUP2 MSTORE PUSH1 0x20 ADD SWAP1 DUP2 MSTORE PUSH1 0x20 ADD PUSH0 KECCAK256 SLOAD EQ PUSH2 0x4DD JUMPI PUSH1 0x40 MLOAD PUSH32 0x8C379A000000000000000000000000000000000000000000000000000000000 DUP2 MSTORE PUSH1 0x4 ADD PUSH2 0x4D4 SWAP1 PUSH2 0x2DD4 JUMP JUMPDEST PUSH1 0x40 MLOAD DUP1 SWAP2 SUB SWAP1 REVERT JUMPDEST PUSH0 PUSH1 0x2 PUSH0 DUP4 DUP2 MSTORE PUSH1 0x20 ADD SWAP1 DUP2 MSTORE PUSH1 0x20 ADD PUSH0 KECCAK256 PUSH0 ADD SLOAD SUB PUSH2 0x532 JUMPI PUSH1 0x40 MLOAD PUSH32 0x8C379A000000000000000000000000000000000000000000000000000000000 DUP2 MSTORE PUSH1 0x4 ADD PUSH2 0x529 SWAP1 PUSH2 0x2E3C JUMP JUMPDEST PUSH1 0x40 MLOAD DUP1 SWAP2 SUB SWAP1 REVERT JUMPDEST PUSH0 PUSH1 0x5 PUSH1 0x1 DUP2 SLOAD DUP2 LT PUSH2 0x548 JUMPI PUSH2 0x547 PUSH2 0x2E5A JUMP JUMPDEST JUMPDEST SWAP1 PUSH0 MSTORE PUSH1 0x20 PUSH0 KECCAK256 ADD SLOAD SWAP1 POP PUSH0 PUSH0 SWAP1 SLOAD SWAP1 PUSH2 0x100 EXP SWAP1 DIV PUSH20 0xFFFFFFFFFFFFFFFFFFFFFFFFFFFFFFFFFFFFFFFF AND PUSH20 0xFFFFFFFFFFFFFFFFFFFFFFFFFFFFFFFFFFFFFFFF AND PUSH4 0x23B872DD CALLER ADDRESS DUP5 PUSH1 0x40 MLOAD DUP5 PUSH4 0xFFFFFFFF AND PUSH1 0xE0 SHL DUP2 MSTORE PUSH1 0x4 ADD PUSH2 0x5B0 SWAP4 SWAP3 SWAP2 SWAP1 PUSH2 0x2E87 JUMP JUMPDEST PUSH1 0x20 PUSH1 0x40 MLOAD DUP1 DUP4 SUB DUP2 PUSH0 DUP8 GAS CALL ISZERO DUP1 ISZERO PUSH2 0x5CC JUMPI RETURNDATASIZE PUSH0 PUSH0 RETURNDATACOPY RETURNDATASIZE PUSH0 REVERT JUMPDEST POP POP POP POP PUSH1 0x40 MLOAD RETURNDATASIZE PUSH1 0x1F NOT PUSH1 0x1F DUP3 ADD AND DUP3 ADD DUP1 PUSH1 0x40 MSTORE POP DUP2 ADD SWAP1 PUSH2 0x5F0 SWAP2 SWAP1 PUSH2 0x2EF1 JUMP JUMPDEST PUSH2 0x62F JUMPI PUSH1 0x40 MLOAD PUSH32 0x8C379A000000000000000000000000000000000000000000000000000000000 DUP2 MSTORE PUSH1 0x4 ADD PUSH2 0x626 SWAP1 PUSH2 0x2F66 JUMP JUMPDEST PUSH1 0x40 MLOAD DUP1 SWAP2 SUB SWAP1 REVERT JUMPDEST PUSH1 0x3 PUSH0 DUP2 SLOAD DUP1 SWAP3 SWAP2 SWAP1 PUSH2 0x641 SWAP1 PUSH2 0x2FB1 JUMP JUMPDEST SWAP2 SWAP1 POP SSTORE POP PUSH0 PUSH1 0x3 SLOAD SWAP1 POP DUP1 PUSH1 0x2 PUSH0 DUP4 DUP2 MSTORE PUSH1 0x20 ADD SWAP1 DUP2 MSTORE PUSH1 0x20 ADD PUSH0 KECCAK256 PUSH0 ADD DUP2 SWAP1 SSTORE POP CALLER PUSH1 0x2 PUSH0 DUP4 DUP2 MSTORE PUSH1 0x20 ADD SWAP1 DUP2 MSTORE PUSH1 0x20 ADD PUSH0 KECCAK256 PUSH1 0x1 ADD PUSH0 PUSH2 0x100 EXP DUP2 SLOAD DUP2 PUSH20 0xFFFFFFFFFFFFFFFFFFFFFFFFFFFFFFFFFFFFFFFF MUL NOT AND SWAP1 DUP4 PUSH20 0xFFFFFFFFFFFFFFFFFFFFFFFFFFFFFFFFFFFFFFFF AND MUL OR SWAP1 SSTORE POP DUP3 PUSH1 0x2 PUSH0 DUP4 DUP2 MSTORE PUSH1 0x20 ADD SWAP1 DUP2 MSTORE PUSH1 0x20 ADD PUSH0 KECCAK256 PUSH1 0x2 ADD DUP2 SWAP1 SSTORE POP PUSH1 0x1 PUSH1 0x2 PUSH0 DUP4 DUP2 MSTORE PUSH1 0x20 ADD SWAP1 DUP2 MSTORE PUSH1 0x20 ADD PUSH0 KECCAK256 PUSH1 0x9 ADD DUP2 SWAP1 SSTORE POP DUP1 PUSH1 0x1 PUSH0 CALLER PUSH20 0xFFFFFFFFFFFFFFFFFFFFFFFFFFFFFFFFFFFFFFFF AND PUSH20 0xFFFFFFFFFFFFFFFFFFFFFFFFFFFFFFFFFFFFFFFF AND DUP2 MSTORE PUSH1 0x20 ADD SWAP1 DUP2 MSTORE PUSH1 0x20 ADD PUSH0 KECCAK256 DUP2 SWAP1 SSTORE POP PUSH1 0x2 PUSH0 DUP5 DUP2 MSTORE PUSH1 0x20 ADD SWAP1 DUP2 MSTORE PUSH1 0x20 ADD PUSH0 KECCAK256 PUSH1 0x7 ADD PUSH0 DUP2 SLOAD DUP1 SWAP3 SWAP2 SWAP1 PUSH2 0x74F SWAP1 PUSH2 0x2FB1 JUMP JUMPDEST SWAP2 SWAP1 POP SSTORE POP PUSH1 0x2 PUSH0 DUP5 DUP2 MSTORE PUSH1 0x20 ADD SWAP1 DUP2 MSTORE PUSH1 0x20 ADD PUSH0 KECCAK256 PUSH1 0x8 ADD PUSH0 DUP2 SLOAD DUP1 SWAP3 SWAP2 SWAP1 PUSH2 0x778 SWAP1 PUSH2 0x2FB1 JUMP JUMPDEST SWAP2 SWAP1 POP SSTORE POP PUSH1 0x8 PUSH0 DUP2 SLOAD DUP1 SWAP3 SWAP2 SWAP1 PUSH2 0x78F SWAP1 PUSH2 0x2FB1 JUMP JUMPDEST SWAP2 SWAP1 POP SSTORE POP PUSH1 0x9 PUSH0 DUP2 SLOAD DUP1 SWAP3 SWAP2 SWAP1 PUSH2 0x7A6 SWAP1 PUSH2 0x2FB1 JUMP JUMPDEST SWAP2 SWAP1 POP SSTORE POP DUP3 CALLER PUSH20 0xFFFFFFFFFFFFFFFFFFFFFFFFFFFFFFFFFFFFFFFF AND PUSH32 0xD6D8BE58EF6918A4E19027A89943222BC99E02D838BD0B3E41004FD72D7F344 DUP4 PUSH1 0x40 MLOAD PUSH2 0x7F2 SWAP2 SWAP1 PUSH2 0x2A02 JUMP JUMPDEST PUSH1 0x40 MLOAD DUP1 SWAP2 SUB SWAP1 LOG3 PUSH2 0x806 DUP2 PUSH1 0x1 DUP5 PUSH2 0x1CFB JUMP JUMPDEST POP POP POP JUMP JUMPDEST PUSH1 0x2 PUSH1 0x20 MSTORE DUP1 PUSH0 MSTORE PUSH1 0x40 PUSH0 KECCAK256 PUSH0 SWAP2 POP SWAP1 POP DUP1 PUSH0 ADD SLOAD SWAP1 DUP1 PUSH1 0x1 ADD PUSH0 SWAP1 SLOAD SWAP1 PUSH2 0x100 EXP SWAP1 DIV PUSH20 0xFFFFFFFFFFFFFFFFFFFFFFFFFFFFFFFFFFFFFFFF AND SWAP1 DUP1 PUSH1 0x2 ADD SLOAD SWAP1 DUP1 PUSH1 0x3 ADD SLOAD SWAP1 DUP1 PUSH1 0x4 ADD SLOAD SWAP1 DUP1 PUSH1 0x5 ADD SLOAD SWAP1 DUP1 PUSH1 0x7 ADD SLOAD SWAP1 DUP1 PUSH1 0x8 ADD SLOAD SWAP1 DUP1 PUSH1 0x9 ADD SLOAD SWAP1 POP DUP10 JUMP JUMPDEST PUSH1 0x8 SLOAD DUP2 JUMP JUMPDEST PUSH0 PUSH1 0x1 PUSH0 CALLER PUSH20 0xFFFFFFFFFFFFFFFFFFFFFFFFFFFFFFFFFFFFFFFF AND PUSH20 0xFFFFFFFFFFFFFFFFFFFFFFFFFFFFFFFFFFFFFFFF AND DUP2 MSTORE PUSH1 0x20 ADD SWAP1 DUP2 MSTORE PUSH1 0x20 ADD PUSH0 KECCAK256 SLOAD EQ PUSH2 0x8F9 JUMPI PUSH1 0x40 MLOAD PUSH32 0x8C379A000000000000000000000000000000000000000000000000000000000 DUP2 MSTORE PUSH1 0x4 ADD PUSH2 0x8F0 SWAP1 PUSH2 0x2DD4 JUMP JUMPDEST PUSH1 0x40 MLOAD DUP1 SWAP2 SUB SWAP1 REVERT JUMPDEST PUSH2 0x3E8 DUP2 LT DUP1 PUSH2 0x91B JUMPI POP PUSH0 PUSH1 0x2 PUSH0 DUP4 DUP2 MSTORE PUSH1 0x20 ADD SWAP1 DUP2 MSTORE PUSH1 0x20 ADD PUSH0 KECCAK256 PUSH0 ADD SLOAD EQ JUMPDEST ISZERO PUSH2 0x926 JUMPI PUSH2 0x3E8 SWAP1 POP JUMPDEST PUSH1 0x3 PUSH0 DUP2 SLOAD DUP1 SWAP3 SWAP2 SWAP1 PUSH2 0x938 SWAP1 PUSH2 0x2FB1 JUMP JUMPDEST SWAP2 SWAP1 POP SSTORE POP PUSH0 PUSH1 0x3 SLOAD SWAP1 POP PUSH0 PUSH1 0x2 PUSH0 DUP4 DUP2 MSTORE PUSH1 0x20 ADD SWAP1 DUP2 MSTORE PUSH1 0x20 ADD PUSH0 KECCAK256 SWAP1 POP DUP2 DUP2 PUSH0 ADD DUP2 SWAP1 SSTORE POP CALLER DUP2 PUSH1 0x1 ADD PUSH0 PUSH2 0x100 EXP DUP2 SLOAD DUP2 PUSH20 0xFFFFFFFFFFFFFFFFFFFFFFFFFFFFFFFFFFFFFFFF MUL NOT AND SWAP1 DUP4 PUSH20 0xFFFFFFFFFFFFFFFFFFFFFFFFFFFFFFFFFFFFFFFF AND MUL OR SWAP1 SSTORE POP DUP3 DUP2 PUSH1 0x2 ADD DUP2 SWAP1 SSTORE POP PUSH0 DUP2 PUSH1 0x9 ADD DUP2 SWAP1 SSTORE POP DUP2 PUSH1 0x1 PUSH0 CALLER PUSH20 0xFFFFFFFFFFFFFFFFFFFFFFFFFFFFFFFFFFFFFFFF AND PUSH20 0xFFFFFFFFFFFFFFFFFFFFFFFFFFFFFFFFFFFFFFFF AND DUP2 MSTORE PUSH1 0x20 ADD SWAP1 DUP2 MSTORE PUSH1 0x20 ADD PUSH0 KECCAK256 DUP2 SWAP1 SSTORE POP PUSH1 0x2 PUSH0 DUP5 DUP2 MSTORE PUSH1 0x20 ADD SWAP1 DUP2 MSTORE PUSH1 0x20 ADD PUSH0 KECCAK256 PUSH1 0x7 ADD PUSH0 DUP2 SLOAD DUP1 SWAP3 SWAP2 SWAP1 PUSH2 0xA19 SWAP1 PUSH2 0x2FB1 JUMP JUMPDEST SWAP2 SWAP1 POP SSTORE POP PUSH1 0x8 PUSH0 DUP2 SLOAD DUP1 SWAP3 SWAP2 SWAP1 PUSH2 0xA30 SWAP1 PUSH2 0x2FB1 JUMP JUMPDEST SWAP2 SWAP1 POP SSTORE POP DUP3 CALLER PUSH20 0xFFFFFFFFFFFFFFFFFFFFFFFFFFFFFFFFFFFFFFFF AND PUSH32 0xD6D8BE58EF6918A4E19027A89943222BC99E02D838BD0B3E41004FD72D7F344 DUP5 PUSH1 0x40 MLOAD PUSH2 0xA7C SWAP2 SWAP1 PUSH2 0x2A02 JUMP JUMPDEST PUSH1 0x40 MLOAD DUP1 SWAP2 SUB SWAP1 LOG3 POP POP POP JUMP JUMPDEST PUSH1 0x4 PUSH0 SWAP1 SLOAD SWAP1 PUSH2 0x100 EXP SWAP1 DIV PUSH20 0xFFFFFFFFFFFFFFFFFFFFFFFFFFFFFFFFFFFFFFFF AND PUSH20 0xFFFFFFFFFFFFFFFFFFFFFFFFFFFFFFFFFFFFFFFF AND CALLER PUSH20 0xFFFFFFFFFFFFFFFFFFFFFFFFFFFFFFFFFFFFFFFF AND EQ PUSH2 0xB18 JUMPI PUSH1 0x40 MLOAD PUSH32 0x8C379A000000000000000000000000000000000000000000000000000000000 DUP2 MSTORE PUSH1 0x4 ADD PUSH2 0xB0F SWAP1 PUSH2 0x3042 JUMP JUMPDEST PUSH1 0x40 MLOAD DUP1 SWAP2 SUB SWAP1 REVERT JUMPDEST PUSH1 0x7 SLOAD DUP2 GT ISZERO PUSH2 0xB5D JUMPI PUSH1 0x40 MLOAD PUSH32 0x8C379A000000000000000000000000000000000000000000000000000000000 DUP2 MSTORE PUSH1 0x4 ADD PUSH2 0xB54 SWAP1 PUSH2 0x30AA JUMP JUMPDEST PUSH1 0x40 MLOAD DUP1 SWAP2 SUB SWAP1 REVERT JUMPDEST DUP1 PUSH1 0x7 PUSH0 DUP3 DUP3 SLOAD PUSH2 0xB6E SWAP2 SWAP1 PUSH2 0x30C8 JUMP JUMPDEST SWAP3 POP POP DUP2 SWAP1 SSTORE POP PUSH0 PUSH0 PUSH0 SWAP1 SLOAD SWAP1 PUSH2 0x100 EXP SWAP1 DIV PUSH20 0xFFFFFFFFFFFFFFFFFFFFFFFFFFFFFFFFFFFFFFFF AND PUSH20 0xFFFFFFFFFFFFFFFFFFFFFFFFFFFFFFFFFFFFFFFF AND PUSH4 0xA9059CBB PUSH1 0x4 PUSH0 SWAP1 SLOAD SWAP1 PUSH2 0x100 EXP SWAP1 DIV PUSH20 0xFFFFFFFFFFFFFFFFFFFFFFFFFFFFFFFFFFFFFFFF AND DUP5 PUSH1 0x40 MLOAD DUP4 PUSH4 0xFFFFFFFF AND PUSH1 0xE0 SHL DUP2 MSTORE PUSH1 0x4 ADD PUSH2 0xBF2 SWAP3 SWAP2 SWAP1 PUSH2 0x30FB JUMP JUMPDEST PUSH1 0x20 PUSH1 0x40 MLOAD DUP1 DUP4 SUB DUP2 PUSH0 DUP8 GAS CALL ISZERO DUP1 ISZERO PUSH2 0xC0E JUMPI RETURNDATASIZE PUSH0 PUSH0 RETURNDATACOPY RETURNDATASIZE PUSH0 REVERT JUMPDEST POP POP POP POP PUSH1 0x40 MLOAD RETURNDATASIZE PUSH1 0x1F NOT PUSH1 0x1F DUP3 ADD AND DUP3 ADD DUP1 PUSH1 0x40 MSTORE POP DUP2 ADD SWAP1 PUSH2 0xC32 SWAP2 SWAP1 PUSH2 0x2EF1 JUMP JUMPDEST SWAP1 POP DUP1 PUSH2 0xC74 JUMPI PUSH1 0x40 MLOAD PUSH32 0x8C379A000000000000000000000000000000000000000000000000000000000 DUP2 MSTORE PUSH1 0x4 ADD PUSH2 0xC6B SWAP1 PUSH2 0x316C JUMP JUMPDEST PUSH1 0x40 MLOAD DUP1 SWAP2 SUB SWAP1 REVERT JUMPDEST POP POP JUMP JUMPDEST PUSH8 0x8AC7230489E80000 DUP2 JUMP JUMPDEST PUSH0 PUSH1 0x1 PUSH0 CALLER PUSH20 0xFFFFFFFFFFFFFFFFFFFFFFFFFFFFFFFFFFFFFFFF AND PUSH20 0xFFFFFFFFFFFFFFFFFFFFFFFFFFFFFFFFFFFFFFFF AND DUP2 MSTORE PUSH1 0x20 ADD SWAP1 DUP2 MSTORE PUSH1 0x20 ADD PUSH0 KECCAK256 SLOAD SWAP1 POP PUSH0 DUP2 SUB PUSH2 0xD07 JUMPI PUSH1 0x40 MLOAD PUSH32 0x8C379A000000000000000000000000000000000000000000000000000000000 DUP2 MSTORE PUSH1 0x4 ADD PUSH2 0xCFE SWAP1 PUSH2 0x31D4 JUMP JUMPDEST PUSH1 0x40 MLOAD DUP1 SWAP2 SUB SWAP1 REVERT JUMPDEST PUSH1 0x1 DUP3 LT ISZERO DUP1 ISZERO PUSH2 0xD19 JUMPI POP PUSH1 0xA DUP3 GT ISZERO JUMPDEST PUSH2 0xD58 JUMPI PUSH1 0x40 MLOAD PUSH32 0x8C379A000000000000000000000000000000000000000000000000000000000 DUP2 MSTORE PUSH1 0x4 ADD PUSH2 0xD4F SWAP1 PUSH2 0x323C JUMP JUMPDEST PUSH1 0x40 MLOAD DUP1 SWAP2 SUB SWAP1 REVERT JUMPDEST PUSH1 0x1 DUP3 PUSH2 0xD65 SWAP2 SWAP1 PUSH2 0x30C8 JUMP JUMPDEST PUSH1 0x2 PUSH0 DUP4 DUP2 MSTORE PUSH1 0x20 ADD SWAP1 DUP2 MSTORE PUSH1 0x20 ADD PUSH0 KECCAK256 PUSH1 0x9 ADD SLOAD EQ PUSH2 0xDBA JUMPI PUSH1 0x40 MLOAD PUSH32 0x8C379A000000000000000000000000000000000000000000000000000000000 DUP2 MSTORE PUSH1 0x4 ADD PUSH2 0xDB1 SWAP1 PUSH2 0x32A4 JUMP JUMPDEST PUSH1 0x40 MLOAD DUP1 SWAP2 SUB SWAP1 REVERT JUMPDEST PUSH0 PUSH1 0x5 DUP4 DUP2 SLOAD DUP2 LT PUSH2 0xDCF JUMPI PUSH2 0xDCE PUSH2 0x2E5A JUMP JUMPDEST JUMPDEST SWAP1 PUSH0 MSTORE PUSH1 0x20 PUSH0 KECCAK256 ADD SLOAD SWAP1 POP PUSH0 PUSH0 SWAP1 SLOAD SWAP1 PUSH2 0x100 EXP SWAP1 DIV PUSH20 0xFFFFFFFFFFFFFFFFFFFFFFFFFFFFFFFFFFFFFFFF AND PUSH20 0xFFFFFFFFFFFFFFFFFFFFFFFFFFFFFFFFFFFFFFFF AND PUSH4 0x23B872DD CALLER ADDRESS DUP5 PUSH1 0x40 MLOAD DUP5 PUSH4 0xFFFFFFFF AND PUSH1 0xE0 SHL DUP2 MSTORE PUSH1 0x4 ADD PUSH2 0xE37 SWAP4 SWAP3 SWAP2 SWAP1 PUSH2 0x2E87 JUMP JUMPDEST PUSH1 0x20 PUSH1 0x40 MLOAD DUP1 DUP4 SUB DUP2 PUSH0 DUP8 GAS CALL ISZERO DUP1 ISZERO PUSH2 0xE53 JUMPI RETURNDATASIZE PUSH0 PUSH0 RETURNDATACOPY RETURNDATASIZE PUSH0 REVERT JUMPDEST POP POP POP POP PUSH1 0x40 MLOAD RETURNDATASIZE PUSH1 0x1F NOT PUSH1 0x1F DUP3 ADD AND DUP3 ADD DUP1 PUSH1 0x40 MSTORE POP DUP2 ADD SWAP1 PUSH2 0xE77 SWAP2 SWAP1 PUSH2 0x2EF1 JUMP JUMPDEST PUSH2 0xEB6 JUMPI PUSH1 0x40 MLOAD PUSH32 0x8C379A000000000000000000000000000000000000000000000000000000000 DUP2 MSTORE PUSH1 0x4 ADD PUSH2 0xEAD SWAP1 PUSH2 0x2F66 JUMP JUMPDEST PUSH1 0x40 MLOAD DUP1 SWAP2 SUB SWAP1 REVERT JUMPDEST DUP3 PUSH1 0x2 PUSH0 DUP5 DUP2 MSTORE PUSH1 0x20 ADD SWAP1 DUP2 MSTORE PUSH1 0x20 ADD PUSH0 KECCAK256 PUSH1 0x9 ADD DUP2 SWAP1 SSTORE POP PUSH1 0x1 DUP4 SUB PUSH2 0xF31 JUMPI PUSH0 PUSH1 0x2 PUSH0 DUP5 DUP2 MSTORE PUSH1 0x20 ADD SWAP1 DUP2 MSTORE PUSH1 0x20 ADD PUSH0 KECCAK256 PUSH1 0x2 ADD SLOAD SWAP1 POP PUSH1 0x2 PUSH0 DUP3 DUP2 MSTORE PUSH1 0x20 ADD SWAP1 DUP2 MSTORE PUSH1 0x20 ADD PUSH0 KECCAK256 PUSH1 0x8 ADD PUSH0 DUP2 SLOAD DUP1 SWAP3 SWAP2 SWAP1 PUSH2 0xF13 SWAP1 PUSH2 0x2FB1 JUMP JUMPDEST SWAP2 SWAP1 POP SSTORE POP PUSH1 0x9 PUSH0 DUP2 SLOAD DUP1 SWAP3 SWAP2 SWAP1 PUSH2 0xF2A SWAP1 PUSH2 0x2FB1 JUMP JUMPDEST SWAP2 SWAP1 POP SSTORE POP POP JUMPDEST PUSH2 0xF3C DUP3 DUP5 DUP4 PUSH2 0x1CFB JUMP JUMPDEST POP POP POP JUMP JUMPDEST PUSH1 0x7 SLOAD DUP2 JUMP JUMPDEST PUSH8 0x29A2241AF62C0000 DUP2 JUMP JUMPDEST PUSH1 0x4 PUSH0 SWAP1 SLOAD SWAP1 PUSH2 0x100 EXP SWAP1 DIV PUSH20 0xFFFFFFFFFFFFFFFFFFFFFFFFFFFFFFFFFFFFFFFF AND DUP2 JUMP JUMPDEST PUSH2 0x3E8 DUP2 JUMP JUMPDEST PUSH1 0x6 SLOAD DUP2 JUMP JUMPDEST PUSH0 PUSH0 SWAP1 SLOAD SWAP1 PUSH2 0x100 EXP SWAP1 DIV PUSH20 0xFFFFFFFFFFFFFFFFFFFFFFFFFFFFFFFFFFFFFFFF AND DUP2 JUMP JUMPDEST PUSH1 0x1 PUSH1 0x20 MSTORE DUP1 PUSH0 MSTORE PUSH1 0x40 PUSH0 KECCAK256 PUSH0 SWAP2 POP SWAP1 POP SLOAD DUP2 JUMP JUMPDEST PUSH0 PUSH0 PUSH0 PUSH0 PUSH0 PUSH0 PUSH0 PUSH0 PUSH1 0x2 PUSH0 DUP11 DUP2 MSTORE PUSH1 0x20 ADD SWAP1 DUP2 MSTORE PUSH1 0x20 ADD PUSH0 KECCAK256 SWAP1 POP DUP1 PUSH1 0x1 ADD PUSH0 SWAP1 SLOAD SWAP1 PUSH2 0x100 EXP SWAP1 DIV PUSH20 0xFFFFFFFFFFFFFFFFFFFFFFFFFFFFFFFFFFFFFFFF AND DUP2 PUSH1 0x2 ADD SLOAD DUP3 PUSH1 0x3 ADD SLOAD DUP4 PUSH1 0x7 ADD SLOAD DUP5 PUSH1 0x8 ADD SLOAD DUP6 PUSH1 0x9 ADD SLOAD DUP7 PUSH1 0x4 ADD SLOAD SWAP8 POP SWAP8 POP SWAP8 POP SWAP8 POP SWAP8 POP SWAP8 POP SWAP8 POP POP SWAP2 SWAP4 SWAP6 SWAP8 SWAP1 SWAP3 SWAP5 SWAP7 POP JUMP JUMPDEST PUSH0 PUSH1 0x60 DUP1 PUSH0 PUSH0 PUSH1 0x2 PUSH0 DUP9 DUP2 MSTORE PUSH1 0x20 ADD SWAP1 DUP2 MSTORE PUSH1 0x20 ADD PUSH0 KECCAK256 PUSH1 0x6 ADD PUSH0 DUP8 DUP2 MSTORE PUSH1 0x20 ADD SWAP1 DUP2 MSTORE PUSH1 0x20 ADD PUSH0 KECCAK256 SWAP1 POP DUP1 PUSH0 ADD SLOAD DUP2 PUSH1 0x1 ADD DUP3 PUSH1 0x2 ADD DUP4 PUSH1 0x3 ADD SLOAD DUP3 DUP1 SLOAD DUP1 PUSH1 0x20 MUL PUSH1 0x20 ADD PUSH1 0x40 MLOAD SWAP1 DUP2 ADD PUSH1 0x40 MSTORE DUP1 SWAP3 SWAP2 SWAP1 DUP2 DUP2 MSTORE PUSH1 0x20 ADD DUP3 DUP1 SLOAD DUP1 ISZERO PUSH2 0x10B9 JUMPI PUSH1 0x20 MUL DUP3 ADD SWAP2 SWAP1 PUSH0 MSTORE PUSH1 0x20 PUSH0 KECCAK256 SWAP1 JUMPDEST DUP2 SLOAD DUP2 MSTORE PUSH1 0x20 ADD SWAP1 PUSH1 0x1 ADD SWAP1 DUP1 DUP4 GT PUSH2 0x10A5 JUMPI JUMPDEST POP POP POP POP POP SWAP3 POP DUP2 DUP1 SLOAD DUP1 PUSH1 0x20 MUL PUSH1 0x20 ADD PUSH1 0x40 MLOAD SWAP1 DUP2 ADD PUSH1 0x40 MSTORE DUP1 SWAP3 SWAP2 SWAP1 DUP2 DUP2 MSTORE PUSH1 0x20 ADD DUP3 DUP1 SLOAD DUP1 ISZERO PUSH2 0x1109 JUMPI PUSH1 0x20 MUL DUP3 ADD SWAP2 SWAP1 PUSH0 MSTORE PUSH1 0x20 PUSH0 KECCAK256 SWAP1 JUMPDEST DUP2 SLOAD DUP2 MSTORE PUSH1 0x20 ADD SWAP1 PUSH1 0x1 ADD SWAP1 DUP1 DUP4 GT PUSH2 0x10F5 JUMPI JUMPDEST POP POP POP POP POP SWAP2 POP SWAP5 POP SWAP5 POP SWAP5 POP SWAP5 POP POP SWAP3 SWAP6 SWAP2 SWAP5 POP SWAP3 POP JUMP JUMPDEST PUSH0 PUSH1 0x1 PUSH0 CALLER PUSH20 0xFFFFFFFFFFFFFFFFFFFFFFFFFFFFFFFFFFFFFFFF AND PUSH20 0xFFFFFFFFFFFFFFFFFFFFFFFFFFFFFFFFFFFFFFFF AND DUP2 MSTORE PUSH1 0x20 ADD SWAP1 DUP2 MSTORE PUSH1 0x20 ADD PUSH0 KECCAK256 SLOAD SWAP1 POP PUSH0 DUP2 SUB PUSH2 0x11A5 JUMPI PUSH1 0x40 MLOAD PUSH32 0x8C379A000000000000000000000000000000000000000000000000000000000 DUP2 MSTORE PUSH1 0x4 ADD PUSH2 0x119C SWAP1 PUSH2 0x31D4 JUMP JUMPDEST PUSH1 0x40 MLOAD DUP1 SWAP2 SUB SWAP1 REVERT JUMPDEST PUSH1 0x1 PUSH1 0x2 PUSH0 DUP4 DUP2 MSTORE PUSH1 0x20 ADD SWAP1 DUP2 MSTORE PUSH1 0x20 ADD PUSH0 KECCAK256 PUSH1 0x9 ADD SLOAD LT ISZERO PUSH2 0x11FD JUMPI PUSH1 0x40 MLOAD PUSH32 0x8C379A000000000000000000000000000000000000000000000000000000000 DUP2 MSTORE PUSH1 0x4 ADD PUSH2 0x11F4 SWAP1 PUSH2 0x330C JUMP JUMPDEST PUSH1 0x40 MLOAD DUP1 SWAP2 SUB SWAP1 REVERT JUMPDEST PUSH3 0x15180 PUSH1 0x2 PUSH0 DUP4 DUP2 MSTORE PUSH1 0x20 ADD SWAP1 DUP2 MSTORE PUSH1 0x20 ADD PUSH0 KECCAK256 PUSH1 0x5 ADD SLOAD PUSH2 0x1220 SWAP2 SWAP1 PUSH2 0x332A JUMP JUMPDEST TIMESTAMP LT ISZERO PUSH2 0x1262 JUMPI PUSH1 0x40 MLOAD PUSH32 0x8C379A000000000000000000000000000000000000000000000000000000000 DUP2 MSTORE PUSH1 0x4 ADD PUSH2 0x1259 SWAP1 PUSH2 0x33A7 JUMP JUMPDEST PUSH1 0x40 MLOAD DUP1 SWAP2 SUB SWAP1 REVERT JUMPDEST PUSH8 0x8AC7230489E80000 PUSH1 0x2 PUSH0 DUP4 DUP2 MSTORE PUSH1 0x20 ADD SWAP1 DUP2 MSTORE PUSH1 0x20 ADD PUSH0 KECCAK256 PUSH1 0x4 ADD SLOAD LT PUSH2 0x12C0 JUMPI PUSH1 0x40 MLOAD PUSH32 0x8C379A000000000000000000000000000000000000000000000000000000000 DUP2 MSTORE PUSH1 0x4 ADD PUSH2 0x12B7 SWAP1 PUSH2 0x340F JUMP JUMPDEST PUSH1 0x40 MLOAD DUP1 SWAP2 SUB SWAP1 REVERT JUMPDEST PUSH0 PUSH1 0x6 SLOAD GT PUSH2 0x1304 JUMPI PUSH1 0x40 MLOAD PUSH32 0x8C379A000000000000000000000000000000000000000000000000000000000 DUP2 MSTORE PUSH1 0x4 ADD PUSH2 0x12FB SWAP1 PUSH2 0x3477 JUMP JUMPDEST PUSH1 0x40 MLOAD DUP1 SWAP2 SUB SWAP1 REVERT JUMPDEST PUSH0 PUSH1 0x9 SLOAD PUSH1 0x6 SLOAD PUSH2 0x1315 SWAP2 SWAP1 PUSH2 0x34C2 JUMP JUMPDEST SWAP1 POP PUSH0 DUP2 GT PUSH2 0x1359 JUMPI PUSH1 0x40 MLOAD PUSH32 0x8C379A000000000000000000000000000000000000000000000000000000000 DUP2 MSTORE PUSH1 0x4 ADD PUSH2 0x1350 SWAP1 PUSH2 0x353C JUMP JUMPDEST PUSH1 0x40 MLOAD DUP1 SWAP2 SUB SWAP1 REVERT JUMPDEST PUSH8 0x29A2241AF62C0000 DUP2 GT ISZERO PUSH2 0x1375 JUMPI PUSH8 0x29A2241AF62C0000 SWAP1 POP JUMPDEST PUSH8 0x8AC7230489E80000 DUP2 PUSH1 0x2 PUSH0 DUP6 DUP2 MSTORE PUSH1 0x20 ADD SWAP1 DUP2 MSTORE PUSH1 0x20 ADD PUSH0 KECCAK256 PUSH1 0x4 ADD SLOAD PUSH2 0x139E SWAP2 SWAP1 PUSH2 0x332A JUMP JUMPDEST GT ISZERO PUSH2 0x13CF JUMPI PUSH1 0x2 PUSH0 DUP4 DUP2 MSTORE PUSH1 0x20 ADD SWAP1 DUP2 MSTORE PUSH1 0x20 ADD PUSH0 KECCAK256 PUSH1 0x4 ADD SLOAD PUSH8 0x8AC7230489E80000 PUSH2 0x13CC SWAP2 SWAP1 PUSH2 0x30C8 JUMP JUMPDEST SWAP1 POP JUMPDEST TIMESTAMP PUSH1 0x2 PUSH0 DUP5 DUP2 MSTORE PUSH1 0x20 ADD SWAP1 DUP2 MSTORE PUSH1 0x20 ADD PUSH0 KECCAK256 PUSH1 0x5 ADD DUP2 SWAP1 SSTORE POP DUP1 PUSH1 0x2 PUSH0 DUP5 DUP2 MSTORE PUSH1 0x20 ADD SWAP1 DUP2 MSTORE PUSH1 0x20 ADD PUSH0 KECCAK256 PUSH1 0x4 ADD PUSH0 DUP3 DUP3 SLOAD PUSH2 0x140B SWAP2 SWAP1 PUSH2 0x332A JUMP JUMPDEST SWAP3 POP POP DUP2 SWAP1 SSTORE POP DUP1 PUSH1 0x6 PUSH0 DUP3 DUP3 SLOAD PUSH2 0x1423 SWAP2 SWAP1 PUSH2 0x30C8 JUMP JUMPDEST SWAP3 POP POP DUP2 SWAP1 SSTORE POP PUSH0 PUSH0 PUSH0 SWAP1 SLOAD SWAP1 PUSH2 0x100 EXP SWAP1 DIV PUSH20 0xFFFFFFFFFFFFFFFFFFFFFFFFFFFFFFFFFFFFFFFF AND PUSH20 0xFFFFFFFFFFFFFFFFFFFFFFFFFFFFFFFFFFFFFFFF AND PUSH4 0xA9059CBB CALLER DUP5 PUSH1 0x40 MLOAD DUP4 PUSH4 0xFFFFFFFF AND PUSH1 0xE0 SHL DUP2 MSTORE PUSH1 0x4 ADD PUSH2 0x1486 SWAP3 SWAP2 SWAP1 PUSH2 0x30FB JUMP JUMPDEST PUSH1 0x20 PUSH1 0x40 MLOAD DUP1 DUP4 SUB DUP2 PUSH0 DUP8 GAS CALL ISZERO DUP1 ISZERO PUSH2 0x14A2 JUMPI RETURNDATASIZE PUSH0 PUSH0 RETURNDATACOPY RETURNDATASIZE PUSH0 REVERT JUMPDEST POP POP POP POP PUSH1 0x40 MLOAD RETURNDATASIZE PUSH1 0x1F NOT PUSH1 0x1F DUP3 ADD AND DUP3 ADD DUP1 PUSH1 0x40 MSTORE POP DUP2 ADD SWAP1 PUSH2 0x14C6 SWAP2 SWAP1 PUSH2 0x2EF1 JUMP JUMPDEST SWAP1 POP DUP1 PUSH2 0x1508 JUMPI PUSH1 0x40 MLOAD PUSH32 0x8C379A000000000000000000000000000000000000000000000000000000000 DUP2 MSTORE PUSH1 0x4 ADD PUSH2 0x14FF SWAP1 PUSH2 0x35A4 JUMP JUMPDEST PUSH1 0x40 MLOAD DUP1 SWAP2 SUB SWAP1 REVERT JUMPDEST DUP3 PUSH32 0x4DC1ADDC23D21B7B1E4CDDE9A7EF0D7B535C1D7C2156DF4ABDCF306C9A79174C DUP4 PUSH1 0x40 MLOAD PUSH2 0x1538 SWAP2 SWAP1 PUSH2 0x2A02 JUMP JUMPDEST PUSH1 0x40 MLOAD DUP1 SWAP2 SUB SWAP1 LOG2 POP POP POP JUMP JUMPDEST PUSH1 0x4 PUSH0 SWAP1 SLOAD SWAP1 PUSH2 0x100 EXP SWAP1 DIV PUSH20 0xFFFFFFFFFFFFFFFFFFFFFFFFFFFFFFFFFFFFFFFF AND PUSH20 0xFFFFFFFFFFFFFFFFFFFFFFFFFFFFFFFFFFFFFFFF AND CALLER PUSH20 0xFFFFFFFFFFFFFFFFFFFFFFFFFFFFFFFFFFFFFFFF AND EQ PUSH2 0x15D4 JUMPI PUSH1 0x40 MLOAD PUSH32 0x8C379A000000000000000000000000000000000000000000000000000000000 DUP2 MSTORE PUSH1 0x4 ADD PUSH2 0x15CB SWAP1 PUSH2 0x3042 JUMP JUMPDEST PUSH1 0x40 MLOAD DUP1 SWAP2 SUB SWAP1 REVERT JUMPDEST PUSH0 PUSH1 0x6 SLOAD PUSH1 0x7 SLOAD PUSH2 0x15E5 SWAP2 SWAP1 PUSH2 0x332A JUMP JUMPDEST SWAP1 POP PUSH0 PUSH0 PUSH0 SWAP1 SLOAD SWAP1 PUSH2 0x100 EXP SWAP1 DIV PUSH20 0xFFFFFFFFFFFFFFFFFFFFFFFFFFFFFFFFFFFFFFFF AND PUSH20 0xFFFFFFFFFFFFFFFFFFFFFFFFFFFFFFFFFFFFFFFF AND PUSH4 0x70A08231 ADDRESS PUSH1 0x40 MLOAD DUP3 PUSH4 0xFFFFFFFF AND PUSH1 0xE0 SHL DUP2 MSTORE PUSH1 0x4 ADD PUSH2 0x1641 SWAP2 SWAP1 PUSH2 0x2AE5 JUMP JUMPDEST PUSH1 0x20 PUSH1 0x40 MLOAD DUP1 DUP4 SUB DUP2 DUP7 GAS STATICCALL ISZERO DUP1 ISZERO PUSH2 0x165C JUMPI RETURNDATASIZE PUSH0 PUSH0 RETURNDATACOPY RETURNDATASIZE PUSH0 REVERT JUMPDEST POP POP POP POP PUSH1 0x40 MLOAD RETURNDATASIZE PUSH1 0x1F NOT PUSH1 0x1F DUP3 ADD AND DUP3 ADD DUP1 PUSH1 0x40 MSTORE POP DUP2 ADD SWAP1 PUSH2 0x1680 SWAP2 SWAP1 PUSH2 0x35D6 JUMP JUMPDEST SWAP1 POP DUP2 DUP2 GT ISZERO PUSH2 0x16EA JUMPI PUSH0 DUP3 DUP3 PUSH2 0x1697 SWAP2 SWAP1 PUSH2 0x30C8 JUMP JUMPDEST SWAP1 POP DUP1 PUSH1 0x7 PUSH0 DUP3 DUP3 SLOAD PUSH2 0x16AA SWAP2 SWAP1 PUSH2 0x332A JUMP JUMPDEST SWAP3 POP POP DUP2 SWAP1 SSTORE POP PUSH32 0x1E2A45ECB3DCF528DD38BA1F2A869B557EBCE43D5035A1471745E0BB4272147D DUP2 PUSH1 0x40 MLOAD PUSH2 0x16E0 SWAP2 SWAP1 PUSH2 0x364B JUMP JUMPDEST PUSH1 0x40 MLOAD DUP1 SWAP2 SUB SWAP1 LOG1 POP JUMPDEST POP POP JUMP JUMPDEST PUSH1 0x9 SLOAD DUP2 JUMP JUMPDEST PUSH1 0x4 PUSH0 SWAP1 SLOAD SWAP1 PUSH2 0x100 EXP SWAP1 DIV PUSH20 0xFFFFFFFFFFFFFFFFFFFFFFFFFFFFFFFFFFFFFFFF AND PUSH20 0xFFFFFFFFFFFFFFFFFFFFFFFFFFFFFFFFFFFFFFFF AND CALLER PUSH20 0xFFFFFFFFFFFFFFFFFFFFFFFFFFFFFFFFFFFFFFFF AND EQ PUSH2 0x1783 JUMPI PUSH1 0x40 MLOAD PUSH32 0x8C379A000000000000000000000000000000000000000000000000000000000 DUP2 MSTORE PUSH1 0x4 ADD PUSH2 0x177A SWAP1 PUSH2 0x36C1 JUMP JUMPDEST PUSH1 0x40 MLOAD DUP1 SWAP2 SUB SWAP1 REVERT JUMPDEST PUSH0 PUSH1 0x2 PUSH0 DUP5 DUP2 MSTORE PUSH1 0x20 ADD SWAP1 DUP2 MSTORE PUSH1 0x20 ADD PUSH0 KECCAK256 PUSH0 ADD SLOAD SUB PUSH2 0x17D8 JUMPI PUSH1 0x40 MLOAD PUSH32 0x8C379A000000000000000000000000000000000000000000000000000000000 DUP2 MSTORE PUSH1 0x4 ADD PUSH2 0x17CF SWAP1 PUSH2 0x3729 JUMP JUMPDEST PUSH1 0x40 MLOAD DUP1 SWAP2 SUB SWAP1 REVERT JUMPDEST PUSH1 0x1 DUP2 LT ISZERO DUP1 ISZERO PUSH2 0x17EA JUMPI POP PUSH1 0xA DUP2 GT ISZERO JUMPDEST PUSH2 0x1829 JUMPI PUSH1 0x40 MLOAD PUSH32 0x8C379A000000000000000000000000000000000000000000000000000000000 DUP2 MSTORE PUSH1 0x4 ADD PUSH2 0x1820 SWAP1 PUSH2 0x323C JUMP JUMPDEST PUSH1 0x40 MLOAD DUP1 SWAP2 SUB SWAP1 REVERT JUMPDEST PUSH0 PUSH1 0x2 PUSH0 DUP5 DUP2 MSTORE PUSH1 0x20 ADD SWAP1 DUP2 MSTORE PUSH1 0x20 ADD PUSH0 KECCAK256 PUSH1 0x9 ADD SLOAD EQ DUP1 ISZERO PUSH2 0x184D JUMPI POP PUSH1 0x1 DUP2 LT ISZERO JUMPDEST ISZERO PUSH2 0x18AC JUMPI PUSH0 PUSH1 0x2 PUSH0 DUP5 DUP2 MSTORE PUSH1 0x20 ADD SWAP1 DUP2 MSTORE PUSH1 0x20 ADD PUSH0 KECCAK256 PUSH1 0x2 ADD SLOAD SWAP1 POP PUSH1 0x2 PUSH0 DUP3 DUP2 MSTORE PUSH1 0x20 ADD SWAP1 DUP2 MSTORE PUSH1 0x20 ADD PUSH0 KECCAK256 PUSH1 0x8 ADD PUSH0 DUP2 SLOAD DUP1 SWAP3 SWAP2 SWAP1 PUSH2 0x188E SWAP1 PUSH2 0x2FB1 JUMP JUMPDEST SWAP2 SWAP1 POP SSTORE POP PUSH1 0x9 PUSH0 DUP2 SLOAD DUP1 SWAP3 SWAP2 SWAP1 PUSH2 0x18A5 SWAP1 PUSH2 0x2FB1 JUMP JUMPDEST SWAP2 SWAP1 POP SSTORE POP POP JUMPDEST DUP1 PUSH1 0x2 PUSH0 DUP5 DUP2 MSTORE PUSH1 0x20 ADD SWAP1 DUP2 MSTORE PUSH1 0x20 ADD PUSH0 KECCAK256 PUSH1 0x9 ADD DUP2 SWAP1 SSTORE POP PUSH0 PUSH1 0x5 DUP3 DUP2 SLOAD DUP2 LT PUSH2 0x18DA JUMPI PUSH2 0x18D9 PUSH2 0x2E5A JUMP JUMPDEST JUMPDEST SWAP1 PUSH0 MSTORE PUSH1 0x20 PUSH0 KECCAK256 ADD SLOAD SWAP1 POP PUSH0 PUSH2 0x2710 PUSH2 0xD05 DUP4 PUSH2 0x18F7 SWAP2 SWAP1 PUSH2 0x3747 JUMP JUMPDEST PUSH2 0x1901 SWAP2 SWAP1 PUSH2 0x34C2 JUMP JUMPDEST SWAP1 POP PUSH0 PUSH2 0x1922 PUSH1 0x2 PUSH0 DUP8 DUP2 MSTORE PUSH1 0x20 ADD SWAP1 DUP2 MSTORE PUSH1 0x20 ADD PUSH0 KECCAK256 PUSH1 0x2 ADD SLOAD DUP6 PUSH2 0x2000 JUMP JUMPDEST SWAP1 POP DUP1 PUSH32 0x84D59367F51AC1996D0FD634EC79C866D4B5E5AA446013EEBC4F1090E19236D6 DUP4 PUSH1 0x40 MLOAD PUSH2 0x1954 SWAP2 SWAP1 PUSH2 0x37D2 JUMP JUMPDEST PUSH1 0x40 MLOAD DUP1 SWAP2 SUB SWAP1 LOG2 DUP5 PUSH32 0xFAA1C1A520C0AE879572F170D29E7789D9914069CA5E57D63D68054661336D61 DUP6 PUSH1 0x40 MLOAD PUSH2 0x198C SWAP2 SWAP1 PUSH2 0x2A02 JUMP JUMPDEST PUSH1 0x40 MLOAD DUP1 SWAP2 SUB SWAP1 LOG2 POP POP POP POP POP JUMP JUMPDEST PUSH1 0x4 PUSH0 SWAP1 SLOAD SWAP1 PUSH2 0x100 EXP SWAP1 DIV PUSH20 0xFFFFFFFFFFFFFFFFFFFFFFFFFFFFFFFFFFFFFFFF AND PUSH20 0xFFFFFFFFFFFFFFFFFFFFFFFFFFFFFFFFFFFFFFFF AND CALLER PUSH20 0xFFFFFFFFFFFFFFFFFFFFFFFFFFFFFFFFFFFFFFFF AND EQ PUSH2 0x1A2A JUMPI PUSH1 0x40 MLOAD PUSH32 0x8C379A000000000000000000000000000000000000000000000000000000000 DUP2 MSTORE PUSH1 0x4 ADD PUSH2 0x1A21 SWAP1 PUSH2 0x3042 JUMP JUMPDEST PUSH1 0x40 MLOAD DUP1 SWAP2 SUB SWAP1 REVERT JUMPDEST PUSH0 PUSH20 0xFFFFFFFFFFFFFFFFFFFFFFFFFFFFFFFFFFFFFFFF AND DUP2 PUSH20 0xFFFFFFFFFFFFFFFFFFFFFFFFFFFFFFFFFFFFFFFF AND SUB PUSH2 0x1A98 JUMPI PUSH1 0x40 MLOAD PUSH32 0x8C379A000000000000000000000000000000000000000000000000000000000 DUP2 MSTORE PUSH1 0x4 ADD PUSH2 0x1A8F SWAP1 PUSH2 0x3848 JUMP JUMPDEST PUSH1 0x40 MLOAD DUP1 SWAP2 SUB SWAP1 REVERT JUMPDEST PUSH0 PUSH1 0x1 PUSH0 DUP4 PUSH20 0xFFFFFFFFFFFFFFFFFFFFFFFFFFFFFFFFFFFFFFFF AND PUSH20 0xFFFFFFFFFFFFFFFFFFFFFFFFFFFFFFFFFFFFFFFF AND DUP2 MSTORE PUSH1 0x20 ADD SWAP1 DUP2 MSTORE PUSH1 0x20 ADD PUSH0 KECCAK256 SLOAD EQ DUP1 PUSH2 0x1B21 JUMPI POP PUSH2 0x3E8 PUSH1 0x1 PUSH0 DUP4 PUSH20 0xFFFFFFFFFFFFFFFFFFFFFFFFFFFFFFFFFFFFFFFF AND PUSH20 0xFFFFFFFFFFFFFFFFFFFFFFFFFFFFFFFFFFFFFFFF AND DUP2 MSTORE PUSH1 0x20 ADD SWAP1 DUP2 MSTORE PUSH1 0x20 ADD PUSH0 KECCAK256 SLOAD EQ JUMPDEST PUSH2 0x1B60 JUMPI PUSH1 0x40 MLOAD PUSH32 0x8C379A000000000000000000000000000000000000000000000000000000000 DUP2 MSTORE PUSH1 0x4 ADD PUSH2 0x1B57 SWAP1 PUSH2 0x38B0 JUMP JUMPDEST PUSH1 0x40 MLOAD DUP1 SWAP2 SUB SWAP1 REVERT JUMPDEST PUSH0 PUSH1 0x4 PUSH0 SWAP1 SLOAD SWAP1 PUSH2 0x100 EXP SWAP1 DIV PUSH20 0xFFFFFFFFFFFFFFFFFFFFFFFFFFFFFFFFFFFFFFFF AND SWAP1 POP DUP2 PUSH1 0x4 PUSH0 PUSH2 0x100 EXP DUP2 SLOAD DUP2 PUSH20 0xFFFFFFFFFFFFFFFFFFFFFFFFFFFFFFFFFFFFFFFF MUL NOT AND SWAP1 DUP4 PUSH20 0xFFFFFFFFFFFFFFFFFFFFFFFFFFFFFFFFFFFFFFFF AND MUL OR SWAP1 SSTORE POP DUP2 PUSH1 0x2 PUSH0 PUSH2 0x3E8 DUP2 MSTORE PUSH1 0x20 ADD SWAP1 DUP2 MSTORE PUSH1 0x20 ADD PUSH0 KECCAK256 PUSH1 0x1 ADD PUSH0 PUSH2 0x100 EXP DUP2 SLOAD DUP2 PUSH20 0xFFFFFFFFFFFFFFFFFFFFFFFFFFFFFFFFFFFFFFFF MUL NOT AND SWAP1 DUP4 PUSH20 0xFFFFFFFFFFFFFFFFFFFFFFFFFFFFFFFFFFFFFFFF AND MUL OR SWAP1 SSTORE POP PUSH1 0x1 PUSH0 DUP3 PUSH20 0xFFFFFFFFFFFFFFFFFFFFFFFFFFFFFFFFFFFFFFFF AND PUSH20 0xFFFFFFFFFFFFFFFFFFFFFFFFFFFFFFFFFFFFFFFF AND DUP2 MSTORE PUSH1 0x20 ADD SWAP1 DUP2 MSTORE PUSH1 0x20 ADD PUSH0 KECCAK256 PUSH0 SWAP1 SSTORE PUSH2 0x3E8 PUSH1 0x1 PUSH0 DUP5 PUSH20 0xFFFFFFFFFFFFFFFFFFFFFFFFFFFFFFFFFFFFFFFF AND PUSH20 0xFFFFFFFFFFFFFFFFFFFFFFFFFFFFFFFFFFFFFFFF AND DUP2 MSTORE PUSH1 0x20 ADD SWAP1 DUP2 MSTORE PUSH1 0x20 ADD PUSH0 KECCAK256 DUP2 SWAP1 SSTORE POP DUP2 PUSH20 0xFFFFFFFFFFFFFFFFFFFFFFFFFFFFFFFFFFFFFFFF AND DUP2 PUSH20 0xFFFFFFFFFFFFFFFFFFFFFFFFFFFFFFFFFFFFFFFF AND PUSH32 0x8BE0079C531659141344CD1FD0A4F28419497F9722A3DAAFE3B4186F6B6457E0 PUSH1 0x40 MLOAD PUSH1 0x40 MLOAD DUP1 SWAP2 SUB SWAP1 LOG3 POP POP JUMP JUMPDEST PUSH0 PUSH1 0x2 PUSH0 DUP6 DUP2 MSTORE PUSH1 0x20 ADD SWAP1 DUP2 MSTORE PUSH1 0x20 ADD PUSH0 KECCAK256 SWAP1 POP PUSH0 DUP2 PUSH1 0x2 ADD SLOAD SWAP1 POP PUSH0 PUSH2 0x1D22 DUP3 DUP7 PUSH2 0x2000 JUMP JUMPDEST SWAP1 POP PUSH0 PUSH2 0x2710 PUSH2 0xD05 DUP7 PUSH2 0x1D36 SWAP2 SWAP1 PUSH2 0x3747 JUMP JUMPDEST PUSH2 0x1D40 SWAP2 SWAP1 PUSH2 0x34C2 JUMP JUMPDEST SWAP1 POP PUSH2 0x1D82 DUP3 DUP3 PUSH1 0x40 MLOAD DUP1 PUSH1 0x40 ADD PUSH1 0x40 MSTORE DUP1 PUSH1 0xE DUP2 MSTORE PUSH1 0x20 ADD PUSH32 0x4469726563742053706F6E736F72000000000000000000000000000000000000 DUP2 MSTORE POP PUSH2 0x206A JUMP JUMPDEST PUSH0 PUSH1 0xA DUP2 SWAP1 SSTORE POP PUSH2 0x1D95 DUP8 DUP5 DUP9 DUP9 PUSH2 0x22F7 JUMP JUMPDEST PUSH0 PUSH2 0x2710 PUSH2 0xD05 DUP8 PUSH2 0x1DA7 SWAP2 SWAP1 PUSH2 0x3747 JUMP JUMPDEST PUSH2 0x1DB1 SWAP2 SWAP1 PUSH2 0x34C2 JUMP JUMPDEST SWAP1 POP PUSH0 PUSH1 0xA DUP3 PUSH2 0x1DC1 SWAP2 SWAP1 PUSH2 0x34C2 JUMP JUMPDEST SWAP1 POP PUSH0 PUSH0 SWAP1 POP PUSH0 DUP7 SWAP1 POP PUSH0 PUSH1 0x1 SWAP1 POP JUMPDEST PUSH1 0xA DUP2 GT PUSH2 0x1E75 JUMPI PUSH0 DUP3 SUB ISZERO PUSH2 0x1E75 JUMPI DUP11 PUSH1 0x2 PUSH0 DUP5 DUP2 MSTORE PUSH1 0x20 ADD SWAP1 DUP2 MSTORE PUSH1 0x20 ADD PUSH0 KECCAK256 PUSH1 0x9 ADD SLOAD LT PUSH2 0x1E4B JUMPI PUSH2 0x1E3C DUP3 DUP6 PUSH1 0x40 MLOAD DUP1 PUSH1 0x40 ADD PUSH1 0x40 MSTORE DUP1 PUSH1 0x11 DUP2 MSTORE PUSH1 0x20 ADD PUSH32 0x47656E65726174696F6E20526577617264000000000000000000000000000000 DUP2 MSTORE POP PUSH2 0x206A JUMP JUMPDEST DUP4 DUP4 PUSH2 0x1E48 SWAP2 SWAP1 PUSH2 0x332A JUMP JUMPDEST SWAP3 POP JUMPDEST PUSH1 0x2 PUSH0 DUP4 DUP2 MSTORE PUSH1 0x20 ADD SWAP1 DUP2 MSTORE PUSH1 0x20 ADD PUSH0 KECCAK256 PUSH1 0x2 ADD SLOAD SWAP2 POP DUP1 DUP1 PUSH2 0x1E6D SWAP1 PUSH2 0x2FB1 JUMP JUMPDEST SWAP2 POP POP PUSH2 0x1DD1 JUMP JUMPDEST POP PUSH0 DUP3 DUP6 PUSH2 0x1E83 SWAP2 SWAP1 PUSH2 0x30C8 JUMP JUMPDEST SWAP1 POP PUSH0 DUP2 GT ISZERO PUSH2 0x1EDD JUMPI DUP1 PUSH1 0x7 PUSH0 DUP3 DUP3 SLOAD PUSH2 0x1E9E SWAP2 SWAP1 PUSH2 0x332A JUMP JUMPDEST SWAP3 POP POP DUP2 SWAP1 SSTORE POP PUSH32 0x1E2A45ECB3DCF528DD38BA1F2A869B557EBCE43D5035A1471745E0BB4272147D DUP2 PUSH1 0x40 MLOAD PUSH2 0x1ED4 SWAP2 SWAP1 PUSH2 0x3918 JUMP JUMPDEST PUSH1 0x40 MLOAD DUP1 SWAP2 SUB SWAP1 LOG1 JUMPDEST PUSH0 PUSH2 0x2710 PUSH2 0x341 DUP13 PUSH2 0x1EEF SWAP2 SWAP1 PUSH2 0x3747 JUMP JUMPDEST PUSH2 0x1EF9 SWAP2 SWAP1 PUSH2 0x34C2 JUMP JUMPDEST SWAP1 POP DUP1 PUSH1 0x7 PUSH0 DUP3 DUP3 SLOAD PUSH2 0x1F0C SWAP2 SWAP1 PUSH2 0x332A JUMP JUMPDEST SWAP3 POP POP DUP2 SWAP1 SSTORE POP PUSH32 0x1E2A45ECB3DCF528DD38BA1F2A869B557EBCE43D5035A1471745E0BB4272147D DUP2 PUSH1 0x40 MLOAD PUSH2 0x1F42 SWAP2 SWAP1 PUSH2 0x398E JUMP JUMPDEST PUSH1 0x40 MLOAD DUP1 SWAP2 SUB SWAP1 LOG1 PUSH0 PUSH2 0x2710 PUSH2 0x342 DUP14 PUSH2 0x1F5C SWAP2 SWAP1 PUSH2 0x3747 JUMP JUMPDEST PUSH2 0x1F66 SWAP2 SWAP1 PUSH2 0x34C2 JUMP JUMPDEST SWAP1 POP DUP1 PUSH1 0x6 PUSH0 DUP3 DUP3 SLOAD PUSH2 0x1F79 SWAP2 SWAP1 PUSH2 0x332A JUMP JUMPDEST SWAP3 POP POP DUP2 SWAP1 SSTORE POP PUSH32 0x1E2A45ECB3DCF528DD38BA1F2A869B557EBCE43D5035A1471745E0BB4272147D DUP2 PUSH1 0x40 MLOAD PUSH2 0x1FAF SWAP2 SWAP1 PUSH2 0x3A04 JUMP JUMPDEST PUSH1 0x40 MLOAD DUP1 SWAP2 SUB SWAP1 LOG1 DUP13 DUP15 PUSH32 0x66635A66D1D0381969092EFE5F2F6F55D82DE7D629E4341E8CB55304DF8F87E0 DUP15 PUSH1 0x40 MLOAD PUSH2 0x1FE8 SWAP2 SWAP1 PUSH2 0x2A02 JUMP JUMPDEST PUSH1 0x40 MLOAD DUP1 SWAP2 SUB SWAP1 LOG3 POP POP POP POP POP POP POP POP POP POP POP POP POP POP JUMP JUMPDEST PUSH0 PUSH0 DUP4 SWAP1 POP JUMPDEST PUSH0 DUP2 EQ ISZERO DUP1 ISZERO PUSH2 0x2018 JUMPI POP PUSH2 0x3E8 DUP2 EQ ISZERO JUMPDEST ISZERO PUSH2 0x205D JUMPI DUP3 PUSH1 0x2 PUSH0 DUP4 DUP2 MSTORE PUSH1 0x20 ADD SWAP1 DUP2 MSTORE PUSH1 0x20 ADD PUSH0 KECCAK256 PUSH1 0x9 ADD SLOAD LT PUSH2 0x2041 JUMPI DUP1 SWAP2 POP POP PUSH2 0x2064 JUMP JUMPDEST PUSH1 0x2 PUSH0 DUP3 DUP2 MSTORE PUSH1 0x20 ADD SWAP1 DUP2 MSTORE PUSH1 0x20 ADD PUSH0 KECCAK256 PUSH1 0x2 ADD SLOAD SWAP1 POP PUSH2 0x2006 JUMP JUMPDEST PUSH2 0x3E8 SWAP2 POP POP JUMPDEST SWAP3 SWAP2 POP POP JUMP JUMPDEST PUSH0 DUP4 SUB PUSH2 0x2077 JUMPI PUSH2 0x3E8 SWAP3 POP JUMPDEST PUSH0 PUSH1 0x2 PUSH0 DUP6 DUP2 MSTORE PUSH1 0x20 ADD SWAP1 DUP2 MSTORE PUSH1 0x20 ADD PUSH0 KECCAK256 PUSH1 0x1 ADD PUSH0 SWAP1 SLOAD SWAP1 PUSH2 0x100 EXP SWAP1 DIV PUSH20 0xFFFFFFFFFFFFFFFFFFFFFFFFFFFFFFFFFFFFFFFF AND SWAP1 POP PUSH0 PUSH20 0xFFFFFFFFFFFFFFFFFFFFFFFFFFFFFFFFFFFFFFFF AND DUP2 PUSH20 0xFFFFFFFFFFFFFFFFFFFFFFFFFFFFFFFFFFFFFFFF AND EQ DUP1 PUSH2 0x2113 JUMPI POP ADDRESS PUSH20 0xFFFFFFFFFFFFFFFFFFFFFFFFFFFFFFFFFFFFFFFF AND DUP2 PUSH20 0xFFFFFFFFFFFFFFFFFFFFFFFFFFFFFFFFFFFFFFFF AND EQ JUMPDEST ISZERO PUSH2 0x218F JUMPI DUP3 PUSH1 0x7 PUSH0 DUP3 DUP3 SLOAD PUSH2 0x2129 SWAP2 SWAP1 PUSH2 0x332A JUMP JUMPDEST SWAP3 POP POP DUP2 SWAP1 SSTORE POP DUP4 PUSH32 0xAB44BC453C004A489F9F8687F4280A881BA62BCD3920E9FA5815B35B7C5CC02D DUP5 DUP5 PUSH1 0x40 MLOAD PUSH1 0x20 ADD PUSH2 0x2164 SWAP2 SWAP1 PUSH2 0x3ACC JUMP JUMPDEST PUSH1 0x40 MLOAD PUSH1 0x20 DUP2 DUP4 SUB SUB DUP2 MSTORE SWAP1 PUSH1 0x40 MSTORE PUSH1 0x40 MLOAD PUSH2 0x2181 SWAP3 SWAP2 SWAP1 PUSH2 0x3B35 JUMP JUMPDEST PUSH1 0x40 MLOAD DUP1 SWAP2 SUB SWAP1 LOG2 POP PUSH2 0x22F2 JUMP JUMPDEST DUP3 PUSH1 0x2 PUSH0 DUP7 DUP2 MSTORE PUSH1 0x20 ADD SWAP1 DUP2 MSTORE PUSH1 0x20 ADD PUSH0 KECCAK256 PUSH1 0x3 ADD PUSH0 DUP3 DUP3 SLOAD PUSH2 0x21B2 SWAP2 SWAP1 PUSH2 0x332A JUMP JUMPDEST SWAP3 POP POP DUP2 SWAP1 SSTORE POP PUSH0 PUSH0 PUSH0 SWAP1 SLOAD SWAP1 PUSH2 0x100 EXP SWAP1 DIV PUSH20 0xFFFFFFFFFFFFFFFFFFFFFFFFFFFFFFFFFFFFFFFF AND PUSH20 0xFFFFFFFFFFFFFFFFFFFFFFFFFFFFFFFFFFFFFFFF AND PUSH4 0xA9059CBB DUP4 DUP7 PUSH1 0x40 MLOAD DUP4 PUSH4 0xFFFFFFFF AND PUSH1 0xE0 SHL DUP2 MSTORE PUSH1 0x4 ADD PUSH2 0x2215 SWAP3 SWAP2 SWAP1 PUSH2 0x30FB JUMP JUMPDEST PUSH1 0x20 PUSH1 0x40 MLOAD DUP1 DUP4 SUB DUP2 PUSH0 DUP8 GAS CALL ISZERO DUP1 ISZERO PUSH2 0x2231 JUMPI RETURNDATASIZE PUSH0 PUSH0 RETURNDATACOPY RETURNDATASIZE PUSH0 REVERT JUMPDEST POP POP POP POP PUSH1 0x40 MLOAD RETURNDATASIZE PUSH1 0x1F NOT PUSH1 0x1F DUP3 ADD AND DUP3 ADD DUP1 PUSH1 0x40 MSTORE POP DUP2 ADD SWAP1 PUSH2 0x2255 SWAP2 SWAP1 PUSH2 0x2EF1 JUMP JUMPDEST SWAP1 POP DUP1 ISZERO PUSH2 0x229C JUMPI DUP5 PUSH32 0x84D59367F51AC1996D0FD634EC79C866D4B5E5AA446013EEBC4F1090E19236D6 DUP6 DUP6 PUSH1 0x40 MLOAD PUSH2 0x228F SWAP3 SWAP2 SWAP1 PUSH2 0x3B35 JUMP JUMPDEST PUSH1 0x40 MLOAD DUP1 SWAP2 SUB SWAP1 LOG2 PUSH2 0x22EF JUMP JUMPDEST DUP4 PUSH1 0x7 PUSH0 DUP3 DUP3 SLOAD PUSH2 0x22AD SWAP2 SWAP1 PUSH2 0x332A JUMP JUMPDEST SWAP3 POP POP DUP2 SWAP1 SSTORE POP DUP5 PUSH32 0xAB44BC453C004A489F9F8687F4280A881BA62BCD3920E9FA5815B35B7C5CC02D DUP6 DUP6 PUSH1 0x40 MLOAD PUSH2 0x22E6 SWAP3 SWAP2 SWAP1 PUSH2 0x3B35 JUMP JUMPDEST PUSH1 0x40 MLOAD DUP1 SWAP2 SUB SWAP1 LOG2 JUMPDEST POP POP JUMPDEST POP POP POP JUMP JUMPDEST PUSH0 PUSH2 0x2302 DUP5 DUP5 PUSH2 0x2000 JUMP JUMPDEST SWAP1 POP PUSH2 0x2310 DUP6 DUP3 DUP6 DUP6 PUSH2 0x2317 JUMP JUMPDEST POP POP POP POP POP JUMP JUMPDEST PUSH0 PUSH1 0x2 PUSH0 DUP6 DUP2 MSTORE PUSH1 0x20 ADD SWAP1 DUP2 MSTORE PUSH1 0x20 ADD PUSH0 KECCAK256 PUSH1 0x6 ADD PUSH0 DUP5 DUP2 MSTORE PUSH1 0x20 ADD SWAP1 DUP2 MSTORE PUSH1 0x20 ADD PUSH0 KECCAK256 SWAP1 POP PUSH0 PUSH2 0x2710 PUSH2 0x683 DUP5 PUSH2 0x234F SWAP2 SWAP1 PUSH2 0x3747 JUMP JUMPDEST PUSH2 0x2359 SWAP2 SWAP1 PUSH2 0x34C2 JUMP JUMPDEST SWAP1 POP PUSH1 0x2 DUP3 PUSH1 0x1 ADD DUP1 SLOAD SWAP1 POP LT ISZERO PUSH2 0x24C6 JUMPI DUP2 PUSH1 0x1 ADD DUP7 SWAP1 DUP1 PUSH1 0x1 DUP2 SLOAD ADD DUP1 DUP3 SSTORE DUP1 SWAP2 POP POP PUSH1 0x1 SWAP1 SUB SWAP1 PUSH0 MSTORE PUSH1 0x20 PUSH0 KECCAK256 ADD PUSH0 SWAP1 SWAP2 SWAP1 SWAP2 SWAP1 SWAP2 POP SSTORE DUP5 PUSH1 0x2 PUSH0 DUP9 DUP2 MSTORE PUSH1 0x20 ADD SWAP1 DUP2 MSTORE PUSH1 0x20 ADD PUSH0 KECCAK256 PUSH1 0x6 ADD PUSH0 DUP7 DUP2 MSTORE PUSH1 0x20 ADD SWAP1 DUP2 MSTORE PUSH1 0x20 ADD PUSH0 KECCAK256 PUSH0 ADD DUP2 SWAP1 SSTORE POP PUSH0 DUP3 PUSH0 ADD SLOAD SWAP1 POP PUSH0 DUP2 EQ PUSH2 0x247F JUMPI PUSH0 PUSH1 0x2 PUSH0 DUP4 DUP2 MSTORE PUSH1 0x20 ADD SWAP1 DUP2 MSTORE PUSH1 0x20 ADD PUSH0 KECCAK256 PUSH1 0x6 ADD PUSH0 DUP8 DUP2 MSTORE PUSH1 0x20 ADD SWAP1 DUP2 MSTORE PUSH1 0x20 ADD PUSH0 KECCAK256 SWAP1 POP DUP1 PUSH1 0x2 ADD DUP9 SWAP1 DUP1 PUSH1 0x1 DUP2 SLOAD ADD DUP1 DUP3 SSTORE DUP1 SWAP2 POP POP PUSH1 0x1 SWAP1 SUB SWAP1 PUSH0 MSTORE PUSH1 0x20 PUSH0 KECCAK256 ADD PUSH0 SWAP1 SWAP2 SWAP1 SWAP2 SWAP1 SWAP2 POP SSTORE PUSH1 0x4 DUP2 PUSH1 0x2 ADD DUP1 SLOAD SWAP1 POP SUB PUSH2 0x2438 JUMPI PUSH2 0x2433 DUP3 DUP8 DUP6 PUSH2 0x26E1 JUMP JUMPDEST PUSH2 0x2479 JUMP JUMPDEST PUSH2 0x2478 DUP3 DUP5 PUSH1 0x40 MLOAD DUP1 PUSH1 0x40 ADD PUSH1 0x40 MSTORE DUP1 PUSH1 0xD DUP2 MSTORE PUSH1 0x20 ADD PUSH32 0x4D617472697820496E636F6D6500000000000000000000000000000000000000 DUP2 MSTORE POP PUSH2 0x206A JUMP JUMPDEST JUMPDEST POP PUSH2 0x24C0 JUMP JUMPDEST PUSH2 0x24BF DUP7 DUP4 PUSH1 0x40 MLOAD DUP1 PUSH1 0x40 ADD PUSH1 0x40 MSTORE DUP1 PUSH1 0xD DUP2 MSTORE PUSH1 0x20 ADD PUSH32 0x4D617472697820496E636F6D6500000000000000000000000000000000000000 DUP2 MSTORE POP PUSH2 0x206A JUMP JUMPDEST JUMPDEST POP PUSH2 0x26D8 JUMP JUMPDEST PUSH0 DUP3 PUSH1 0x1 ADD PUSH0 DUP2 SLOAD DUP2 LT PUSH2 0x24DD JUMPI PUSH2 0x24DC PUSH2 0x2E5A JUMP JUMPDEST JUMPDEST SWAP1 PUSH0 MSTORE PUSH1 0x20 PUSH0 KECCAK256 ADD SLOAD SWAP1 POP PUSH0 DUP4 PUSH1 0x1 ADD PUSH1 0x1 DUP2 SLOAD DUP2 LT PUSH2 0x2500 JUMPI PUSH2 0x24FF PUSH2 0x2E5A JUMP JUMPDEST JUMPDEST SWAP1 PUSH0 MSTORE PUSH1 0x20 PUSH0 KECCAK256 ADD SLOAD SWAP1 POP PUSH0 PUSH1 0x2 DUP1 PUSH0 DUP6 DUP2 MSTORE PUSH1 0x20 ADD SWAP1 DUP2 MSTORE PUSH1 0x20 ADD PUSH0 KECCAK256 PUSH1 0x6 ADD PUSH0 DUP10 DUP2 MSTORE PUSH1 0x20 ADD SWAP1 DUP2 MSTORE PUSH1 0x20 ADD PUSH0 KECCAK256 PUSH1 0x1 ADD DUP1 SLOAD SWAP1 POP LT ISZERO PUSH2 0x2545 JUMPI DUP3 SWAP1 POP PUSH2 0x25D8 JUMP JUMPDEST PUSH1 0x2 DUP1 PUSH0 DUP5 DUP2 MSTORE PUSH1 0x20 ADD SWAP1 DUP2 MSTORE PUSH1 0x20 ADD PUSH0 KECCAK256 PUSH1 0x6 ADD PUSH0 DUP10 DUP2 MSTORE PUSH1 0x20 ADD SWAP1 DUP2 MSTORE PUSH1 0x20 ADD PUSH0 KECCAK256 PUSH1 0x1 ADD DUP1 SLOAD SWAP1 POP LT ISZERO PUSH2 0x257E JUMPI DUP2 SWAP1 POP PUSH2 0x25D7 JUMP JUMPDEST DUP4 PUSH1 0x7 PUSH0 DUP3 DUP3 SLOAD PUSH2 0x258F SWAP2 SWAP1 PUSH2 0x332A JUMP JUMPDEST SWAP3 POP POP DUP2 SWAP1 SSTORE POP PUSH32 0x1E2A45ECB3DCF528DD38BA1F2A869B557EBCE43D5035A1471745E0BB4272147D DUP5 PUSH1 0x40 MLOAD PUSH2 0x25C5 SWAP2 SWAP1 PUSH2 0x3BAD JUMP JUMPDEST PUSH1 0x40 MLOAD DUP1 SWAP2 SUB SWAP1 LOG1 POP POP POP POP POP PUSH2 0x26DB JUMP JUMPDEST JUMPDEST PUSH1 0x2 PUSH0 DUP3 DUP2 MSTORE PUSH1 0x20 ADD SWAP1 DUP2 MSTORE PUSH1 0x20 ADD PUSH0 KECCAK256 PUSH1 0x6 ADD PUSH0 DUP9 DUP2 MSTORE PUSH1 0x20 ADD SWAP1 DUP2 MSTORE PUSH1 0x20 ADD PUSH0 KECCAK256 PUSH1 0x1 ADD DUP10 SWAP1 DUP1 PUSH1 0x1 DUP2 SLOAD ADD DUP1 DUP3 SSTORE DUP1 SWAP2 POP POP PUSH1 0x1 SWAP1 SUB SWAP1 PUSH0 MSTORE PUSH1 0x20 PUSH0 KECCAK256 ADD PUSH0 SWAP1 SWAP2 SWAP1 SWAP2 SWAP1 SWAP2 POP SSTORE DUP1 PUSH1 0x2 PUSH0 DUP12 DUP2 MSTORE PUSH1 0x20 ADD SWAP1 DUP2 MSTORE PUSH1 0x20 ADD PUSH0 KECCAK256 PUSH1 0x6 ADD PUSH0 DUP10 DUP2 MSTORE PUSH1 0x20 ADD SWAP1 DUP2 MSTORE PUSH1 0x20 ADD PUSH0 KECCAK256 PUSH0 ADD DUP2 SWAP1 SSTORE POP DUP5 PUSH1 0x2 ADD DUP10 SWAP1 DUP1 PUSH1 0x1 DUP2 SLOAD ADD DUP1 DUP3 SSTORE DUP1 SWAP2 POP POP PUSH1 0x1 SWAP1 SUB SWAP1 PUSH0 MSTORE PUSH1 0x20 PUSH0 KECCAK256 ADD PUSH0 SWAP1 SWAP2 SWAP1 SWAP2 SWAP1 SWAP2 POP SSTORE PUSH1 0x4 DUP6 PUSH1 0x2 ADD DUP1 SLOAD SWAP1 POP SUB PUSH2 0x2693 JUMPI PUSH2 0x268E DUP9 DUP9 DUP7 PUSH2 0x26E1 JUMP JUMPDEST PUSH2 0x26D4 JUMP JUMPDEST PUSH2 0x26D3 DUP9 DUP6 PUSH1 0x40 MLOAD DUP1 PUSH1 0x40 ADD PUSH1 0x40 MSTORE DUP1 PUSH1 0xD DUP2 MSTORE PUSH1 0x20 ADD PUSH32 0x4D617472697820496E636F6D6500000000000000000000000000000000000000 DUP2 MSTORE POP PUSH2 0x206A JUMP JUMPDEST JUMPDEST POP POP POP JUMPDEST POP POP JUMPDEST POP POP POP POP JUMP JUMPDEST PUSH0 PUSH1 0x2 PUSH0 DUP6 DUP2 MSTORE PUSH1 0x20 ADD SWAP1 DUP2 MSTORE PUSH1 0x20 ADD PUSH0 KECCAK256 PUSH1 0x6 ADD PUSH0 DUP5 DUP2 MSTORE PUSH1 0x20 ADD SWAP1 DUP2 MSTORE PUSH1 0x20 ADD PUSH0 KECCAK256 SWAP1 POP DUP1 PUSH1 0x3 ADD PUSH0 DUP2 SLOAD DUP1 SWAP3 SWAP2 SWAP1 PUSH2 0x271B SWAP1 PUSH2 0x2FB1 JUMP JUMPDEST SWAP2 SWAP1 POP SSTORE POP DUP3 DUP5 PUSH32 0xAC99621EAB4DE122CE50BE4D7E06A1841167686B9DB744457F12D80F5EEBEDAD DUP4 PUSH1 0x3 ADD SLOAD PUSH1 0x40 MLOAD PUSH2 0x2755 SWAP2 SWAP1 PUSH2 0x2A02 JUMP JUMPDEST PUSH1 0x40 MLOAD DUP1 SWAP2 SUB SWAP1 LOG3 PUSH0 PUSH0 SWAP1 POP JUMPDEST DUP2 PUSH1 0x1 ADD DUP1 SLOAD SWAP1 POP DUP2 LT ISZERO PUSH2 0x27C6 JUMPI PUSH0 PUSH1 0x2 PUSH0 DUP5 PUSH1 0x1 ADD DUP5 DUP2 SLOAD DUP2 LT PUSH2 0x278B JUMPI PUSH2 0x278A PUSH2 0x2E5A JUMP JUMPDEST JUMPDEST SWAP1 PUSH0 MSTORE PUSH1 0x20 PUSH0 KECCAK256 ADD SLOAD DUP2 MSTORE PUSH1 0x20 ADD SWAP1 DUP2 MSTORE PUSH1 0x20 ADD PUSH0 KECCAK256 PUSH1 0x6 ADD PUSH0 DUP7 DUP2 MSTORE PUSH1 0x20 ADD SWAP1 DUP2 MSTORE PUSH1 0x20 ADD PUSH0 KECCAK256 PUSH0 ADD DUP2 SWAP1 SSTORE POP DUP1 DUP1 PUSH1 0x1 ADD SWAP2 POP POP PUSH2 0x2762 JUMP JUMPDEST POP PUSH0 PUSH0 SWAP1 POP JUMPDEST DUP2 PUSH1 0x2 ADD DUP1 SLOAD SWAP1 POP DUP2 LT ISZERO PUSH2 0x2830 JUMPI PUSH0 PUSH1 0x2 PUSH0 DUP5 PUSH1 0x2 ADD DUP5 DUP2 SLOAD DUP2 LT PUSH2 0x27F5 JUMPI PUSH2 0x27F4 PUSH2 0x2E5A JUMP JUMPDEST JUMPDEST SWAP1 PUSH0 MSTORE PUSH1 0x20 PUSH0 KECCAK256 ADD SLOAD DUP2 MSTORE PUSH1 0x20 ADD SWAP1 DUP2 MSTORE PUSH1 0x20 ADD PUSH0 KECCAK256 PUSH1 0x6 ADD PUSH0 DUP7 DUP2 MSTORE PUSH1 0x20 ADD SWAP1 DUP2 MSTORE PUSH1 0x20 ADD PUSH0 KECCAK256 PUSH0 ADD DUP2 SWAP1 SSTORE POP DUP1 DUP1 PUSH1 0x1 ADD SWAP2 POP POP PUSH2 0x27CC JUMP JUMPDEST POP DUP1 PUSH1 0x1 ADD PUSH0 PUSH2 0x2840 SWAP2 SWAP1 PUSH2 0x2958 JUMP JUMPDEST DUP1 PUSH1 0x2 ADD PUSH0 PUSH2 0x284F SWAP2 SWAP1 PUSH2 0x2958 JUMP JUMPDEST PUSH2 0x3E8 DUP5 SUB PUSH2 0x28AD JUMPI DUP2 PUSH1 0x7 PUSH0 DUP3 DUP3 SLOAD PUSH2 0x2869 SWAP2 SWAP1 PUSH2 0x332A JUMP JUMPDEST SWAP3 POP POP DUP2 SWAP1 SSTORE POP PUSH32 0x1E2A45ECB3DCF528DD38BA1F2A869B557EBCE43D5035A1471745E0BB4272147D DUP3 PUSH1 0x40 MLOAD PUSH2 0x289F SWAP2 SWAP1 PUSH2 0x3C23 JUMP JUMPDEST PUSH1 0x40 MLOAD DUP1 SWAP2 SUB SWAP1 LOG1 POP PUSH2 0x2953 JUMP JUMPDEST PUSH1 0xA PUSH0 DUP2 SLOAD DUP1 SWAP3 SWAP2 SWAP1 PUSH2 0x28BF SWAP1 PUSH2 0x2FB1 JUMP JUMPDEST SWAP2 SWAP1 POP SSTORE POP PUSH1 0x5 PUSH1 0xA SLOAD LT PUSH2 0x2923 JUMPI DUP2 PUSH1 0x7 PUSH0 DUP3 DUP3 SLOAD PUSH2 0x28DF SWAP2 SWAP1 PUSH2 0x332A JUMP JUMPDEST SWAP3 POP POP DUP2 SWAP1 SSTORE POP PUSH32 0x1E2A45ECB3DCF528DD38BA1F2A869B557EBCE43D5035A1471745E0BB4272147D DUP3 PUSH1 0x40 MLOAD PUSH2 0x2915 SWAP2 SWAP1 PUSH2 0x3C99 JUMP JUMPDEST PUSH1 0x40 MLOAD DUP1 SWAP2 SUB SWAP1 LOG1 POP PUSH2 0x2953 JUMP JUMPDEST PUSH0 PUSH2 0x2942 PUSH1 0x2 PUSH0 DUP8 DUP2 MSTORE PUSH1 0x20 ADD SWAP1 DUP2 MSTORE PUSH1 0x20 ADD PUSH0 KECCAK256 PUSH1 0x2 ADD SLOAD DUP6 PUSH2 0x2000 JUMP JUMPDEST SWAP1 POP PUSH2 0x2950 DUP6 DUP3 DUP7 DUP7 PUSH2 0x2317 JUMP JUMPDEST POP POP JUMPDEST POP POP POP JUMP JUMPDEST POP DUP1 SLOAD PUSH0 DUP3 SSTORE SWAP1 PUSH0 MSTORE PUSH1 0x20 PUSH0 KECCAK256 SWAP1 DUP2 ADD SWAP1 PUSH2 0x2973 SWAP2 SWAP1 PUSH2 0x2976 JUMP JUMPDEST POP JUMP JUMPDEST JUMPDEST DUP1 DUP3 GT ISZERO PUSH2 0x298D JUMPI PUSH0 DUP2 PUSH0 SWAP1 SSTORE POP PUSH1 0x1 ADD PUSH2 0x2977 JUMP JUMPDEST POP SWAP1 JUMP JUMPDEST PUSH0 PUSH0 REVERT JUMPDEST PUSH0 DUP2 SWAP1 POP SWAP2 SWAP1 POP JUMP JUMPDEST PUSH2 0x29A7 DUP2 PUSH2 0x2995 JUMP JUMPDEST DUP2 EQ PUSH2 0x29B1 JUMPI PUSH0 PUSH0 REVERT JUMPDEST POP JUMP JUMPDEST PUSH0 DUP2 CALLDATALOAD SWAP1 POP PUSH2 0x29C2 DUP2 PUSH2 0x299E JUMP JUMPDEST SWAP3 SWAP2 POP POP JUMP JUMPDEST PUSH0 PUSH1 0x20 DUP3 DUP5 SUB SLT ISZERO PUSH2 0x29DD JUMPI PUSH2 0x29DC PUSH2 0x2991 JUMP JUMPDEST JUMPDEST PUSH0 PUSH2 0x29EA DUP5 DUP3 DUP6 ADD PUSH2 0x29B4 JUMP JUMPDEST SWAP2 POP POP SWAP3 SWAP2 POP POP JUMP JUMPDEST PUSH2 0x29FC DUP2 PUSH2 0x2995 JUMP JUMPDEST DUP3 MSTORE POP POP JUMP JUMPDEST PUSH0 PUSH1 0x20 DUP3 ADD SWAP1 POP PUSH2 0x2A15 PUSH0 DUP4 ADD DUP5 PUSH2 0x29F3 JUMP JUMPDEST SWAP3 SWAP2 POP POP JUMP JUMPDEST PUSH0 PUSH20 0xFFFFFFFFFFFFFFFFFFFFFFFFFFFFFFFFFFFFFFFF DUP3 AND SWAP1 POP SWAP2 SWAP1 POP JUMP JUMPDEST PUSH0 PUSH2 0x2A44 DUP3 PUSH2 0x2A1B JUMP JUMPDEST SWAP1 POP SWAP2 SWAP1 POP JUMP JUMPDEST PUSH2 0x2A54 DUP2 PUSH2 0x2A3A JUMP JUMPDEST DUP3 MSTORE POP POP JUMP JUMPDEST PUSH0 PUSH2 0x120 DUP3 ADD SWAP1 POP PUSH2 0x2A6E PUSH0 DUP4 ADD DUP13 PUSH2 0x29F3 JUMP JUMPDEST PUSH2 0x2A7B PUSH1 0x20 DUP4 ADD DUP12 PUSH2 0x2A4B JUMP JUMPDEST PUSH2 0x2A88 PUSH1 0x40 DUP4 ADD DUP11 PUSH2 0x29F3 JUMP JUMPDEST PUSH2 0x2A95 PUSH1 0x60 DUP4 ADD DUP10 PUSH2 0x29F3 JUMP JUMPDEST PUSH2 0x2AA2 PUSH1 0x80 DUP4 ADD DUP9 PUSH2 0x29F3 JUMP JUMPDEST PUSH2 0x2AAF PUSH1 0xA0 DUP4 ADD DUP8 PUSH2 0x29F3 JUMP JUMPDEST PUSH2 0x2ABC PUSH1 0xC0 DUP4 ADD DUP7 PUSH2 0x29F3 JUMP JUMPDEST PUSH2 0x2AC9 PUSH1 0xE0 DUP4 ADD DUP6 PUSH2 0x29F3 JUMP JUMPDEST PUSH2 0x2AD7 PUSH2 0x100 DUP4 ADD DUP5 PUSH2 0x29F3 JUMP JUMPDEST SWAP11 SWAP10 POP POP POP POP POP POP POP POP POP POP JUMP JUMPDEST PUSH0 PUSH1 0x20 DUP3 ADD SWAP1 POP PUSH2 0x2AF8 PUSH0 DUP4 ADD DUP5 PUSH2 0x2A4B JUMP JUMPDEST SWAP3 SWAP2 POP POP JUMP JUMPDEST PUSH0 DUP2 SWAP1 POP SWAP2 SWAP1 POP JUMP JUMPDEST PUSH0 PUSH2 0x2B21 PUSH2 0x2B1C PUSH2 0x2B17 DUP5 PUSH2 0x2A1B JUMP JUMPDEST PUSH2 0x2AFE JUMP JUMPDEST PUSH2 0x2A1B JUMP JUMPDEST SWAP1 POP SWAP2 SWAP1 POP JUMP JUMPDEST PUSH0 PUSH2 0x2B32 DUP3 PUSH2 0x2B07 JUMP JUMPDEST SWAP1 POP SWAP2 SWAP1 POP JUMP JUMPDEST PUSH0 PUSH2 0x2B43 DUP3 PUSH2 0x2B28 JUMP JUMPDEST SWAP1 POP SWAP2 SWAP1 POP JUMP JUMPDEST PUSH2 0x2B53 DUP2 PUSH2 0x2B39 JUMP JUMPDEST DUP3 MSTORE POP POP JUMP JUMPDEST PUSH0 PUSH1 0x20 DUP3 ADD SWAP1 POP PUSH2 0x2B6C PUSH0 DUP4 ADD DUP5 PUSH2 0x2B4A JUMP JUMPDEST SWAP3 SWAP2 POP POP JUMP JUMPDEST PUSH2 0x2B7B DUP2 PUSH2 0x2A3A JUMP JUMPDEST DUP2 EQ PUSH2 0x2B85 JUMPI PUSH0 PUSH0 REVERT JUMPDEST POP JUMP JUMPDEST PUSH0 DUP2 CALLDATALOAD SWAP1 POP PUSH2 0x2B96 DUP2 PUSH2 0x2B72 JUMP JUMPDEST SWAP3 SWAP2 POP POP JUMP JUMPDEST PUSH0 PUSH1 0x20 DUP3 DUP5 SUB SLT ISZERO PUSH2 0x2BB1 JUMPI PUSH2 0x2BB0 PUSH2 0x2991 JUMP JUMPDEST JUMPDEST PUSH0 PUSH2 0x2BBE DUP5 DUP3 DUP6 ADD PUSH2 0x2B88 JUMP JUMPDEST SWAP2 POP POP SWAP3 SWAP2 POP POP JUMP JUMPDEST PUSH0 PUSH1 0xE0 DUP3 ADD SWAP1 POP PUSH2 0x2BDA PUSH0 DUP4 ADD DUP11 PUSH2 0x2A4B JUMP JUMPDEST PUSH2 0x2BE7 PUSH1 0x20 DUP4 ADD DUP10 PUSH2 0x29F3 JUMP JUMPDEST PUSH2 0x2BF4 PUSH1 0x40 DUP4 ADD DUP9 PUSH2 0x29F3 JUMP JUMPDEST PUSH2 0x2C01 PUSH1 0x60 DUP4 ADD DUP8 PUSH2 0x29F3 JUMP JUMPDEST PUSH2 0x2C0E PUSH1 0x80 DUP4 ADD DUP7 PUSH2 0x29F3 JUMP JUMPDEST PUSH2 0x2C1B PUSH1 0xA0 DUP4 ADD DUP6 PUSH2 0x29F3 JUMP JUMPDEST PUSH2 0x2C28 PUSH1 0xC0 DUP4 ADD DUP5 PUSH2 0x29F3 JUMP JUMPDEST SWAP9 SWAP8 POP POP POP POP POP POP POP POP JUMP JUMPDEST PUSH0 PUSH0 PUSH1 0x40 DUP4 DUP6 SUB SLT ISZERO PUSH2 0x2C4A JUMPI PUSH2 0x2C49 PUSH2 0x2991 JUMP JUMPDEST JUMPDEST PUSH0 PUSH2 0x2C57 DUP6 DUP3 DUP7 ADD PUSH2 0x29B4 JUMP JUMPDEST SWAP3 POP POP PUSH1 0x20 PUSH2 0x2C68 DUP6 DUP3 DUP7 ADD PUSH2 0x29B4 JUMP JUMPDEST SWAP2 POP POP SWAP3 POP SWAP3 SWAP1 POP JUMP JUMPDEST PUSH0 DUP2 MLOAD SWAP1 POP SWAP2 SWAP1 POP JUMP JUMPDEST PUSH0 DUP3 DUP3 MSTORE PUSH1 0x20 DUP3 ADD SWAP1 POP SWAP3 SWAP2 POP POP JUMP JUMPDEST PUSH0 DUP2 SWAP1 POP PUSH1 0x20 DUP3 ADD SWAP1 POP SWAP2 SWAP1 POP JUMP JUMPDEST PUSH2 0x2CA4 DUP2 PUSH2 0x2995 JUMP JUMPDEST DUP3 MSTORE POP POP JUMP JUMPDEST PUSH0 PUSH2 0x2CB5 DUP4 DUP4 PUSH2 0x2C9B JUMP JUMPDEST PUSH1 0x20 DUP4 ADD SWAP1 POP SWAP3 SWAP2 POP POP JUMP JUMPDEST PUSH0 PUSH1 0x20 DUP3 ADD SWAP1 POP SWAP2 SWAP1 POP JUMP JUMPDEST PUSH0 PUSH2 0x2CD7 DUP3 PUSH2 0x2C72 JUMP JUMPDEST PUSH2 0x2CE1 DUP2 DUP6 PUSH2 0x2C7C JUMP JUMPDEST SWAP4 POP PUSH2 0x2CEC DUP4 PUSH2 0x2C8C JUMP JUMPDEST DUP1 PUSH0 JUMPDEST DUP4 DUP2 LT ISZERO PUSH2 0x2D1C JUMPI DUP2 MLOAD PUSH2 0x2D03 DUP9 DUP3 PUSH2 0x2CAA JUMP JUMPDEST SWAP8 POP PUSH2 0x2D0E DUP4 PUSH2 0x2CC1 JUMP JUMPDEST SWAP3 POP POP PUSH1 0x1 DUP2 ADD SWAP1 POP PUSH2 0x2CEF JUMP JUMPDEST POP DUP6 SWAP4 POP POP POP POP SWAP3 SWAP2 POP POP JUMP JUMPDEST PUSH0 PUSH1 0x80 DUP3 ADD SWAP1 POP PUSH2 0x2D3C PUSH0 DUP4 ADD DUP8 PUSH2 0x29F3 JUMP JUMPDEST DUP2 DUP2 SUB PUSH1 0x20 DUP4 ADD MSTORE PUSH2 0x2D4E DUP2 DUP7 PUSH2 0x2CCD JUMP JUMPDEST SWAP1 POP DUP2 DUP2 SUB PUSH1 0x40 DUP4 ADD MSTORE PUSH2 0x2D62 DUP2 DUP6 PUSH2 0x2CCD JUMP JUMPDEST SWAP1 POP PUSH2 0x2D71 PUSH1 0x60 DUP4 ADD DUP5 PUSH2 0x29F3 JUMP JUMPDEST SWAP6 SWAP5 POP POP POP POP POP JUMP JUMPDEST PUSH0 DUP3 DUP3 MSTORE PUSH1 0x20 DUP3 ADD SWAP1 POP SWAP3 SWAP2 POP POP JUMP JUMPDEST PUSH32 0x416C726561647920726567697374657265640000000000000000000000000000 PUSH0 DUP3 ADD MSTORE POP JUMP JUMPDEST PUSH0 PUSH2 0x2DBE PUSH1 0x12 DUP4 PUSH2 0x2D7A JUMP JUMPDEST SWAP2 POP PUSH2 0x2DC9 DUP3 PUSH2 0x2D8A JUMP JUMPDEST PUSH1 0x20 DUP3 ADD SWAP1 POP SWAP2 SWAP1 POP JUMP JUMPDEST PUSH0 PUSH1 0x20 DUP3 ADD SWAP1 POP DUP2 DUP2 SUB PUSH0 DUP4 ADD MSTORE PUSH2 0x2DEB DUP2 PUSH2 0x2DB2 JUMP JUMPDEST SWAP1 POP SWAP2 SWAP1 POP JUMP JUMPDEST PUSH32 0x496E76616C696420526566657272657200000000000000000000000000000000 PUSH0 DUP3 ADD MSTORE POP JUMP JUMPDEST PUSH0 PUSH2 0x2E26 PUSH1 0x10 DUP4 PUSH2 0x2D7A JUMP JUMPDEST SWAP2 POP PUSH2 0x2E31 DUP3 PUSH2 0x2DF2 JUMP JUMPDEST PUSH1 0x20 DUP3 ADD SWAP1 POP SWAP2 SWAP1 POP JUMP JUMPDEST PUSH0 PUSH1 0x20 DUP3 ADD SWAP1 POP DUP2 DUP2 SUB PUSH0 DUP4 ADD MSTORE PUSH2 0x2E53 DUP2 PUSH2 0x2E1A JUMP JUMPDEST SWAP1 POP SWAP2 SWAP1 POP JUMP JUMPDEST PUSH32 0x4E487B7100000000000000000000000000000000000000000000000000000000 PUSH0 MSTORE PUSH1 0x32 PUSH1 0x4 MSTORE PUSH1 0x24 PUSH0 REVERT JUMPDEST PUSH0 PUSH1 0x60 DUP3 ADD SWAP1 POP PUSH2 0x2E9A PUSH0 DUP4 ADD DUP7 PUSH2 0x2A4B JUMP JUMPDEST PUSH2 0x2EA7 PUSH1 0x20 DUP4 ADD DUP6 PUSH2 0x2A4B JUMP JUMPDEST PUSH2 0x2EB4 PUSH1 0x40 DUP4 ADD DUP5 PUSH2 0x29F3 JUMP JUMPDEST SWAP5 SWAP4 POP POP POP POP JUMP JUMPDEST PUSH0 DUP2 ISZERO ISZERO SWAP1 POP SWAP2 SWAP1 POP JUMP JUMPDEST PUSH2 0x2ED0 DUP2 PUSH2 0x2EBC JUMP JUMPDEST DUP2 EQ PUSH2 0x2EDA JUMPI PUSH0 PUSH0 REVERT JUMPDEST POP JUMP JUMPDEST PUSH0 DUP2 MLOAD SWAP1 POP PUSH2 0x2EEB DUP2 PUSH2 0x2EC7 JUMP JUMPDEST SWAP3 SWAP2 POP POP JUMP JUMPDEST PUSH0 PUSH1 0x20 DUP3 DUP5 SUB SLT ISZERO PUSH2 0x2F06 JUMPI PUSH2 0x2F05 PUSH2 0x2991 JUMP JUMPDEST JUMPDEST PUSH0 PUSH2 0x2F13 DUP5 DUP3 DUP6 ADD PUSH2 0x2EDD JUMP JUMPDEST SWAP2 POP POP SWAP3 SWAP2 POP POP JUMP JUMPDEST PUSH32 0x55534454207472616E73666572206661696C6564000000000000000000000000 PUSH0 DUP3 ADD MSTORE POP JUMP JUMPDEST PUSH0 PUSH2 0x2F50 PUSH1 0x14 DUP4 PUSH2 0x2D7A JUMP JUMPDEST SWAP2 POP PUSH2 0x2F5B DUP3 PUSH2 0x2F1C JUMP JUMPDEST PUSH1 0x20 DUP3 ADD SWAP1 POP SWAP2 SWAP1 POP JUMP JUMPDEST PUSH0 PUSH1 0x20 DUP3 ADD SWAP1 POP DUP2 DUP2 SUB PUSH0 DUP4 ADD MSTORE PUSH2 0x2F7D DUP2 PUSH2 0x2F44 JUMP JUMPDEST SWAP1 POP SWAP2 SWAP1 POP JUMP JUMPDEST PUSH32 0x4E487B7100000000000000000000000000000000000000000000000000000000 PUSH0 MSTORE PUSH1 0x11 PUSH1 0x4 MSTORE PUSH1 0x24 PUSH0 REVERT JUMPDEST PUSH0 PUSH2 0x2FBB DUP3 PUSH2 0x2995 JUMP JUMPDEST SWAP2 POP PUSH32 0xFFFFFFFFFFFFFFFFFFFFFFFFFFFFFFFFFFFFFFFFFFFFFFFFFFFFFFFFFFFFFFFF DUP3 SUB PUSH2 0x2FED JUMPI PUSH2 0x2FEC PUSH2 0x2F84 JUMP JUMPDEST JUMPDEST PUSH1 0x1 DUP3 ADD SWAP1 POP SWAP2 SWAP1 POP JUMP JUMPDEST PUSH32 0x41646D696E206F6E6C7900000000000000000000000000000000000000000000 PUSH0 DUP3 ADD MSTORE POP JUMP JUMPDEST PUSH0 PUSH2 0x302C PUSH1 0xA DUP4 PUSH2 0x2D7A JUMP JUMPDEST SWAP2 POP PUSH2 0x3037 DUP3 PUSH2 0x2FF8 JUMP JUMPDEST PUSH1 0x20 DUP3 ADD SWAP1 POP SWAP2 SWAP1 POP JUMP JUMPDEST PUSH0 PUSH1 0x20 DUP3 ADD SWAP1 POP DUP2 DUP2 SUB PUSH0 DUP4 ADD MSTORE PUSH2 0x3059 DUP2 PUSH2 0x3020 JUMP JUMPDEST SWAP1 POP SWAP2 SWAP1 POP JUMP JUMPDEST PUSH32 0x496E73756666696369656E742066756E64730000000000000000000000000000 PUSH0 DUP3 ADD MSTORE POP JUMP JUMPDEST PUSH0 PUSH2 0x3094 PUSH1 0x12 DUP4 PUSH2 0x2D7A JUMP JUMPDEST SWAP2 POP PUSH2 0x309F DUP3 PUSH2 0x3060 JUMP JUMPDEST PUSH1 0x20 DUP3 ADD SWAP1 POP SWAP2 SWAP1 POP JUMP JUMPDEST PUSH0 PUSH1 0x20 DUP3 ADD SWAP1 POP DUP2 DUP2 SUB PUSH0 DUP4 ADD MSTORE PUSH2 0x30C1 DUP2 PUSH2 0x3088 JUMP JUMPDEST SWAP1 POP SWAP2 SWAP1 POP JUMP JUMPDEST PUSH0 PUSH2 0x30D2 DUP3 PUSH2 0x2995 JUMP JUMPDEST SWAP2 POP PUSH2 0x30DD DUP4 PUSH2 0x2995 JUMP JUMPDEST SWAP3 POP DUP3 DUP3 SUB SWAP1 POP DUP2 DUP2 GT ISZERO PUSH2 0x30F5 JUMPI PUSH2 0x30F4 PUSH2 0x2F84 JUMP JUMPDEST JUMPDEST SWAP3 SWAP2 POP POP JUMP JUMPDEST PUSH0 PUSH1 0x40 DUP3 ADD SWAP1 POP PUSH2 0x310E PUSH0 DUP4 ADD DUP6 PUSH2 0x2A4B JUMP JUMPDEST PUSH2 0x311B PUSH1 0x20 DUP4 ADD DUP5 PUSH2 0x29F3 JUMP JUMPDEST SWAP4 SWAP3 POP POP POP JUMP JUMPDEST PUSH32 0x5769746864726177206661696C65640000000000000000000000000000000000 PUSH0 DUP3 ADD MSTORE POP JUMP JUMPDEST PUSH0 PUSH2 0x3156 PUSH1 0xF DUP4 PUSH2 0x2D7A JUMP JUMPDEST SWAP2 POP PUSH2 0x3161 DUP3 PUSH2 0x3122 JUMP JUMPDEST PUSH1 0x20 DUP3 ADD SWAP1 POP SWAP2 SWAP1 POP JUMP JUMPDEST PUSH0 PUSH1 0x20 DUP3 ADD SWAP1 POP DUP2 DUP2 SUB PUSH0 DUP4 ADD MSTORE PUSH2 0x3183 DUP2 PUSH2 0x314A JUMP JUMPDEST SWAP1 POP SWAP2 SWAP1 POP JUMP JUMPDEST PUSH32 0x4E6F742072656769737465726564000000000000000000000000000000000000 PUSH0 DUP3 ADD MSTORE POP JUMP JUMPDEST PUSH0 PUSH2 0x31BE PUSH1 0xE DUP4 PUSH2 0x2D7A JUMP JUMPDEST SWAP2 POP PUSH2 0x31C9 DUP3 PUSH2 0x318A JUMP JUMPDEST PUSH1 0x20 DUP3 ADD SWAP1 POP SWAP2 SWAP1 POP JUMP JUMPDEST PUSH0 PUSH1 0x20 DUP3 ADD SWAP1 POP DUP2 DUP2 SUB PUSH0 DUP4 ADD MSTORE PUSH2 0x31EB DUP2 PUSH2 0x31B2 JUMP JUMPDEST SWAP1 POP SWAP2 SWAP1 POP JUMP JUMPDEST PUSH32 0x496E76616C6964204C6576656C00000000000000000000000000000000000000 PUSH0 DUP3 ADD MSTORE POP JUMP JUMPDEST PUSH0 PUSH2 0x3226 PUSH1 0xD DUP4 PUSH2 0x2D7A JUMP JUMPDEST SWAP2 POP PUSH2 0x3231 DUP3 PUSH2 0x31F2 JUMP JUMPDEST PUSH1 0x20 DUP3 ADD SWAP1 POP SWAP2 SWAP1 POP JUMP JUMPDEST PUSH0 PUSH1 0x20 DUP3 ADD SWAP1 POP DUP2 DUP2 SUB PUSH0 DUP4 ADD MSTORE PUSH2 0x3253 DUP2 PUSH2 0x321A JUMP JUMPDEST SWAP1 POP SWAP2 SWAP1 POP JUMP JUMPDEST PUSH32 0x4275792070726576696F7573206C6576656C2066697273740000000000000000 PUSH0 DUP3 ADD MSTORE POP JUMP JUMPDEST PUSH0 PUSH2 0x328E PUSH1 0x18 DUP4 PUSH2 0x2D7A JUMP JUMPDEST SWAP2 POP PUSH2 0x3299 DUP3 PUSH2 0x325A JUMP JUMPDEST PUSH1 0x20 DUP3 ADD SWAP1 POP SWAP2 SWAP1 POP JUMP JUMPDEST PUSH0 PUSH1 0x20 DUP3 ADD SWAP1 POP DUP2 DUP2 SUB PUSH0 DUP4 ADD MSTORE PUSH2 0x32BB DUP2 PUSH2 0x3282 JUMP JUMPDEST SWAP1 POP SWAP2 SWAP1 POP JUMP JUMPDEST PUSH32 0x4D75737420627579204C6576656C203120746F20636C61696D00000000000000 PUSH0 DUP3 ADD MSTORE POP JUMP JUMPDEST PUSH0 PUSH2 0x32F6 PUSH1 0x19 DUP4 PUSH2 0x2D7A JUMP JUMPDEST SWAP2 POP PUSH2 0x3301 DUP3 PUSH2 0x32C2 JUMP JUMPDEST PUSH1 0x20 DUP3 ADD SWAP1 POP SWAP2 SWAP1 POP JUMP JUMPDEST PUSH0 PUSH1 0x20 DUP3 ADD SWAP1 POP DUP2 DUP2 SUB PUSH0 DUP4 ADD MSTORE PUSH2 0x3323 DUP2 PUSH2 0x32EA JUMP JUMPDEST SWAP1 POP SWAP2 SWAP1 POP JUMP JUMPDEST PUSH0 PUSH2 0x3334 DUP3 PUSH2 0x2995 JUMP JUMPDEST SWAP2 POP PUSH2 0x333F DUP4 PUSH2 0x2995 JUMP JUMPDEST SWAP3 POP DUP3 DUP3 ADD SWAP1 POP DUP1 DUP3 GT ISZERO PUSH2 0x3357 JUMPI PUSH2 0x3356 PUSH2 0x2F84 JUMP JUMPDEST JUMPDEST SWAP3 SWAP2 POP POP JUMP JUMPDEST PUSH32 0x5761697420323468000000000000000000000000000000000000000000000000 PUSH0 DUP3 ADD MSTORE POP JUMP JUMPDEST PUSH0 PUSH2 0x3391 PUSH1 0x8 DUP4 PUSH2 0x2D7A JUMP JUMPDEST SWAP2 POP PUSH2 0x339C DUP3 PUSH2 0x335D JUMP JUMPDEST PUSH1 0x20 DUP3 ADD SWAP1 POP SWAP2 SWAP1 POP JUMP JUMPDEST PUSH0 PUSH1 0x20 DUP3 ADD SWAP1 POP DUP2 DUP2 SUB PUSH0 DUP4 ADD MSTORE PUSH2 0x33BE DUP2 PUSH2 0x3385 JUMP JUMPDEST SWAP1 POP SWAP2 SWAP1 POP JUMP JUMPDEST PUSH32 0x4D6178206C696D69742072656163686564000000000000000000000000000000 PUSH0 DUP3 ADD MSTORE POP JUMP JUMPDEST PUSH0 PUSH2 0x33F9 PUSH1 0x11 DUP4 PUSH2 0x2D7A JUMP JUMPDEST SWAP2 POP PUSH2 0x3404 DUP3 PUSH2 0x33C5 JUMP JUMPDEST PUSH1 0x20 DUP3 ADD SWAP1 POP SWAP2 SWAP1 POP JUMP JUMPDEST PUSH0 PUSH1 0x20 DUP3 ADD SWAP1 POP DUP2 DUP2 SUB PUSH0 DUP4 ADD MSTORE PUSH2 0x3426 DUP2 PUSH2 0x33ED JUMP JUMPDEST SWAP1 POP SWAP2 SWAP1 POP JUMP JUMPDEST PUSH32 0x506F6F6C20656D70747900000000000000000000000000000000000000000000 PUSH0 DUP3 ADD MSTORE POP JUMP JUMPDEST PUSH0 PUSH2 0x3461 PUSH1 0xA DUP4 PUSH2 0x2D7A JUMP JUMPDEST SWAP2 POP PUSH2 0x346C DUP3 PUSH2 0x342D JUMP JUMPDEST PUSH1 0x20 DUP3 ADD SWAP1 POP SWAP2 SWAP1 POP JUMP JUMPDEST PUSH0 PUSH1 0x20 DUP3 ADD SWAP1 POP DUP2 DUP2 SUB PUSH0 DUP4 ADD MSTORE PUSH2 0x348E DUP2 PUSH2 0x3455 JUMP JUMPDEST SWAP1 POP SWAP2 SWAP1 POP JUMP JUMPDEST PUSH32 0x4E487B7100000000000000000000000000000000000000000000000000000000 PUSH0 MSTORE PUSH1 0x12 PUSH1 0x4 MSTORE PUSH1 0x24 PUSH0 REVERT JUMPDEST PUSH0 PUSH2 0x34CC DUP3 PUSH2 0x2995 JUMP JUMPDEST SWAP2 POP PUSH2 0x34D7 DUP4 PUSH2 0x2995 JUMP JUMPDEST SWAP3 POP DUP3 PUSH2 0x34E7 JUMPI PUSH2 0x34E6 PUSH2 0x3495 JUMP JUMPDEST JUMPDEST DUP3 DUP3 DIV SWAP1 POP SWAP3 SWAP2 POP POP JUMP JUMPDEST PUSH32 0x436C61696D20616D6F756E7420746F6F20736D616C6C00000000000000000000 PUSH0 DUP3 ADD MSTORE POP JUMP JUMPDEST PUSH0 PUSH2 0x3526 PUSH1 0x16 DUP4 PUSH2 0x2D7A JUMP JUMPDEST SWAP2 POP PUSH2 0x3531 DUP3 PUSH2 0x34F2 JUMP JUMPDEST PUSH1 0x20 DUP3 ADD SWAP1 POP SWAP2 SWAP1 POP JUMP JUMPDEST PUSH0 PUSH1 0x20 DUP3 ADD SWAP1 POP DUP2 DUP2 SUB PUSH0 DUP4 ADD MSTORE PUSH2 0x3553 DUP2 PUSH2 0x351A JUMP JUMPDEST SWAP1 POP SWAP2 SWAP1 POP JUMP JUMPDEST PUSH32 0x55534454205472616E73666572206661696C6564000000000000000000000000 PUSH0 DUP3 ADD MSTORE POP JUMP JUMPDEST PUSH0 PUSH2 0x358E PUSH1 0x14 DUP4 PUSH2 0x2D7A JUMP JUMPDEST SWAP2 POP PUSH2 0x3599 DUP3 PUSH2 0x355A JUMP JUMPDEST PUSH1 0x20 DUP3 ADD SWAP1 POP SWAP2 SWAP1 POP JUMP JUMPDEST PUSH0 PUSH1 0x20 DUP3 ADD SWAP1 POP DUP2 DUP2 SUB PUSH0 DUP4 ADD MSTORE PUSH2 0x35BB DUP2 PUSH2 0x3582 JUMP JUMPDEST SWAP1 POP SWAP2 SWAP1 POP JUMP JUMPDEST PUSH0 DUP2 MLOAD SWAP1 POP PUSH2 0x35D0 DUP2 PUSH2 0x299E JUMP JUMPDEST SWAP3 SWAP2 POP POP JUMP JUMPDEST PUSH0 PUSH1 0x20 DUP3 DUP5 SUB SLT ISZERO PUSH2 0x35EB JUMPI PUSH2 0x35EA PUSH2 0x2991 JUMP JUMPDEST JUMPDEST PUSH0 PUSH2 0x35F8 DUP5 DUP3 DUP6 ADD PUSH2 0x35C2 JUMP JUMPDEST SWAP2 POP POP SWAP3 SWAP2 POP POP JUMP JUMPDEST PUSH32 0x5265636F766572656420537475636B2046756E64730000000000000000000000 PUSH0 DUP3 ADD MSTORE POP JUMP JUMPDEST PUSH0 PUSH2 0x3635 PUSH1 0x15 DUP4 PUSH2 0x2D7A JUMP JUMPDEST SWAP2 POP PUSH2 0x3640 DUP3 PUSH2 0x3601 JUMP JUMPDEST PUSH1 0x20 DUP3 ADD SWAP1 POP SWAP2 SWAP1 POP JUMP JUMPDEST PUSH0 PUSH1 0x40 DUP3 ADD SWAP1 POP DUP2 DUP2 SUB PUSH0 DUP4 ADD MSTORE PUSH2 0x3662 DUP2 PUSH2 0x3629 JUMP JUMPDEST SWAP1 POP PUSH2 0x3671 PUSH1 0x20 DUP4 ADD DUP5 PUSH2 0x29F3 JUMP JUMPDEST SWAP3 SWAP2 POP POP JUMP JUMPDEST PUSH32 0x41646D696E204F6E6C7900000000000000000000000000000000000000000000 PUSH0 DUP3 ADD MSTORE POP JUMP JUMPDEST PUSH0 PUSH2 0x36AB PUSH1 0xA DUP4 PUSH2 0x2D7A JUMP JUMPDEST SWAP2 POP PUSH2 0x36B6 DUP3 PUSH2 0x3677 JUMP JUMPDEST PUSH1 0x20 DUP3 ADD SWAP1 POP SWAP2 SWAP1 POP JUMP JUMPDEST PUSH0 PUSH1 0x20 DUP3 ADD SWAP1 POP DUP2 DUP2 SUB PUSH0 DUP4 ADD MSTORE PUSH2 0x36D8 DUP2 PUSH2 0x369F JUMP JUMPDEST SWAP1 POP SWAP2 SWAP1 POP JUMP JUMPDEST PUSH32 0x55736572206E6F7420666F756E64000000000000000000000000000000000000 PUSH0 DUP3 ADD MSTORE POP JUMP JUMPDEST PUSH0 PUSH2 0x3713 PUSH1 0xE DUP4 PUSH2 0x2D7A JUMP JUMPDEST SWAP2 POP PUSH2 0x371E DUP3 PUSH2 0x36DF JUMP JUMPDEST PUSH1 0x20 DUP3 ADD SWAP1 POP SWAP2 SWAP1 POP JUMP JUMPDEST PUSH0 PUSH1 0x20 DUP3 ADD SWAP1 POP DUP2 DUP2 SUB PUSH0 DUP4 ADD MSTORE PUSH2 0x3740 DUP2 PUSH2 0x3707 JUMP JUMPDEST SWAP1 POP SWAP2 SWAP1 POP JUMP JUMPDEST PUSH0 PUSH2 0x3751 DUP3 PUSH2 0x2995 JUMP JUMPDEST SWAP2 POP PUSH2 0x375C DUP4 PUSH2 0x2995 JUMP JUMPDEST SWAP3 POP DUP3 DUP3 MUL PUSH2 0x376A DUP2 PUSH2 0x2995 JUMP JUMPDEST SWAP2 POP DUP3 DUP3 DIV DUP5 EQ DUP4 ISZERO OR PUSH2 0x3781 JUMPI PUSH2 0x3780 PUSH2 0x2F84 JUMP JUMPDEST JUMPDEST POP SWAP3 SWAP2 POP POP JUMP JUMPDEST PUSH32 0x4469726563742053706F6E736F72202854657374290000000000000000000000 PUSH0 DUP3 ADD MSTORE POP JUMP JUMPDEST PUSH0 PUSH2 0x37BC PUSH1 0x15 DUP4 PUSH2 0x2D7A JUMP JUMPDEST SWAP2 POP PUSH2 0x37C7 DUP3 PUSH2 0x3788 JUMP JUMPDEST PUSH1 0x20 DUP3 ADD SWAP1 POP SWAP2 SWAP1 POP JUMP JUMPDEST PUSH0 PUSH1 0x40 DUP3 ADD SWAP1 POP PUSH2 0x37E5 PUSH0 DUP4 ADD DUP5 PUSH2 0x29F3 JUMP JUMPDEST DUP2 DUP2 SUB PUSH1 0x20 DUP4 ADD MSTORE PUSH2 0x37F6 DUP2 PUSH2 0x37B0 JUMP JUMPDEST SWAP1 POP SWAP3 SWAP2 POP POP JUMP JUMPDEST PUSH32 0x496E76616C696420616464726573730000000000000000000000000000000000 PUSH0 DUP3 ADD MSTORE POP JUMP JUMPDEST PUSH0 PUSH2 0x3832 PUSH1 0xF DUP4 PUSH2 0x2D7A JUMP JUMPDEST SWAP2 POP PUSH2 0x383D DUP3 PUSH2 0x37FE JUMP JUMPDEST PUSH1 0x20 DUP3 ADD SWAP1 POP SWAP2 SWAP1 POP JUMP JUMPDEST PUSH0 PUSH1 0x20 DUP3 ADD SWAP1 POP DUP2 DUP2 SUB PUSH0 DUP4 ADD MSTORE PUSH2 0x385F DUP2 PUSH2 0x3826 JUMP JUMPDEST SWAP1 POP SWAP2 SWAP1 POP JUMP JUMPDEST PUSH32 0x4164647265737320616C72656164792072656769737465726564000000000000 PUSH0 DUP3 ADD MSTORE POP JUMP JUMPDEST PUSH0 PUSH2 0x389A PUSH1 0x1A DUP4 PUSH2 0x2D7A JUMP JUMPDEST SWAP2 POP PUSH2 0x38A5 DUP3 PUSH2 0x3866 JUMP JUMPDEST PUSH1 0x20 DUP3 ADD SWAP1 POP SWAP2 SWAP1 POP JUMP JUMPDEST PUSH0 PUSH1 0x20 DUP3 ADD SWAP1 POP DUP2 DUP2 SUB PUSH0 DUP4 ADD MSTORE PUSH2 0x38C7 DUP2 PUSH2 0x388E JUMP JUMPDEST SWAP1 POP SWAP2 SWAP1 POP JUMP JUMPDEST PUSH32 0x556E636C61696D65642047656E65726174696F6E205265776172647300000000 PUSH0 DUP3 ADD MSTORE POP JUMP JUMPDEST PUSH0 PUSH2 0x3902 PUSH1 0x1C DUP4 PUSH2 0x2D7A JUMP JUMPDEST SWAP2 POP PUSH2 0x390D DUP3 PUSH2 0x38CE JUMP JUMPDEST PUSH1 0x20 DUP3 ADD SWAP1 POP SWAP2 SWAP1 POP JUMP JUMPDEST PUSH0 PUSH1 0x40 DUP3 ADD SWAP1 POP DUP2 DUP2 SUB PUSH0 DUP4 ADD MSTORE PUSH2 0x392F DUP2 PUSH2 0x38F6 JUMP JUMPDEST SWAP1 POP PUSH2 0x393E PUSH1 0x20 DUP4 ADD DUP5 PUSH2 0x29F3 JUMP JUMPDEST SWAP3 SWAP2 POP POP JUMP JUMPDEST PUSH32 0x526F79616C74792046756E640000000000000000000000000000000000000000 PUSH0 DUP3 ADD MSTORE POP JUMP JUMPDEST PUSH0 PUSH2 0x3978 PUSH1 0xC DUP4 PUSH2 0x2D7A JUMP JUMPDEST SWAP2 POP PUSH2 0x3983 DUP3 PUSH2 0x3944 JUMP JUMPDEST PUSH1 0x20 DUP3 ADD SWAP1 POP SWAP2 SWAP1 POP JUMP JUMPDEST PUSH0 PUSH1 0x40 DUP3 ADD SWAP1 POP DUP2 DUP2 SUB PUSH0 DUP4 ADD MSTORE PUSH2 0x39A5 DUP2 PUSH2 0x396C JUMP JUMPDEST SWAP1 POP PUSH2 0x39B4 PUSH1 0x20 DUP4 ADD DUP5 PUSH2 0x29F3 JUMP JUMPDEST SWAP3 SWAP2 POP POP JUMP JUMPDEST PUSH32 0x5A65726F205269736B2046756E64000000000000000000000000000000000000 PUSH0 DUP3 ADD MSTORE POP JUMP JUMPDEST PUSH0 PUSH2 0x39EE PUSH1 0xE DUP4 PUSH2 0x2D7A JUMP JUMPDEST SWAP2 POP PUSH2 0x39F9 DUP3 PUSH2 0x39BA JUMP JUMPDEST PUSH1 0x20 DUP3 ADD SWAP1 POP SWAP2 SWAP1 POP JUMP JUMPDEST PUSH0 PUSH1 0x40 DUP3 ADD SWAP1 POP DUP2 DUP2 SUB PUSH0 DUP4 ADD MSTORE PUSH2 0x3A1B DUP2 PUSH2 0x39E2 JUMP JUMPDEST SWAP1 POP PUSH2 0x3A2A PUSH1 0x20 DUP4 ADD DUP5 PUSH2 0x29F3 JUMP JUMPDEST SWAP3 SWAP2 POP POP JUMP JUMPDEST PUSH0 DUP2 MLOAD SWAP1 POP SWAP2 SWAP1 POP JUMP JUMPDEST PUSH0 DUP2 SWAP1 POP SWAP3 SWAP2 POP POP JUMP JUMPDEST DUP3 DUP2 DUP4 MCOPY PUSH0 DUP4 DUP4 ADD MSTORE POP POP POP JUMP JUMPDEST PUSH0 PUSH2 0x3A5C DUP3 PUSH2 0x3A30 JUMP JUMPDEST PUSH2 0x3A66 DUP2 DUP6 PUSH2 0x3A3A JUMP JUMPDEST SWAP4 POP PUSH2 0x3A76 DUP2 DUP6 PUSH1 0x20 DUP7 ADD PUSH2 0x3A44 JUMP JUMPDEST DUP1 DUP5 ADD SWAP2 POP POP SWAP3 SWAP2 POP POP JUMP JUMPDEST PUSH32 0x2028496E76616C69642041646472657373290000000000000000000000000000 PUSH0 DUP3 ADD MSTORE POP JUMP JUMPDEST PUSH0 PUSH2 0x3AB6 PUSH1 0x12 DUP4 PUSH2 0x3A3A JUMP JUMPDEST SWAP2 POP PUSH2 0x3AC1 DUP3 PUSH2 0x3A82 JUMP JUMPDEST PUSH1 0x12 DUP3 ADD SWAP1 POP SWAP2 SWAP1 POP JUMP JUMPDEST PUSH0 PUSH2 0x3AD7 DUP3 DUP5 PUSH2 0x3A52 JUMP JUMPDEST SWAP2 POP PUSH2 0x3AE2 DUP3 PUSH2 0x3AAA JUMP JUMPDEST SWAP2 POP DUP2 SWAP1 POP SWAP3 SWAP2 POP POP JUMP JUMPDEST PUSH0 PUSH1 0x1F NOT PUSH1 0x1F DUP4 ADD AND SWAP1 POP SWAP2 SWAP1 POP JUMP JUMPDEST PUSH0 PUSH2 0x3B07 DUP3 PUSH2 0x3A30 JUMP JUMPDEST PUSH2 0x3B11 DUP2 DUP6 PUSH2 0x2D7A JUMP JUMPDEST SWAP4 POP PUSH2 0x3B21 DUP2 DUP6 PUSH1 0x20 DUP7 ADD PUSH2 0x3A44 JUMP JUMPDEST PUSH2 0x3B2A DUP2 PUSH2 0x3AED JUMP JUMPDEST DUP5 ADD SWAP2 POP POP SWAP3 SWAP2 POP POP JUMP JUMPDEST PUSH0 PUSH1 0x40 DUP3 ADD SWAP1 POP PUSH2 0x3B48 PUSH0 DUP4 ADD DUP6 PUSH2 0x29F3 JUMP JUMPDEST DUP2 DUP2 SUB PUSH1 0x20 DUP4 ADD MSTORE PUSH2 0x3B5A DUP2 DUP5 PUSH2 0x3AFD JUMP JUMPDEST SWAP1 POP SWAP4 SWAP3 POP POP POP JUMP JUMPDEST PUSH32 0x4D6174726978204F766572666C6F772053616665636174636800000000000000 PUSH0 DUP3 ADD MSTORE POP JUMP JUMPDEST PUSH0 PUSH2 0x3B97 PUSH1 0x19 DUP4 PUSH2 0x2D7A JUMP JUMPDEST SWAP2 POP PUSH2 0x3BA2 DUP3 PUSH2 0x3B63 JUMP JUMPDEST PUSH1 0x20 DUP3 ADD SWAP1 POP SWAP2 SWAP1 POP JUMP JUMPDEST PUSH0 PUSH1 0x40 DUP3 ADD SWAP1 POP DUP2 DUP2 SUB PUSH0 DUP4 ADD MSTORE PUSH2 0x3BC4 DUP2 PUSH2 0x3B8B JUMP JUMPDEST SWAP1 POP PUSH2 0x3BD3 PUSH1 0x20 DUP4 ADD DUP5 PUSH2 0x29F3 JUMP JUMPDEST SWAP3 SWAP2 POP POP JUMP JUMPDEST PUSH32 0x41646D696E2052656379636C6520496E636F6D65000000000000000000000000 PUSH0 DUP3 ADD MSTORE POP JUMP JUMPDEST PUSH0 PUSH2 0x3C0D PUSH1 0x14 DUP4 PUSH2 0x2D7A JUMP JUMPDEST SWAP2 POP PUSH2 0x3C18 DUP3 PUSH2 0x3BD9 JUMP JUMPDEST PUSH1 0x20 DUP3 ADD SWAP1 POP SWAP2 SWAP1 POP JUMP JUMPDEST PUSH0 PUSH1 0x40 DUP3 ADD SWAP1 POP DUP2 DUP2 SUB PUSH0 DUP4 ADD MSTORE PUSH2 0x3C3A DUP2 PUSH2 0x3C01 JUMP JUMPDEST SWAP1 POP PUSH2 0x3C49 PUSH1 0x20 DUP4 ADD DUP5 PUSH2 0x29F3 JUMP JUMPDEST SWAP3 SWAP2 POP POP JUMP JUMPDEST PUSH32 0x4D61782052656379636C65204465707468205361666563617463680000000000 PUSH0 DUP3 ADD MSTORE POP JUMP JUMPDEST PUSH0 PUSH2 0x3C83 PUSH1 0x1B DUP4 PUSH2 0x2D7A JUMP JUMPDEST SWAP2 POP PUSH2 0x3C8E DUP3 PUSH2 0x3C4F JUMP JUMPDEST PUSH1 0x20 DUP3 ADD SWAP1 POP SWAP2 SWAP1 POP JUMP JUMPDEST PUSH0 PUSH1 0x40 DUP3 ADD SWAP1 POP DUP2 DUP2 SUB PUSH0 DUP4 ADD MSTORE PUSH2 0x3CB0 DUP2 PUSH2 0x3C77 JUMP JUMPDEST SWAP1 POP PUSH2 0x3CBF PUSH1 0x20 DUP4 ADD DUP5 PUSH2 0x29F3 JUMP JUMPDEST SWAP3 SWAP2 POP POP JUMP INVALID LOG2 PUSH5 0x6970667358 0x22 SLT KECCAK256 PUSH12 0x353FB20FB34B74BCBC4535E5 0xD5 PUSH10 0x8ABC5CDCB9F13E83DC11 PREVRANDAO CALLER SWAP6 MOD RETURNCONTRACT 0xAE DUP7 PUSH5 0x736F6C6343 STOP ADDMOD 0x1F STOP CALLER "
				},
				"gasEstimates": {
					"creation": {
						"codeDepositCost": "3122200",
						"executionCost": "infinite",
						"totalCost": "infinite"
					},
					"external": {
						"ADMIN_ID()": "370",
						"ZERO_RISK_CAP()": "392",
						"ZERO_RISK_DAILY_LIMIT()": "458",
						"addressToId(address)": "2913",
						"adminActivateSlot(uint256,uint256)": "infinite",
						"adminExtractStuckFunds()": "infinite",
						"adminWithdrawRoyalty(uint256)": "infinite",
						"basicRegistration(uint256)": "infinite",
						"buyNewLevel(uint256)": "infinite",
						"claimZeroRisk()": "infinite",
						"getMatrixInfo(uint256,uint256)": "infinite",
						"getUserInfo(uint256)": "infinite",
						"lastUserId()": "2471",
						"owner()": "2531",
						"packagePrice(uint256)": "infinite",
						"registration(uint256)": "infinite",
						"royaltyFundBalance()": "2536",
						"totalPayingUsers()": "2513",
						"totalRegisteredUsers()": "2537",
						"transferOwnership(address)": "86814",
						"usdtToken()": "infinite",
						"users(uint256)": "infinite",
						"zeroRiskFundBalance()": "2492"
					},
					"internal": {
						"buyPackageLogic(uint256,uint256,uint256)": "infinite",
						"findActiveReferrer(uint256,uint256)": "infinite",
						"handleMatrix(uint256,uint256,uint256,uint256)": "infinite",
						"handleRecycle(uint256,uint256,uint256)": "infinite",
						"sendMoney(uint256,uint256,string memory)": "infinite",
						"updateMatrix(uint256,uint256,uint256,uint256)": "infinite"
					}
				},
				"methodIdentifiers": {
					"ADMIN_ID()": "971a6720",
					"ZERO_RISK_CAP()": "433fc828",
					"ZERO_RISK_DAILY_LIMIT()": "86e95fdf",
					"addressToId(address)": "cb0e0d7d",
					"adminActivateSlot(uint256,uint256)": "eadadf44",
					"adminExtractStuckFunds()": "e80e4c9f",
					"adminWithdrawRoyalty(uint256)": "40f60304",
					"basicRegistration(uint256)": "3c99092b",
					"buyNewLevel(uint256)": "5396db9d",
					"claimZeroRisk()": "e54189fc",
					"getMatrixInfo(uint256,uint256)": "e4d3cc50",
					"getUserInfo(uint256)": "d379dadf",
					"lastUserId()": "348d4487",
					"owner()": "8da5cb5b",
					"packagePrice(uint256)": "20fe8e6e",
					"registration(uint256)": "3516dcd1",
					"royaltyFundBalance()": "5e9b3882",
					"totalPayingUsers()": "e9d9e13f",
					"totalRegisteredUsers()": "3c7afca5",
					"transferOwnership(address)": "f2fde38b",
					"usdtToken()": "a98ad46c",
					"users(uint256)": "365b98b2",
					"zeroRiskFundBalance()": "a11ee6f8"
				}
			},
			"storageLayout": {
				"storage": [
					{
						"astId": 67,
						"contract": "TronexUniverse.sol:TronexUniverse",
						"label": "usdtToken",
						"offset": 0,
						"slot": "0",
						"type": "t_contract(IERC20)29"
					},
					{
						"astId": 71,
						"contract": "TronexUniverse.sol:TronexUniverse",
						"label": "addressToId",
						"offset": 0,
						"slot": "1",
						"type": "t_mapping(t_address,t_uint256)"
					},
					{
						"astId": 76,
						"contract": "TronexUniverse.sol:TronexUniverse",
						"label": "users",
						"offset": 0,
						"slot": "2",
						"type": "t_mapping(t_uint256,t_struct(User)53_storage)"
					},
					{
						"astId": 82,
						"contract": "TronexUniverse.sol:TronexUniverse",
						"label": "lastUserId",
						"offset": 0,
						"slot": "3",
						"type": "t_uint256"
					},
					{
						"astId": 84,
						"contract": "TronexUniverse.sol:TronexUniverse",
						"label": "owner",
						"offset": 0,
						"slot": "4",
						"type": "t_address"
					},
					{
						"astId": 99,
						"contract": "TronexUniverse.sol:TronexUniverse",
						"label": "packagePrice",
						"offset": 0,
						"slot": "5",
						"type": "t_array(t_uint256)dyn_storage"
					},
					{
						"astId": 116,
						"contract": "TronexUniverse.sol:TronexUniverse",
						"label": "zeroRiskFundBalance",
						"offset": 0,
						"slot": "6",
						"type": "t_uint256"
					},
					{
						"astId": 118,
						"contract": "TronexUniverse.sol:TronexUniverse",
						"label": "royaltyFundBalance",
						"offset": 0,
						"slot": "7",
						"type": "t_uint256"
					},
					{
						"astId": 120,
						"contract": "TronexUniverse.sol:TronexUniverse",
						"label": "totalRegisteredUsers",
						"offset": 0,
						"slot": "8",
						"type": "t_uint256"
					},
					{
						"astId": 122,
						"contract": "TronexUniverse.sol:TronexUniverse",
						"label": "totalPayingUsers",
						"offset": 0,
						"slot": "9",
						"type": "t_uint256"
					},
					{
						"astId": 133,
						"contract": "TronexUniverse.sol:TronexUniverse",
						"label": "currentRecycleDepth",
						"offset": 0,
						"slot": "10",
						"type": "t_uint256"
					}
				],
				"types": {
					"t_address": {
						"encoding": "inplace",
						"label": "address",
						"numberOfBytes": "20"
					},
					"t_array(t_uint256)dyn_storage": {
						"base": "t_uint256",
						"encoding": "dynamic_array",
						"label": "uint256[]",
						"numberOfBytes": "32"
					},
					"t_contract(IERC20)29": {
						"encoding": "inplace",
						"label": "contract IERC20",
						"numberOfBytes": "20"
					},
					"t_mapping(t_address,t_uint256)": {
						"encoding": "mapping",
						"key": "t_address",
						"label": "mapping(address => uint256)",
						"numberOfBytes": "32",
						"value": "t_uint256"
					},
					"t_mapping(t_uint256,t_struct(Matrix)64_storage)": {
						"encoding": "mapping",
						"key": "t_uint256",
						"label": "mapping(uint256 => struct TronexUniverse.Matrix)",
						"numberOfBytes": "32",
						"value": "t_struct(Matrix)64_storage"
					},
					"t_mapping(t_uint256,t_struct(User)53_storage)": {
						"encoding": "mapping",
						"key": "t_uint256",
						"label": "mapping(uint256 => struct TronexUniverse.User)",
						"numberOfBytes": "32",
						"value": "t_struct(User)53_storage"
					},
					"t_struct(Matrix)64_storage": {
						"encoding": "inplace",
						"label": "struct TronexUniverse.Matrix",
						"members": [
							{
								"astId": 55,
								"contract": "TronexUniverse.sol:TronexUniverse",
								"label": "currentReferrer",
								"offset": 0,
								"slot": "0",
								"type": "t_uint256"
							},
							{
								"astId": 58,
								"contract": "TronexUniverse.sol:TronexUniverse",
								"label": "firstLevelReferrals",
								"offset": 0,
								"slot": "1",
								"type": "t_array(t_uint256)dyn_storage"
							},
							{
								"astId": 61,
								"contract": "TronexUniverse.sol:TronexUniverse",
								"label": "secondLevelReferrals",
								"offset": 0,
								"slot": "2",
								"type": "t_array(t_uint256)dyn_storage"
							},
							{
								"astId": 63,
								"contract": "TronexUniverse.sol:TronexUniverse",
								"label": "recycleCount",
								"offset": 0,
								"slot": "3",
								"type": "t_uint256"
							}
						],
						"numberOfBytes": "128"
					},
					"t_struct(User)53_storage": {
						"encoding": "inplace",
						"label": "struct TronexUniverse.User",
						"members": [
							{
								"astId": 31,
								"contract": "TronexUniverse.sol:TronexUniverse",
								"label": "id",
								"offset": 0,
								"slot": "0",
								"type": "t_uint256"
							},
							{
								"astId": 33,
								"contract": "TronexUniverse.sol:TronexUniverse",
								"label": "wallet",
								"offset": 0,
								"slot": "1",
								"type": "t_address"
							},
							{
								"astId": 35,
								"contract": "TronexUniverse.sol:TronexUniverse",
								"label": "referrerId",
								"offset": 0,
								"slot": "2",
								"type": "t_uint256"
							},
							{
								"astId": 37,
								"contract": "TronexUniverse.sol:TronexUniverse",
								"label": "totalEarnings",
								"offset": 0,
								"slot": "3",
								"type": "t_uint256"
							},
							{
								"astId": 39,
								"contract": "TronexUniverse.sol:TronexUniverse",
								"label": "earnedFromZeroRisk",
								"offset": 0,
								"slot": "4",
								"type": "t_uint256"
							},
							{
								"astId": 41,
								"contract": "TronexUniverse.sol:TronexUniverse",
								"label": "lastZeroRiskClaim",
								"offset": 0,
								"slot": "5",
								"type": "t_uint256"
							},
							{
								"astId": 46,
								"contract": "TronexUniverse.sol:TronexUniverse",
								"label": "matrices",
								"offset": 0,
								"slot": "6",
								"type": "t_mapping(t_uint256,t_struct(Matrix)64_storage)"
							},
							{
								"astId": 48,
								"contract": "TronexUniverse.sol:TronexUniverse",
								"label": "totalTeamSize",
								"offset": 0,
								"slot": "7",
								"type": "t_uint256"
							},
							{
								"astId": 50,
								"contract": "TronexUniverse.sol:TronexUniverse",
								"label": "activeTeamSize",
								"offset": 0,
								"slot": "8",
								"type": "t_uint256"
							},
							{
								"astId": 52,
								"contract": "TronexUniverse.sol:TronexUniverse",
								"label": "activeLevelsCount",
								"offset": 0,
								"slot": "9",
								"type": "t_uint256"
							}
						],
						"numberOfBytes": "320"
					},
					"t_uint256": {
						"encoding": "inplace",
						"label": "uint256",
						"numberOfBytes": "32"
					}
				}
			},
			"userdoc": {
				"kind": "user",
				"methods": {},
				"version": 1
			}
		}
	}
}