{
	"data": {
		"bytecode": {
			"linkReferences": {},
			"object": "60806040526103e86003556040518061016001604052805f68ffffffffffffffffff1681526020016753444835ec58000068ffffffffffffffffff168152602001678ac7230489e8000068ffffffffffffffffff1681526020016801158e460913d0000068ffffffffffffffffff16815260200168022b1c8c1227a0000068ffffffffffffffffff1681526020016804563918244f40000068ffffffffffffffffff1681526020016808ac7230489e80000068ffffffffffffffffff168152602001681158e460913d00000068ffffffffffffffffff1681526020016822b1c8c1227a00000068ffffffffffffffffff168152602001684563918244f400000068ffffffffffffffffff168152602001688ac7230489e800000068ffffffffffffffffff16815250600590600b610137929190610327565b50348015610143575f5ffd5b5060405161412b38038061412b833981810160405281019061016591906103f8565b3360045f6101000a81548173ffffffffffffffffffffffffffffffffffffffff021916908373ffffffffffffffffffffffffffffffffffffffff160217905550805f5f6101000a81548173ffffffffffffffffffffffffffffffffffffffff021916908373ffffffffffffffffffffffffffffffffffffffff1602179055506103e860025f6103e881526020019081526020015f205f018190555060045f9054906101000a900473ffffffffffffffffffffffffffffffffffffffff1660025f6103e881526020019081526020015f206001015f6101000a81548173ffffffffffffffffffffffffffffffffffffffff021916908373ffffffffffffffffffffffffffffffffffffffff1602179055505f60025f6103e881526020019081526020015f2060020181905550600a60025f6103e881526020019081526020015f20600901819055506103e860015f60045f9054906101000a900473ffffffffffffffffffffffffffffffffffffffff1673ffffffffffffffffffffffffffffffffffffffff1673ffffffffffffffffffffffffffffffffffffffff1681526020019081526020015f20819055506001600881905550600160098190555050610423565b828054828255905f5260205f2090810192821561036e579160200282015b8281111561036d578251829068ffffffffffffffffff16905591602001919060010190610345565b5b50905061037b919061037f565b5090565b5b80821115610396575f815f905550600101610380565b5090565b5f5ffd5b5f73ffffffffffffffffffffffffffffffffffffffff82169050919050565b5f6103c78261039e565b9050919050565b6103d7816103bd565b81146103e1575f5ffd5b50565b5f815190506103f2816103ce565b92915050565b5f6020828403121561040d5761040c61039a565b5b5f61041a848285016103e4565b91505092915050565b613cfb806104305f395ff3fe608060405234801561000f575f5ffd5b506004361061014b575f3560e01c80638da5cb5b116100c1578063e4d3cc501161007a578063e4d3cc501461039b578063e54189fc146103ce578063e80e4c9f146103d8578063e9d9e13f146103e2578063eadadf4414610400578063f2fde38b1461041c5761014b565b80638da5cb5b146102bd578063971a6720146102db578063a11ee6f8146102f9578063a98ad46c14610317578063cb0e0d7d14610335578063d379dadf146103655761014b565b80633c99092b116101135780633c99092b1461020f57806340f603041461022b578063433fc828146102475780635396db9d146102655780635e9b38821461028157806386e95fdf1461029f5761014b565b806320fe8e6e1461014f578063348d44871461017f5780633516dcd11461019d578063365b98b2146101b95780633c7afca5146101f1575b5f5ffd5b610169600480360381019061016491906129c8565b610438565b6040516101769190612a02565b60405180910390f35b610187610458565b6040516101949190612a02565b60405180910390f35b6101b760048036038101906101b291906129c8565b61045e565b005b6101d360048036038101906101ce91906129c8565b61080b565b6040516101e899989796959493929190612a5a565b60405180910390f35b6101f9610874565b6040516102069190612a02565b60405180910390f35b610229600480360381019061022491906129c8565b61087a565b005b610245600480360381019061024091906129c8565b610a89565b005b61024f610c78565b60405161025c9190612a02565b60405180910390f35b61027f600480360381019061027a91906129c8565b610c84565b005b610289610f41565b6040516102969190612a02565b60405180910390f35b6102a7610f47565b6040516102b49190612a02565b60405180910390f35b6102c5610f53565b6040516102d29190612ae5565b60405180910390f35b6102e3610f78565b6040516102f09190612a02565b60405180910390f35b610301610f7e565b60405161030e9190612a02565b60405180910390f35b61031f610f84565b60405161032c9190612b59565b60405180910390f35b61034f600480360381019061034a9190612b9c565b610fa8565b60405161035c9190612a02565b60405180910390f35b61037f600480360381019061037a91906129c8565b610fbd565b6040516103929796959493929190612bc7565b60405180910390f35b6103b560048036038101906103b09190612c34565b611034565b6040516103c59493929190612d29565b60405180910390f35b6103d6611122565b005b6103e0611545565b005b6103ea6116ee565b6040516103f79190612a02565b60405180910390f35b61041a60048036038101906104159190612c34565b6116f4565b005b61043660048036038101906104319190612b9c565b61199b565b005b60058181548110610447575f80fd5b905f5260205f20015f915090505481565b60035481565b5f60015f3373ffffffffffffffffffffffffffffffffffffffff1673ffffffffffffffffffffffffffffffffffffffff1681526020019081526020015f2054146104dd576040517f08c379a00000000000000000000000000000000000000000000000000000000081526004016104d490612dd4565b60405180910390fd5b5f60025f8381526020019081526020015f205f015403610532576040517f08c379a000000000000000000000000000000000000000000000000000000000815260040161052990612e3c565b60405180910390fd5b5f600560018154811061054857610547612e5a565b5b905f5260205f20015490505f5f9054906101000a900473ffffffffffffffffffffffffffffffffffffffff1673ffffffffffffffffffffffffffffffffffffffff166323b872dd3330846040518463ffffffff1660e01b81526004016105b093929190612e87565b6020604051808303815f875af11580156105cc573d5f5f3e3d5ffd5b505050506040513d601f19601f820116820180604052508101906105f09190612ef1565b61062f576040517f08c379a000000000000000000000000000000000000000000000000000000000815260040161062690612f66565b60405180910390fd5b60035f81548092919061064190612fb1565b91905055505f60035490508060025f8381526020019081526020015f205f01819055503360025f8381526020019081526020015f206001015f6101000a81548173ffffffffffffffffffffffffffffffffffffffff021916908373ffffffffffffffffffffffffffffffffffffffff1602179055508260025f8381526020019081526020015f2060020181905550600160025f8381526020019081526020015f20600901819055508060015f3373ffffffffffffffffffffffffffffffffffffffff1673ffffffffffffffffffffffffffffffffffffffff1681526020019081526020015f208190555060025f8481526020019081526020015f206007015f81548092919061074f90612fb1565b919050555060025f8481526020019081526020015f206008015f81548092919061077890612fb1565b919050555060085f81548092919061078f90612fb1565b919050555060095f8154809291906107a690612fb1565b9190505550823373ffffffffffffffffffffffffffffffffffffffff167f0d6d8be58ef6918a4e19027a89943222bc99e02d838bd0b3e41004fd72d7f344836040516107f29190612a02565b60405180910390a361080681600184611cfb565b505050565b6002602052805f5260405f205f91509050805f015490806001015f9054906101000a900473ffffffffffffffffffffffffffffffffffffffff16908060020154908060030154908060040154908060050154908060070154908060080154908060090154905089565b60085481565b5f60015f3373ffffffffffffffffffffffffffffffffffffffff1673ffffffffffffffffffffffffffffffffffffffff1681526020019081526020015f2054146108f9576040517f08c379a00000000000000000000000000000000000000000000000000000000081526004016108f090612dd4565b60405180910390fd5b6103e881108061091b57505f60025f8381526020019081526020015f205f0154145b15610926576103e890505b60035f81548092919061093890612fb1565b91905055505f60035490505f60025f8381526020019081526020015f20905081815f018190555033816001015f6101000a81548173ffffffffffffffffffffffffffffffffffffffff021916908373ffffffffffffffffffffffffffffffffffffffff1602179055508281600201819055505f81600901819055508160015f3373ffffffffffffffffffffffffffffffffffffffff1673ffffffffffffffffffffffffffffffffffffffff1681526020019081526020015f208190555060025f8481526020019081526020015f206007015f815480929190610a1990612fb1565b919050555060085f815480929190610a3090612fb1565b9190505550823373ffffffffffffffffffffffffffffffffffffffff167f0d6d8be58ef6918a4e19027a89943222bc99e02d838bd0b3e41004fd72d7f34484604051610a7c9190612a02565b60405180910390a3505050565b60045f9054906101000a900473ffffffffffffffffffffffffffffffffffffffff1673ffffffffffffffffffffffffffffffffffffffff163373ffffffffffffffffffffffffffffffffffffffff1614610b18576040517f08c379a0000000000000000000000000000000000000000000000000000000008152600401610b0f90613042565b60405180910390fd5b600754811115610b5d576040517f08c379a0000000000000000000000000000000000000000000000000000000008152600401610b54906130aa565b60405180910390fd5b8060075f828254610b6e91906130c8565b925050819055505f5f5f9054906101000a900473ffffffffffffffffffffffffffffffffffffffff1673ffffffffffffffffffffffffffffffffffffffff1663a9059cbb60045f9054906101000a900473ffffffffffffffffffffffffffffffffffffffff16846040518363ffffffff1660e01b8152600401610bf29291906130fb565b6020604051808303815f875af1158015610c0e573d5f5f3e3d5ffd5b505050506040513d601f19601f82011682018060405250810190610c329190612ef1565b905080610c74576040517f08c379a0000000000000000000000000000000000000000000000000000000008152600401610c6b9061316c565b60405180910390fd5b5050565b678ac7230489e8000081565b5f60015f3373ffffffffffffffffffffffffffffffffffffffff1673ffffffffffffffffffffffffffffffffffffffff1681526020019081526020015f205490505f8103610d07576040517f08c379a0000000000000000000000000000000000000000000000000000000008152600401610cfe906131d4565b60405180910390fd5b60018210158015610d195750600a8211155b610d58576040517f08c379a0000000000000000000000000000000000000000000000000000000008152600401610d4f9061323c565b60405180910390fd5b600182610d6591906130c8565b60025f8381526020019081526020015f206009015414610dba576040517f08c379a0000000000000000000000000000000000000000000000000000000008152600401610db1906132a4565b60405180910390fd5b5f60058381548110610dcf57610dce612e5a565b5b905f5260205f20015490505f5f9054906101000a900473ffffffffffffffffffffffffffffffffffffffff1673ffffffffffffffffffffffffffffffffffffffff166323b872dd3330846040518463ffffffff1660e01b8152600401610e3793929190612e87565b6020604051808303815f875af1158015610e53573d5f5f3e3d5ffd5b505050506040513d601f19601f82011682018060405250810190610e779190612ef1565b610eb6576040517f08c379a0000000000000000000000000000000000000000000000000000000008152600401610ead90612f66565b60405180910390fd5b8260025f8481526020019081526020015f206009018190555060018303610f31575f60025f8481526020019081526020015f2060020154905060025f8281526020019081526020015f206008015f815480929190610f1390612fb1565b919050555060095f815480929190610f2a90612fb1565b9190505550505b610f3c828483611cfb565b505050565b60075481565b6729a2241af62c000081565b60045f9054906101000a900473ffffffffffffffffffffffffffffffffffffffff1681565b6103e881565b60065481565b5f5f9054906101000a900473ffffffffffffffffffffffffffffffffffffffff1681565b6001602052805f5260405f205f915090505481565b5f5f5f5f5f5f5f5f60025f8a81526020019081526020015f209050806001015f9054906101000a900473ffffffffffffffffffffffffffffffffffffffff16816002015482600301548360070154846008015485600901548660040154975097509750975097509750975050919395979092949650565b5f6060805f5f60025f8881526020019081526020015f206006015f8781526020019081526020015f209050805f015481600101826002018360030154828054806020026020016040519081016040528092919081815260200182805480156110b957602002820191905f5260205f20905b8154815260200190600101908083116110a5575b505050505092508180548060200260200160405190810160405280929190818152602001828054801561110957602002820191905f5260205f20905b8154815260200190600101908083116110f5575b5050505050915094509450945094505092959194509250565b5f60015f3373ffffffffffffffffffffffffffffffffffffffff1673ffffffffffffffffffffffffffffffffffffffff1681526020019081526020015f205490505f81036111a5576040517f08c379a000000000000000000000000000000000000000000000000000000000815260040161119c906131d4565b60405180910390fd5b600160025f8381526020019081526020015f206009015410156111fd576040517f08c379a00000000000000000000000000000000000000000000000000000000081526004016111f49061330c565b60405180910390fd5b6201518060025f8381526020019081526020015f2060050154611220919061332a565b421015611262576040517f08c379a0000000000000000000000000000000000000000000000000000000008152600401611259906133a7565b60405180910390fd5b678ac7230489e8000060025f8381526020019081526020015f2060040154106112c0576040517f08c379a00000000000000000000000000000000000000000000000000000000081526004016112b79061340f565b60405180910390fd5b5f60065411611304576040517f08c379a00000000000000000000000000000000000000000000000000000000081526004016112fb90613477565b60405180910390fd5b5f60095460065461131591906134c2565b90505f8111611359576040517f08c379a00000000000000000000000000000000000000000000000000000000081526004016113509061353c565b60405180910390fd5b6729a2241af62c0000811115611375576729a2241af62c000090505b678ac7230489e800008160025f8581526020019081526020015f206004015461139e919061332a565b11156113cf5760025f8381526020019081526020015f2060040154678ac7230489e800006113cc91906130c8565b90505b4260025f8481526020019081526020015f20600501819055508060025f8481526020019081526020015f206004015f82825461140b919061332a565b925050819055508060065f82825461142391906130c8565b925050819055505f5f5f9054906101000a900473ffffffffffffffffffffffffffffffffffffffff1673ffffffffffffffffffffffffffffffffffffffff1663a9059cbb33846040518363ffffffff1660e01b81526004016114869291906130fb565b6020604051808303815f875af11580156114a2573d5f5f3e3d5ffd5b505050506040513d601f19601f820116820180604052508101906114c69190612ef1565b905080611508576040517f08c379a00000000000000000000000000000000000000000000000000000000081526004016114ff906135a4565b60405180910390fd5b827f4dc1addc23d21b7b1e4cdde9a7ef0d7b535c1d7c2156df4abdcf306c9a79174c836040516115389190612a02565b60405180910390a2505050565b60045f9054906101000a900473ffffffffffffffffffffffffffffffffffffffff1673ffffffffffffffffffffffffffffffffffffffff163373ffffffffffffffffffffffffffffffffffffffff16146115d4576040517f08c379a00000000000000000000000000000000000000000000000000000000081526004016115cb90613042565b60405180910390fd5b5f6006546007546115e5919061332a565b90505f5f5f9054906101000a900473ffffffffffffffffffffffffffffffffffffffff1673ffffffffffffffffffffffffffffffffffffffff166370a08231306040518263ffffffff1660e01b81526004016116419190612ae5565b602060405180830381865afa15801561165c573d5f5f3e3d5ffd5b505050506040513d601f19601f8201168201806040525081019061168091906135d6565b9050818111156116ea575f828261169791906130c8565b90508060075f8282546116aa919061332a565b925050819055507f1e2a45ecb3dcf528dd38ba1f2a869b557ebce43d5035a1471745e0bb4272147d816040516116e0919061364b565b60405180910390a1505b5050565b60095481565b60045f9054906101000a900473ffffffffffffffffffffffffffffffffffffffff1673ffffffffffffffffffffffffffffffffffffffff163373ffffffffffffffffffffffffffffffffffffffff1614611783576040517f08c379a000000000000000000000000000000000000000000000000000000000815260040161177a906136c1565b60405180910390fd5b5f60025f8481526020019081526020015f205f0154036117d8576040517f08c379a00000000000000000000000000000000000000000000000000000000081526004016117cf90613729565b60405180910390fd5b600181101580156117ea5750600a8111155b611829576040517f08c379a00000000000000000000000000000000000000000000000000000000081526004016118209061323c565b60405180910390fd5b5f60025f8481526020019081526020015f206009015414801561184d575060018110155b156118ac575f60025f8481526020019081526020015f2060020154905060025f8281526020019081526020015f206008015f81548092919061188e90612fb1565b919050555060095f8154809291906118a590612fb1565b9190505550505b8060025f8481526020019081526020015f20600901819055505f600582815481106118da576118d9612e5a565b5b905f5260205f20015490505f612710610d05836118f79190613747565b61190191906134c2565b90505f61192260025f8781526020019081526020015f206002015485612000565b9050807f84d59367f51ac1996d0fd634ec79c866d4b5e5aa446013eebc4f1090e19236d68360405161195491906137d2565b60405180910390a2847ffaa1c1a520c0ae879572f170d29e7789d9914069ca5e57d63d68054661336d618560405161198c9190612a02565b60405180910390a25050505050565b60045f9054906101000a900473ffffffffffffffffffffffffffffffffffffffff1673ffffffffffffffffffffffffffffffffffffffff163373ffffffffffffffffffffffffffffffffffffffff1614611a2a576040517f08c379a0000000000000000000000000000000000000000000000000000000008152600401611a2190613042565b60405180910390fd5b5f73ffffffffffffffffffffffffffffffffffffffff168173ffffffffffffffffffffffffffffffffffffffff1603611a98576040517f08c379a0000000000000000000000000000000000000000000000000000000008152600401611a8f90613848565b60405180910390fd5b5f60015f8373ffffffffffffffffffffffffffffffffffffffff1673ffffffffffffffffffffffffffffffffffffffff1681526020019081526020015f20541480611b2157506103e860015f8373ffffffffffffffffffffffffffffffffffffffff1673ffffffffffffffffffffffffffffffffffffffff1681526020019081526020015f2054145b611b60576040517f08c379a0000000000000000000000000000000000000000000000000000000008152600401611b57906138b0565b60405180910390fd5b5f60045f9054906101000a900473ffffffffffffffffffffffffffffffffffffffff1690508160045f6101000a81548173ffffffffffffffffffffffffffffffffffffffff021916908373ffffffffffffffffffffffffffffffffffffffff1602179055508160025f6103e881526020019081526020015f206001015f6101000a81548173ffffffffffffffffffffffffffffffffffffffff021916908373ffffffffffffffffffffffffffffffffffffffff16021790555060015f8273ffffffffffffffffffffffffffffffffffffffff1673ffffffffffffffffffffffffffffffffffffffff1681526020019081526020015f205f90556103e860015f8473ffffffffffffffffffffffffffffffffffffffff1673ffffffffffffffffffffffffffffffffffffffff1681526020019081526020015f20819055508173ffffffffffffffffffffffffffffffffffffffff168173ffffffffffffffffffffffffffffffffffffffff167f8be0079c531659141344cd1fd0a4f28419497f9722a3daafe3b4186f6b6457e060405160405180910390a35050565b5f60025f8581526020019081526020015f2090505f816002015490505f611d228286612000565b90505f612710610d0586611d369190613747565b611d4091906134c2565b9050611d8282826040518060400160405280600e81526020017f4469726563742053706f6e736f7200000000000000000000000000000000000081525061206a565b5f600a81905550611d95878488886122f7565b5f612710610d0587611da79190613747565b611db191906134c2565b90505f600a82611dc191906134c2565b90505f5f90505f8690505f600190505b600a8111611e75575f820315611e75578a60025f8481526020019081526020015f206009015410611e4b57611e3c82856040518060400160405280601181526020017f47656e65726174696f6e2052657761726400000000000000000000000000000081525061206a565b8383611e48919061332a565b92505b60025f8381526020019081526020015f206002015491508080611e6d90612fb1565b915050611dd1565b505f8285611e8391906130c8565b90505f811115611edd578060075f828254611e9e919061332a565b925050819055507f1e2a45ecb3dcf528dd38ba1f2a869b557ebce43d5035a1471745e0bb4272147d81604051611ed49190613918565b60405180910390a15b5f6127106103418c611eef9190613747565b611ef991906134c2565b90508060075f828254611f0c919061332a565b925050819055507f1e2a45ecb3dcf528dd38ba1f2a869b557ebce43d5035a1471745e0bb4272147d81604051611f42919061398e565b60405180910390a15f6127106103428d611f5c9190613747565b611f6691906134c2565b90508060065f828254611f79919061332a565b925050819055507f1e2a45ecb3dcf528dd38ba1f2a869b557ebce43d5035a1471745e0bb4272147d81604051611faf9190613a04565b60405180910390a18c8e7f66635a66d1d0381969092efe5f2f6f55d82de7d629e4341e8cb55304df8f87e08e604051611fe89190612a02565b60405180910390a35050505050505050505050505050565b5f5f8390505b5f811415801561201857506103e88114155b1561205d578260025f8381526020019081526020015f2060090154106120415780915050612064565b60025f8281526020019081526020015f20600201549050612006565b6103e89150505b92915050565b5f8303612077576103e892505b5f60025f8581526020019081526020015f206001015f9054906101000a900473ffffffffffffffffffffffffffffffffffffffff1690505f73ffffffffffffffffffffffffffffffffffffffff168173ffffffffffffffffffffffffffffffffffffffff16148061211357503073ffffffffffffffffffffffffffffffffffffffff168173ffffffffffffffffffffffffffffffffffffffff16145b1561218f578260075f828254612129919061332a565b92505081905550837fab44bc453c004a489f9f8687f4280a881ba62bcd3920e9fa5815b35b7c5cc02d84846040516020016121649190613acc565b604051602081830303815290604052604051612181929190613b35565b60405180910390a2506122f2565b8260025f8681526020019081526020015f206003015f8282546121b2919061332a565b925050819055505f5f5f9054906101000a900473ffffffffffffffffffffffffffffffffffffffff1673ffffffffffffffffffffffffffffffffffffffff1663a9059cbb83866040518363ffffffff1660e01b81526004016122159291906130fb565b6020604051808303815f875af1158015612231573d5f5f3e3d5ffd5b505050506040513d601f19601f820116820180604052508101906122559190612ef1565b9050801561229c57847f84d59367f51ac1996d0fd634ec79c866d4b5e5aa446013eebc4f1090e19236d6858560405161228f929190613b35565b60405180910390a26122ef565b8360075f8282546122ad919061332a565b92505081905550847fab44bc453c004a489f9f8687f4280a881ba62bcd3920e9fa5815b35b7c5cc02d85856040516122e6929190613b35565b60405180910390a25b50505b505050565b5f6123028484612000565b905061231085828585612317565b5050505050565b5f60025f8581526020019081526020015f206006015f8481526020019081526020015f2090505f6127106106838461234f9190613747565b61235991906134c2565b90506002826001018054905010156124c6578160010186908060018154018082558091505060019003905f5260205f20015f90919091909150558460025f8881526020019081526020015f206006015f8681526020019081526020015f205f01819055505f825f015490505f811461247f575f60025f8381526020019081526020015f206006015f8781526020019081526020015f2090508060020188908060018154018082558091505060019003905f5260205f20015f90919091909150556004816002018054905003612438576124338287856126e1565b612479565b61247882846040518060400160405280600d81526020017f4d617472697820496e636f6d650000000000000000000000000000000000000081525061206a565b5b506124c0565b6124bf86836040518060400160405280600d81526020017f4d617472697820496e636f6d650000000000000000000000000000000000000081525061206a565b5b506126d8565b5f826001015f815481106124dd576124dc612e5a565b5b905f5260205f20015490505f83600101600181548110612500576124ff612e5a565b5b905f5260205f20015490505f6002805f8581526020019081526020015f206006015f8981526020019081526020015f20600101805490501015612545578290506125d8565b6002805f8481526020019081526020015f206006015f8981526020019081526020015f2060010180549050101561257e578190506125d7565b8360075f82825461258f919061332a565b925050819055507f1e2a45ecb3dcf528dd38ba1f2a869b557ebce43d5035a1471745e0bb4272147d846040516125c59190613bad565b60405180910390a150505050506126db565b5b60025f8281526020019081526020015f206006015f8881526020019081526020015f2060010189908060018154018082558091505060019003905f5260205f20015f90919091909150558060025f8b81526020019081526020015f206006015f8981526020019081526020015f205f01819055508460020189908060018154018082558091505060019003905f5260205f20015f909190919091505560048560020180549050036126935761268e8888866126e1565b6126d4565b6126d388856040518060400160405280600d81526020017f4d617472697820496e636f6d650000000000000000000000000000000000000081525061206a565b5b5050505b50505b50505050565b5f60025f8581526020019081526020015f206006015f8481526020019081526020015f209050806003015f81548092919061271b90612fb1565b919050555082847fac99621eab4de122ce50be4d7e06a1841167686b9db744457f12d80f5eebedad83600301546040516127559190612a02565b60405180910390a35f5f90505b81600101805490508110156127c6575f60025f84600101848154811061278b5761278a612e5a565b5b905f5260205f20015481526020019081526020015f206006015f8681526020019081526020015f205f01819055508080600101915050612762565b505f5f90505b8160020180549050811015612830575f60025f8460020184815481106127f5576127f4612e5a565b5b905f5260205f20015481526020019081526020015f206006015f8681526020019081526020015f205f018190555080806001019150506127cc565b50806001015f6128409190612958565b806002015f61284f9190612958565b6103e884036128ad578160075f828254612869919061332a565b925050819055507f1e2a45ecb3dcf528dd38ba1f2a869b557ebce43d5035a1471745e0bb4272147d8260405161289f9190613c23565b60405180910390a150612953565b600a5f8154809291906128bf90612fb1565b91905055506005600a5410612923578160075f8282546128df919061332a565b925050819055507f1e2a45ecb3dcf528dd38ba1f2a869b557ebce43d5035a1471745e0bb4272147d826040516129159190613c99565b60405180910390a150612953565b5f61294260025f8781526020019081526020015f206002015485612000565b905061295085828686612317565b50505b505050565b5080545f8255905f5260205f20908101906129739190612976565b50565b5b8082111561298d575f815f905550600101612977565b5090565b5f5ffd5b5f819050919050565b6129a781612995565b81146129b1575f5ffd5b50565b5f813590506129c28161299e565b92915050565b5f602082840312156129dd576129dc612991565b5b5f6129ea848285016129b4565b91505092915050565b6129fc81612995565b82525050565b5f602082019050612a155f8301846129f3565b92915050565b5f73ffffffffffffffffffffffffffffffffffffffff82169050919050565b5f612a4482612a1b565b9050919050565b612a5481612a3a565b82525050565b5f61012082019050612a6e5f83018c6129f3565b612a7b602083018b612a4b565b612a88604083018a6129f3565b612a9560608301896129f3565b612aa260808301886129f3565b612aaf60a08301876129f3565b612abc60c08301866129f3565b612ac960e08301856129f3565b612ad76101008301846129f3565b9a9950505050505050505050565b5f602082019050612af85f830184612a4b565b92915050565b5f819050919050565b5f612b21612b1c612b1784612a1b565b612afe565b612a1b565b9050919050565b5f612b3282612b07565b9050919050565b5f612b4382612b28565b9050919050565b612b5381612b39565b82525050565b5f602082019050612b6c5f830184612b4a565b92915050565b612b7b81612a3a565b8114612b85575f5ffd5b50565b5f81359050612b9681612b72565b92915050565b5f60208284031215612bb157612bb0612991565b5b5f612bbe84828501612b88565b91505092915050565b5f60e082019050612bda5f83018a612a4b565b612be760208301896129f3565b612bf460408301886129f3565b612c0160608301876129f3565b612c0e60808301866129f3565b612c1b60a08301856129f3565b612c2860c08301846129f3565b98975050505050505050565b5f5f60408385031215612c4a57612c49612991565b5b5f612c57858286016129b4565b9250506020612c68858286016129b4565b9150509250929050565b5f81519050919050565b5f82825260208201905092915050565b5f819050602082019050919050565b612ca481612995565b82525050565b5f612cb58383612c9b565b60208301905092915050565b5f602082019050919050565b5f612cd782612c72565b612ce18185612c7c565b9350612cec83612c8c565b805f5b83811015612d1c578151612d038882612caa565b9750612d0e83612cc1565b925050600181019050612cef565b5085935050505092915050565b5f608082019050612d3c5f8301876129f3565b8181036020830152612d4e8186612ccd565b90508181036040830152612d628185612ccd565b9050612d7160608301846129f3565b95945050505050565b5f82825260208201905092915050565b7f416c7265616479207265676973746572656400000000000000000000000000005f82015250565b5f612dbe601283612d7a565b9150612dc982612d8a565b602082019050919050565b5f6020820190508181035f830152612deb81612db2565b9050919050565b7f496e76616c6964205265666572726572000000000000000000000000000000005f82015250565b5f612e26601083612d7a565b9150612e3182612df2565b602082019050919050565b5f6020820190508181035f830152612e5381612e1a565b9050919050565b7f4e487b71000000000000000000000000000000000000000000000000000000005f52603260045260245ffd5b5f606082019050612e9a5f830186612a4b565b612ea76020830185612a4b565b612eb460408301846129f3565b949350505050565b5f8115159050919050565b612ed081612ebc565b8114612eda575f5ffd5b50565b5f81519050612eeb81612ec7565b92915050565b5f60208284031215612f0657612f05612991565b5b5f612f1384828501612edd565b91505092915050565b7f55534454207472616e73666572206661696c65640000000000000000000000005f82015250565b5f612f50601483612d7a565b9150612f5b82612f1c565b602082019050919050565b5f6020820190508181035f830152612f7d81612f44565b9050919050565b7f4e487b71000000000000000000000000000000000000000000000000000000005f52601160045260245ffd5b5f612fbb82612995565b91507fffffffffffffffffffffffffffffffffffffffffffffffffffffffffffffffff8203612fed57612fec612f84565b5b600182019050919050565b7f41646d696e206f6e6c79000000000000000000000000000000000000000000005f82015250565b5f61302c600a83612d7a565b915061303782612ff8565b602082019050919050565b5f6020820190508181035f83015261305981613020565b9050919050565b7f496e73756666696369656e742066756e647300000000000000000000000000005f82015250565b5f613094601283612d7a565b915061309f82613060565b602082019050919050565b5f6020820190508181035f8301526130c181613088565b9050919050565b5f6130d282612995565b91506130dd83612995565b92508282039050818111156130f5576130f4612f84565b5b92915050565b5f60408201905061310e5f830185612a4b565b61311b60208301846129f3565b9392505050565b7f5769746864726177206661696c656400000000000000000000000000000000005f82015250565b5f613156600f83612d7a565b915061316182613122565b602082019050919050565b5f6020820190508181035f8301526131838161314a565b9050919050565b7f4e6f7420726567697374657265640000000000000000000000000000000000005f82015250565b5f6131be600e83612d7a565b91506131c98261318a565b602082019050919050565b5f6020820190508181035f8301526131eb816131b2565b9050919050565b7f496e76616c6964204c6576656c000000000000000000000000000000000000005f82015250565b5f613226600d83612d7a565b9150613231826131f2565b602082019050919050565b5f6020820190508181035f8301526132538161321a565b9050919050565b7f4275792070726576696f7573206c6576656c20666972737400000000000000005f82015250565b5f61328e601883612d7a565b91506132998261325a565b602082019050919050565b5f6020820190508181035f8301526132bb81613282565b9050919050565b7f4d75737420627579204c6576656c203120746f20636c61696d000000000000005f82015250565b5f6132f6601983612d7a565b9150613301826132c2565b602082019050919050565b5f6020820190508181035f830152613323816132ea565b9050919050565b5f61333482612995565b915061333f83612995565b925082820190508082111561335757613356612f84565b5b92915050565b7f57616974203234680000000000000000000000000000000000000000000000005f82015250565b5f613391600883612d7a565b915061339c8261335d565b602082019050919050565b5f6020820190508181035f8301526133be81613385565b9050919050565b7f4d6178206c696d697420726561636865640000000000000000000000000000005f82015250565b5f6133f9601183612d7a565b9150613404826133c5565b602082019050919050565b5f6020820190508181035f830152613426816133ed565b9050919050565b7f506f6f6c20656d707479000000000000000000000000000000000000000000005f82015250565b5f613461600a83612d7a565b915061346c8261342d565b602082019050919050565b5f6020820190508181035f83015261348e81613455565b9050919050565b7f4e487b71000000000000000000000000000000000000000000000000000000005f52601260045260245ffd5b5f6134cc82612995565b91506134d783612995565b9250826134e7576134e6613495565b5b828204905092915050565b7f436c61696d20616d6f756e7420746f6f20736d616c6c000000000000000000005f82015250565b5f613526601683612d7a565b9150613531826134f2565b602082019050919050565b5f6020820190508181035f8301526135538161351a565b9050919050565b7f55534454205472616e73666572206661696c65640000000000000000000000005f82015250565b5f61358e601483612d7a565b91506135998261355a565b602082019050919050565b5f6020820190508181035f8301526135bb81613582565b9050919050565b5f815190506135d08161299e565b92915050565b5f602082840312156135eb576135ea612991565b5b5f6135f8848285016135c2565b91505092915050565b7f5265636f766572656420537475636b2046756e647300000000000000000000005f82015250565b5f613635601583612d7a565b915061364082613601565b602082019050919050565b5f6040820190508181035f83015261366281613629565b905061367160208301846129f3565b92915050565b7f41646d696e204f6e6c79000000000000000000000000000000000000000000005f82015250565b5f6136ab600a83612d7a565b91506136b682613677565b602082019050919050565b5f6020820190508181035f8301526136d88161369f565b9050919050565b7f55736572206e6f7420666f756e640000000000000000000000000000000000005f82015250565b5f613713600e83612d7a565b915061371e826136df565b602082019050919050565b5f6020820190508181035f83015261374081613707565b9050919050565b5f61375182612995565b915061375c83612995565b925082820261376a81612995565b9150828204841483151761378157613780612f84565b5b5092915050565b7f4469726563742053706f6e736f722028546573742900000000000000000000005f82015250565b5f6137bc601583612d7a565b91506137c782613788565b602082019050919050565b5f6040820190506137e55f8301846129f3565b81810360208301526137f6816137b0565b905092915050565b7f496e76616c6964206164647265737300000000000000000000000000000000005f82015250565b5f613832600f83612d7a565b915061383d826137fe565b602082019050919050565b5f6020820190508181035f83015261385f81613826565b9050919050565b7f4164647265737320616c726561647920726567697374657265640000000000005f82015250565b5f61389a601a83612d7a565b91506138a582613866565b602082019050919050565b5f6020820190508181035f8301526138c78161388e565b9050919050565b7f556e636c61696d65642047656e65726174696f6e2052657761726473000000005f82015250565b5f613902601c83612d7a565b915061390d826138ce565b602082019050919050565b5f6040820190508181035f83015261392f816138f6565b905061393e60208301846129f3565b92915050565b7f526f79616c74792046756e6400000000000000000000000000000000000000005f82015250565b5f613978600c83612d7a565b915061398382613944565b602082019050919050565b5f6040820190508181035f8301526139a58161396c565b90506139b460208301846129f3565b92915050565b7f5a65726f205269736b2046756e640000000000000000000000000000000000005f82015250565b5f6139ee600e83612d7a565b91506139f9826139ba565b602082019050919050565b5f6040820190508181035f830152613a1b816139e2565b9050613a2a60208301846129f3565b92915050565b5f81519050919050565b5f81905092915050565b8281835e5f83830152505050565b5f613a5c82613a30565b613a668185613a3a565b9350613a76818560208601613a44565b80840191505092915050565b7f2028496e76616c696420416464726573732900000000000000000000000000005f82015250565b5f613ab6601283613a3a565b9150613ac182613a82565b601282019050919050565b5f613ad78284613a52565b9150613ae282613aaa565b915081905092915050565b5f601f19601f8301169050919050565b5f613b0782613a30565b613b118185612d7a565b9350613b21818560208601613a44565b613b2a81613aed565b840191505092915050565b5f604082019050613b485f8301856129f3565b8181036020830152613b5a8184613afd565b90509392505050565b7f4d6174726978204f766572666c6f7720536166656361746368000000000000005f82015250565b5f613b97601983612d7a565b9150613ba282613b63565b602082019050919050565b5f6040820190508181035f830152613bc481613b8b565b9050613bd360208301846129f3565b92915050565b7f41646d696e2052656379636c6520496e636f6d650000000000000000000000005f82015250565b5f613c0d601483612d7a565b9150613c1882613bd9565b602082019050919050565b5f6040820190508181035f830152613c3a81613c01565b9050613c4960208301846129f3565b92915050565b7f4d61782052656379636c652044657074682053616665636174636800000000005f82015250565b5f613c83601b83612d7a565b9150613c8e82613c4f565b602082019050919050565b5f6040820190508181035f830152613cb081613c77565b9050613cbf60208301846129f3565b9291505056fea26469706673582212206b353fb20fb34b74bcbc4535e5d5698abc5cdcb9f13e83dc1144339506eeae8664736f6c634300081f0033",
			"opcodes": "PUSH1 0x80 PUSH1 0x40 MSTORE PUSH2 0x3E8 PUSH1 0x3 SSTORE PUSH1 0x40 MLOAD DUP1 PUSH2 0x160 ADD PUSH1 0x40 MSTORE DUP1 PUSH0 PUSH9 0xFFFFFFFFFFFFFFFFFF AND DUP2 MSTORE PUSH1 0x20 ADD PUSH8 0x53444835EC580000 PUSH9 0xFFFFFFFFFFFFFFFFFF AND DUP2 MSTORE PUSH1 0x20 ADD PUSH8 0x8AC7230489E80000 PUSH9 0xFFFFFFFFFFFFFFFFFF AND DUP2 MSTORE PUSH1 0x20 ADD PUSH9 0x1158E460913D00000 PUSH9 0xFFFFFFFFFFFFFFFFFF AND DUP2 MSTORE PUSH1 0x20 ADD PUSH9 0x22B1C8C1227A00000 PUSH9 0xFFFFFFFFFFFFFFFFFF AND DUP2 MSTORE PUSH1 0x20 ADD PUSH9 0x4563918244F400000 PUSH9 0xFFFFFFFFFFFFFFFFFF AND DUP2 MSTORE PUSH1 0x20 ADD PUSH9 0x8AC7230489E800000 PUSH9 0xFFFFFFFFFFFFFFFFFF AND DUP2 MSTORE PUSH1 0x20 ADD PUSH9 0x1158E460913D000000 PUSH9 0xFFFFFFFFFFFFFFFFFF AND DUP2 MSTORE PUSH1 0x20 ADD PUSH9 0x22B1C8C1227A000000 PUSH9 0xFFFFFFFFFFFFFFFFFF AND DUP2 MSTORE PUSH1 0x20 ADD PUSH9 0x4563918244F4000000 PUSH9 0xFFFFFFFFFFFFFFFFFF AND DUP2 MSTORE PUSH1 0x20 ADD PUSH9 0x8AC7230489E8000000 PUSH9 0xFFFFFFFFFFFFFFFFFF AND DUP2 MSTORE POP PUSH1 0x5 SWAP1 PUSH1 0xB PUSH2 0x137 SWAP3 SWAP2 SWAP1 PUSH2 0x327 JUMP JUMPDEST POP CALLVALUE DUP1 ISZERO PUSH2 0x143 JUMPI PUSH0 PUSH0 REVERT JUMPDEST POP PUSH1 0x40 MLOAD PUSH2 0x412B CODESIZE SUB DUP1 PUSH2 0x412B DUP4 CODECOPY DUP2 DUP2 ADD PUSH1 0x40 MSTORE DUP2 ADD SWAP1 PUSH2 0x165 SWAP2 SWAP1 PUSH2 0x3F8 JUMP JUMPDEST CALLER PUSH1 0x4 PUSH0 PUSH2 0x100 EXP DUP2 SLOAD DUP2 PUSH20 0xFFFFFFFFFFFFFFFFFFFFFFFFFFFFFFFFFFFFFFFF MUL NOT AND SWAP1 DUP4 PUSH20 0xFFFFFFFFFFFFFFFFFFFFFFFFFFFFFFFFFFFFFFFF AND MUL OR SWAP1 SSTORE POP DUP1 PUSH0 PUSH0 PUSH2 0x100 EXP DUP2 SLOAD DUP2 PUSH20 0xFFFFFFFFFFFFFFFFFFFFFFFFFFFFFFFFFFFFFFFF MUL NOT AND SWAP1 DUP4 PUSH20 0xFFFFFFFFFFFFFFFFFFFFFFFFFFFFFFFFFFFFFFFF AND MUL OR SWAP1 SSTORE POP PUSH2 0x3E8 PUSH1 0x2 PUSH0 PUSH2 0x3E8 DUP2 MSTORE PUSH1 0x20 ADD SWAP1 DUP2 MSTORE PUSH1 0x20 ADD PUSH0 KECCAK256 PUSH0 ADD DUP2 SWAP1 SSTORE POP PUSH1 0x4 PUSH0 SWAP1 SLOAD SWAP1 PUSH2 0x100 EXP SWAP1 DIV PUSH20 0xFFFFFFFFFFFFFFFFFFFFFFFFFFFFFFFFFFFFFFFF AND PUSH1 0x2 PUSH0 PUSH2 0x3E8 DUP2 MSTORE PUSH1 0x20 ADD SWAP1 DUP2 MSTORE PUSH1 0x20 ADD PUSH0 KECCAK256 PUSH1 0x1 ADD PUSH0 PUSH2 0x100 EXP DUP2 SLOAD DUP2 PUSH20 0xFFFFFFFFFFFFFFFFFFFFFFFFFFFFFFFFFFFFFFFF MUL NOT AND SWAP1 DUP4 PUSH20 0xFFFFFFFFFFFFFFFFFFFFFFFFFFFFFFFFFFFFFFFF AND MUL OR SWAP1 SSTORE POP PUSH0 PUSH1 0x2 PUSH0 PUSH2 0x3E8 DUP2 MSTORE PUSH1 0x20 ADD SWAP1 DUP2 MSTORE PUSH1 0x20 ADD PUSH0 KECCAK256 PUSH1 0x2 ADD DUP2 SWAP1 SSTORE POP PUSH1 0xA PUSH1 0x2 PUSH0 PUSH2 0x3E8 DUP2 MSTORE PUSH1 0x20 ADD SWAP1 DUP2 MSTORE PUSH1 0x20 ADD PUSH0 KECCAK256 PUSH1 0x9 ADD DUP2 SWAP1 SSTORE POP PUSH2 0x3E8 PUSH1 0x1 PUSH0 PUSH1 0x4 PUSH0 SWAP1 SLOAD SWAP1 PUSH2 0x100 EXP SWAP1 DIV PUSH20 0xFFFFFFFFFFFFFFFFFFFFFFFFFFFFFFFFFFFFFFFF AND PUSH20 0xFFFFFFFFFFFFFFFFFFFFFFFFFFFFFFFFFFFFFFFF AND PUSH20 0xFFFFFFFFFFFFFFFFFFFFFFFFFFFFFFFFFFFFFFFF AND DUP2 MSTORE PUSH1 0x20 ADD SWAP1 DUP2 MSTORE PUSH1 0x20 ADD PUSH0 KECCAK256 DUP2 SWAP1 SSTORE POP PUSH1 0x1 PUSH1 0x8 DUP2 SWAP1 SSTORE POP PUSH1 0x1 PUSH1 0x9 DUP2 SWAP1 SSTORE POP POP PUSH2 0x423 JUMP JUMPDEST DUP3 DUP1 SLOAD DUP3 DUP3 SSTORE SWAP1 PUSH0 MSTORE PUSH1 0x20 PUSH0 KECCAK256 SWAP1 DUP2 ADD SWAP3 DUP3 ISZERO PUSH2 0x36E JUMPI SWAP2 PUSH1 0x20 MUL DUP3 ADD JUMPDEST DUP3 DUP2 GT ISZERO PUSH2 0x36D JUMPI DUP3 MLOAD DUP3 SWAP1 PUSH9 0xFFFFFFFFFFFFFFFFFF AND SWAP1 SSTORE SWAP2 PUSH1 0x20 ADD SWAP2 SWAP1 PUSH1 0x1 ADD SWAP1 PUSH2 0x345 JUMP JUMPDEST JUMPDEST POP SWAP1 POP PUSH2 0x37B SWAP2 SWAP1 PUSH2 0x37F JUMP JUMPDEST POP SWAP1 JUMP JUMPDEST JUMPDEST DUP1 DUP3 GT ISZERO PUSH2 0x396 JUMPI PUSH0 DUP2 PUSH0 SWAP1 SSTORE POP PUSH1 0x1 ADD PUSH2 0x380 JUMP JUMPDEST POP SWAP1 JUMP JUMPDEST PUSH0 PUSH0 REVERT JUMPDEST PUSH0 PUSH20 0xFFFFFFFFFFFFFFFFFFFFFFFFFFFFFFFFFFFFFFFF DUP3 AND SWAP1 POP SWAP2 SWAP1 POP JUMP JUMPDEST PUSH0 PUSH2 0x3C7 DUP3 PUSH2 0x39E JUMP JUMPDEST SWAP1 POP SWAP2 SWAP1 POP JUMP JUMPDEST PUSH2 0x3D7 DUP2 PUSH2 0x3BD JUMP JUMPDEST DUP2 EQ PUSH2 0x3E1 JUMPI PUSH0 PUSH0 REVERT JUMPDEST POP JUMP JUMPDEST PUSH0 DUP2 MLOAD SWAP1 POP PUSH2 0x3F2 DUP2 PUSH2 0x3CE JUMP JUMPDEST SWAP3 SWAP2 POP POP JUMP JUMPDEST PUSH0 PUSH1 0x20 DUP3 DUP5 SUB SLT ISZERO PUSH2 0x40D JUMPI PUSH2 0x40C PUSH2 0x39A JUMP JUMPDEST JUMPDEST PUSH0 PUSH2 0x41A DUP5 DUP3 DUP6 ADD PUSH2 0x3E4 JUMP JUMPDEST SWAP2 POP POP SWAP3 SWAP2 POP POP JUMP JUMPDEST PUSH2 0x3CFB DUP1 PUSH2 0x430 PUSH0 CODECOPY PUSH0 RETURN INVALID PUSH1 0x80 PUSH1 0x40 MSTORE CALLVALUE DUP1 ISZERO PUSH2 0xF JUMPI PUSH0 PUSH0 REVERT JUMPDEST POP PUSH1 0x4 CALLDATASIZE LT PUSH2 0x14B JUMPI PUSH0 CALLDATALOAD PUSH1 0xE0 SHR DUP1 PUSH4 0x8DA5CB5B GT PUSH2 0xC1 JUMPI DUP1 PUSH4 0xE4D3CC50 GT PUSH2 0x7A JUMPI DUP1 PUSH4 0xE4D3CC50 EQ PUSH2 0x39B JUMPI DUP1 PUSH4 0xE54189FC EQ PUSH2 0x3CE JUMPI DUP1 PUSH4 0xE80E4C9F EQ PUSH2 0x3D8 JUMPI DUP1 PUSH4 0xE9D9E13F EQ PUSH2 0x3E2 JUMPI DUP1 PUSH4 0xEADADF44 EQ PUSH2 0x400 JUMPI DUP1 PUSH4 0xF2FDE38B EQ PUSH2 0x41C JUMPI PUSH2 0x14B JUMP JUMPDEST DUP1 PUSH4 0x8DA5CB5B EQ PUSH2 0x2BD JUMPI DUP1 PUSH4 0x971A6720 EQ PUSH2 0x2DB JUMPI DUP1 PUSH4 0xA11EE6F8 EQ PUSH2 0x2F9 JUMPI DUP1 PUSH4 0xA98AD46C EQ PUSH2 0x317 JUMPI DUP1 PUSH4 0xCB0E0D7D EQ PUSH2 0x335 JUMPI DUP1 PUSH4 0xD379DADF EQ PUSH2 0x365 JUMPI PUSH2 0x14B JUMP JUMPDEST DUP1 PUSH4 0x3C99092B GT PUSH2 0x113 JUMPI DUP1 PUSH4 0x3C99092B EQ PUSH2 0x20F JUMPI DUP1 PUSH4 0x40F60304 EQ PUSH2 0x22B JUMPI DUP1 PUSH4 0x433FC828 EQ PUSH2 0x247 JUMPI DUP1 PUSH4 0x5396DB9D EQ PUSH2 0x265 JUMPI DUP1 PUSH4 0x5E9B3882 EQ PUSH2 0x281 JUMPI DUP1 PUSH4 0x86E95FDF EQ PUSH2 0x29F JUMPI PUSH2 0x14B JUMP JUMPDEST DUP1 PUSH4 0x20FE8E6E EQ PUSH2 0x14F JUMPI DUP1 PUSH4 0x348D4487 EQ PUSH2 0x17F JUMPI DUP1 PUSH4 0x3516DCD1 EQ PUSH2 0x19D JUMPI DUP1 PUSH4 0x365B98B2 EQ PUSH2 0x1B9 JUMPI DUP1 PUSH4 0x3C7AFCA5 EQ PUSH2 0x1F1 JUMPI JUMPDEST PUSH0 PUSH0 REVERT JUMPDEST PUSH2 0x169 PUSH1 0x4 DUP1 CALLDATASIZE SUB DUP2 ADD SWAP1 PUSH2 0x164 SWAP2 SWAP1 PUSH2 0x29C8 JUMP JUMPDEST PUSH2 0x438 JUMP JUMPDEST PUSH1 0x40 MLOAD PUSH2 0x176 SWAP2 SWAP1 PUSH2 0x2A02 JUMP JUMPDEST PUSH1 0x40 MLOAD DUP1 SWAP2 SUB SWAP1 RETURN JUMPDEST PUSH2 0x187 PUSH2 0x458 JUMP JUMPDEST PUSH1 0x40 MLOAD PUSH2 0x194 SWAP2 SWAP1 PUSH2 0x2A02 JUMP JUMPDEST PUSH1 0x40 MLOAD DUP1 SWAP2 SUB SWAP1 RETURN JUMPDEST PUSH2 0x1B7 PUSH1 0x4 DUP1 CALLDATASIZE SUB DUP2 ADD SWAP1 PUSH2 0x1B2 SWAP2 SWAP1 PUSH2 0x29C8 JUMP JUMPDEST PUSH2 0x45E JUMP JUMPDEST STOP JUMPDEST PUSH2 0x1D3 PUSH1 0x4 DUP1 CALLDATASIZE SUB DUP2 ADD SWAP1 PUSH2 0x1CE SWAP2 SWAP1 PUSH2 0x29C8 JUMP JUMPDEST PUSH2 0x80B JUMP JUMPDEST PUSH1 0x40 MLOAD PUSH2 0x1E8 SWAP10 SWAP9 SWAP8 SWAP7 SWAP6 SWAP5 SWAP4 SWAP3 SWAP2 SWAP1 PUSH2 0x2A5A JUMP JUMPDEST PUSH1 0x40 MLOAD DUP1 SWAP2 SUB SWAP1 RETURN JUMPDEST PUSH2 0x1F9 PUSH2 0x874 JUMP JUMPDEST PUSH1 0x40 MLOAD PUSH2 0x206 SWAP2 SWAP1 PUSH2 0x2A02 JUMP JUMPDEST PUSH1 0x40 MLOAD DUP1 SWAP2 SUB SWAP1 RETURN JUMPDEST PUSH2 0x229 PUSH1 0x4 DUP1 CALLDATASIZE SUB DUP2 ADD SWAP1 PUSH2 0x224 SWAP2 SWAP1 PUSH2 0x29C8 JUMP JUMPDEST PUSH2 0x87A JUMP JUMPDEST STOP JUMPDEST PUSH2 0x245 PUSH1 0x4 DUP1 CALLDATASIZE SUB DUP2 ADD SWAP1 PUSH2 0x240 SWAP2 SWAP1 PUSH2 0x29C8 JUMP JUMPDEST PUSH2 0xA89 JUMP JUMPDEST STOP JUMPDEST PUSH2 0x24F PUSH2 0xC78 JUMP JUMPDEST PUSH1 0x40 MLOAD PUSH2 0x25C SWAP2 SWAP1 PUSH2 0x2A02 JUMP JUMPDEST PUSH1 0x40 MLOAD DUP1 SWAP2 SUB SWAP1 RETURN JUMPDEST PUSH2 0x27F PUSH1 0x4 DUP1 CALLDATASIZE SUB DUP2 ADD SWAP1 PUSH2 0x27A SWAP2 SWAP1 PUSH2 0x29C8 JUMP JUMPDEST PUSH2 0xC84 JUMP JUMPDEST STOP JUMPDEST PUSH2 0x289 PUSH2 0xF41 JUMP JUMPDEST PUSH1 0x40 MLOAD PUSH2 0x296 SWAP2 SWAP1 PUSH2 0x2A02 JUMP JUMPDEST PUSH1 0x40 MLOAD DUP1 SWAP2 SUB SWAP1 RETURN JUMPDEST PUSH2 0x2A7 PUSH2 0xF47 JUMP JUMPDEST PUSH1 0x40 MLOAD PUSH2 0x2B4 SWAP2 SWAP1 PUSH2 0x2A02 JUMP JUMPDEST PUSH1 0x40 MLOAD DUP1 SWAP2 SUB SWAP1 RETURN JUMPDEST PUSH2 0x2C5 PUSH2 0xF53 JUMP JUMPDEST PUSH1 0x40 MLOAD PUSH2 0x2D2 SWAP2 SWAP1 PUSH2 0x2AE5 JUMP JUMPDEST PUSH1 0x40 MLOAD DUP1 SWAP2 SUB SWAP1 RETURN JUMPDEST PUSH2 0x2E3 PUSH2 0xF78 JUMP JUMPDEST PUSH1 0x40 MLOAD PUSH2 0x2F0 SWAP2 SWAP1 PUSH2 0x2A02 JUMP JUMPDEST PUSH1 0x40 MLOAD DUP1 SWAP2 SUB SWAP1 RETURN JUMPDEST PUSH2 0x301 PUSH2 0xF7E JUMP JUMPDEST PUSH1 0x40 MLOAD PUSH2 0x30E SWAP2 SWAP1 PUSH2 0x2A02 JUMP JUMPDEST PUSH1 0x40 MLOAD DUP1 SWAP2 SUB SWAP1 RETURN JUMPDEST PUSH2 0x31F PUSH2 0xF84 JUMP JUMPDEST PUSH1 0x40 MLOAD PUSH2 0x32C SWAP2 SWAP1 PUSH2 0x2B59 JUMP JUMPDEST PUSH1 0x40 MLOAD DUP1 SWAP2 SUB SWAP1 RETURN JUMPDEST PUSH2 0x34F PUSH1 0x4 DUP1 CALLDATASIZE SUB DUP2 ADD SWAP1 PUSH2 0x34A SWAP2 SWAP1 PUSH2 0x2B9C JUMP JUMPDEST PUSH2 0xFA8 JUMP JUMPDEST PUSH1 0x40 MLOAD PUSH2 0x35C SWAP2 SWAP1 PUSH2 0x2A02 JUMP JUMPDEST PUSH1 0x40 MLOAD DUP1 SWAP2 SUB SWAP1 RETURN JUMPDEST PUSH2 0x37F PUSH1 0x4 DUP1 CALLDATASIZE SUB DUP2 ADD SWAP1 PUSH2 0x37A SWAP2 SWAP1 PUSH2 0x29C8 JUMP JUMPDEST PUSH2 0xFBD JUMP JUMPDEST PUSH1 0x40 MLOAD PUSH2 0x392 SWAP8 SWAP7 SWAP6 SWAP5 SWAP4 SWAP3 SWAP2 SWAP1 PUSH2 0x2BC7 JUMP JUMPDEST PUSH1 0x40 MLOAD DUP1 SWAP2 SUB SWAP1 RETURN JUMPDEST PUSH2 0x3B5 PUSH1 0x4 DUP1 CALLDATASIZE SUB DUP2 ADD SWAP1 PUSH2 0x3B0 SWAP2 SWAP1 PUSH2 0x2C34 JUMP JUMPDEST PUSH2 0x1034 JUMP JUMPDEST PUSH1 0x40 MLOAD PUSH2 0x3C5 SWAP5 SWAP4 SWAP3 SWAP2 SWAP1 PUSH2 0x2D29 JUMP JUMPDEST PUSH1 0x40 MLOAD DUP1 SWAP2 SUB SWAP1 RETURN JUMPDEST PUSH2 0x3D6 PUSH2 0x1122 JUMP JUMPDEST STOP JUMPDEST PUSH2 0x3E0 PUSH2 0x1545 JUMP JUMPDEST STOP JUMPDEST PUSH2 0x3EA PUSH2 0x16EE JUMP JUMPDEST PUSH1 0x40 MLOAD PUSH2 0x3F7 SWAP2 SWAP1 PUSH2 0x2A02 JUMP JUMPDEST PUSH1 0x40 MLOAD DUP1 SWAP2 SUB SWAP1 RETURN JUMPDEST PUSH2 0x41A PUSH1 0x4 DUP1 CALLDATASIZE SUB DUP2 ADD SWAP1 PUSH2 0x415 SWAP2 SWAP1 PUSH2 0x2C34 JUMP JUMPDEST PUSH2 0x16F4 JUMP JUMPDEST STOP JUMPDEST PUSH2 0x436 PUSH1 0x4 DUP1 CALLDATASIZE SUB DUP2 ADD SWAP1 PUSH2 0x431 SWAP2 SWAP1 PUSH2 0x2B9C JUMP JUMPDEST PUSH2 0x199B JUMP JUMPDEST STOP JUMPDEST PUSH1 0x5 DUP2 DUP2 SLOAD DUP2 LT PUSH2 0x447 JUMPI PUSH0 DUP1 REVERT JUMPDEST SWAP1 PUSH0 MSTORE PUSH1 0x20 PUSH0 KECCAK256 ADD PUSH0 SWAP2 POP SWAP1 POP SLOAD DUP2 JUMP JUMPDEST PUSH1 0x3 SLOAD DUP2 JUMP JUMPDEST PUSH0 PUSH1 0x1 PUSH0 CALLER PUSH20 0xFFFFFFFFFFFFFFFFFFFFFFFFFFFFFFFFFFFFFFFF AND PUSH20 0xFFFFFFFFFFFFFFFFFFFFFFFFFFFFFFFFFFFFFFFF AND DUP2 MSTORE PUSH1 0x20 ADD SWAP1 DUP2 MSTORE PUSH1 0x20 ADD PUSH0 KECCAK256 SLOAD EQ PUSH2 0x4DD JUMPI PUSH1 0x40 MLOAD PUSH32 0x8C379A000000000000000000000000000000000000000000000000000000000 DUP2 MSTORE PUSH1 0x4 ADD PUSH2 0x4D4 SWAP1 PUSH2 0x2DD4 JUMP JUMPDEST PUSH1 0x40 MLOAD DUP1 SWAP2 SUB SWAP1 REVERT JUMPDEST PUSH0 PUSH1 0x2 PUSH0 DUP4 DUP2 MSTORE PUSH1 0x20 ADD SWAP1 DUP2 MSTORE PUSH1 0x20 ADD PUSH0 KECCAK256 PUSH0 ADD SLOAD SUB PUSH2 0x532 JUMPI PUSH1 0x40 MLOAD PUSH32 0x8C379A000000000000000000000000000000000000000000000000000000000 DUP2 MSTORE PUSH1 0x4 ADD PUSH2 0x529 SWAP1 PUSH2 0x2E3C JUMP JUMPDEST PUSH1 0x40 MLOAD DUP1 SWAP2 SUB SWAP1 REVERT JUMPDEST PUSH0 PUSH1 0x5 PUSH1 0x1 DUP2 SLOAD DUP2 LT PUSH2 0x548 JUMPI PUSH2 0x547 PUSH2 0x2E5A JUMP JUMPDEST JUMPDEST SWAP1 PUSH0 MSTORE PUSH1 0x20 PUSH0 KECCAK256 ADD SLOAD SWAP1 POP PUSH0 PUSH0 SWAP1 SLOAD SWAP1 PUSH2 0x100 EXP SWAP1 DIV PUSH20 0xFFFFFFFFFFFFFFFFFFFFFFFFFFFFFFFFFFFFFFFF AND PUSH20 0xFFFFFFFFFFFFFFFFFFFFFFFFFFFFFFFFFFFFFFFF AND PUSH4 0x23B872DD CALLER ADDRESS DUP5 PUSH1 0x40 MLOAD DUP5 PUSH4 0xFFFFFFFF AND PUSH1 0xE0 SHL DUP2 MSTORE PUSH1 0x4 ADD PUSH2 0x5B0 SWAP4 SWAP3 SWAP2 SWAP1 PUSH2 0x2E87 JUMP JUMPDEST PUSH1 0x20 PUSH1 0x40 MLOAD DUP1 DUP4 SUB DUP2 PUSH0 DUP8 GAS CALL ISZERO DUP1 ISZERO PUSH2 0x5CC JUMPI RETURNDATASIZE PUSH0 PUSH0 RETURNDATACOPY RETURNDATASIZE PUSH0 REVERT JUMPDEST POP POP POP POP PUSH1 0x40 MLOAD RETURNDATASIZE PUSH1 0x1F NOT PUSH1 0x1F DUP3 ADD AND DUP3 ADD DUP1 PUSH1 0x40 MSTORE POP DUP2 ADD SWAP1 PUSH2 0x5F0 SWAP2 SWAP1 PUSH2 0x2EF1 JUMP JUMPDEST PUSH2 0x62F JUMPI PUSH1 0x40 MLOAD PUSH32 0x8C379A000000000000000000000000000000000000000000000000000000000 DUP2 MSTORE PUSH1 0x4 ADD PUSH2 0x626 SWAP1 PUSH2 0x2F66 JUMP JUMPDEST PUSH1 0x40 MLOAD DUP1 SWAP2 SUB SWAP1 REVERT JUMPDEST PUSH1 0x3 PUSH0 DUP2 SLOAD DUP1 SWAP3 SWAP2 SWAP1 PUSH2 0x641 SWAP1 PUSH2 0x2FB1 JUMP JUMPDEST SWAP2 SWAP1 POP SSTORE POP PUSH0 PUSH1 0x3 SLOAD SWAP1 POP DUP1 PUSH1 0x2 PUSH0 DUP4 DUP2 MSTORE PUSH1 0x20 ADD SWAP1 DUP2 MSTORE PUSH1 0x20 ADD PUSH0 KECCAK256 PUSH0 ADD DUP2 SWAP1 SSTORE POP CALLER PUSH1 0x2 PUSH0 DUP4 DUP2 MSTORE PUSH1 0x20 ADD SWAP1 DUP2 MSTORE PUSH1 0x20 ADD PUSH0 KECCAK256 PUSH1 0x1 ADD PUSH0 PUSH2 0x100 EXP DUP2 SLOAD DUP2 PUSH20 0xFFFFFFFFFFFFFFFFFFFFFFFFFFFFFFFFFFFFFFFF MUL NOT AND SWAP1 DUP4 PUSH20 0xFFFFFFFFFFFFFFFFFFFFFFFFFFFFFFFFFFFFFFFF AND MUL OR SWAP1 SSTORE POP DUP3 PUSH1 0x2 PUSH0 DUP4 DUP2 MSTORE PUSH1 0x20 ADD SWAP1 DUP2 MSTORE PUSH1 0x20 ADD PUSH0 KECCAK256 PUSH1 0x2 ADD DUP2 SWAP1 SSTORE POP PUSH1 0x1 PUSH1 0x2 PUSH0 DUP4 DUP2 MSTORE PUSH1 0x20 ADD SWAP1 DUP2 MSTORE PUSH1 0x20 ADD PUSH0 KECCAK256 PUSH1 0x9 ADD DUP2 SWAP1 SSTORE POP DUP1 PUSH1 0x1 PUSH0 CALLER PUSH20 0xFFFFFFFFFFFFFFFFFFFFFFFFFFFFFFFFFFFFFFFF AND PUSH20 0xFFFFFFFFFFFFFFFFFFFFFFFFFFFFFFFFFFFFFFFF AND DUP2 MSTORE PUSH1 0x20 ADD SWAP1 DUP2 MSTORE PUSH1 0x20 ADD PUSH0 KECCAK256 DUP2 SWAP1 SSTORE POP PUSH1 0x2 PUSH0 DUP5 DUP2 MSTORE PUSH1 0x20 ADD SWAP1 DUP2 MSTORE PUSH1 0x20 ADD PUSH0 KECCAK256 PUSH1 0x7 ADD PUSH0 DUP2 SLOAD DUP1 SWAP3 SWAP2 SWAP1 PUSH2 0x74F SWAP1 PUSH2 0x2FB1 JUMP JUMPDEST SWAP2 SWAP1 POP SSTORE POP PUSH1 0x2 PUSH0 DUP5 DUP2 MSTORE PUSH1 0x20 ADD SWAP1 DUP2 MSTORE PUSH1 0x20 ADD PUSH0 KECCAK256 PUSH1 0x8 ADD PUSH0 DUP2 SLOAD DUP1 SWAP3 SWAP2 SWAP1 PUSH2 0x778 SWAP1 PUSH2 0x2FB1 JUMP JUMPDEST SWAP2 SWAP1 POP SSTORE POP PUSH1 0x8 PUSH0 DUP2 SLOAD DUP1 SWAP3 SWAP2 SWAP1 PUSH2 0x78F SWAP1 PUSH2 0x2FB1 JUMP JUMPDEST SWAP2 SWAP1 POP SSTORE POP PUSH1 0x9 PUSH0 DUP2 SLOAD DUP1 SWAP3 SWAP2 SWAP1 PUSH2 0x7A6 SWAP1 PUSH2 0x2FB1 JUMP JUMPDEST SWAP2 SWAP1 POP SSTORE POP DUP3 CALLER PUSH20 0xFFFFFFFFFFFFFFFFFFFFFFFFFFFFFFFFFFFFFFFF AND PUSH32 0xD6D8BE58EF6918A4E19027A89943222BC99E02D838BD0B3E41004FD72D7F344 DUP4 PUSH1 0x40 MLOAD PUSH2 0x7F2 SWAP2 SWAP1 PUSH2 0x2A02 JUMP JUMPDEST PUSH1 0x40 MLOAD DUP1 SWAP2 SUB SWAP1 LOG3 PUSH2 0x806 DUP2 PUSH1 0x1 DUP5 PUSH2 0x1CFB JUMP JUMPDEST POP POP POP JUMP JUMPDEST PUSH1 0x2 PUSH1 0x20 MSTORE DUP1 PUSH0 MSTORE PUSH1 0x40 PUSH0 KECCAK256 PUSH0 SWAP2 POP SWAP1 POP DUP1 PUSH0 ADD SLOAD SWAP1 DUP1 PUSH1 0x1 ADD PUSH0 SWAP1 SLOAD SWAP1 PUSH2 0x100 EXP SWAP1 DIV PUSH20 0xFFFFFFFFFFFFFFFFFFFFFFFFFFFFFFFFFFFFFFFF AND SWAP1 DUP1 PUSH1 0x2 ADD SLOAD SWAP1 DUP1 PUSH1 0x3 ADD SLOAD SWAP1 DUP1 PUSH1 0x4 ADD SLOAD SWAP1 DUP1 PUSH1 0x5 ADD SLOAD SWAP1 DUP1 PUSH1 0x7 ADD SLOAD SWAP1 DUP1 PUSH1 0x8 ADD SLOAD SWAP1 DUP1 PUSH1 0x9 ADD SLOAD SWAP1 POP DUP10 JUMP JUMPDEST PUSH1 0x8 SLOAD DUP2 JUMP JUMPDEST PUSH0 PUSH1 0x1 PUSH0 CALLER PUSH20 0xFFFFFFFFFFFFFFFFFFFFFFFFFFFFFFFFFFFFFFFF AND PUSH20 0xFFFFFFFFFFFFFFFFFFFFFFFFFFFFFFFFFFFFFFFF AND DUP2 MSTORE PUSH1 0x20 ADD SWAP1 DUP2 MSTORE PUSH1 0x20 ADD PUSH0 KECCAK256 SLOAD EQ PUSH2 0x8F9 JUMPI PUSH1 0x40 MLOAD PUSH32 0x8C379A000000000000000000000000000000000000000000000000000000000 DUP2 MSTORE PUSH1 0x4 ADD PUSH2 0x8F0 SWAP1 PUSH2 0x2DD4 JUMP JUMPDEST PUSH1 0x40 MLOAD DUP1 SWAP2 SUB SWAP1 REVERT JUMPDEST PUSH2 0x3E8 DUP2 LT DUP1 PUSH2 0x91B JUMPI POP PUSH0 PUSH1 0x2 PUSH0 DUP4 DUP2 MSTORE PUSH1 0x20 ADD SWAP1 DUP2 MSTORE PUSH1 0x20 ADD PUSH0 KECCAK256 PUSH0 ADD SLOAD EQ JUMPDEST ISZERO PUSH2 0x926 JUMPI PUSH2 0x3E8 SWAP1 POP JUMPDEST PUSH1 0x3 PUSH0 DUP2 SLOAD DUP1 SWAP3 SWAP2 SWAP1 PUSH2 0x938 SWAP1 PUSH2 0x2FB1 JUMP JUMPDEST SWAP2 SWAP1 POP SSTORE POP PUSH0 PUSH1 0x3 SLOAD SWAP1 POP PUSH0 PUSH1 0x2 PUSH0 DUP4 DUP2 MSTORE PUSH1 0x20 ADD SWAP1 DUP2 MSTORE PUSH1 0x20 ADD PUSH0 KECCAK256 SWAP1 POP DUP2 DUP2 PUSH0 ADD DUP2 SWAP1 SSTORE POP CALLER DUP2 PUSH1 0x1 ADD PUSH0 PUSH2 0x100 EXP DUP2 SLOAD DUP2 PUSH20 0xFFFFFFFFFFFFFFFFFFFFFFFFFFFFFFFFFFFFFFFF MUL NOT AND SWAP1 DUP4 PUSH20 0xFFFFFFFFFFFFFFFFFFFFFFFFFFFFFFFFFFFFFFFF AND MUL OR SWAP1 SSTORE POP DUP3 DUP2 PUSH1 0x2 ADD DUP2 SWAP1 SSTORE POP PUSH0 DUP2 PUSH1 0x9 ADD DUP2 SWAP1 SSTORE POP DUP2 PUSH1 0x1 PUSH0 CALLER PUSH20 0xFFFFFFFFFFFFFFFFFFFFFFFFFFFFFFFFFFFFFFFF AND PUSH20 0xFFFFFFFFFFFFFFFFFFFFFFFFFFFFFFFFFFFFFFFF AND DUP2 MSTORE PUSH1 0x20 ADD SWAP1 DUP2 MSTORE PUSH1 0x20 ADD PUSH0 KECCAK256 DUP2 SWAP1 SSTORE POP PUSH1 0x2 PUSH0 DUP5 DUP2 MSTORE PUSH1 0x20 ADD SWAP1 DUP2 MSTORE PUSH1 0x20 ADD PUSH0 KECCAK256 PUSH1 0x7 ADD PUSH0 DUP2 SLOAD DUP1 SWAP3 SWAP2 SWAP1 PUSH2 0xA19 SWAP1 PUSH2 0x2FB1 JUMP JUMPDEST SWAP2 SWAP1 POP SSTORE POP PUSH1 0x8 PUSH0 DUP2 SLOAD DUP1 SWAP3 SWAP2 SWAP1 PUSH2 0xA30 SWAP1 PUSH2 0x2FB1 JUMP JUMPDEST SWAP2 SWAP1 POP SSTORE POP DUP3 CALLER PUSH20 0xFFFFFFFFFFFFFFFFFFFFFFFFFFFFFFFFFFFFFFFF AND PUSH32 0xD6D8BE58EF6918A4E19027A89943222BC99E02D838BD0B3E41004FD72D7F344 DUP5 PUSH1 0x40 MLOAD PUSH2 0xA7C SWAP2 SWAP1 PUSH2 0x2A02 JUMP JUMPDEST PUSH1 0x40 MLOAD DUP1 SWAP2 SUB SWAP1 LOG3 POP POP POP JUMP JUMPDEST PUSH1 0x4 PUSH0 SWAP1 SLOAD SWAP1 PUSH2 0x100 EXP SWAP1 DIV PUSH20 0xFFFFFFFFFFFFFFFFFFFFFFFFFFFFFFFFFFFFFFFF AND PUSH20 0xFFFFFFFFFFFFFFFFFFFFFFFFFFFFFFFFFFFFFFFF AND CALLER PUSH20 0xFFFFFFFFFFFFFFFFFFFFFFFFFFFFFFFFFFFFFFFF AND EQ PUSH2 0xB18 JUMPI PUSH1 0x40 MLOAD PUSH32 0x8C379A000000000000000000000000000000000000000000000000000000000 DUP2 MSTORE PUSH1 0x4 ADD PUSH2 0xB0F SWAP1 PUSH2 0x3042 JUMP JUMPDEST PUSH1 0x40 MLOAD DUP1 SWAP2 SUB SWAP1 REVERT JUMPDEST PUSH1 0x7 SLOAD DUP2 GT ISZERO PUSH2 0xB5D JUMPI PUSH1 0x40 MLOAD PUSH32 0x8C379A000000000000000000000000000000000000000000000000000000000 DUP2 MSTORE PUSH1 0x4 ADD PUSH2 0xB54 SWAP1 PUSH2 0x30AA JUMP JUMPDEST PUSH1 0x40 MLOAD DUP1 SWAP2 SUB SWAP1 REVERT JUMPDEST DUP1 PUSH1 0x7 PUSH0 DUP3 DUP3 SLOAD PUSH2 0xB6E SWAP2 SWAP1 PUSH2 0x30C8 JUMP JUMPDEST SWAP3 POP POP DUP2 SWAP1 SSTORE POP PUSH0 PUSH0 PUSH0 SWAP1 SLOAD SWAP1 PUSH2 0x100 EXP SWAP1 DIV PUSH20 0xFFFFFFFFFFFFFFFFFFFFFFFFFFFFFFFFFFFFFFFF AND PUSH20 0xFFFFFFFFFFFFFFFFFFFFFFFFFFFFFFFFFFFFFFFF AND PUSH4 0xA9059CBB PUSH1 0x4 PUSH0 SWAP1 SLOAD SWAP1 PUSH2 0x100 EXP SWAP1 DIV PUSH20 0xFFFFFFFFFFFFFFFFFFFFFFFFFFFFFFFFFFFFFFFF AND DUP5 PUSH1 0x40 MLOAD DUP4 PUSH4 0xFFFFFFFF AND PUSH1 0xE0 SHL DUP2 MSTORE PUSH1 0x4 ADD PUSH2 0xBF2 SWAP3 SWAP2 SWAP1 PUSH2 0x30FB JUMP JUMPDEST PUSH1 0x20 PUSH1 0x40 MLOAD DUP1 DUP4 SUB DUP2 PUSH0 DUP8 GAS CALL ISZERO DUP1 ISZERO PUSH2 0xC0E JUMPI RETURNDATASIZE PUSH0 PUSH0 RETURNDATACOPY RETURNDATASIZE PUSH0 REVERT JUMPDEST POP POP POP POP PUSH1 0x40 MLOAD RETURNDATASIZE PUSH1 0x1F NOT PUSH1 0x1F DUP3 ADD AND DUP3 ADD DUP1 PUSH1 0x40 MSTORE POP DUP2 ADD SWAP1 PUSH2 0xC32 SWAP2 SWAP1 PUSH2 0x2EF1 JUMP JUMPDEST SWAP1 POP DUP1 PUSH2 0xC74 JUMPI PUSH1 0x40 MLOAD PUSH32 0x8C379A000000000000000000000000000000000000000000000000000000000 DUP2 MSTORE PUSH1 0x4 ADD PUSH2 0xC6B SWAP1 PUSH2 0x316C JUMP JUMPDEST PUSH1 0x40 MLOAD DUP1 SWAP2 SUB SWAP1 REVERT JUMPDEST POP POP JUMP JUMPDEST PUSH8 0x8AC7230489E80000 DUP2 JUMP JUMPDEST PUSH0 PUSH1 0x1 PUSH0 CALLER PUSH20 0xFFFFFFFFFFFFFFFFFFFFFFFFFFFFFFFFFFFFFFFF AND PUSH20 0xFFFFFFFFFFFFFFFFFFFFFFFFFFFFFFFFFFFFFFFF AND DUP2 MSTORE PUSH1 0x20 ADD SWAP1 DUP2 MSTORE PUSH1 0x20 ADD PUSH0 KECCAK256 SLOAD SWAP1 POP PUSH0 DUP2 SUB PUSH2 0xD07 JUMPI PUSH1 0x40 MLOAD PUSH32 0x8C379A000000000000000000000000000000000000000000000000000000000 DUP2 MSTORE PUSH1 0x4 ADD PUSH2 0xCFE SWAP1 PUSH2 0x31D4 JUMP JUMPDEST PUSH1 0x40 MLOAD DUP1 SWAP2 SUB SWAP1 REVERT JUMPDEST PUSH1 0x1 DUP3 LT ISZERO DUP1 ISZERO PUSH2 0xD19 JUMPI POP PUSH1 0xA DUP3 GT ISZERO JUMPDEST PUSH2 0xD58 JUMPI PUSH1 0x40 MLOAD PUSH32 0x8C379A000000000000000000000000000000000000000000000000000000000 DUP2 MSTORE PUSH1 0x4 ADD PUSH2 0xD4F SWAP1 PUSH2 0x323C JUMP JUMPDEST PUSH1 0x40 MLOAD DUP1 SWAP2 SUB SWAP1 REVERT JUMPDEST PUSH1 0x1 DUP3 PUSH2 0xD65 SWAP2 SWAP1 PUSH2 0x30C8 JUMP JUMPDEST PUSH1 0x2 PUSH0 DUP4 DUP2 MSTORE PUSH1 0x20 ADD SWAP1 DUP2 MSTORE PUSH1 0x20 ADD PUSH0 KECCAK256 PUSH1 0x9 ADD SLOAD EQ PUSH2 0xDBA JUMPI PUSH1 0x40 MLOAD PUSH32 0x8C379A000000000000000000000000000000000000000000000000000000000 DUP2 MSTORE PUSH1 0x4 ADD PUSH2 0xDB1 SWAP1 PUSH2 0x32A4 JUMP JUMPDEST PUSH1 0x40 MLOAD DUP1 SWAP2 SUB SWAP1 REVERT JUMPDEST PUSH0 PUSH1 0x5 DUP4 DUP2 SLOAD DUP2 LT PUSH2 0xDCF JUMPI PUSH2 0xDCE PUSH2 0x2E5A JUMP JUMPDEST JUMPDEST SWAP1 PUSH0 MSTORE PUSH1 0x20 PUSH0 KECCAK256 ADD SLOAD SWAP1 POP PUSH0 PUSH0 SWAP1 SLOAD SWAP1 PUSH2 0x100 EXP SWAP1 DIV PUSH20 0xFFFFFFFFFFFFFFFFFFFFFFFFFFFFFFFFFFFFFFFF AND PUSH20 0xFFFFFFFFFFFFFFFFFFFFFFFFFFFFFFFFFFFFFFFF AND PUSH4 0x23B872DD CALLER ADDRESS DUP5 PUSH1 0x40 MLOAD DUP5 PUSH4 0xFFFFFFFF AND PUSH1 0xE0 SHL DUP2 MSTORE PUSH1 0x4 ADD PUSH2 0xE37 SWAP4 SWAP3 SWAP2 SWAP1 PUSH2 0x2E87 JUMP JUMPDEST PUSH1 0x20 PUSH1 0x40 MLOAD DUP1 DUP4 SUB DUP2 PUSH0 DUP8 GAS CALL ISZERO DUP1 ISZERO PUSH2 0xE53 JUMPI RETURNDATASIZE PUSH0 PUSH0 RETURNDATACOPY RETURNDATASIZE PUSH0 REVERT JUMPDEST POP POP POP POP PUSH1 0x40 MLOAD RETURNDATASIZE PUSH1 0x1F NOT PUSH1 0x1F DUP3 ADD AND DUP3 ADD DUP1 PUSH1 0x40 MSTORE POP DUP2 ADD SWAP1 PUSH2 0xE77 SWAP2 SWAP1 PUSH2 0x2EF1 JUMP JUMPDEST PUSH2 0xEB6 JUMPI PUSH1 0x40 MLOAD PUSH32 0x8C379A000000000000000000000000000000000000000000000000000000000 DUP2 MSTORE PUSH1 0x4 ADD PUSH2 0xEAD SWAP1 PUSH2 0x2F66 JUMP JUMPDEST PUSH1 0x40 MLOAD DUP1 SWAP2 SUB SWAP1 REVERT JUMPDEST DUP3 PUSH1 0x2 PUSH0 DUP5 DUP2 MSTORE PUSH1 0x20 ADD SWAP1 DUP2 MSTORE PUSH1 0x20 ADD PUSH0 KECCAK256 PUSH1 0x9 ADD DUP2 SWAP1 SSTORE POP PUSH1 0x1 DUP4 SUB PUSH2 0xF31 JUMPI PUSH0 PUSH1 0x2 PUSH0 DUP5 DUP2 MSTORE PUSH1 0x20 ADD SWAP1 DUP2 MSTORE PUSH1 0x20 ADD PUSH0 KECCAK256 PUSH1 0x2 ADD SLOAD SWAP1 POP PUSH1 0x2 PUSH0 DUP3 DUP2 MSTORE PUSH1 0x20 ADD SWAP1 DUP2 MSTORE PUSH1 0x20 ADD PUSH0 KECCAK256 PUSH1 0x8 ADD PUSH0 DUP2 SLOAD DUP1 SWAP3 SWAP2 SWAP1 PUSH2 0xF13 SWAP1 PUSH2 0x2FB1 JUMP JUMPDEST SWAP2 SWAP1 POP SSTORE POP PUSH1 0x9 PUSH0 DUP2 SLOAD DUP1 SWAP3 SWAP2 SWAP1 PUSH2 0xF2A SWAP1 PUSH2 0x2FB1 JUMP JUMPDEST SWAP2 SWAP1 POP SSTORE POP POP JUMPDEST PUSH2 0xF3C DUP3 DUP5 DUP4 PUSH2 0x1CFB JUMP JUMPDEST POP POP POP JUMP JUMPDEST PUSH1 0x7 SLOAD DUP2 JUMP JUMPDEST PUSH8 0x29A2241AF62C0000 DUP2 JUMP JUMPDEST PUSH1 0x4 PUSH0 SWAP1 SLOAD SWAP1 PUSH2 0x100 EXP SWAP1 DIV PUSH20 0xFFFFFFFFFFFFFFFFFFFFFFFFFFFFFFFFFFFFFFFF AND DUP2 JUMP JUMPDEST PUSH2 0x3E8 DUP2 JUMP JUMPDEST PUSH1 0x6 SLOAD DUP2 JUMP JUMPDEST PUSH0 PUSH0 SWAP1 SLOAD SWAP1 PUSH2 0x100 EXP SWAP1 DIV PUSH20 0xFFFFFFFFFFFFFFFFFFFFFFFFFFFFFFFFFFFFFFFF AND DUP2 JUMP JUMPDEST PUSH1 0x1 PUSH1 0x20 MSTORE DUP1 PUSH0 MSTORE PUSH1 0x40 PUSH0 KECCAK256 PUSH0 SWAP2 POP SWAP1 POP SLOAD DUP2 JUMP JUMPDEST PUSH0 PUSH0 PUSH0 PUSH0 PUSH0 PUSH0 PUSH0 PUSH0 PUSH1 0x2 PUSH0 DUP11 DUP2 MSTORE PUSH1 0x20 ADD SWAP1 DUP2 MSTORE PUSH1 0x20 ADD PUSH0 KECCAK256 SWAP1 POP DUP1 PUSH1 0x1 ADD PUSH0 SWAP1 SLOAD SWAP1 PUSH2 0x100 EXP SWAP1 DIV PUSH20 0xFFFFFFFFFFFFFFFFFFFFFFFFFFFFFFFFFFFFFFFF AND DUP2 PUSH1 0x2 ADD SLOAD DUP3 PUSH1 0x3 ADD SLOAD DUP4 PUSH1 0x7 ADD SLOAD DUP5 PUSH1 0x8 ADD SLOAD DUP6 PUSH1 0x9 ADD SLOAD DUP7 PUSH1 0x4 ADD SLOAD SWAP8 POP SWAP8 POP SWAP8 POP SWAP8 POP SWAP8 POP SWAP8 POP SWAP8 POP POP SWAP2 SWAP4 SWAP6 SWAP8 SWAP1 SWAP3 SWAP5 SWAP7 POP JUMP JUMPDEST PUSH0 PUSH1 0x60 DUP1 PUSH0 PUSH0 PUSH1 0x2 PUSH0 DUP9 DUP2 MSTORE PUSH1 0x20 ADD SWAP1 DUP2 MSTORE PUSH1 0x20 ADD PUSH0 KECCAK256 PUSH1 0x6 ADD PUSH0 DUP8 DUP2 MSTORE PUSH1 0x20 ADD SWAP1 DUP2 MSTORE PUSH1 0x20 ADD PUSH0 KECCAK256 SWAP1 POP DUP1 PUSH0 ADD SLOAD DUP2 PUSH1 0x1 ADD DUP3 PUSH1 0x2 ADD DUP4 PUSH1 0x3 ADD SLOAD DUP3 DUP1 SLOAD DUP1 PUSH1 0x20 MUL PUSH1 0x20 ADD PUSH1 0x40 MLOAD SWAP1 DUP2 ADD PUSH1 0x40 MSTORE DUP1 SWAP3 SWAP2 SWAP1 DUP2 DUP2 MSTORE PUSH1 0x20 ADD DUP3 DUP1 SLOAD DUP1 ISZERO PUSH2 0x10B9 JUMPI PUSH1 0x20 MUL DUP3 ADD SWAP2 SWAP1 PUSH0 MSTORE PUSH1 0x20 PUSH0 KECCAK256 SWAP1 JUMPDEST DUP2 SLOAD DUP2 MSTORE PUSH1 0x20 ADD SWAP1 PUSH1 0x1 ADD SWAP1 DUP1 DUP4 GT PUSH2 0x10A5 JUMPI JUMPDEST POP POP POP POP POP SWAP3 POP DUP2 DUP1 SLOAD DUP1 PUSH1 0x20 MUL PUSH1 0x20 ADD PUSH1 0x40 MLOAD SWAP1 DUP2 ADD PUSH1 0x40 MSTORE DUP1 SWAP3 SWAP2 SWAP1 DUP2 DUP2 MSTORE PUSH1 0x20 ADD DUP3 DUP1 SLOAD DUP1 ISZERO PUSH2 0x1109 JUMPI PUSH1 0x20 MUL DUP3 ADD SWAP2 SWAP1 PUSH0 MSTORE PUSH1 0x20 PUSH0 KECCAK256 SWAP1 JUMPDEST DUP2 SLOAD DUP2 MSTORE PUSH1 0x20 ADD SWAP1 PUSH1 0x1 ADD SWAP1 DUP1 DUP4 GT PUSH2 0x10F5 JUMPI JUMPDEST POP POP POP POP POP SWAP2 POP SWAP5 POP SWAP5 POP SWAP5 POP SWAP5 POP POP SWAP3 SWAP6 SWAP2 SWAP5 POP SWAP3 POP JUMP JUMPDEST PUSH0 PUSH1 0x1 PUSH0 CALLER PUSH20 0xFFFFFFFFFFFFFFFFFFFFFFFFFFFFFFFFFFFFFFFF AND PUSH20 0xFFFFFFFFFFFFFFFFFFFFFFFFFFFFFFFFFFFFFFFF AND DUP2 MSTORE PUSH1 0x20 ADD SWAP1 DUP2 MSTORE PUSH1 0x20 ADD PUSH0 KECCAK256 SLOAD SWAP1 POP PUSH0 DUP2 SUB PUSH2 0x11A5 JUMPI PUSH1 0x40 MLOAD PUSH32 0x8C379A000000000000000000000000000000000000000000000000000000000 DUP2 MSTORE PUSH1 0x4 ADD PUSH2 0x119C SWAP1 PUSH2 0x31D4 JUMP JUMPDEST PUSH1 0x40 MLOAD DUP1 SWAP2 SUB SWAP1 REVERT JUMPDEST PUSH1 0x1 PUSH1 0x2 PUSH0 DUP4 DUP2 MSTORE PUSH1 0x20 ADD SWAP1 DUP2 MSTORE PUSH1 0x20 ADD PUSH0 KECCAK256 PUSH1 0x9 ADD SLOAD LT ISZERO PUSH2 0x11FD JUMPI PUSH1 0x40 MLOAD PUSH32 0x8C379A000000000000000000000000000000000000000000000000000000000 DUP2 MSTORE PUSH1 0x4 ADD PUSH2 0x11F4 SWAP1 PUSH2 0x330C JUMP JUMPDEST PUSH1 0x40 MLOAD DUP1 SWAP2 SUB SWAP1 REVERT JUMPDEST PUSH3 0x15180 PUSH1 0x2 PUSH0 DUP4 DUP2 MSTORE PUSH1 0x20 ADD SWAP1 DUP2 MSTORE PUSH1 0x20 ADD PUSH0 KECCAK256 PUSH1 0x5 ADD SLOAD PUSH2 0x1220 SWAP2 SWAP1 PUSH2 0x332A JUMP JUMPDEST TIMESTAMP LT ISZERO PUSH2 0x1262 JUMPI PUSH1 0x40 MLOAD PUSH32 0x8C379A000000000000000000000000000000000000000000000000000000000 DUP2 MSTORE PUSH1 0x4 ADD PUSH2 0x1259 SWAP1 PUSH2 0x33A7 JUMP JUMPDEST PUSH1 0x40 MLOAD DUP1 SWAP2 SUB SWAP1 REVERT JUMPDEST PUSH8 0x8AC7230489E80000 PUSH1 0x2 PUSH0 DUP4 DUP2 MSTORE PUSH1 0x20 ADD SWAP1 DUP2 MSTORE PUSH1 0x20 ADD PUSH0 KECCAK256 PUSH1 0x4 ADD SLOAD LT PUSH2 0x12C0 JUMPI PUSH1 0x40 MLOAD PUSH32 0x8C379A000000000000000000000000000000000000000000000000000000000 DUP2 MSTORE PUSH1 0x4 ADD PUSH2 0x12B7 SWAP1 PUSH2 0x340F JUMP JUMPDEST PUSH1 0x40 MLOAD DUP1 SWAP2 SUB SWAP1 REVERT JUMPDEST PUSH0 PUSH1 0x6 SLOAD GT PUSH2 0x1304 JUMPI PUSH1 0x40 MLOAD PUSH32 0x8C379A000000000000000000000000000000000000000000000000000000000 DUP2 MSTORE PUSH1 0x4 ADD PUSH2 0x12FB SWAP1 PUSH2 0x3477 JUMP JUMPDEST PUSH1 0x40 MLOAD DUP1 SWAP2 SUB SWAP1 REVERT JUMPDEST PUSH0 PUSH1 0x9 SLOAD PUSH1 0x6 SLOAD PUSH2 0x1315 SWAP2 SWAP1 PUSH2 0x34C2 JUMP JUMPDEST SWAP1 POP PUSH0 DUP2 GT PUSH2 0x1359 JUMPI PUSH1 0x40 MLOAD PUSH32 0x8C379A000000000000000000000000000000000000000000000000000000000 DUP2 MSTORE PUSH1 0x4 ADD PUSH2 0x1350 SWAP1 PUSH2 0x353C JUMP JUMPDEST PUSH1 0x40 MLOAD DUP1 SWAP2 SUB SWAP1 REVERT JUMPDEST PUSH8 0x29A2241AF62C0000 DUP2 GT ISZERO PUSH2 0x1375 JUMPI PUSH8 0x29A2241AF62C0000 SWAP1 POP JUMPDEST PUSH8 0x8AC7230489E80000 DUP2 PUSH1 0x2 PUSH0 DUP6 DUP2 MSTORE PUSH1 0x20 ADD SWAP1 DUP2 MSTORE PUSH1 0x20 ADD PUSH0 KECCAK256 PUSH1 0x4 ADD SLOAD PUSH2 0x139E SWAP2 SWAP1 PUSH2 0x332A JUMP JUMPDEST GT ISZERO PUSH2 0x13CF JUMPI PUSH1 0x2 PUSH0 DUP4 DUP2 MSTORE PUSH1 0x20 ADD SWAP1 DUP2 MSTORE PUSH1 0x20 ADD PUSH0 KECCAK256 PUSH1 0x4 ADD SLOAD PUSH8 0x8AC7230489E80000 PUSH2 0x13CC SWAP2 SWAP1 PUSH2 0x30C8 JUMP JUMPDEST SWAP1 POP JUMPDEST TIMESTAMP PUSH1 0x2 PUSH0 DUP5 DUP2 MSTORE PUSH1 0x20 ADD SWAP1 DUP2 MSTORE PUSH1 0x20 ADD PUSH0 KECCAK256 PUSH1 0x5 ADD DUP2 SWAP1 SSTORE POP DUP1 PUSH1 0x2 PUSH0 DUP5 DUP2 MSTORE PUSH1 0x20 ADD SWAP1 DUP2 MSTORE PUSH1 0x20 ADD PUSH0 KECCAK256 PUSH1 0x4 ADD PUSH0 DUP3 DUP3 SLOAD PUSH2 0x140B SWAP2 SWAP1 PUSH2 0x332A JUMP JUMPDEST SWAP3 POP POP DUP2 SWAP1 SSTORE POP DUP1 PUSH1 0x6 PUSH0 DUP3 DUP3 SLOAD PUSH2 0x1423 SWAP2 SWAP1 PUSH2 0x30C8 JUMP JUMPDEST SWAP3 POP POP DUP2 SWAP1 SSTORE POP PUSH0 PUSH0 PUSH0 SWAP1 SLOAD SWAP1 PUSH2 0x100 EXP SWAP1 DIV PUSH20 0xFFFFFFFFFFFFFFFFFFFFFFFFFFFFFFFFFFFFFFFF AND PUSH20 0xFFFFFFFFFFFFFFFFFFFFFFFFFFFFFFFFFFFFFFFF AND PUSH4 0xA9059CBB CALLER DUP5 PUSH1 0x40 MLOAD DUP4 PUSH4 0xFFFFFFFF AND PUSH1 0xE0 SHL DUP2 MSTORE PUSH1 0x4 ADD PUSH2 0x1486 SWAP3 SWAP2 SWAP1 PUSH2 0x30FB JUMP JUMPDEST PUSH1 0x20 PUSH1 0x40 MLOAD DUP1 DUP4 SUB DUP2 PUSH0 DUP8 GAS CALL ISZERO DUP1 ISZERO PUSH2 0x14A2 JUMPI RETURNDATASIZE PUSH0 PUSH0 RETURNDATACOPY RETURNDATASIZE PUSH0 REVERT JUMPDEST POP POP POP POP PUSH1 0x40 MLOAD RETURNDATASIZE PUSH1 0x1F NOT PUSH1 0x1F DUP3 ADD AND DUP3 ADD DUP1 PUSH1 0x40 MSTORE POP DUP2 ADD SWAP1 PUSH2 0x14C6 SWAP2 SWAP1 PUSH2 0x2EF1 JUMP JUMPDEST SWAP1 POP DUP1 PUSH2 0x1508 JUMPI PUSH1 0x40 MLOAD PUSH32 0x8C379A000000000000000000000000000000000000000000000000000000000 DUP2 MSTORE PUSH1 0x4 ADD PUSH2 0x14FF SWAP1 PUSH2 0x35A4 JUMP JUMPDEST PUSH1 0x40 MLOAD DUP1 SWAP2 SUB SWAP1 REVERT JUMPDEST DUP3 PUSH32 0x4DC1ADDC23D21B7B1E4CDDE9A7EF0D7B535C1D7C2156DF4ABDCF306C9A79174C DUP4 PUSH1 0x40 MLOAD PUSH2 0x1538 SWAP2 SWAP1 PUSH2 0x2A02 JUMP JUMPDEST PUSH1 0x40 MLOAD DUP1 SWAP2 SUB SWAP1 LOG2 POP POP POP JUMP JUMPDEST PUSH1 0x4 PUSH0 SWAP1 SLOAD SWAP1 PUSH2 0x100 EXP SWAP1 DIV PUSH20 0xFFFFFFFFFFFFFFFFFFFFFFFFFFFFFFFFFFFFFFFF AND PUSH20 0xFFFFFFFFFFFFFFFFFFFFFFFFFFFFFFFFFFFFFFFF AND CALLER PUSH20 0xFFFFFFFFFFFFFFFFFFFFFFFFFFFFFFFFFFFFFFFF AND EQ PUSH2 0x15D4 JUMPI PUSH1 0x40 MLOAD PUSH32 0x8C379A000000000000000000000000000000000000000000000000000000000 DUP2 MSTORE PUSH1 0x4 ADD PUSH2 0x15CB SWAP1 PUSH2 0x3042 JUMP JUMPDEST PUSH1 0x40 MLOAD DUP1 SWAP2 SUB SWAP1 REVERT JUMPDEST PUSH0 PUSH1 0x6 SLOAD PUSH1 0x7 SLOAD PUSH2 0x15E5 SWAP2 SWAP1 PUSH2 0x332A JUMP JUMPDEST SWAP1 POP PUSH0 PUSH0 PUSH0 SWAP1 SLOAD SWAP1 PUSH2 0x100 EXP SWAP1 DIV PUSH20 0xFFFFFFFFFFFFFFFFFFFFFFFFFFFFFFFFFFFFFFFF AND PUSH20 0xFFFFFFFFFFFFFFFFFFFFFFFFFFFFFFFFFFFFFFFF AND PUSH4 0x70A08231 ADDRESS PUSH1 0x40 MLOAD DUP3 PUSH4 0xFFFFFFFF AND PUSH1 0xE0 SHL DUP2 MSTORE PUSH1 0x4 ADD PUSH2 0x1641 SWAP2 SWAP1 PUSH2 0x2AE5 JUMP JUMPDEST PUSH1 0x20 PUSH1 0x40 MLOAD DUP1 DUP4 SUB DUP2 DUP7 GAS STATICCALL ISZERO DUP1 ISZERO PUSH2 0x165C JUMPI RETURNDATASIZE PUSH0 PUSH0 RETURNDATACOPY RETURNDATASIZE PUSH0 REVERT JUMPDEST POP POP POP POP PUSH1 0x40 MLOAD RETURNDATASIZE PUSH1 0x1F NOT PUSH1 0x1F DUP3 ADD AND DUP3 ADD DUP1 PUSH1 0x40 MSTORE POP DUP2 ADD SWAP1 PUSH2 0x1680 SWAP2 SWAP1 PUSH2 0x35D6 JUMP JUMPDEST SWAP1 POP DUP2 DUP2 GT ISZERO PUSH2 0x16EA JUMPI PUSH0 DUP3 DUP3 PUSH2 0x1697 SWAP2 SWAP1 PUSH2 0x30C8 JUMP JUMPDEST SWAP1 POP DUP1 PUSH1 0x7 PUSH0 DUP3 DUP3 SLOAD PUSH2 0x16AA SWAP2 SWAP1 PUSH2 0x332A JUMP JUMPDEST SWAP3 POP POP DUP2 SWAP1 SSTORE POP PUSH32 0x1E2A45ECB3DCF528DD38BA1F2A869B557EBCE43D5035A1471745E0BB4272147D DUP2 PUSH1 0x40 MLOAD PUSH2 0x16E0 SWAP2 SWAP1 PUSH2 0x364B JUMP JUMPDEST PUSH1 0x40 MLOAD DUP1 SWAP2 SUB SWAP1 LOG1 POP JUMPDEST POP POP JUMP JUMPDEST PUSH1 0x9 SLOAD DUP2 JUMP JUMPDEST PUSH1 0x4 PUSH0 SWAP1 SLOAD SWAP1 PUSH2 0x100 EXP SWAP1 DIV PUSH20 0xFFFFFFFFFFFFFFFFFFFFFFFFFFFFFFFFFFFFFFFF AND PUSH20 0xFFFFFFFFFFFFFFFFFFFFFFFFFFFFFFFFFFFFFFFF AND CALLER PUSH20 0xFFFFFFFFFFFFFFFFFFFFFFFFFFFFFFFFFFFFFFFF AND EQ PUSH2 0x1783 JUMPI PUSH1 0x40 MLOAD PUSH32 0x8C379A000000000000000000000000000000000000000000000000000000000 DUP2 MSTORE PUSH1 0x4 ADD PUSH2 0x177A SWAP1 PUSH2 0x36C1 JUMP JUMPDEST PUSH1 0x40 MLOAD DUP1 SWAP2 SUB SWAP1 REVERT JUMPDEST PUSH0 PUSH1 0x2 PUSH0 DUP5 DUP2 MSTORE PUSH1 0x20 ADD SWAP1 DUP2 MSTORE PUSH1 0x20 ADD PUSH0 KECCAK256 PUSH0 ADD SLOAD SUB PUSH2 0x17D8 JUMPI PUSH1 0x40 MLOAD PUSH32 0x8C379A000000000000000000000000000000000000000000000000000000000 DUP2 MSTORE PUSH1 0x4 ADD PUSH2 0x17CF SWAP1 PUSH2 0x3729 JUMP JUMPDEST PUSH1 0x40 MLOAD DUP1 SWAP2 SUB SWAP1 REVERT JUMPDEST PUSH1 0x1 DUP2 LT ISZERO DUP1 ISZERO PUSH2 0x17EA JUMPI POP PUSH1 0xA DUP2 GT ISZERO JUMPDEST PUSH2 0x1829 JUMPI PUSH1 0x40 MLOAD PUSH32 0x8C379A000000000000000000000000000000000000000000000000000000000 DUP2 MSTORE PUSH1 0x4 ADD PUSH2 0x1820 SWAP1 PUSH2 0x323C JUMP JUMPDEST PUSH1 0x40 MLOAD DUP1 SWAP2 SUB SWAP1 REVERT JUMPDEST PUSH0 PUSH1 0x2 PUSH0 DUP5 DUP2 MSTORE PUSH1 0x20 ADD SWAP1 DUP2 MSTORE PUSH1 0x20 ADD PUSH0 KECCAK256 PUSH1 0x9 ADD SLOAD EQ DUP1 ISZERO PUSH2 0x184D JUMPI POP PUSH1 0x1 DUP2 LT ISZERO JUMPDEST ISZERO PUSH2 0x18AC JUMPI PUSH0 PUSH1 0x2 PUSH0 DUP5 DUP2 MSTORE PUSH1 0x20 ADD SWAP1 DUP2 MSTORE PUSH1 0x20 ADD PUSH0 KECCAK256 PUSH1 0x2 ADD SLOAD SWAP1 POP PUSH1 0x2 PUSH0 DUP3 DUP2 MSTORE PUSH1 0x20 ADD SWAP1 DUP2 MSTORE PUSH1 0x20 ADD PUSH0 KECCAK256 PUSH1 0x8 ADD PUSH0 DUP2 SLOAD DUP1 SWAP3 SWAP2 SWAP1 PUSH2 0x188E SWAP1 PUSH2 0x2FB1 JUMP JUMPDEST SWAP2 SWAP1 POP SSTORE POP PUSH1 0x9 PUSH0 DUP2 SLOAD DUP1 SWAP3 SWAP2 SWAP1 PUSH2 0x18A5 SWAP1 PUSH2 0x2FB1 JUMP JUMPDEST SWAP2 SWAP1 POP SSTORE POP POP JUMPDEST DUP1 PUSH1 0x2 PUSH0 DUP5 DUP2 MSTORE PUSH1 0x20 ADD SWAP1 DUP2 MSTORE PUSH1 0x20 ADD PUSH0 KECCAK256 PUSH1 0x9 ADD DUP2 SWAP1 SSTORE POP PUSH0 PUSH1 0x5 DUP3 DUP2 SLOAD DUP2 LT PUSH2 0x18DA JUMPI PUSH2 0x18D9 PUSH2 0x2E5A JUMP JUMPDEST JUMPDEST SWAP1 PUSH0 MSTORE PUSH1 0x20 PUSH0 KECCAK256 ADD SLOAD SWAP1 POP PUSH0 PUSH2 0x2710 PUSH2 0xD05 DUP4 PUSH2 0x18F7 SWAP2 SWAP1 PUSH2 0x3747 JUMP JUMPDEST PUSH2 0x1901 SWAP2 SWAP1 PUSH2 0x34C2 JUMP JUMPDEST SWAP1 POP PUSH0 PUSH2 0x1922 PUSH1 0x2 PUSH0 DUP8 DUP2 MSTORE PUSH1 0x20 ADD SWAP1 DUP2 MSTORE PUSH1 0x20 ADD PUSH0 KECCAK256 PUSH1 0x2 ADD SLOAD DUP6 PUSH2 0x2000 JUMP JUMPDEST SWAP1 POP DUP1 PUSH32 0x84D59367F51AC1996D0FD634EC79C866D4B5E5AA446013EEBC4F1090E19236D6 DUP4 PUSH1 0x40 MLOAD PUSH2 0x1954 SWAP2 SWAP1 PUSH2 0x37D2 JUMP JUMPDEST PUSH1 0x40 MLOAD DUP1 SWAP2 SUB SWAP1 LOG2 DUP5 PUSH32 0xFAA1C1A520C0AE879572F170D29E7789D9914069CA5E57D63D68054661336D61 DUP6 PUSH1 0x40 MLOAD PUSH2 0x198C SWAP2 SWAP1 PUSH2 0x2A02 JUMP JUMPDEST PUSH1 0x40 MLOAD DUP1 SWAP2 SUB SWAP1 LOG2 POP POP POP POP POP JUMP JUMPDEST PUSH1 0x4 PUSH0 SWAP1 SLOAD SWAP1 PUSH2 0x100 EXP SWAP1 DIV PUSH20 0xFFFFFFFFFFFFFFFFFFFFFFFFFFFFFFFFFFFFFFFF AND PUSH20 0xFFFFFFFFFFFFFFFFFFFFFFFFFFFFFFFFFFFFFFFF AND CALLER PUSH20 0xFFFFFFFFFFFFFFFFFFFFFFFFFFFFFFFFFFFFFFFF AND EQ PUSH2 0x1A2A JUMPI PUSH1 0x40 MLOAD PUSH32 0x8C379A000000000000000000000000000000000000000000000000000000000 DUP2 MSTORE PUSH1 0x4 ADD PUSH2 0x1A21 SWAP1 PUSH2 0x3042 JUMP JUMPDEST PUSH1 0x40 MLOAD DUP1 SWAP2 SUB SWAP1 REVERT JUMPDEST PUSH0 PUSH20 0xFFFFFFFFFFFFFFFFFFFFFFFFFFFFFFFFFFFFFFFF AND DUP2 PUSH20 0xFFFFFFFFFFFFFFFFFFFFFFFFFFFFFFFFFFFFFFFF AND SUB PUSH2 0x1A98 JUMPI PUSH1 0x40 MLOAD PUSH32 0x8C379A000000000000000000000000000000000000000000000000000000000 DUP2 MSTORE PUSH1 0x4 ADD PUSH2 0x1A8F SWAP1 PUSH2 0x3848 JUMP JUMPDEST PUSH1 0x40 MLOAD DUP1 SWAP2 SUB SWAP1 REVERT JUMPDEST PUSH0 PUSH1 0x1 PUSH0 DUP4 PUSH20 0xFFFFFFFFFFFFFFFFFFFFFFFFFFFFFFFFFFFFFFFF AND PUSH20 0xFFFFFFFFFFFFFFFFFFFFFFFFFFFFFFFFFFFFFFFF AND DUP2 MSTORE PUSH1 0x20 ADD SWAP1 DUP2 MSTORE PUSH1 0x20 ADD PUSH0 KECCAK256 SLOAD EQ DUP1 PUSH2 0x1B21 JUMPI POP PUSH2 0x3E8 PUSH1 0x1 PUSH0 DUP4 PUSH20 0xFFFFFFFFFFFFFFFFFFFFFFFFFFFFFFFFFFFFFFFF AND PUSH20 0xFFFFFFFFFFFFFFFFFFFFFFFFFFFFFFFFFFFFFFFF AND DUP2 MSTORE PUSH1 0x20 ADD SWAP1 DUP2 MSTORE PUSH1 0x20 ADD PUSH0 KECCAK256 SLOAD EQ JUMPDEST PUSH2 0x1B60 JUMPI PUSH1 0x40 MLOAD PUSH32 0x8C379A000000000000000000000000000000000000000000000000000000000 DUP2 MSTORE PUSH1 0x4 ADD PUSH2 0x1B57 SWAP1 PUSH2 0x38B0 JUMP JUMPDEST PUSH1 0x40 MLOAD DUP1 SWAP2 SUB SWAP1 REVERT JUMPDEST PUSH0 PUSH1 0x4 PUSH0 SWAP1 SLOAD SWAP1 PUSH2 0x100 EXP SWAP1 DIV PUSH20 0xFFFFFFFFFFFFFFFFFFFFFFFFFFFFFFFFFFFFFFFF AND SWAP1 POP DUP2 PUSH1 0x4 PUSH0 PUSH2 0x100 EXP DUP2 SLOAD DUP2 PUSH20 0xFFFFFFFFFFFFFFFFFFFFFFFFFFFFFFFFFFFFFFFF MUL NOT AND SWAP1 DUP4 PUSH20 0xFFFFFFFFFFFFFFFFFFFFFFFFFFFFFFFFFFFFFFFF AND MUL OR SWAP1 SSTORE POP DUP2 PUSH1 0x2 PUSH0 PUSH2 0x3E8 DUP2 MSTORE PUSH1 0x20 ADD SWAP1 DUP2 MSTORE PUSH1 0x20 ADD PUSH0 KECCAK256 PUSH1 0x1 ADD PUSH0 PUSH2 0x100 EXP DUP2 SLOAD DUP2 PUSH20 0xFFFFFFFFFFFFFFFFFFFFFFFFFFFFFFFFFFFFFFFF MUL NOT AND SWAP1 DUP4 PUSH20 0xFFFFFFFFFFFFFFFFFFFFFFFFFFFFFFFFFFFFFFFF AND MUL OR SWAP1 SSTORE POP PUSH1 0x1 PUSH0 DUP3 PUSH20 0xFFFFFFFFFFFFFFFFFFFFFFFFFFFFFFFFFFFFFFFF AND PUSH20 0xFFFFFFFFFFFFFFFFFFFFFFFFFFFFFFFFFFFFFFFF AND DUP2 MSTORE PUSH1 0x20 ADD SWAP1 DUP2 MSTORE PUSH1 0x20 ADD PUSH0 KECCAK256 PUSH0 SWAP1 SSTORE PUSH2 0x3E8 PUSH1 0x1 PUSH0 DUP5 PUSH20 0xFFFFFFFFFFFFFFFFFFFFFFFFFFFFFFFFFFFFFFFF AND PUSH20 0xFFFFFFFFFFFFFFFFFFFFFFFFFFFFFFFFFFFFFFFF AND DUP2 MSTORE PUSH1 0x20 ADD SWAP1 DUP2 MSTORE PUSH1 0x20 ADD PUSH0 KECCAK256 DUP2 SWAP1 SSTORE POP DUP2 PUSH20 0xFFFFFFFFFFFFFFFFFFFFFFFFFFFFFFFFFFFFFFFF AND DUP2 PUSH20 0xFFFFFFFFFFFFFFFFFFFFFFFFFFFFFFFFFFFFFFFF AND PUSH32 0x8BE0079C531659141344CD1FD0A4F28419497F9722A3DAAFE3B4186F6B6457E0 PUSH1 0x40 MLOAD PUSH1 0x40 MLOAD DUP1 SWAP2 SUB SWAP1 LOG3 POP POP JUMP JUMPDEST PUSH0 PUSH1 0x2 PUSH0 DUP6 DUP2 MSTORE PUSH1 0x20 ADD SWAP1 DUP2 MSTORE PUSH1 0x20 ADD PUSH0 KECCAK256 SWAP1 POP PUSH0 DUP2 PUSH1 0x2 ADD SLOAD SWAP1 POP PUSH0 PUSH2 0x1D22 DUP3 DUP7 PUSH2 0x2000 JUMP JUMPDEST SWAP1 POP PUSH0 PUSH2 0x2710 PUSH2 0xD05 DUP7 PUSH2 0x1D36 SWAP2 SWAP1 PUSH2 0x3747 JUMP JUMPDEST PUSH2 0x1D40 SWAP2 SWAP1 PUSH2 0x34C2 JUMP JUMPDEST SWAP1 POP PUSH2 0x1D82 DUP3 DUP3 PUSH1 0x40 MLOAD DUP1 PUSH1 0x40 ADD PUSH1 0x40 MSTORE DUP1 PUSH1 0xE DUP2 MSTORE PUSH1 0x20 ADD PUSH32 0x4469726563742053706F6E736F72000000000000000000000000000000000000 DUP2 MSTORE POP PUSH2 0x206A JUMP JUMPDEST PUSH0 PUSH1 0xA DUP2 SWAP1 SSTORE POP PUSH2 0x1D95 DUP8 DUP5 DUP9 DUP9 PUSH2 0x22F7 JUMP JUMPDEST PUSH0 PUSH2 0x2710 PUSH2 0xD05 DUP8 PUSH2 0x1DA7 SWAP2 SWAP1 PUSH2 0x3747 JUMP JUMPDEST PUSH2 0x1DB1 SWAP2 SWAP1 PUSH2 0x34C2 JUMP JUMPDEST SWAP1 POP PUSH0 PUSH1 0xA DUP3 PUSH2 0x1DC1 SWAP2 SWAP1 PUSH2 0x34C2 JUMP JUMPDEST SWAP1 POP PUSH0 PUSH0 SWAP1 POP PUSH0 DUP7 SWAP1 POP PUSH0 PUSH1 0x1 SWAP1 POP JUMPDEST PUSH1 0xA DUP2 GT PUSH2 0x1E75 JUMPI PUSH0 DUP3 SUB ISZERO PUSH2 0x1E75 JUMPI DUP11 PUSH1 0x2 PUSH0 DUP5 DUP2 MSTORE PUSH1 0x20 ADD SWAP1 DUP2 MSTORE PUSH1 0x20 ADD PUSH0 KECCAK256 PUSH1 0x9 ADD SLOAD LT PUSH2 0x1E4B JUMPI PUSH2 0x1E3C DUP3 DUP6 PUSH1 0x40 MLOAD DUP1 PUSH1 0x40 ADD PUSH1 0x40 MSTORE DUP1 PUSH1 0x11 DUP2 MSTORE PUSH1 0x20 ADD PUSH32 0x47656E65726174696F6E20526577617264000000000000000000000000000000 DUP2 MSTORE POP PUSH2 0x206A JUMP JUMPDEST DUP4 DUP4 PUSH2 0x1E48 SWAP2 SWAP1 PUSH2 0x332A JUMP JUMPDEST SWAP3 POP JUMPDEST PUSH1 0x2 PUSH0 DUP4 DUP2 MSTORE PUSH1 0x20 ADD SWAP1 DUP2 MSTORE PUSH1 0x20 ADD PUSH0 KECCAK256 PUSH1 0x2 ADD SLOAD SWAP2 POP DUP1 DUP1 PUSH2 0x1E6D SWAP1 PUSH2 0x2FB1 JUMP JUMPDEST SWAP2 POP POP PUSH2 0x1DD1 JUMP JUMPDEST POP PUSH0 DUP3 DUP6 PUSH2 0x1E83 SWAP2 SWAP1 PUSH2 0x30C8 JUMP JUMPDEST SWAP1 POP PUSH0 DUP2 GT ISZERO PUSH2 0x1EDD JUMPI DUP1 PUSH1 0x7 PUSH0 DUP3 DUP3 SLOAD PUSH2 0x1E9E SWAP2 SWAP1 PUSH2 0x332A JUMP JUMPDEST SWAP3 POP POP DUP2 SWAP1 SSTORE POP PUSH32 0x1E2A45ECB3DCF528DD38BA1F2A869B557EBCE43D5035A1471745E0BB4272147D DUP2 PUSH1 0x40 MLOAD PUSH2 0x1ED4 SWAP2 SWAP1 PUSH2 0x3918 JUMP JUMPDEST PUSH1 0x40 MLOAD DUP1 SWAP2 SUB SWAP1 LOG1 JUMPDEST PUSH0 PUSH2 0x2710 PUSH2 0x341 DUP13 PUSH2 0x1EEF SWAP2 SWAP1 PUSH2 0x3747 JUMP JUMPDEST PUSH2 0x1EF9 SWAP2 SWAP1 PUSH2 0x34C2 JUMP JUMPDEST SWAP1 POP DUP1 PUSH1 0x7 PUSH0 DUP3 DUP3 SLOAD PUSH2 0x1F0C SWAP2 SWAP1 PUSH2 0x332A JUMP JUMPDEST SWAP3 POP POP DUP2 SWAP1 SSTORE POP PUSH32 0x1E2A45ECB3DCF528DD38BA1F2A869B557EBCE43D5035A1471745E0BB4272147D DUP2 PUSH1 0x40 MLOAD PUSH2 0x1F42 SWAP2 SWAP1 PUSH2 0x398E JUMP JUMPDEST PUSH1 0x40 MLOAD DUP1 SWAP2 SUB SWAP1 LOG1 PUSH0 PUSH2 0x2710 PUSH2 0x342 DUP14 PUSH2 0x1F5C SWAP2 SWAP1 PUSH2 0x3747 JUMP JUMPDEST PUSH2 0x1F66 SWAP2 SWAP1 PUSH2 0x34C2 JUMP JUMPDEST SWAP1 POP DUP1 PUSH1 0x6 PUSH0 DUP3 DUP3 SLOAD PUSH2 0x1F79 SWAP2 SWAP1 PUSH2 0x332A JUMP JUMPDEST SWAP3 POP POP DUP2 SWAP1 SSTORE POP PUSH32 0x1E2A45ECB3DCF528DD38BA1F2A869B557EBCE43D5035A1471745E0BB4272147D DUP2 PUSH1 0x40 MLOAD PUSH2 0x1FAF SWAP2 SWAP1 PUSH2 0x3A04 JUMP JUMPDEST PUSH1 0x40 MLOAD DUP1 SWAP2 SUB SWAP1 LOG1 DUP13 DUP15 PUSH32 0x66635A66D1D0381969092EFE5F2F6F55D82DE7D629E4341E8CB55304DF8F87E0 DUP15 PUSH1 0x40 MLOAD PUSH2 0x1FE8 SWAP2 SWAP1 PUSH2 0x2A02 JUMP JUMPDEST PUSH1 0x40 MLOAD DUP1 SWAP2 SUB SWAP1 LOG3 POP POP POP POP POP POP POP POP POP POP POP POP POP POP JUMP JUMPDEST PUSH0 PUSH0 DUP4 SWAP1 POP JUMPDEST PUSH0 DUP2 EQ ISZERO DUP1 ISZERO PUSH2 0x2018 JUMPI POP PUSH2 0x3E8 DUP2 EQ ISZERO JUMPDEST ISZERO PUSH2 0x205D JUMPI DUP3 PUSH1 0x2 PUSH0 DUP4 DUP2 MSTORE PUSH1 0x20 ADD SWAP1 DUP2 MSTORE PUSH1 0x20 ADD PUSH0 KECCAK256 PUSH1 0x9 ADD SLOAD LT PUSH2 0x2041 JUMPI DUP1 SWAP2 POP POP PUSH2 0x2064 JUMP JUMPDEST PUSH1 0x2 PUSH0 DUP3 DUP2 MSTORE PUSH1 0x20 ADD SWAP1 DUP2 MSTORE PUSH1 0x20 ADD PUSH0 KECCAK256 PUSH1 0x2 ADD SLOAD SWAP1 POP PUSH2 0x2006 JUMP JUMPDEST PUSH2 0x3E8 SWAP2 POP POP JUMPDEST SWAP3 SWAP2 POP POP JUMP JUMPDEST PUSH0 DUP4 SUB PUSH2 0x2077 JUMPI PUSH2 0x3E8 SWAP3 POP JUMPDEST PUSH0 PUSH1 0x2 PUSH0 DUP6 DUP2 MSTORE PUSH1 0x20 ADD SWAP1 DUP2 MSTORE PUSH1 0x20 ADD PUSH0 KECCAK256 PUSH1 0x1 ADD PUSH0 SWAP1 SLOAD SWAP1 PUSH2 0x100 EXP SWAP1 DIV PUSH20 0xFFFFFFFFFFFFFFFFFFFFFFFFFFFFFFFFFFFFFFFF AND SWAP1 POP PUSH0 PUSH20 0xFFFFFFFFFFFFFFFFFFFFFFFFFFFFFFFFFFFFFFFF AND DUP2 PUSH20 0xFFFFFFFFFFFFFFFFFFFFFFFFFFFFFFFFFFFFFFFF AND EQ DUP1 PUSH2 0x2113 JUMPI POP ADDRESS PUSH20 0xFFFFFFFFFFFFFFFFFFFFFFFFFFFFFFFFFFFFFFFF AND DUP2 PUSH20 0xFFFFFFFFFFFFFFFFFFFFFFFFFFFFFFFFFFFFFFFF AND EQ JUMPDEST ISZERO PUSH2 0x218F JUMPI DUP3 PUSH1 0x7 PUSH0 DUP3 DUP3 SLOAD PUSH2 0x2129 SWAP2 SWAP1 PUSH2 0x332A JUMP JUMPDEST SWAP3 POP POP DUP2 SWAP1 SSTORE POP DUP4 PUSH32 0xAB44BC453C004A489F9F8687F4280A881BA62BCD3920E9FA5815B35B7C5CC02D DUP5 DUP5 PUSH1 0x40 MLOAD PUSH1 0x20 ADD PUSH2 0x2164 SWAP2 SWAP1 PUSH2 0x3ACC JUMP JUMPDEST PUSH1 0x40 MLOAD PUSH1 0x20 DUP2 DUP4 SUB SUB DUP2 MSTORE SWAP1 PUSH1 0x40 MSTORE PUSH1 0x40 MLOAD PUSH2 0x2181 SWAP3 SWAP2 SWAP1 PUSH2 0x3B35 JUMP JUMPDEST PUSH1 0x40 MLOAD DUP1 SWAP2 SUB SWAP1 LOG2 POP PUSH2 0x22F2 JUMP JUMPDEST DUP3 PUSH1 0x2 PUSH0 DUP7 DUP2 MSTORE PUSH1 0x20 ADD SWAP1 DUP2 MSTORE PUSH1 0x20 ADD PUSH0 KECCAK256 PUSH1 0x3 ADD PUSH0 DUP3 DUP3 SLOAD PUSH2 0x21B2 SWAP2 SWAP1 PUSH2 0x332A JUMP JUMPDEST SWAP3 POP POP DUP2 SWAP1 SSTORE POP PUSH0 PUSH0 PUSH0 SWAP1 SLOAD SWAP1 PUSH2 0x100 EXP SWAP1 DIV PUSH20 0xFFFFFFFFFFFFFFFFFFFFFFFFFFFFFFFFFFFFFFFF AND PUSH20 0xFFFFFFFFFFFFFFFFFFFFFFFFFFFFFFFFFFFFFFFF AND PUSH4 0xA9059CBB DUP4 DUP7 PUSH1 0x40 MLOAD DUP4 PUSH4 0xFFFFFFFF AND PUSH1 0xE0 SHL DUP2 MSTORE PUSH1 0x4 ADD PUSH2 0x2215 SWAP3 SWAP2 SWAP1 PUSH2 0x30FB JUMP JUMPDEST PUSH1 0x20 PUSH1 0x40 MLOAD DUP1 DUP4 SUB DUP2 PUSH0 DUP8 GAS CALL ISZERO DUP1 ISZERO PUSH2 0x2231 JUMPI RETURNDATASIZE PUSH0 PUSH0 RETURNDATACOPY RETURNDATASIZE PUSH0 REVERT JUMPDEST POP POP POP POP PUSH1 0x40 MLOAD RETURNDATASIZE PUSH1 0x1F NOT PUSH1 0x1F DUP3 ADD AND DUP3 ADD DUP1 PUSH1 0x40 MSTORE POP DUP2 ADD SWAP1 PUSH2 0x2255 SWAP2 SWAP1 PUSH2 0x2EF1 JUMP JUMPDEST SWAP1 POP DUP1 ISZERO PUSH2 0x229C JUMPI DUP5 PUSH32 0x84D59367F51AC1996D0FD634EC79C866D4B5E5AA446013EEBC4F1090E19236D6 DUP6 DUP6 PUSH1 0x40 MLOAD PUSH2 0x228F SWAP3 SWAP2 SWAP1 PUSH2 0x3B35 JUMP JUMPDEST PUSH1 0x40 MLOAD DUP1 SWAP2 SUB SWAP1 LOG2 PUSH2 0x22EF JUMP JUMPDEST DUP4 PUSH1 0x7 PUSH0 DUP3 DUP3 SLOAD PUSH2 0x22AD SWAP2 SWAP1 PUSH2 0x332A JUMP JUMPDEST SWAP3 POP POP DUP2 SWAP1 SSTORE POP DUP5 PUSH32 0xAB44BC453C004A489F9F8687F4280A881BA62BCD3920E9FA5815B35B7C5CC02D DUP6 DUP6 PUSH1 0x40 MLOAD PUSH2 0x22E6 SWAP3 SWAP2 SWAP1 PUSH2 0x3B35 JUMP JUMPDEST PUSH1 0x40 MLOAD DUP1 SWAP2 SUB SWAP1 LOG2 JUMPDEST POP POP JUMPDEST POP POP POP JUMP JUMPDEST PUSH0 PUSH2 0x2302 DUP5 DUP5 PUSH2 0x2000 JUMP JUMPDEST SWAP1 POP PUSH2 0x2310 DUP6 DUP3 DUP6 DUP6 PUSH2 0x2317 JUMP JUMPDEST POP POP POP POP POP JUMP JUMPDEST PUSH0 PUSH1 0x2 PUSH0 DUP6 DUP2 MSTORE PUSH1 0x20 ADD SWAP1 DUP2 MSTORE PUSH1 0x20 ADD PUSH0 KECCAK256 PUSH1 0x6 ADD PUSH0 DUP5 DUP2 MSTORE PUSH1 0x20 ADD SWAP1 DUP2 MSTORE PUSH1 0x20 ADD PUSH0 KECCAK256 SWAP1 POP PUSH0 PUSH2 0x2710 PUSH2 0x683 DUP5 PUSH2 0x234F SWAP2 SWAP1 PUSH2 0x3747 JUMP JUMPDEST PUSH2 0x2359 SWAP2 SWAP1 PUSH2 0x34C2 JUMP JUMPDEST SWAP1 POP PUSH1 0x2 DUP3 PUSH1 0x1 ADD DUP1 SLOAD SWAP1 POP LT ISZERO PUSH2 0x24C6 JUMPI DUP2 PUSH1 0x1 ADD DUP7 SWAP1 DUP1 PUSH1 0x1 DUP2 SLOAD ADD DUP1 DUP3 SSTORE DUP1 SWAP2 POP POP PUSH1 0x1 SWAP1 SUB SWAP1 PUSH0 MSTORE PUSH1 0x20 PUSH0 KECCAK256 ADD PUSH0 SWAP1 SWAP2 SWAP1 SWAP2 SWAP1 SWAP2 POP SSTORE DUP5 PUSH1 0x2 PUSH0 DUP9 DUP2 MSTORE PUSH1 0x20 ADD SWAP1 DUP2 MSTORE PUSH1 0x20 ADD PUSH0 KECCAK256 PUSH1 0x6 ADD PUSH0 DUP7 DUP2 MSTORE PUSH1 0x20 ADD SWAP1 DUP2 MSTORE PUSH1 0x20 ADD PUSH0 KECCAK256 PUSH0 ADD DUP2 SWAP1 SSTORE POP PUSH0 DUP3 PUSH0 ADD SLOAD SWAP1 POP PUSH0 DUP2 EQ PUSH2 0x247F JUMPI PUSH0 PUSH1 0x2 PUSH0 DUP4 DUP2 MSTORE PUSH1 0x20 ADD SWAP1 DUP2 MSTORE PUSH1 0x20 ADD PUSH0 KECCAK256 PUSH1 0x6 ADD PUSH0 DUP8 DUP2 MSTORE PUSH1 0x20 ADD SWAP1 DUP2 MSTORE PUSH1 0x20 ADD PUSH0 KECCAK256 SWAP1 POP DUP1 PUSH1 0x2 ADD DUP9 SWAP1 DUP1 PUSH1 0x1 DUP2 SLOAD ADD DUP1 DUP3 SSTORE DUP1 SWAP2 POP POP PUSH1 0x1 SWAP1 SUB SWAP1 PUSH0 MSTORE PUSH1 0x20 PUSH0 KECCAK256 ADD PUSH0 SWAP1 SWAP2 SWAP1 SWAP2 SWAP1 SWAP2 POP SSTORE PUSH1 0x4 DUP2 PUSH1 0x2 ADD DUP1 SLOAD SWAP1 POP SUB PUSH2 0x2438 JUMPI PUSH2 0x2433 DUP3 DUP8 DUP6 PUSH2 0x26E1 JUMP JUMPDEST PUSH2 0x2479 JUMP JUMPDEST PUSH2 0x2478 DUP3 DUP5 PUSH1 0x40 MLOAD DUP1 PUSH1 0x40 ADD PUSH1 0x40 MSTORE DUP1 PUSH1 0xD DUP2 MSTORE PUSH1 0x20 ADD PUSH32 0x4D617472697820496E636F6D6500000000000000000000000000000000000000 DUP2 MSTORE POP PUSH2 0x206A JUMP JUMPDEST JUMPDEST POP PUSH2 0x24C0 JUMP JUMPDEST PUSH2 0x24BF DUP7 DUP4 PUSH1 0x40 MLOAD DUP1 PUSH1 0x40 ADD PUSH1 0x40 MSTORE DUP1 PUSH1 0xD DUP2 MSTORE PUSH1 0x20 ADD PUSH32 0x4D617472697820496E636F6D6500000000000000000000000000000000000000 DUP2 MSTORE POP PUSH2 0x206A JUMP JUMPDEST JUMPDEST POP PUSH2 0x26D8 JUMP JUMPDEST PUSH0 DUP3 PUSH1 0x1 ADD PUSH0 DUP2 SLOAD DUP2 LT PUSH2 0x24DD JUMPI PUSH2 0x24DC PUSH2 0x2E5A JUMP JUMPDEST JUMPDEST SWAP1 PUSH0 MSTORE PUSH1 0x20 PUSH0 KECCAK256 ADD SLOAD SWAP1 POP PUSH0 DUP4 PUSH1 0x1 ADD PUSH1 0x1 DUP2 SLOAD DUP2 LT PUSH2 0x2500 JUMPI PUSH2 0x24FF PUSH2 0x2E5A JUMP JUMPDEST JUMPDEST SWAP1 PUSH0 MSTORE PUSH1 0x20 PUSH0 KECCAK256 ADD SLOAD SWAP1 POP PUSH0 PUSH1 0x2 DUP1 PUSH0 DUP6 DUP2 MSTORE PUSH1 0x20 ADD SWAP1 DUP2 MSTORE PUSH1 0x20 ADD PUSH0 KECCAK256 PUSH1 0x6 ADD PUSH0 DUP10 DUP2 MSTORE PUSH1 0x20 ADD SWAP1 DUP2 MSTORE PUSH1 0x20 ADD PUSH0 KECCAK256 PUSH1 0x1 ADD DUP1 SLOAD SWAP1 POP LT ISZERO PUSH2 0x2545 JUMPI DUP3 SWAP1 POP PUSH2 0x25D8 JUMP JUMPDEST PUSH1 0x2 DUP1 PUSH0 DUP5 DUP2 MSTORE PUSH1 0x20 ADD SWAP1 DUP2 MSTORE PUSH1 0x20 ADD PUSH0 KECCAK256 PUSH1 0x6 ADD PUSH0 DUP10 DUP2 MSTORE PUSH1 0x20 ADD SWAP1 DUP2 MSTORE PUSH1 0x20 ADD PUSH0 KECCAK256 PUSH1 0x1 ADD DUP1 SLOAD SWAP1 POP LT ISZERO PUSH2 0x257E JUMPI DUP2 SWAP1 POP PUSH2 0x25D7 JUMP JUMPDEST DUP4 PUSH1 0x7 PUSH0 DUP3 DUP3 SLOAD PUSH2 0x258F SWAP2 SWAP1 PUSH2 0x332A JUMP JUMPDEST SWAP3 POP POP DUP2 SWAP1 SSTORE POP PUSH32 0x1E2A45ECB3DCF528DD38BA1F2A869B557EBCE43D5035A1471745E0BB4272147D DUP5 PUSH1 0x40 MLOAD PUSH2 0x25C5 SWAP2 SWAP1 PUSH2 0x3BAD JUMP JUMPDEST PUSH1 0x40 MLOAD DUP1 SWAP2 SUB SWAP1 LOG1 POP POP POP POP POP PUSH2 0x26DB JUMP JUMPDEST JUMPDEST PUSH1 0x2 PUSH0 DUP3 DUP2 MSTORE PUSH1 0x20 ADD SWAP1 DUP2 MSTORE PUSH1 0x20 ADD PUSH0 KECCAK256 PUSH1 0x6 ADD PUSH0 DUP9 DUP2 MSTORE PUSH1 0x20 ADD SWAP1 DUP2 MSTORE PUSH1 0x20 ADD PUSH0 KECCAK256 PUSH1 0x1 ADD DUP10 SWAP1 DUP1 PUSH1 0x1 DUP2 SLOAD ADD DUP1 DUP3 SSTORE DUP1 SWAP2 POP POP PUSH1 0x1 SWAP1 SUB SWAP1 PUSH0 MSTORE PUSH1 0x20 PUSH0 KECCAK256 ADD PUSH0 SWAP1 SWAP2 SWAP1 SWAP2 SWAP1 SWAP2 POP SSTORE DUP1 PUSH1 0x2 PUSH0 DUP12 DUP2 MSTORE PUSH1 0x20 ADD SWAP1 DUP2 MSTORE PUSH1 0x20 ADD PUSH0 KECCAK256 PUSH1 0x6 ADD PUSH0 DUP10 DUP2 MSTORE PUSH1 0x20 ADD SWAP1 DUP2 MSTORE PUSH1 0x20 ADD PUSH0 KECCAK256 PUSH0 ADD DUP2 SWAP1 SSTORE POP DUP5 PUSH1 0x2 ADD DUP10 SWAP1 DUP1 PUSH1 0x1 DUP2 SLOAD ADD DUP1 DUP3 SSTORE DUP1 SWAP2 POP POP PUSH1 0x1 SWAP1 SUB SWAP1 PUSH0 MSTORE PUSH1 0x20 PUSH0 KECCAK256 ADD PUSH0 SWAP1 SWAP2 SWAP1 SWAP2 SWAP1 SWAP2 POP SSTORE PUSH1 0x4 DUP6 PUSH1 0x2 ADD DUP1 SLOAD SWAP1 POP SUB PUSH2 0x2693 JUMPI PUSH2 0x268E DUP9 DUP9 DUP7 PUSH2 0x26E1 JUMP JUMPDEST PUSH2 0x26D4 JUMP JUMPDEST PUSH2 0x26D3 DUP9 DUP6 PUSH1 0x40 MLOAD DUP1 PUSH1 0x40 ADD PUSH1 0x40 MSTORE DUP1 PUSH1 0xD DUP2 MSTORE PUSH1 0x20 ADD PUSH32 0x4D617472697820496E636F6D6500000000000000000000000000000000000000 DUP2 MSTORE POP PUSH2 0x206A JUMP JUMPDEST JUMPDEST POP POP POP JUMPDEST POP POP JUMPDEST POP POP POP POP JUMP JUMPDEST PUSH0 PUSH1 0x2 PUSH0 DUP6 DUP2 MSTORE PUSH1 0x20 ADD SWAP1 DUP2 MSTORE PUSH1 0x20 ADD PUSH0 KECCAK256 PUSH1 0x6 ADD PUSH0 DUP5 DUP2 MSTORE PUSH1 0x20 ADD SWAP1 DUP2 MSTORE PUSH1 0x20 ADD PUSH0 KECCAK256 SWAP1 POP DUP1 PUSH1 0x3 ADD PUSH0 DUP2 SLOAD DUP1 SWAP3 SWAP2 SWAP1 PUSH2 0x271B SWAP1 PUSH2 0x2FB1 JUMP JUMPDEST SWAP2 SWAP1 POP SSTORE POP DUP3 DUP5 PUSH32 0xAC99621EAB4DE122CE50BE4D7E06A1841167686B9DB744457F12D80F5EEBEDAD DUP4 PUSH1 0x3 ADD SLOAD PUSH1 0x40 MLOAD PUSH2 0x2755 SWAP2 SWAP1 PUSH2 0x2A02 JUMP JUMPDEST PUSH1 0x40 MLOAD DUP1 SWAP2 SUB SWAP1 LOG3 PUSH0 PUSH0 SWAP1 POP JUMPDEST DUP2 PUSH1 0x1 ADD DUP1 SLOAD SWAP1 POP DUP2 LT ISZERO PUSH2 0x27C6 JUMPI PUSH0 PUSH1 0x2 PUSH0 DUP5 PUSH1 0x1 ADD DUP5 DUP2 SLOAD DUP2 LT PUSH2 0x278B JUMPI PUSH2 0x278A PUSH2 0x2E5A JUMP JUMPDEST JUMPDEST SWAP1 PUSH0 MSTORE PUSH1 0x20 PUSH0 KECCAK256 ADD SLOAD DUP2 MSTORE PUSH1 0x20 ADD SWAP1 DUP2 MSTORE PUSH1 0x20 ADD PUSH0 KECCAK256 PUSH1 0x6 ADD PUSH0 DUP7 DUP2 MSTORE PUSH1 0x20 ADD SWAP1 DUP2 MSTORE PUSH1 0x20 ADD PUSH0 KECCAK256 PUSH0 ADD DUP2 SWAP1 SSTORE POP DUP1 DUP1 PUSH1 0x1 ADD SWAP2 POP POP PUSH2 0x2762 JUMP JUMPDEST POP PUSH0 PUSH0 SWAP1 POP JUMPDEST DUP2 PUSH1 0x2 ADD DUP1 SLOAD SWAP1 POP DUP2 LT ISZERO PUSH2 0x2830 JUMPI PUSH0 PUSH1 0x2 PUSH0 DUP5 PUSH1 0x2 ADD DUP5 DUP2 SLOAD DUP2 LT PUSH2 0x27F5 JUMPI PUSH2 0x27F4 PUSH2 0x2E5A JUMP JUMPDEST JUMPDEST SWAP1 PUSH0 MSTORE PUSH1 0x20 PUSH0 KECCAK256 ADD SLOAD DUP2 MSTORE PUSH1 0x20 ADD SWAP1 DUP2 MSTORE PUSH1 0x20 ADD PUSH0 KECCAK256 PUSH1 0x6 ADD PUSH0 DUP7 DUP2 MSTORE PUSH1 0x20 ADD SWAP1 DUP2 MSTORE PUSH1 0x20 ADD PUSH0 KECCAK256 PUSH0 ADD DUP2 SWAP1 SSTORE POP DUP1 DUP1 PUSH1 0x1 ADD SWAP2 POP POP PUSH2 0x27CC JUMP JUMPDEST POP DUP1 PUSH1 0x1 ADD PUSH0 PUSH2 0x2840 SWAP2 SWAP1 PUSH2 0x2958 JUMP JUMPDEST DUP1 PUSH1 0x2 ADD PUSH0 PUSH2 0x284F SWAP2 SWAP1 PUSH2 0x2958 JUMP JUMPDEST PUSH2 0x3E8 DUP5 SUB PUSH2 0x28AD JUMPI DUP2 PUSH1 0x7 PUSH0 DUP3 DUP3 SLOAD PUSH2 0x2869 SWAP2 SWAP1 PUSH2 0x332A JUMP JUMPDEST SWAP3 POP POP DUP2 SWAP1 SSTORE POP PUSH32 0x1E2A45ECB3DCF528DD38BA1F2A869B557EBCE43D5035A1471745E0BB4272147D DUP3 PUSH1 0x40 MLOAD PUSH2 0x289F SWAP2 SWAP1 PUSH2 0x3C23 JUMP JUMPDEST PUSH1 0x40 MLOAD DUP1 SWAP2 SUB SWAP1 LOG1 POP PUSH2 0x2953 JUMP JUMPDEST PUSH1 0xA PUSH0 DUP2 SLOAD DUP1 SWAP3 SWAP2 SWAP1 PUSH2 0x28BF SWAP1 PUSH2 0x2FB1 JUMP JUMPDEST SWAP2 SWAP1 POP SSTORE POP PUSH1 0x5 PUSH1 0xA SLOAD LT PUSH2 0x2923 JUMPI DUP2 PUSH1 0x7 PUSH0 DUP3 DUP3 SLOAD PUSH2 0x28DF SWAP2 SWAP1 PUSH2 0x332A JUMP JUMPDEST SWAP3 POP POP DUP2 SWAP1 SSTORE POP PUSH32 0x1E2A45ECB3DCF528DD38BA1F2A869B557EBCE43D5035A1471745E0BB4272147D DUP3 PUSH1 0x40 MLOAD PUSH2 0x2915 SWAP2 SWAP1 PUSH2 0x3C99 JUMP JUMPDEST PUSH1 0x40 MLOAD DUP1 SWAP2 SUB SWAP1 LOG1 POP PUSH2 0x2953 JUMP JUMPDEST PUSH0 PUSH2 0x2942 PUSH1 0x2 PUSH0 DUP8 DUP2 MSTORE PUSH1 0x20 ADD SWAP1 DUP2 MSTORE PUSH1 0x20 ADD PUSH0 KECCAK256 PUSH1 0x2 ADD SLOAD DUP6 PUSH2 0x2000 JUMP JUMPDEST SWAP1 POP PUSH2 0x2950 DUP6 DUP3 DUP7 DUP7 PUSH2 0x2317 JUMP JUMPDEST POP POP JUMPDEST POP POP POP JUMP JUMPDEST POP DUP1 SLOAD PUSH0 DUP3 SSTORE SWAP1 PUSH0 MSTORE PUSH1 0x20 PUSH0 KECCAK256 SWAP1 DUP2 ADD SWAP1 PUSH2 0x2973 SWAP2 SWAP1 PUSH2 0x2976 JUMP JUMPDEST POP JUMP JUMPDEST JUMPDEST DUP1 DUP3 GT ISZERO PUSH2 0x298D JUMPI PUSH0 DUP2 PUSH0 SWAP1 SSTORE POP PUSH1 0x1 ADD PUSH2 0x2977 JUMP JUMPDEST POP SWAP1 JUMP JUMPDEST PUSH0 PUSH0 REVERT JUMPDEST PUSH0 DUP2 SWAP1 POP SWAP2 SWAP1 POP JUMP JUMPDEST PUSH2 0x29A7 DUP2 PUSH2 0x2995 JUMP JUMPDEST DUP2 EQ PUSH2 0x29B1 JUMPI PUSH0 PUSH0 REVERT JUMPDEST POP JUMP JUMPDEST PUSH0 DUP2 CALLDATALOAD SWAP1 POP PUSH2 0x29C2 DUP2 PUSH2 0x299E JUMP JUMPDEST SWAP3 SWAP2 POP POP JUMP JUMPDEST PUSH0 PUSH1 0x20 DUP3 DUP5 SUB SLT ISZERO PUSH2 0x29DD JUMPI PUSH2 0x29DC PUSH2 0x2991 JUMP JUMPDEST JUMPDEST PUSH0 PUSH2 0x29EA DUP5 DUP3 DUP6 ADD PUSH2 0x29B4 JUMP JUMPDEST SWAP2 POP POP SWAP3 SWAP2 POP POP JUMP JUMPDEST PUSH2 0x29FC DUP2 PUSH2 0x2995 JUMP JUMPDEST DUP3 MSTORE POP POP JUMP JUMPDEST PUSH0 PUSH1 0x20 DUP3 ADD SWAP1 POP PUSH2 0x2A15 PUSH0 DUP4 ADD DUP5 PUSH2 0x29F3 JUMP JUMPDEST SWAP3 SWAP2 POP POP JUMP JUMPDEST PUSH0 PUSH20 0xFFFFFFFFFFFFFFFFFFFFFFFFFFFFFFFFFFFFFFFF DUP3 AND SWAP1 POP SWAP2 SWAP1 POP JUMP JUMPDEST PUSH0 PUSH2 0x2A44 DUP3 PUSH2 0x2A1B JUMP JUMPDEST SWAP1 POP SWAP2 SWAP1 POP JUMP JUMPDEST PUSH2 0x2A54 DUP2 PUSH2 0x2A3A JUMP JUMPDEST DUP3 MSTORE POP POP JUMP JUMPDEST PUSH0 PUSH2 0x120 DUP3 ADD SWAP1 POP PUSH2 0x2A6E PUSH0 DUP4 ADD DUP13 PUSH2 0x29F3 JUMP JUMPDEST PUSH2 0x2A7B PUSH1 0x20 DUP4 ADD DUP12 PUSH2 0x2A4B JUMP JUMPDEST PUSH2 0x2A88 PUSH1 0x40 DUP4 ADD DUP11 PUSH2 0x29F3 JUMP JUMPDEST PUSH2 0x2A95 PUSH1 0x60 DUP4 ADD DUP10 PUSH2 0x29F3 JUMP JUMPDEST PUSH2 0x2AA2 PUSH1 0x80 DUP4 ADD DUP9 PUSH2 0x29F3 JUMP JUMPDEST PUSH2 0x2AAF PUSH1 0xA0 DUP4 ADD DUP8 PUSH2 0x29F3 JUMP JUMPDEST PUSH2 0x2ABC PUSH1 0xC0 DUP4 ADD DUP7 PUSH2 0x29F3 JUMP JUMPDEST PUSH2 0x2AC9 PUSH1 0xE0 DUP4 ADD DUP6 PUSH2 0x29F3 JUMP JUMPDEST PUSH2 0x2AD7 PUSH2 0x100 DUP4 ADD DUP5 PUSH2 0x29F3 JUMP JUMPDEST SWAP11 SWAP10 POP POP POP POP POP POP POP POP POP POP JUMP JUMPDEST PUSH0 PUSH1 0x20 DUP3 ADD SWAP1 POP PUSH2 0x2AF8 PUSH0 DUP4 ADD DUP5 PUSH2 0x2A4B JUMP JUMPDEST SWAP3 SWAP2 POP POP JUMP JUMPDEST PUSH0 DUP2 SWAP1 POP SWAP2 SWAP1 POP JUMP JUMPDEST PUSH0 PUSH2 0x2B21 PUSH2 0x2B1C PUSH2 0x2B17 DUP5 PUSH2 0x2A1B JUMP JUMPDEST PUSH2 0x2AFE JUMP JUMPDEST PUSH2 0x2A1B JUMP JUMPDEST SWAP1 POP SWAP2 SWAP1 POP JUMP JUMPDEST PUSH0 PUSH2 0x2B32 DUP3 PUSH2 0x2B07 JUMP JUMPDEST SWAP1 POP SWAP2 SWAP1 POP JUMP JUMPDEST PUSH0 PUSH2 0x2B43 DUP3 PUSH2 0x2B28 JUMP JUMPDEST SWAP1 POP SWAP2 SWAP1 POP JUMP JUMPDEST PUSH2 0x2B53 DUP2 PUSH2 0x2B39 JUMP JUMPDEST DUP3 MSTORE POP POP JUMP JUMPDEST PUSH0 PUSH1 0x20 DUP3 ADD SWAP1 POP PUSH2 0x2B6C PUSH0 DUP4 ADD DUP5 PUSH2 0x2B4A JUMP JUMPDEST SWAP3 SWAP2 POP POP JUMP JUMPDEST PUSH2 0x2B7B DUP2 PUSH2 0x2A3A JUMP JUMPDEST DUP2 EQ PUSH2 0x2B85 JUMPI PUSH0 PUSH0 REVERT JUMPDEST POP JUMP JUMPDEST PUSH0 DUP2 CALLDATALOAD SWAP1 POP PUSH2 0x2B96 DUP2 PUSH2 0x2B72 JUMP JUMPDEST SWAP3 SWAP2 POP POP JUMP JUMPDEST PUSH0 PUSH1 0x20 DUP3 DUP5 SUB SLT ISZERO PUSH2 0x2BB1 JUMPI PUSH2 0x2BB0 PUSH2 0x2991 JUMP JUMPDEST JUMPDEST PUSH0 PUSH2 0x2BBE DUP5 DUP3 DUP6 ADD PUSH2 0x2B88 JUMP JUMPDEST SWAP2 POP POP SWAP3 SWAP2 POP POP JUMP JUMPDEST PUSH0 PUSH1 0xE0 DUP3 ADD SWAP1 POP PUSH2 0x2BDA PUSH0 DUP4 ADD DUP11 PUSH2 0x2A4B JUMP JUMPDEST PUSH2 0x2BE7 PUSH1 0x20 DUP4 ADD DUP10 PUSH2 0x29F3 JUMP JUMPDEST PUSH2 0x2BF4 PUSH1 0x40 DUP4 ADD DUP9 PUSH2 0x29F3 JUMP JUMPDEST PUSH2 0x2C01 PUSH1 0x60 DUP4 ADD DUP8 PUSH2 0x29F3 JUMP JUMPDEST PUSH2 0x2C0E PUSH1 0x80 DUP4 ADD DUP7 PUSH2 0x29F3 JUMP JUMPDEST PUSH2 0x2C1B PUSH1 0xA0 DUP4 ADD DUP6 PUSH2 0x29F3 JUMP JUMPDEST PUSH2 0x2C28 PUSH1 0xC0 DUP4 ADD DUP5 PUSH2 0x29F3 JUMP JUMPDEST SWAP9 SWAP8 POP POP POP POP POP POP POP POP JUMP JUMPDEST PUSH0 PUSH0 PUSH1 0x40 DUP4 DUP6 SUB SLT ISZERO PUSH2 0x2C4A JUMPI PUSH2 0x2C49 PUSH2 0x2991 JUMP JUMPDEST JUMPDEST PUSH0 PUSH2 0x2C57 DUP6 DUP3 DUP7 ADD PUSH2 0x29B4 JUMP JUMPDEST SWAP3 POP POP PUSH1 0x20 PUSH2 0x2C68 DUP6 DUP3 DUP7 ADD PUSH2 0x29B4 JUMP JUMPDEST SWAP2 POP POP SWAP3 POP SWAP3 SWAP1 POP JUMP JUMPDEST PUSH0 DUP2 MLOAD SWAP1 POP SWAP2 SWAP1 POP JUMP JUMPDEST PUSH0 DUP3 DUP3 MSTORE PUSH1 0x20 DUP3 ADD SWAP1 POP SWAP3 SWAP2 POP POP JUMP JUMPDEST PUSH0 DUP2 SWAP1 POP PUSH1 0x20 DUP3 ADD SWAP1 POP SWAP2 SWAP1 POP JUMP JUMPDEST PUSH2 0x2CA4 DUP2 PUSH2 0x2995 JUMP JUMPDEST DUP3 MSTORE POP POP JUMP JUMPDEST PUSH0 PUSH2 0x2CB5 DUP4 DUP4 PUSH2 0x2C9B JUMP JUMPDEST PUSH1 0x20 DUP4 ADD SWAP1 POP SWAP3 SWAP2 POP POP JUMP JUMPDEST PUSH0 PUSH1 0x20 DUP3 ADD SWAP1 POP SWAP2 SWAP1 POP JUMP JUMPDEST PUSH0 PUSH2 0x2CD7 DUP3 PUSH2 0x2C72 JUMP JUMPDEST PUSH2 0x2CE1 DUP2 DUP6 PUSH2 0x2C7C JUMP JUMPDEST SWAP4 POP PUSH2 0x2CEC DUP4 PUSH2 0x2C8C JUMP JUMPDEST DUP1 PUSH0 JUMPDEST DUP4 DUP2 LT ISZERO PUSH2 0x2D1C JUMPI DUP2 MLOAD PUSH2 0x2D03 DUP9 DUP3 PUSH2 0x2CAA JUMP JUMPDEST SWAP8 POP PUSH2 0x2D0E DUP4 PUSH2 0x2CC1 JUMP JUMPDEST SWAP3 POP POP PUSH1 0x1 DUP2 ADD SWAP1 POP PUSH2 0x2CEF JUMP JUMPDEST POP DUP6 SWAP4 POP POP POP POP SWAP3 SWAP2 POP POP JUMP JUMPDEST PUSH0 PUSH1 0x80 DUP3 ADD SWAP1 POP PUSH2 0x2D3C PUSH0 DUP4 ADD DUP8 PUSH2 0x29F3 JUMP JUMPDEST DUP2 DUP2 SUB PUSH1 0x20 DUP4 ADD MSTORE PUSH2 0x2D4E DUP2 DUP7 PUSH2 0x2CCD JUMP JUMPDEST SWAP1 POP DUP2 DUP2 SUB PUSH1 0x40 DUP4 ADD MSTORE PUSH2 0x2D62 DUP2 DUP6 PUSH2 0x2CCD JUMP JUMPDEST SWAP1 POP PUSH2 0x2D71 PUSH1 0x60 DUP4 ADD DUP5 PUSH2 0x29F3 JUMP JUMPDEST SWAP6 SWAP5 POP POP POP POP POP JUMP JUMPDEST PUSH0 DUP3 DUP3 MSTORE PUSH1 0x20 DUP3 ADD SWAP1 POP SWAP3 SWAP2 POP POP JUMP JUMPDEST PUSH32 0x416C726561647920726567697374657265640000000000000000000000000000 PUSH0 DUP3 ADD MSTORE POP JUMP JUMPDEST PUSH0 PUSH2 0x2DBE PUSH1 0x12 DUP4 PUSH2 0x2D7A JUMP JUMPDEST SWAP2 POP PUSH2 0x2DC9 DUP3 PUSH2 0x2D8A JUMP JUMPDEST PUSH1 0x20 DUP3 ADD SWAP1 POP SWAP2 SWAP1 POP JUMP JUMPDEST PUSH0 PUSH1 0x20 DUP3 ADD SWAP1 POP DUP2 DUP2 SUB PUSH0 DUP4 ADD MSTORE PUSH2 0x2DEB DUP2 PUSH2 0x2DB2 JUMP JUMPDEST SWAP1 POP SWAP2 SWAP1 POP JUMP JUMPDEST PUSH32 0x496E76616C696420526566657272657200000000000000000000000000000000 PUSH0 DUP3 ADD MSTORE POP JUMP JUMPDEST PUSH0 PUSH2 0x2E26 PUSH1 0x10 DUP4 PUSH2 0x2D7A JUMP JUMPDEST SWAP2 POP PUSH2 0x2E31 DUP3 PUSH2 0x2DF2 JUMP JUMPDEST PUSH1 0x20 DUP3 ADD SWAP1 POP SWAP2 SWAP1 POP JUMP JUMPDEST PUSH0 PUSH1 0x20 DUP3 ADD SWAP1 POP DUP2 DUP2 SUB PUSH0 DUP4 ADD MSTORE PUSH2 0x2E53 DUP2 PUSH2 0x2E1A JUMP JUMPDEST SWAP1 POP SWAP2 SWAP1 POP JUMP JUMPDEST PUSH32 0x4E487B7100000000000000000000000000000000000000000000000000000000 PUSH0 MSTORE PUSH1 0x32 PUSH1 0x4 MSTORE PUSH1 0x24 PUSH0 REVERT JUMPDEST PUSH0 PUSH1 0x60 DUP3 ADD SWAP1 POP PUSH2 0x2E9A PUSH0 DUP4 ADD DUP7 PUSH2 0x2A4B JUMP JUMPDEST PUSH2 0x2EA7 PUSH1 0x20 DUP4 ADD DUP6 PUSH2 0x2A4B JUMP JUMPDEST PUSH2 0x2EB4 PUSH1 0x40 DUP4 ADD DUP5 PUSH2 0x29F3 JUMP JUMPDEST SWAP5 SWAP4 POP POP POP POP JUMP JUMPDEST PUSH0 DUP2 ISZERO ISZERO SWAP1 POP SWAP2 SWAP1 POP JUMP JUMPDEST PUSH2 0x2ED0 DUP2 PUSH2 0x2EBC JUMP JUMPDEST DUP2 EQ PUSH2 0x2EDA JUMPI PUSH0 PUSH0 REVERT JUMPDEST POP JUMP JUMPDEST PUSH0 DUP2 MLOAD SWAP1 POP PUSH2 0x2EEB DUP2 PUSH2 0x2EC7 JUMP JUMPDEST SWAP3 SWAP2 POP POP JUMP JUMPDEST PUSH0 PUSH1 0x20 DUP3 DUP5 SUB SLT ISZERO PUSH2 0x2F06 JUMPI PUSH2 0x2F05 PUSH2 0x2991 JUMP JUMPDEST JUMPDEST PUSH0 PUSH2 0x2F13 DUP5 DUP3 DUP6 ADD PUSH2 0x2EDD JUMP JUMPDEST SWAP2 POP POP SWAP3 SWAP2 POP POP JUMP JUMPDEST PUSH32 0x55534454207472616E73666572206661696C6564000000000000000000000000 PUSH0 DUP3 ADD MSTORE POP JUMP JUMPDEST PUSH0 PUSH2 0x2F50 PUSH1 0x14 DUP4 PUSH2 0x2D7A JUMP JUMPDEST SWAP2 POP PUSH2 0x2F5B DUP3 PUSH2 0x2F1C JUMP JUMPDEST PUSH1 0x20 DUP3 ADD SWAP1 POP SWAP2 SWAP1 POP JUMP JUMPDEST PUSH0 PUSH1 0x20 DUP3 ADD SWAP1 POP DUP2 DUP2 SUB PUSH0 DUP4 ADD MSTORE PUSH2 0x2F7D DUP2 PUSH2 0x2F44 JUMP JUMPDEST SWAP1 POP SWAP2 SWAP1 POP JUMP JUMPDEST PUSH32 0x4E487B7100000000000000000000000000000000000000000000000000000000 PUSH0 MSTORE PUSH1 0x11 PUSH1 0x4 MSTORE PUSH1 0x24 PUSH0 REVERT JUMPDEST PUSH0 PUSH2 0x2FBB DUP3 PUSH2 0x2995 JUMP JUMPDEST SWAP2 POP PUSH32 0xFFFFFFFFFFFFFFFFFFFFFFFFFFFFFFFFFFFFFFFFFFFFFFFFFFFFFFFFFFFFFFFF DUP3 SUB PUSH2 0x2FED JUMPI PUSH2 0x2FEC PUSH2 0x2F84 JUMP JUMPDEST JUMPDEST PUSH1 0x1 DUP3 ADD SWAP1 POP SWAP2 SWAP1 POP JUMP JUMPDEST PUSH32 0x41646D696E206F6E6C7900000000000000000000000000000000000000000000 PUSH0 DUP3 ADD MSTORE POP JUMP JUMPDEST PUSH0 PUSH2 0x302C PUSH1 0xA DUP4 PUSH2 0x2D7A JUMP JUMPDEST SWAP2 POP PUSH2 0x3037 DUP3 PUSH2 0x2FF8 JUMP JUMPDEST PUSH1 0x20 DUP3 ADD SWAP1 POP SWAP2 SWAP1 POP JUMP JUMPDEST PUSH0 PUSH1 0x20 DUP3 ADD SWAP1 POP DUP2 DUP2 SUB PUSH0 DUP4 ADD MSTORE PUSH2 0x3059 DUP2 PUSH2 0x3020 JUMP JUMPDEST SWAP1 POP SWAP2 SWAP1 POP JUMP JUMPDEST PUSH32 0x496E73756666696369656E742066756E64730000000000000000000000000000 PUSH0 DUP3 ADD MSTORE POP JUMP JUMPDEST PUSH0 PUSH2 0x3094 PUSH1 0x12 DUP4 PUSH2 0x2D7A JUMP JUMPDEST SWAP2 POP PUSH2 0x309F DUP3 PUSH2 0x3060 JUMP JUMPDEST PUSH1 0x20 DUP3 ADD SWAP1 POP SWAP2 SWAP1 POP JUMP JUMPDEST PUSH0 PUSH1 0x20 DUP3 ADD SWAP1 POP DUP2 DUP2 SUB PUSH0 DUP4 ADD MSTORE PUSH2 0x30C1 DUP2 PUSH2 0x3088 JUMP JUMPDEST SWAP1 POP SWAP2 SWAP1 POP JUMP JUMPDEST PUSH0 PUSH2 0x30D2 DUP3 PUSH2 0x2995 JUMP JUMPDEST SWAP2 POP PUSH2 0x30DD DUP4 PUSH2 0x2995 JUMP JUMPDEST SWAP3 POP DUP3 DUP3 SUB SWAP1 POP DUP2 DUP2 GT ISZERO PUSH2 0x30F5 JUMPI PUSH2 0x30F4 PUSH2 0x2F84 JUMP JUMPDEST JUMPDEST SWAP3 SWAP2 POP POP JUMP JUMPDEST PUSH0 PUSH1 0x40 DUP3 ADD SWAP1 POP PUSH2 0x310E PUSH0 DUP4 ADD DUP6 PUSH2 0x2A4B JUMP JUMPDEST PUSH2 0x311B PUSH1 0x20 DUP4 ADD DUP5 PUSH2 0x29F3 JUMP JUMPDEST SWAP4 SWAP3 POP POP POP JUMP JUMPDEST PUSH32 0x5769746864726177206661696C65640000000000000000000000000000000000 PUSH0 DUP3 ADD MSTORE POP JUMP JUMPDEST PUSH0 PUSH2 0x3156 PUSH1 0xF DUP4 PUSH2 0x2D7A JUMP JUMPDEST SWAP2 POP PUSH2 0x3161 DUP3 PUSH2 0x3122 JUMP JUMPDEST PUSH1 0x20 DUP3 ADD SWAP1 POP SWAP2 SWAP1 POP JUMP JUMPDEST PUSH0 PUSH1 0x20 DUP3 ADD SWAP1 POP DUP2 DUP2 SUB PUSH0 DUP4 ADD MSTORE PUSH2 0x3183 DUP2 PUSH2 0x314A JUMP JUMPDEST SWAP1 POP SWAP2 SWAP1 POP JUMP JUMPDEST PUSH32 0x4E6F742072656769737465726564000000000000000000000000000000000000 PUSH0 DUP3 ADD MSTORE POP JUMP JUMPDEST PUSH0 PUSH2 0x31BE PUSH1 0xE DUP4 PUSH2 0x2D7A JUMP JUMPDEST SWAP2 POP PUSH2 0x31C9 DUP3 PUSH2 0x318A JUMP JUMPDEST PUSH1 0x20 DUP3 ADD SWAP1 POP SWAP2 SWAP1 POP JUMP JUMPDEST PUSH0 PUSH1 0x20 DUP3 ADD SWAP1 POP DUP2 DUP2 SUB PUSH0 DUP4 ADD MSTORE PUSH2 0x31EB DUP2 PUSH2 0x31B2 JUMP JUMPDEST SWAP1 POP SWAP2 SWAP1 POP JUMP JUMPDEST PUSH32 0x496E76616C6964204C6576656C00000000000000000000000000000000000000 PUSH0 DUP3 ADD MSTORE POP JUMP JUMPDEST PUSH0 PUSH2 0x3226 PUSH1 0xD DUP4 PUSH2 0x2D7A JUMP JUMPDEST SWAP2 POP PUSH2 0x3231 DUP3 PUSH2 0x31F2 JUMP JUMPDEST PUSH1 0x20 DUP3 ADD SWAP1 POP SWAP2 SWAP1 POP JUMP JUMPDEST PUSH0 PUSH1 0x20 DUP3 ADD SWAP1 POP DUP2 DUP2 SUB PUSH0 DUP4 ADD MSTORE PUSH2 0x3253 DUP2 PUSH2 0x321A JUMP JUMPDEST SWAP1 POP SWAP2 SWAP1 POP JUMP JUMPDEST PUSH32 0x4275792070726576696F7573206C6576656C2066697273740000000000000000 PUSH0 DUP3 ADD MSTORE POP JUMP JUMPDEST PUSH0 PUSH2 0x328E PUSH1 0x18 DUP4 PUSH2 0x2D7A JUMP JUMPDEST SWAP2 POP PUSH2 0x3299 DUP3 PUSH2 0x325A JUMP JUMPDEST PUSH1 0x20 DUP3 ADD SWAP1 POP SWAP2 SWAP1 POP JUMP JUMPDEST PUSH0 PUSH1 0x20 DUP3 ADD SWAP1 POP DUP2 DUP2 SUB PUSH0 DUP4 ADD MSTORE PUSH2 0x32BB DUP2 PUSH2 0x3282 JUMP JUMPDEST SWAP1 POP SWAP2 SWAP1 POP JUMP JUMPDEST PUSH32 0x4D75737420627579204C6576656C203120746F20636C61696D00000000000000 PUSH0 DUP3 ADD MSTORE POP JUMP JUMPDEST PUSH0 PUSH2 0x32F6 PUSH1 0x19 DUP4 PUSH2 0x2D7A JUMP JUMPDEST SWAP2 POP PUSH2 0x3301 DUP3 PUSH2 0x32C2 JUMP JUMPDEST PUSH1 0x20 DUP3 ADD SWAP1 POP SWAP2 SWAP1 POP JUMP JUMPDEST PUSH0 PUSH1 0x20 DUP3 ADD SWAP1 POP DUP2 DUP2 SUB PUSH0 DUP4 ADD MSTORE PUSH2 0x3323 DUP2 PUSH2 0x32EA JUMP JUMPDEST SWAP1 POP SWAP2 SWAP1 POP JUMP JUMPDEST PUSH0 PUSH2 0x3334 DUP3 PUSH2 0x2995 JUMP JUMPDEST SWAP2 POP PUSH2 0x333F DUP4 PUSH2 0x2995 JUMP JUMPDEST SWAP3 POP DUP3 DUP3 ADD SWAP1 POP DUP1 DUP3 GT ISZERO PUSH2 0x3357 JUMPI PUSH2 0x3356 PUSH2 0x2F84 JUMP JUMPDEST JUMPDEST SWAP3 SWAP2 POP POP JUMP JUMPDEST PUSH32 0x5761697420323468000000000000000000000000000000000000000000000000 PUSH0 DUP3 ADD MSTORE POP JUMP JUMPDEST PUSH0 PUSH2 0x3391 PUSH1 0x8 DUP4 PUSH2 0x2D7A JUMP JUMPDEST SWAP2 POP PUSH2 0x339C DUP3 PUSH2 0x335D JUMP JUMPDEST PUSH1 0x20 DUP3 ADD SWAP1 POP SWAP2 SWAP1 POP JUMP JUMPDEST PUSH0 PUSH1 0x20 DUP3 ADD SWAP1 POP DUP2 DUP2 SUB PUSH0 DUP4 ADD MSTORE PUSH2 0x33BE DUP2 PUSH2 0x3385 JUMP JUMPDEST SWAP1 POP SWAP2 SWAP1 POP JUMP JUMPDEST PUSH32 0x4D6178206C696D69742072656163686564000000000000000000000000000000 PUSH0 DUP3 ADD MSTORE POP JUMP JUMPDEST PUSH0 PUSH2 0x33F9 PUSH1 0x11 DUP4 PUSH2 0x2D7A JUMP JUMPDEST SWAP2 POP PUSH2 0x3404 DUP3 PUSH2 0x33C5 JUMP JUMPDEST PUSH1 0x20 DUP3 ADD SWAP1 POP SWAP2 SWAP1 POP JUMP JUMPDEST PUSH0 PUSH1 0x20 DUP3 ADD SWAP1 POP DUP2 DUP2 SUB PUSH0 DUP4 ADD MSTORE PUSH2 0x3426 DUP2 PUSH2 0x33ED JUMP JUMPDEST SWAP1 POP SWAP2 SWAP1 POP JUMP JUMPDEST PUSH32 0x506F6F6C20656D70747900000000000000000000000000000000000000000000 PUSH0 DUP3 ADD MSTORE POP JUMP JUMPDEST PUSH0 PUSH2 0x3461 PUSH1 0xA DUP4 PUSH2 0x2D7A JUMP JUMPDEST SWAP2 POP PUSH2 0x346C DUP3 PUSH2 0x342D JUMP JUMPDEST PUSH1 0x20 DUP3 ADD SWAP1 POP SWAP2 SWAP1 POP JUMP JUMPDEST PUSH0 PUSH1 0x20 DUP3 ADD SWAP1 POP DUP2 DUP2 SUB PUSH0 DUP4 ADD MSTORE PUSH2 0x348E DUP2 PUSH2 0x3455 JUMP JUMPDEST SWAP1 POP SWAP2 SWAP1 POP JUMP JUMPDEST PUSH32 0x4E487B7100000000000000000000000000000000000000000000000000000000 PUSH0 MSTORE PUSH1 0x12 PUSH1 0x4 MSTORE PUSH1 0x24 PUSH0 REVERT JUMPDEST PUSH0 PUSH2 0x34CC DUP3 PUSH2 0x2995 JUMP JUMPDEST SWAP2 POP PUSH2 0x34D7 DUP4 PUSH2 0x2995 JUMP JUMPDEST SWAP3 POP DUP3 PUSH2 0x34E7 JUMPI PUSH2 0x34E6 PUSH2 0x3495 JUMP JUMPDEST JUMPDEST DUP3 DUP3 DIV SWAP1 POP SWAP3 SWAP2 POP POP JUMP JUMPDEST PUSH32 0x436C61696D20616D6F756E7420746F6F20736D616C6C00000000000000000000 PUSH0 DUP3 ADD MSTORE POP JUMP JUMPDEST PUSH0 PUSH2 0x3526 PUSH1 0x16 DUP4 PUSH2 0x2D7A JUMP JUMPDEST SWAP2 POP PUSH2 0x3531 DUP3 PUSH2 0x34F2 JUMP JUMPDEST PUSH1 0x20 DUP3 ADD SWAP1 POP SWAP2 SWAP1 POP JUMP JUMPDEST PUSH0 PUSH1 0x20 DUP3 ADD SWAP1 POP DUP2 DUP2 SUB PUSH0 DUP4 ADD MSTORE PUSH2 0x3553 DUP2 PUSH2 0x351A JUMP JUMPDEST SWAP1 POP SWAP2 SWAP1 POP JUMP JUMPDEST PUSH32 0x55534454205472616E73666572206661696C6564000000000000000000000000 PUSH0 DUP3 ADD MSTORE POP JUMP JUMPDEST PUSH0 PUSH2 0x358E PUSH1 0x14 DUP4 PUSH2 0x2D7A JUMP JUMPDEST SWAP2 POP PUSH2 0x3599 DUP3 PUSH2 0x355A JUMP JUMPDEST PUSH1 0x20 DUP3 ADD SWAP1 POP SWAP2 SWAP1 POP JUMP JUMPDEST PUSH0 PUSH1 0x20 DUP3 ADD SWAP1 POP DUP2 DUP2 SUB PUSH0 DUP4 ADD MSTORE PUSH2 0x35BB DUP2 PUSH2 0x3582 JUMP JUMPDEST SWAP1 POP SWAP2 SWAP1 POP JUMP JUMPDEST PUSH0 DUP2 MLOAD SWAP1 POP PUSH2 0x35D0 DUP2 PUSH2 0x299E JUMP JUMPDEST SWAP3 SWAP2 POP POP JUMP JUMPDEST PUSH0 PUSH1 0x20 DUP3 DUP5 SUB SLT ISZERO PUSH2 0x35EB JUMPI PUSH2 0x35EA PUSH2 0x2991 JUMP JUMPDEST JUMPDEST PUSH0 PUSH2 0x35F8 DUP5 DUP3 DUP6 ADD PUSH2 0x35C2 JUMP JUMPDEST SWAP2 POP POP SWAP3 SWAP2 POP POP JUMP JUMPDEST PUSH32 0x5265636F766572656420537475636B2046756E64730000000000000000000000 PUSH0 DUP3 ADD MSTORE POP JUMP JUMPDEST PUSH0 PUSH2 0x3635 PUSH1 0x15 DUP4 PUSH2 0x2D7A JUMP JUMPDEST SWAP2 POP PUSH2 0x3640 DUP3 PUSH2 0x3601 JUMP JUMPDEST PUSH1 0x20 DUP3 ADD SWAP1 POP SWAP2 SWAP1 POP JUMP JUMPDEST PUSH0 PUSH1 0x40 DUP3 ADD SWAP1 POP DUP2 DUP2 SUB PUSH0 DUP4 ADD MSTORE PUSH2 0x3662 DUP2 PUSH2 0x3629 JUMP JUMPDEST SWAP1 POP PUSH2 0x3671 PUSH1 0x20 DUP4 ADD DUP5 PUSH2 0x29F3 JUMP JUMPDEST SWAP3 SWAP2 POP POP JUMP JUMPDEST PUSH32 0x41646D696E204F6E6C7900000000000000000000000000000000000000000000 PUSH0 DUP3 ADD MSTORE POP JUMP JUMPDEST PUSH0 PUSH2 0x36AB PUSH1 0xA DUP4 PUSH2 0x2D7A JUMP JUMPDEST SWAP2 POP PUSH2 0x36B6 DUP3 PUSH2 0x3677 JUMP JUMPDEST PUSH1 0x20 DUP3 ADD SWAP1 POP SWAP2 SWAP1 POP JUMP JUMPDEST PUSH0 PUSH1 0x20 DUP3 ADD SWAP1 POP DUP2 DUP2 SUB PUSH0 DUP4 ADD MSTORE PUSH2 0x36D8 DUP2 PUSH2 0x369F JUMP JUMPDEST SWAP1 POP SWAP2 SWAP1 POP JUMP JUMPDEST PUSH32 0x55736572206E6F7420666F756E64000000000000000000000000000000000000 PUSH0 DUP3 ADD MSTORE POP JUMP JUMPDEST PUSH0 PUSH2 0x3713 PUSH1 0xE DUP4 PUSH2 0x2D7A JUMP JUMPDEST SWAP2 POP PUSH2 0x371E DUP3 PUSH2 0x36DF JUMP JUMPDEST PUSH1 0x20 DUP3 ADD SWAP1 POP SWAP2 SWAP1 POP JUMP JUMPDEST PUSH0 PUSH1 0x20 DUP3 ADD SWAP1 POP DUP2 DUP2 SUB PUSH0 DUP4 ADD MSTORE PUSH2 0x3740 DUP2 PUSH2 0x3707 JUMP JUMPDEST SWAP1 POP SWAP2 SWAP1 POP JUMP JUMPDEST PUSH0 PUSH2 0x3751 DUP3 PUSH2 0x2995 JUMP JUMPDEST SWAP2 POP PUSH2 0x375C DUP4 PUSH2 0x2995 JUMP JUMPDEST SWAP3 POP DUP3 DUP3 MUL PUSH2 0x376A DUP2 PUSH2 0x2995 JUMP JUMPDEST SWAP2 POP DUP3 DUP3 DIV DUP5 EQ DUP4 ISZERO OR PUSH2 0x3781 JUMPI PUSH2 0x3780 PUSH2 0x2F84 JUMP JUMPDEST JUMPDEST POP SWAP3 SWAP2 POP POP JUMP JUMPDEST PUSH32 0x4469726563742053706F6E736F72202854657374290000000000000000000000 PUSH0 DUP3 ADD MSTORE POP JUMP JUMPDEST PUSH0 PUSH2 0x37BC PUSH1 0x15 DUP4 PUSH2 0x2D7A JUMP JUMPDEST SWAP2 POP PUSH2 0x37C7 DUP3 PUSH2 0x3788 JUMP JUMPDEST PUSH1 0x20 DUP3 ADD SWAP1 POP SWAP2 SWAP1 POP JUMP JUMPDEST PUSH0 PUSH1 0x40 DUP3 ADD SWAP1 POP PUSH2 0x37E5 PUSH0 DUP4 ADD DUP5 PUSH2 0x29F3 JUMP JUMPDEST DUP2 DUP2 SUB PUSH1 0x20 DUP4 ADD MSTORE PUSH2 0x37F6 DUP2 PUSH2 0x37B0 JUMP JUMPDEST SWAP1 POP SWAP3 SWAP2 POP POP JUMP JUMPDEST PUSH32 0x496E76616C696420616464726573730000000000000000000000000000000000 PUSH0 DUP3 ADD MSTORE POP JUMP JUMPDEST PUSH0 PUSH2 0x3832 PUSH1 0xF DUP4 PUSH2 0x2D7A JUMP JUMPDEST SWAP2 POP PUSH2 0x383D DUP3 PUSH2 0x37FE JUMP JUMPDEST PUSH1 0x20 DUP3 ADD SWAP1 POP SWAP2 SWAP1 POP JUMP JUMPDEST PUSH0 PUSH1 0x20 DUP3 ADD SWAP1 POP DUP2 DUP2 SUB PUSH0 DUP4 ADD MSTORE PUSH2 0x385F DUP2 PUSH2 0x3826 JUMP JUMPDEST SWAP1 POP SWAP2 SWAP1 POP JUMP JUMPDEST PUSH32 0x4164647265737320616C72656164792072656769737465726564000000000000 PUSH0 DUP3 ADD MSTORE POP JUMP JUMPDEST PUSH0 PUSH2 0x389A PUSH1 0x1A DUP4 PUSH2 0x2D7A JUMP JUMPDEST SWAP2 POP PUSH2 0x38A5 DUP3 PUSH2 0x3866 JUMP JUMPDEST PUSH1 0x20 DUP3 ADD SWAP1 POP SWAP2 SWAP1 POP JUMP JUMPDEST PUSH0 PUSH1 0x20 DUP3 ADD SWAP1 POP DUP2 DUP2 SUB PUSH0 DUP4 ADD MSTORE PUSH2 0x38C7 DUP2 PUSH2 0x388E JUMP JUMPDEST SWAP1 POP SWAP2 SWAP1 POP JUMP JUMPDEST PUSH32 0x556E636C61696D65642047656E65726174696F6E205265776172647300000000 PUSH0 DUP3 ADD MSTORE POP JUMP JUMPDEST PUSH0 PUSH2 0x3902 PUSH1 0x1C DUP4 PUSH2 0x2D7A JUMP JUMPDEST SWAP2 POP PUSH2 0x390D DUP3 PUSH2 0x38CE JUMP JUMPDEST PUSH1 0x20 DUP3 ADD SWAP1 POP SWAP2 SWAP1 POP JUMP JUMPDEST PUSH0 PUSH1 0x40 DUP3 ADD SWAP1 POP DUP2 DUP2 SUB PUSH0 DUP4 ADD MSTORE PUSH2 0x392F DUP2 PUSH2 0x38F6 JUMP JUMPDEST SWAP1 POP PUSH2 0x393E PUSH1 0x20 DUP4 ADD DUP5 PUSH2 0x29F3 JUMP JUMPDEST SWAP3 SWAP2 POP POP JUMP JUMPDEST PUSH32 0x526F79616C74792046756E640000000000000000000000000000000000000000 PUSH0 DUP3 ADD MSTORE POP JUMP JUMPDEST PUSH0 PUSH2 0x3978 PUSH1 0xC DUP4 PUSH2 0x2D7A JUMP JUMPDEST SWAP2 POP PUSH2 0x3983 DUP3 PUSH2 0x3944 JUMP JUMPDEST PUSH1 0x20 DUP3 ADD SWAP1 POP SWAP2 SWAP1 POP JUMP JUMPDEST PUSH0 PUSH1 0x40 DUP3 ADD SWAP1 POP DUP2 DUP2 SUB PUSH0 DUP4 ADD MSTORE PUSH2 0x39A5 DUP2 PUSH2 0x396C JUMP JUMPDEST SWAP1 POP PUSH2 0x39B4 PUSH1 0x20 DUP4 ADD DUP5 PUSH2 0x29F3 JUMP JUMPDEST SWAP3 SWAP2 POP POP JUMP JUMPDEST PUSH32 0x5A65726F205269736B2046756E64000000000000000000000000000000000000 PUSH0 DUP3 ADD MSTORE POP JUMP JUMPDEST PUSH0 PUSH2 0x39EE PUSH1 0xE DUP4 PUSH2 0x2D7A JUMP JUMPDEST SWAP2 POP PUSH2 0x39F9 DUP3 PUSH2 0x39BA JUMP JUMPDEST PUSH1 0x20 DUP3 ADD SWAP1 POP SWAP2 SWAP1 POP JUMP JUMPDEST PUSH0 PUSH1 0x40 DUP3 ADD SWAP1 POP DUP2 DUP2 SUB PUSH0 DUP4 ADD MSTORE PUSH2 0x3A1B DUP2 PUSH2 0x39E2 JUMP JUMPDEST SWAP1 POP PUSH2 0x3A2A PUSH1 0x20 DUP4 ADD DUP5 PUSH2 0x29F3 JUMP JUMPDEST SWAP3 SWAP2 POP POP JUMP JUMPDEST PUSH0 DUP2 MLOAD SWAP1 POP SWAP2 SWAP1 POP JUMP JUMPDEST PUSH0 DUP2 SWAP1 POP SWAP3 SWAP2 POP POP JUMP JUMPDEST DUP3 DUP2 DUP4 MCOPY PUSH0 DUP4 DUP4 ADD MSTORE POP POP POP JUMP JUMPDEST PUSH0 PUSH2 0x3A5C DUP3 PUSH2 0x3A30 JUMP JUMPDEST PUSH2 0x3A66 DUP2 DUP6 PUSH2 0x3A3A JUMP JUMPDEST SWAP4 POP PUSH2 0x3A76 DUP2 DUP6 PUSH1 0x20 DUP7 ADD PUSH2 0x3A44 JUMP JUMPDEST DUP1 DUP5 ADD SWAP2 POP POP SWAP3 SWAP2 POP POP JUMP JUMPDEST PUSH32 0x2028496E76616C69642041646472657373290000000000000000000000000000 PUSH0 DUP3 ADD MSTORE POP JUMP JUMPDEST PUSH0 PUSH2 0x3AB6 PUSH1 0x12 DUP4 PUSH2 0x3A3A JUMP JUMPDEST SWAP2 POP PUSH2 0x3AC1 DUP3 PUSH2 0x3A82 JUMP JUMPDEST PUSH1 0x12 DUP3 ADD SWAP1 POP SWAP2 SWAP1 POP JUMP JUMPDEST PUSH0 PUSH2 0x3AD7 DUP3 DUP5 PUSH2 0x3A52 JUMP JUMPDEST SWAP2 POP PUSH2 0x3AE2 DUP3 PUSH2 0x3AAA JUMP JUMPDEST SWAP2 POP DUP2 SWAP1 POP SWAP3 SWAP2 POP POP JUMP JUMPDEST PUSH0 PUSH1 0x1F NOT PUSH1 0x1F DUP4 ADD AND SWAP1 POP SWAP2 SWAP1 POP JUMP JUMPDEST PUSH0 PUSH2 0x3B07 DUP3 PUSH2 0x3A30 JUMP JUMPDEST PUSH2 0x3B11 DUP2 DUP6 PUSH2 0x2D7A JUMP JUMPDEST SWAP4 POP PUSH2 0x3B21 DUP2 DUP6 PUSH1 0x20 DUP7 ADD PUSH2 0x3A44 JUMP JUMPDEST PUSH2 0x3B2A DUP2 PUSH2 0x3AED JUMP JUMPDEST DUP5 ADD SWAP2 POP POP SWAP3 SWAP2 POP POP JUMP JUMPDEST PUSH0 PUSH1 0x40 DUP3 ADD SWAP1 POP PUSH2 0x3B48 PUSH0 DUP4 ADD DUP6 PUSH2 0x29F3 JUMP JUMPDEST DUP2 DUP2 SUB PUSH1 0x20 DUP4 ADD MSTORE PUSH2 0x3B5A DUP2 DUP5 PUSH2 0x3AFD JUMP JUMPDEST SWAP1 POP SWAP4 SWAP3 POP POP POP JUMP JUMPDEST PUSH32 0x4D6174726978204F766572666C6F772053616665636174636800000000000000 PUSH0 DUP3 ADD MSTORE POP JUMP JUMPDEST PUSH0 PUSH2 0x3B97 PUSH1 0x19 DUP4 PUSH2 0x2D7A JUMP JUMPDEST SWAP2 POP PUSH2 0x3BA2 DUP3 PUSH2 0x3B63 JUMP JUMPDEST PUSH1 0x20 DUP3 ADD SWAP1 POP SWAP2 SWAP1 POP JUMP JUMPDEST PUSH0 PUSH1 0x40 DUP3 ADD SWAP1 POP DUP2 DUP2 SUB PUSH0 DUP4 ADD MSTORE PUSH2 0x3BC4 DUP2 PUSH2 0x3B8B JUMP JUMPDEST SWAP1 POP PUSH2 0x3BD3 PUSH1 0x20 DUP4 ADD DUP5 PUSH2 0x29F3 JUMP JUMPDEST SWAP3 SWAP2 POP POP JUMP JUMPDEST PUSH32 0x41646D696E2052656379636C6520496E636F6D65000000000000000000000000 PUSH0 DUP3 ADD MSTORE POP JUMP JUMPDEST PUSH0 PUSH2 0x3C0D PUSH1 0x14 DUP4 PUSH2 0x2D7A JUMP JUMPDEST SWAP2 POP PUSH2 0x3C18 DUP3 PUSH2 0x3BD9 JUMP JUMPDEST PUSH1 0x20 DUP3 ADD SWAP1 POP SWAP2 SWAP1 POP JUMP JUMPDEST PUSH0 PUSH1 0x40 DUP3 ADD SWAP1 POP DUP2 DUP2 SUB PUSH0 DUP4 ADD MSTORE PUSH2 0x3C3A DUP2 PUSH2 0x3C01 JUMP JUMPDEST SWAP1 POP PUSH2 0x3C49 PUSH1 0x20 DUP4 ADD DUP5 PUSH2 0x29F3 JUMP JUMPDEST SWAP3 SWAP2 POP POP JUMP JUMPDEST PUSH32 0x4D61782052656379636C65204465707468205361666563617463680000000000 PUSH0 DUP3 ADD MSTORE POP JUMP JUMPDEST PUSH0 PUSH2 0x3C83 PUSH1 0x1B DUP4 PUSH2 0x2D7A JUMP JUMPDEST SWAP2 POP PUSH2 0x3C8E DUP3 PUSH2 0x3C4F JUMP JUMPDEST PUSH1 0x20 DUP3 ADD SWAP1 POP SWAP2 SWAP1 POP JUMP JUMPDEST PUSH0 PUSH1 0x40 DUP3 ADD SWAP1 POP DUP2 DUP2 SUB PUSH0 DUP4 ADD MSTORE PUSH2 0x3CB0 DUP2 PUSH2 0x3C77 JUMP JUMPDEST SWAP1 POP PUSH2 0x3CBF PUSH1 0x20 DUP4 ADD DUP5 PUSH2 0x29F3 JUMP JUMPDEST SWAP3 SWAP2 POP POP JUMP INVALID LOG2 PUSH5 0x6970667358 0x22 SLT KECCAK256 PUSH12 0x353FB20FB34B74BCBC4535E5 0xD5 PUSH10 0x8ABC5CDCB9F13E83DC11 PREVRANDAO CALLER SWAP6 MOD RETURNCONTRACT 0xAE DUP7 PUSH5 0x736F6C6343 STOP ADDMOD 0x1F STOP CALLER "
		},
		"gasEstimates": {
			"creation": {
				"codeDepositCost": "3122200",
				"executionCost": "infinite",
				"totalCost": "infinite"
			},
			"external": {
				"ADMIN_ID()": "370",
				"ZERO_RISK_CAP()": "392",
				"ZERO_RISK_DAILY_LIMIT()": "458",
				"addressToId(address)": "2913",
				"adminActivateSlot(uint256,uint256)": "infinite",
				"adminExtractStuckFunds()": "infinite",
				"adminWithdrawRoyalty(uint256)": "infinite",
				"basicRegistration(uint256)": "infinite",
				"buyNewLevel(uint256)": "infinite",
				"claimZeroRisk()": "infinite",
				"getMatrixInfo(uint256,uint256)": "infinite",
				"getUserInfo(uint256)": "infinite",
				"lastUserId()": "2471",
				"owner()": "2531",
				"packagePrice(uint256)": "infinite",
				"registration(uint256)": "infinite",
				"royaltyFundBalance()": "2536",
				"totalPayingUsers()": "2513",
				"totalRegisteredUsers()": "2537",
				"transferOwnership(address)": "86814",
				"usdtToken()": "infinite",
				"users(uint256)": "infinite",
				"zeroRiskFundBalance()": "2492"
			},
			"internal": {
				"buyPackageLogic(uint256,uint256,uint256)": "infinite",
				"findActiveReferrer(uint256,uint256)": "infinite",
				"handleMatrix(uint256,uint256,uint256,uint256)": "infinite",
				"handleRecycle(uint256,uint256,uint256)": "infinite",
				"sendMoney(uint256,uint256,string memory)": "infinite",
				"updateMatrix(uint256,uint256,uint256,uint256)": "infinite"
			}
		},
		"methodIdentifiers": {
			"ADMIN_ID()": "971a6720",
			"ZERO_RISK_CAP()": "433fc828",
			"ZERO_RISK_DAILY_LIMIT()": "86e95fdf",
			"addressToId(address)": "cb0e0d7d",
			"adminActivateSlot(uint256,uint256)": "eadadf44",
			"adminExtractStuckFunds()": "e80e4c9f",
			"adminWithdrawRoyalty(uint256)": "40f60304",
			"basicRegistration(uint256)": "3c99092b",
			"buyNewLevel(uint256)": "5396db9d",
			"claimZeroRisk()": "e54189fc",
			"getMatrixInfo(uint256,uint256)": "e4d3cc50",
			"getUserInfo(uint256)": "d379dadf",
			"lastUserId()": "348d4487",
			"owner()": "8da5cb5b",
			"packagePrice(uint256)": "20fe8e6e",
			"registration(uint256)": "3516dcd1",
			"royaltyFundBalance()": "5e9b3882",
			"totalPayingUsers()": "e9d9e13f",
			"totalRegisteredUsers()": "3c7afca5",
			"transferOwnership(address)": "f2fde38b",
			"usdtToken()": "a98ad46c",
			"users(uint256)": "365b98b2",
			"zeroRiskFundBalance()": "a11ee6f8"
		}
	},
	"abi": [
		{
			"inputs": [
				{
					"internalType": "address",
					"name": "_usdtAddress",
					"type": "address"
				}
			],
			"stateMutability": "nonpayable",
			"type": "constructor"
		},
		{
			"anonymous": false,
			"inputs": [
				{
					"indexed": false,
					"internalType": "string",
					"name": "fundName",
					"type": "string"
				},
				{
					"indexed": false,
					"internalType": "uint256",
					"name": "amount",
					"type": "uint256"
				}
			],
			"name": "FundCredit",
			"type": "event"
		},
		{
			"anonymous": false,
			"inputs": [
				{
					"indexed": true,
					"internalType": "uint256",
					"name": "userId",
					"type": "uint256"
				},
				{
					"indexed": true,
					"internalType": "uint256",
					"name": "level",
					"type": "uint256"
				},
				{
					"indexed": false,
					"internalType": "uint256",
					"name": "recycleCount",
					"type": "uint256"
				}
			],
			"name": "MatrixRecycle",
			"type": "event"
		},
		{
			"anonymous": false,
			"inputs": [
				{
					"indexed": true,
					"internalType": "address",
					"name": "previousOwner",
					"type": "address"
				},
				{
					"indexed": true,
					"internalType": "address",
					"name": "newOwner",
					"type": "address"
				}
			],
			"name": "OwnershipTransferred",
			"type": "event"
		},
		{
			"anonymous": false,
			"inputs": [
				{
					"indexed": true,
					"internalType": "uint256",
					"name": "userId",
					"type": "uint256"
				},
				{
					"indexed": true,
					"internalType": "uint256",
					"name": "level",
					"type": "uint256"
				},
				{
					"indexed": false,
					"internalType": "uint256",
					"name": "amount",
					"type": "uint256"
				}
			],
			"name": "PackagePurchased",
			"type": "event"
		},
		{
			"anonymous": false,
			"inputs": [
				{
					"indexed": true,
					"internalType": "uint256",
					"name": "userId",
					"type": "uint256"
				},
				{
					"indexed": false,
					"internalType": "uint256",
					"name": "amount",
					"type": "uint256"
				},
				{
					"indexed": false,
					"internalType": "string",
					"name": "reason",
					"type": "string"
				}
			],
			"name": "Payout",
			"type": "event"
		},
		{
			"anonymous": false,
			"inputs": [
				{
					"indexed": true,
					"internalType": "uint256",
					"name": "userId",
					"type": "uint256"
				},
				{
					"indexed": false,
					"internalType": "uint256",
					"name": "amount",
					"type": "uint256"
				},
				{
					"indexed": false,
					"internalType": "string",
					"name": "reason",
					"type": "string"
				}
			],
			"name": "PayoutFailed",
			"type": "event"
		},
		{
			"anonymous": false,
			"inputs": [
				{
					"indexed": true,
					"internalType": "address",
					"name": "user",
					"type": "address"
				},
				{
					"indexed": true,
					"internalType": "uint256",
					"name": "referrerId",
					"type": "uint256"
				},
				{
					"indexed": false,
					"internalType": "uint256",
					"name": "userId",
					"type": "uint256"
				}
			],
			"name": "Registration",
			"type": "event"
		},
		{
			"anonymous": false,
			"inputs": [
				{
					"indexed": true,
					"internalType": "uint256",
					"name": "userId",
					"type": "uint256"
				},
				{
					"indexed": false,
					"internalType": "uint256",
					"name": "level",
					"type": "uint256"
				}
			],
			"name": "TestingDollarUsed",
			"type": "event"
		},
		{
			"anonymous": false,
			"inputs": [
				{
					"indexed": true,
					"internalType": "uint256",
					"name": "userId",
					"type": "uint256"
				},
				{
					"indexed": false,
					"internalType": "uint256",
					"name": "amount",
					"type": "uint256"
				}
			],
			"name": "ZeroRiskClaim",
			"type": "event"
		},
		{
			"inputs": [],
			"name": "ADMIN_ID",
			"outputs": [
				{
					"internalType": "uint256",
					"name": "",
					"type": "uint256"
				}
			],
			"stateMutability": "view",
			"type": "function"
		},
		{
			"inputs": [],
			"name": "ZERO_RISK_CAP",
			"outputs": [
				{
					"internalType": "uint256",
					"name": "",
					"type": "uint256"
				}
			],
			"stateMutability": "view",
			"type": "function"
		},
		{
			"inputs": [],
			"name": "ZERO_RISK_DAILY_LIMIT",
			"outputs": [
				{
					"internalType": "uint256",
					"name": "",
					"type": "uint256"
				}
			],
			"stateMutability": "view",
			"type": "function"
		},
		{
			"inputs": [
				{
					"internalType": "address",
					"name": "",
					"type": "address"
				}
			],
			"name": "addressToId",
			"outputs": [
				{
					"internalType": "uint256",
					"name": "",
					"type": "uint256"
				}
			],
			"stateMutability": "view",
			"type": "function"
		},
		{
			"inputs": [
				{
					"internalType": "uint256",
					"name": "_userId",
					"type": "uint256"
				},
				{
					"internalType": "uint256",
					"name": "_level",
					"type": "uint256"
				}
			],
			"name": "adminActivateSlot",
			"outputs": [],
			"stateMutability": "nonpayable",
			"type": "function"
		},
		{
			"inputs": [],
			"name": "adminExtractStuckFunds",
			"outputs": [],
			"stateMutability": "nonpayable",
			"type": "function"
		},
		{
			"inputs": [
				{
					"internalType": "uint256",
					"name": "_amount",
					"type": "uint256"
				}
			],
			"name": "adminWithdrawRoyalty",
			"outputs": [],
			"stateMutability": "nonpayable",
			"type": "function"
		},
		{
			"inputs": [
				{
					"internalType": "uint256",
					"name": "_referrerId",
					"type": "uint256"
				}
			],
			"name": "basicRegistration",
			"outputs": [],
			"stateMutability": "nonpayable",
			"type": "function"
		},
		{
			"inputs": [
				{
					"internalType": "uint256",
					"name": "_level",
					"type": "uint256"
				}
			],
			"name": "buyNewLevel",
			"outputs": [],
			"stateMutability": "nonpayable",
			"type": "function"
		},
		{
			"inputs": [],
			"name": "claimZeroRisk",
			"outputs": [],
			"stateMutability": "nonpayable",
			"type": "function"
		},
		{
			"inputs": [
				{
					"internalType": "uint256",
					"name": "_userId",
					"type": "uint256"
				},
				{
					"internalType": "uint256",
					"name": "_level",
					"type": "uint256"
				}
			],
			"name": "getMatrixInfo",
			"outputs": [
				{
					"internalType": "uint256",
					"name": "currentReferrer",
					"type": "uint256"
				},
				{
					"internalType": "uint256[]",
					"name": "firstLevel",
					"type": "uint256[]"
				},
				{
					"internalType": "uint256[]",
					"name": "secondLevel",
					"type": "uint256[]"
				},
				{
					"internalType": "uint256",
					"name": "recycleCount",
					"type": "uint256"
				}
			],
			"stateMutability": "view",
			"type": "function"
		},
		{
			"inputs": [
				{
					"internalType": "uint256",
					"name": "_userId",
					"type": "uint256"
				}
			],
			"name": "getUserInfo",
			"outputs": [
				{
					"internalType": "address",
					"name": "wallet",
					"type": "address"
				},
				{
					"internalType": "uint256",
					"name": "referrerId",
					"type": "uint256"
				},
				{
					"internalType": "uint256",
					"name": "totalEarnings",
					"type": "uint256"
				},
				{
					"internalType": "uint256",
					"name": "totalTeamSize",
					"type": "uint256"
				},
				{
					"internalType": "uint256",
					"name": "activeTeamSize",
					"type": "uint256"
				},
				{
					"internalType": "uint256",
					"name": "activeLevelsCount",
					"type": "uint256"
				},
				{
					"internalType": "uint256",
					"name": "earnedFromZeroRisk",
					"type": "uint256"
				}
			],
			"stateMutability": "view",
			"type": "function"
		},
		{
			"inputs": [],
			"name": "lastUserId",
			"outputs": [
				{
					"internalType": "uint256",
					"name": "",
					"type": "uint256"
				}
			],
			"stateMutability": "view",
			"type": "function"
		},
		{
			"inputs": [],
			"name": "owner",
			"outputs": [
				{
					"internalType": "address",
					"name": "",
					"type": "address"
				}
			],
			"stateMutability": "view",
			"type": "function"
		},
		{
			"inputs": [
				{
					"internalType": "uint256",
					"name": "",
					"type": "uint256"
				}
			],
			"name": "packagePrice",
			"outputs": [
				{
					"internalType": "uint256",
					"name": "",
					"type": "uint256"
				}
			],
			"stateMutability": "view",
			"type": "function"
		},
		{
			"inputs": [
				{
					"internalType": "uint256",
					"name": "_referrerId",
					"type": "uint256"
				}
			],
			"name": "registration",
			"outputs": [],
			"stateMutability": "nonpayable",
			"type": "function"
		},
		{
			"inputs": [],
			"name": "royaltyFundBalance",
			"outputs": [
				{
					"internalType": "uint256",
					"name": "",
					"type": "uint256"
				}
			],
			"stateMutability": "view",
			"type": "function"
		},
		{
			"inputs": [],
			"name": "totalPayingUsers",
			"outputs": [
				{
					"internalType": "uint256",
					"name": "",
					"type": "uint256"
				}
			],
			"stateMutability": "view",
			"type": "function"
		},
		{
			"inputs": [],
			"name": "totalRegisteredUsers",
			"outputs": [
				{
					"internalType": "uint256",
					"name": "",
					"type": "uint256"
				}
			],
			"stateMutability": "view",
			"type": "function"
		},
		{
			"inputs": [
				{
					"internalType": "address",
					"name": "newOwner",
					"type": "address"
				}
			],
			"name": "transferOwnership",
			"outputs": [],
			"stateMutability": "nonpayable",
			"type": "function"
		},
		{
			"inputs": [],
			"name": "usdtToken",
			"outputs": [
				{
					"internalType": "contract IERC20",
					"name": "",
					"type": "address"
				}
			],
			"stateMutability": "view",
			"type": "function"
		},
		{
			"inputs": [
				{
					"internalType": "uint256",
					"name": "",
					"type": "uint256"
				}
			],
			"name": "users",
			"outputs": [
				{
					"internalType": "uint256",
					"name": "id",
					"type": "uint256"
				},
				{
					"internalType": "address",
					"name": "wallet",
					"type": "address"
				},
				{
					"internalType": "uint256",
					"name": "referrerId",
					"type": "uint256"
				},
				{
					"internalType": "uint256",
					"name": "totalEarnings",
					"type": "uint256"
				},
				{
					"internalType": "uint256",
					"name": "earnedFromZeroRisk",
					"type": "uint256"
				},
				{
					"internalType": "uint256",
					"name": "lastZeroRiskClaim",
					"type": "uint256"
				},
				{
					"internalType": "uint256",
					"name": "totalTeamSize",
					"type": "uint256"
				},
				{
					"internalType": "uint256",
					"name": "activeTeamSize",
					"type": "uint256"
				},
				{
					"internalType": "uint256",
					"name": "activeLevelsCount",
					"type": "uint256"
				}
			],
			"stateMutability": "view",
			"type": "function"
		},
		{
			"inputs": [],
			"name": "zeroRiskFundBalance",
			"outputs": [
				{
					"internalType": "uint256",
					"name": "",
					"type": "uint256"
				}
			],
			"stateMutability": "view",
			"type": "function"
		}
	]
}